{
  "_format": "hh-sol-artifact-1",
  "contractName": "WBTC",
  "sourceName": "contracts/WBTC.sol",
  "abi": [
    {
      "inputs": [],
      "stateMutability": "nonpayable",
      "type": "constructor"
    },
    {
      "anonymous": false,
      "inputs": [
        {
          "indexed": true,
          "internalType": "address",
          "name": "owner",
          "type": "address"
        },
        {
          "indexed": true,
          "internalType": "address",
          "name": "spender",
          "type": "address"
        },
        {
          "indexed": false,
          "internalType": "uint256",
          "name": "value",
          "type": "uint256"
        }
      ],
      "name": "Approval",
      "type": "event"
    },
    {
      "anonymous": false,
      "inputs": [
        {
          "indexed": true,
          "internalType": "address",
          "name": "from",
          "type": "address"
        },
        {
          "indexed": false,
          "internalType": "address",
          "name": "to",
          "type": "address"
        }
      ],
      "name": "MinterChange",
      "type": "event"
    },
    {
      "anonymous": false,
      "inputs": [
        {
          "indexed": true,
          "internalType": "address",
          "name": "from",
          "type": "address"
        },
        {
          "indexed": true,
          "internalType": "address",
          "name": "to",
          "type": "address"
        },
        {
          "indexed": false,
          "internalType": "uint256",
          "name": "value",
          "type": "uint256"
        }
      ],
      "name": "Transfer",
      "type": "event"
    },
    {
      "inputs": [
        {
          "internalType": "address",
          "name": "owner",
          "type": "address"
        },
        {
          "internalType": "address",
          "name": "spender",
          "type": "address"
        }
      ],
      "name": "allowance",
      "outputs": [
        {
          "internalType": "uint256",
          "name": "",
          "type": "uint256"
        }
      ],
      "stateMutability": "view",
      "type": "function"
    },
    {
      "inputs": [
        {
          "internalType": "address",
          "name": "spender",
          "type": "address"
        },
        {
          "internalType": "uint256",
          "name": "amount",
          "type": "uint256"
        }
      ],
      "name": "approve",
      "outputs": [
        {
          "internalType": "bool",
          "name": "",
          "type": "bool"
        }
      ],
      "stateMutability": "nonpayable",
      "type": "function"
    },
    {
      "inputs": [
        {
          "internalType": "address",
          "name": "account",
          "type": "address"
        }
      ],
      "name": "balanceOf",
      "outputs": [
        {
          "internalType": "uint256",
          "name": "",
          "type": "uint256"
        }
      ],
      "stateMutability": "view",
      "type": "function"
    },
    {
      "inputs": [],
      "name": "decimals",
      "outputs": [
        {
          "internalType": "uint8",
          "name": "",
          "type": "uint8"
        }
      ],
      "stateMutability": "view",
      "type": "function"
    },
    {
      "inputs": [
        {
          "internalType": "address",
          "name": "spender",
          "type": "address"
        },
        {
          "internalType": "uint256",
          "name": "subtractedValue",
          "type": "uint256"
        }
      ],
      "name": "decreaseAllowance",
      "outputs": [
        {
          "internalType": "bool",
          "name": "",
          "type": "bool"
        }
      ],
      "stateMutability": "nonpayable",
      "type": "function"
    },
    {
      "inputs": [
        {
          "internalType": "address",
          "name": "spender",
          "type": "address"
        },
        {
          "internalType": "uint256",
          "name": "addedValue",
          "type": "uint256"
        }
      ],
      "name": "increaseAllowance",
      "outputs": [
        {
          "internalType": "bool",
          "name": "",
          "type": "bool"
        }
      ],
      "stateMutability": "nonpayable",
      "type": "function"
    },
    {
      "inputs": [
        {
          "internalType": "address",
          "name": "_account",
          "type": "address"
        },
        {
          "internalType": "uint256",
          "name": "_amount",
          "type": "uint256"
        }
      ],
      "name": "mint",
      "outputs": [],
      "stateMutability": "nonpayable",
      "type": "function"
    },
    {
      "inputs": [],
      "name": "minter",
      "outputs": [
        {
          "internalType": "address",
          "name": "",
          "type": "address"
        }
      ],
      "stateMutability": "view",
      "type": "function"
    },
    {
      "inputs": [],
      "name": "name",
      "outputs": [
        {
          "internalType": "string",
          "name": "",
          "type": "string"
        }
      ],
      "stateMutability": "view",
      "type": "function"
    },
    {
      "inputs": [
        {
          "internalType": "address",
          "name": "_newAddress",
          "type": "address"
        }
      ],
      "name": "passMinterRole",
      "outputs": [
        {
          "internalType": "bool",
          "name": "",
          "type": "bool"
        }
      ],
      "stateMutability": "nonpayable",
      "type": "function"
    },
    {
      "inputs": [],
      "name": "symbol",
      "outputs": [
        {
          "internalType": "string",
          "name": "",
          "type": "string"
        }
      ],
      "stateMutability": "view",
      "type": "function"
    },
    {
      "inputs": [
        {
          "internalType": "address",
          "name": "",
          "type": "address"
        }
      ],
      "name": "tokenBalance",
      "outputs": [
        {
          "internalType": "uint256",
          "name": "",
          "type": "uint256"
        }
      ],
      "stateMutability": "view",
      "type": "function"
    },
    {
      "inputs": [],
      "name": "totalSupply",
      "outputs": [
        {
          "internalType": "uint256",
          "name": "",
          "type": "uint256"
        }
      ],
      "stateMutability": "view",
      "type": "function"
    },
    {
      "inputs": [
        {
          "internalType": "address",
          "name": "to",
          "type": "address"
        },
        {
          "internalType": "uint256",
          "name": "amount",
          "type": "uint256"
        }
      ],
      "name": "transfer",
      "outputs": [
        {
          "internalType": "bool",
          "name": "",
          "type": "bool"
        }
      ],
      "stateMutability": "nonpayable",
      "type": "function"
    },
    {
      "inputs": [
        {
          "internalType": "address",
          "name": "from",
          "type": "address"
        },
        {
          "internalType": "address",
          "name": "to",
          "type": "address"
        },
        {
          "internalType": "uint256",
          "name": "amount",
          "type": "uint256"
        }
      ],
      "name": "transferFrom",
      "outputs": [
        {
          "internalType": "bool",
          "name": "",
          "type": "bool"
        }
      ],
      "stateMutability": "nonpayable",
      "type": "function"
    }
  ],
  "bytecode": "0x608060405234801561001057600080fd5b50604080518082018252600f81526e2bb930b83832b2102134ba31b7b4b760891b6020808301918252835180850190945260048452635742544360e01b90840152815191929161006291600391610090565b508051610076906004906020840190610090565b5050600580546001600160a01b0319163317905550610164565b82805461009c90610129565b90600052602060002090601f0160209004810192826100be5760008555610104565b82601f106100d757805160ff1916838001178555610104565b82800160010185558215610104579182015b828111156101045782518255916020019190600101906100e9565b50610110929150610114565b5090565b5b808211156101105760008155600101610115565b600181811c9082168061013d57607f821691505b6020821081141561015e57634e487b7160e01b600052602260045260246000fd5b50919050565b610b13806101736000396000f3fe608060405234801561001057600080fd5b50600436106100f55760003560e01c806340c10f1911610097578063a9059cbb11610066578063a9059cbb14610206578063d7fc5b1514610219578063dd62ed3e1461022c578063eedc966a1461026557600080fd5b806340c10f19146101ad57806370a08231146101c257806395d89b41146101eb578063a457c2d7146101f357600080fd5b806318160ddd116100d357806318160ddd1461016657806323b872dd14610178578063313ce5671461018b578063395093511461019a57600080fd5b806306fdde03146100fa5780630754617214610118578063095ea7b314610143575b600080fd5b610102610285565b60405161010f9190610a27565b60405180910390f35b60055461012b906001600160a01b031681565b6040516001600160a01b03909116815260200161010f565b6101566101513660046109fd565b610317565b604051901515815260200161010f565b6002545b60405190815260200161010f565b6101566101863660046109c1565b61032f565b6040516012815260200161010f565b6101566101a83660046109fd565b610353565b6101c06101bb3660046109fd565b610392565b005b61016a6101d036600461096c565b6001600160a01b031660009081526020819052604090205490565b6101026103c4565b6101566102013660046109fd565b6103d3565b6101566102143660046109fd565b61046a565b61015661022736600461096c565b610478565b61016a61023a36600461098e565b6001600160a01b03918216600090815260016020908152604080832093909416825291909152205490565b61016a61027336600461096c565b60066020526000908152604090205481565b60606003805461029490610aa2565b80601f01602080910402602001604051908101604052809291908181526020018280546102c090610aa2565b801561030d5780601f106102e25761010080835404028352916020019161030d565b820191906000526020600020905b8154815290600101906020018083116102f057829003601f168201915b5050505050905090565b6000336103258185856104ed565b5060019392505050565b60003361033d858285610611565b6103488585856106a3565b506001949350505050565b3360008181526001602090815260408083206001600160a01b0387168452909152812054909190610325908290869061038d908790610a7c565b6104ed565b61039c8282610871565b33600090815260066020526040812080548392906103bb908490610a7c565b90915550505050565b60606004805461029490610aa2565b3360008181526001602090815260408083206001600160a01b03871684529091528120549091908381101561045d5760405162461bcd60e51b815260206004820152602560248201527f45524332303a2064656372656173656420616c6c6f77616e63652062656c6f77604482015264207a65726f60d81b60648201526084015b60405180910390fd5b61034882868684036104ed565b6000336103258185856106a3565b6005546000906001600160a01b0316331461049257600080fd5b600580546001600160a01b0319166001600160a01b03841690811790915560405190815233907f5c56bcd5a7e3f34a239651ac01fe373b8b0b837d818abb9b02df4f1bc9c49c789060200160405180910390a2506001919050565b6001600160a01b03831661054f5760405162461bcd60e51b8152602060048201526024808201527f45524332303a20617070726f76652066726f6d20746865207a65726f206164646044820152637265737360e01b6064820152608401610454565b6001600160a01b0382166105b05760405162461bcd60e51b815260206004820152602260248201527f45524332303a20617070726f766520746f20746865207a65726f206164647265604482015261737360f01b6064820152608401610454565b6001600160a01b0383811660008181526001602090815260408083209487168084529482529182902085905590518481527f8c5be1e5ebec7d5bd14f71427d1e84f3dd0314c0f7b2291e5b200ac8c7c3b925910160405180910390a3505050565b6001600160a01b03838116600090815260016020908152604080832093861683529290522054600019811461069d57818110156106905760405162461bcd60e51b815260206004820152601d60248201527f45524332303a20696e73756666696369656e7420616c6c6f77616e63650000006044820152606401610454565b61069d84848484036104ed565b50505050565b6001600160a01b0383166107075760405162461bcd60e51b815260206004820152602560248201527f45524332303a207472616e736665722066726f6d20746865207a65726f206164604482015264647265737360d81b6064820152608401610454565b6001600160a01b0382166107695760405162461bcd60e51b815260206004820152602360248201527f45524332303a207472616e7366657220746f20746865207a65726f206164647260448201526265737360e81b6064820152608401610454565b6001600160a01b038316600090815260208190526040902054818110156107e15760405162461bcd60e51b815260206004820152602660248201527f45524332303a207472616e7366657220616d6f756e7420657863656564732062604482015265616c616e636560d01b6064820152608401610454565b6001600160a01b03808516600090815260208190526040808220858503905591851681529081208054849290610818908490610a7c565b92505081905550826001600160a01b0316846001600160a01b03167fddf252ad1be2c89b69c2b068fc378daa952ba7f163c4a11628f55a4df523b3ef8460405161086491815260200190565b60405180910390a361069d565b6001600160a01b0382166108c75760405162461bcd60e51b815260206004820152601f60248201527f45524332303a206d696e7420746f20746865207a65726f2061646472657373006044820152606401610454565b80600260008282546108d99190610a7c565b90915550506001600160a01b03821660009081526020819052604081208054839290610906908490610a7c565b90915550506040518181526001600160a01b038316906000907fddf252ad1be2c89b69c2b068fc378daa952ba7f163c4a11628f55a4df523b3ef9060200160405180910390a35050565b80356001600160a01b038116811461096757600080fd5b919050565b60006020828403121561097e57600080fd5b61098782610950565b9392505050565b600080604083850312156109a157600080fd5b6109aa83610950565b91506109b860208401610950565b90509250929050565b6000806000606084860312156109d657600080fd5b6109df84610950565b92506109ed60208501610950565b9150604084013590509250925092565b60008060408385031215610a1057600080fd5b610a1983610950565b946020939093013593505050565b600060208083528351808285015260005b81811015610a5457858101830151858201604001528201610a38565b81811115610a66576000604083870101525b50601f01601f1916929092016040019392505050565b60008219821115610a9d57634e487b7160e01b600052601160045260246000fd5b500190565b600181811c90821680610ab657607f821691505b60208210811415610ad757634e487b7160e01b600052602260045260246000fd5b5091905056fea2646970667358221220642b1d7df51c11f000ef7eb809e18ad49bd7c8cf848e7dfb006c60d1275e044f64736f6c63430008070033",
  "linkReferences": {},
  "deployedLinkReferences": {}
}