{
  "_format": "hh-sol-artifact-1",
  "contractName": "Chem",
  "sourceName": "contracts/Chem.sol",
  "abi": [
    {
      "inputs": [
        {
          "internalType": "address",
          "name": "_address",
          "type": "address"
        }
      ],
      "stateMutability": "nonpayable",
      "type": "constructor"
    },
    {
      "anonymous": false,
      "inputs": [
        {
          "indexed": true,
          "internalType": "address",
          "name": "account",
          "type": "address"
        },
        {
          "indexed": true,
          "internalType": "address",
          "name": "operator",
          "type": "address"
        },
        {
          "indexed": false,
          "internalType": "bool",
          "name": "approved",
          "type": "bool"
        }
      ],
      "name": "ApprovalForAll",
      "type": "event"
    },
    {
      "anonymous": false,
      "inputs": [
        {
          "indexed": false,
          "internalType": "uint256",
          "name": "H202",
          "type": "uint256"
        },
        {
          "indexed": false,
          "internalType": "address",
          "name": "recieverHO",
          "type": "address"
        },
        {
          "indexed": false,
          "internalType": "uint256",
          "name": "mintedH202",
          "type": "uint256"
        }
      ],
      "name": "H2O2Created",
      "type": "event"
    },
    {
      "anonymous": false,
      "inputs": [
        {
          "indexed": false,
          "internalType": "string",
          "name": "FailedH202",
          "type": "string"
        }
      ],
      "name": "H2O2CreationFailed",
      "type": "event"
    },
    {
      "anonymous": false,
      "inputs": [
        {
          "indexed": false,
          "internalType": "uint256",
          "name": "LithWat",
          "type": "uint256"
        },
        {
          "indexed": false,
          "internalType": "address",
          "name": "recieverLit",
          "type": "address"
        },
        {
          "indexed": false,
          "internalType": "uint256",
          "name": "mintedLiH202",
          "type": "uint256"
        }
      ],
      "name": "LiOHCreated",
      "type": "event"
    },
    {
      "anonymous": false,
      "inputs": [
        {
          "indexed": false,
          "internalType": "string",
          "name": "FailedLiH202",
          "type": "string"
        }
      ],
      "name": "LiOHCreationFailed",
      "type": "event"
    },
    {
      "anonymous": false,
      "inputs": [
        {
          "indexed": true,
          "internalType": "address",
          "name": "previousOwner",
          "type": "address"
        },
        {
          "indexed": true,
          "internalType": "address",
          "name": "newOwner",
          "type": "address"
        }
      ],
      "name": "OwnershipTransferred",
      "type": "event"
    },
    {
      "anonymous": false,
      "inputs": [
        {
          "indexed": false,
          "internalType": "uint256",
          "name": "randomReturn",
          "type": "uint256"
        }
      ],
      "name": "RandomNumber",
      "type": "event"
    },
    {
      "anonymous": false,
      "inputs": [
        {
          "indexed": true,
          "internalType": "address",
          "name": "operator",
          "type": "address"
        },
        {
          "indexed": true,
          "internalType": "address",
          "name": "from",
          "type": "address"
        },
        {
          "indexed": true,
          "internalType": "address",
          "name": "to",
          "type": "address"
        },
        {
          "indexed": false,
          "internalType": "uint256[]",
          "name": "ids",
          "type": "uint256[]"
        },
        {
          "indexed": false,
          "internalType": "uint256[]",
          "name": "values",
          "type": "uint256[]"
        }
      ],
      "name": "TransferBatch",
      "type": "event"
    },
    {
      "anonymous": false,
      "inputs": [
        {
          "indexed": true,
          "internalType": "address",
          "name": "operator",
          "type": "address"
        },
        {
          "indexed": true,
          "internalType": "address",
          "name": "from",
          "type": "address"
        },
        {
          "indexed": true,
          "internalType": "address",
          "name": "to",
          "type": "address"
        },
        {
          "indexed": false,
          "internalType": "uint256",
          "name": "id",
          "type": "uint256"
        },
        {
          "indexed": false,
          "internalType": "uint256",
          "name": "value",
          "type": "uint256"
        }
      ],
      "name": "TransferSingle",
      "type": "event"
    },
    {
      "anonymous": false,
      "inputs": [
        {
          "indexed": false,
          "internalType": "string",
          "name": "value",
          "type": "string"
        },
        {
          "indexed": true,
          "internalType": "uint256",
          "name": "id",
          "type": "uint256"
        }
      ],
      "name": "URI",
      "type": "event"
    },
    {
      "anonymous": false,
      "inputs": [
        {
          "indexed": false,
          "internalType": "string",
          "name": "Minted",
          "type": "string"
        }
      ],
      "name": "WBTCMinted",
      "type": "event"
    },
    {
      "anonymous": false,
      "inputs": [
        {
          "indexed": false,
          "internalType": "uint256",
          "name": "tokenId",
          "type": "uint256"
        },
        {
          "indexed": false,
          "internalType": "address",
          "name": "receiver",
          "type": "address"
        },
        {
          "indexed": false,
          "internalType": "uint256",
          "name": "mintedAmount",
          "type": "uint256"
        }
      ],
      "name": "WaterCreated",
      "type": "event"
    },
    {
      "anonymous": false,
      "inputs": [
        {
          "indexed": false,
          "internalType": "string",
          "name": "failure",
          "type": "string"
        }
      ],
      "name": "WaterCreationFailed",
      "type": "event"
    },
    {
      "inputs": [],
      "name": "Beryllium",
      "outputs": [
        {
          "internalType": "uint256",
          "name": "",
          "type": "uint256"
        }
      ],
      "stateMutability": "view",
      "type": "function"
    },
    {
      "inputs": [],
      "name": "Boron",
      "outputs": [
        {
          "internalType": "uint256",
          "name": "",
          "type": "uint256"
        }
      ],
      "stateMutability": "view",
      "type": "function"
    },
    {
      "inputs": [],
      "name": "Carbon",
      "outputs": [
        {
          "internalType": "uint256",
          "name": "",
          "type": "uint256"
        }
      ],
      "stateMutability": "view",
      "type": "function"
    },
    {
      "inputs": [],
      "name": "Elements",
      "outputs": [
        {
          "internalType": "string",
          "name": "",
          "type": "string"
        }
      ],
      "stateMutability": "view",
      "type": "function"
    },
    {
      "inputs": [],
      "name": "Fluorine",
      "outputs": [
        {
          "internalType": "uint256",
          "name": "",
          "type": "uint256"
        }
      ],
      "stateMutability": "view",
      "type": "function"
    },
    {
      "inputs": [],
      "name": "H2",
      "outputs": [
        {
          "internalType": "uint256",
          "name": "",
          "type": "uint256"
        }
      ],
      "stateMutability": "view",
      "type": "function"
    },
    {
      "inputs": [],
      "name": "H2O2",
      "outputs": [
        {
          "internalType": "uint256",
          "name": "",
          "type": "uint256"
        }
      ],
      "stateMutability": "view",
      "type": "function"
    },
    {
      "inputs": [],
      "name": "Helium",
      "outputs": [
        {
          "internalType": "uint256",
          "name": "",
          "type": "uint256"
        }
      ],
      "stateMutability": "view",
      "type": "function"
    },
    {
      "inputs": [],
      "name": "Hydrogen",
      "outputs": [
        {
          "internalType": "uint256",
          "name": "",
          "type": "uint256"
        }
      ],
      "stateMutability": "view",
      "type": "function"
    },
    {
      "inputs": [],
      "name": "LiOH",
      "outputs": [
        {
          "internalType": "uint256",
          "name": "",
          "type": "uint256"
        }
      ],
      "stateMutability": "view",
      "type": "function"
    },
    {
      "inputs": [],
      "name": "Lithium",
      "outputs": [
        {
          "internalType": "uint256",
          "name": "",
          "type": "uint256"
        }
      ],
      "stateMutability": "view",
      "type": "function"
    },
    {
      "inputs": [],
      "name": "Neon",
      "outputs": [
        {
          "internalType": "uint256",
          "name": "",
          "type": "uint256"
        }
      ],
      "stateMutability": "view",
      "type": "function"
    },
    {
      "inputs": [],
      "name": "Nitrogen",
      "outputs": [
        {
          "internalType": "uint256",
          "name": "",
          "type": "uint256"
        }
      ],
      "stateMutability": "view",
      "type": "function"
    },
    {
      "inputs": [],
      "name": "Oxygen",
      "outputs": [
        {
          "internalType": "uint256",
          "name": "",
          "type": "uint256"
        }
      ],
      "stateMutability": "view",
      "type": "function"
    },
    {
      "inputs": [],
      "name": "Water",
      "outputs": [
        {
          "internalType": "uint256",
          "name": "",
          "type": "uint256"
        }
      ],
      "stateMutability": "view",
      "type": "function"
    },
    {
      "inputs": [
        {
          "internalType": "address",
          "name": "account",
          "type": "address"
        },
        {
          "internalType": "uint256",
          "name": "id",
          "type": "uint256"
        }
      ],
      "name": "balanceOf",
      "outputs": [
        {
          "internalType": "uint256",
          "name": "",
          "type": "uint256"
        }
      ],
      "stateMutability": "view",
      "type": "function"
    },
    {
      "inputs": [
        {
          "internalType": "address[]",
          "name": "accounts",
          "type": "address[]"
        },
        {
          "internalType": "uint256[]",
          "name": "ids",
          "type": "uint256[]"
        }
      ],
      "name": "balanceOfBatch",
      "outputs": [
        {
          "internalType": "uint256[]",
          "name": "",
          "type": "uint256[]"
        }
      ],
      "stateMutability": "view",
      "type": "function"
    },
    {
      "inputs": [
        {
          "internalType": "address",
          "name": "",
          "type": "address"
        }
      ],
      "name": "btcTokenBalance",
      "outputs": [
        {
          "internalType": "uint256",
          "name": "",
          "type": "uint256"
        }
      ],
      "stateMutability": "view",
      "type": "function"
    },
    {
      "inputs": [],
      "name": "createH2O2",
      "outputs": [],
      "stateMutability": "nonpayable",
      "type": "function"
    },
    {
      "inputs": [],
      "name": "createLiH2O",
      "outputs": [],
      "stateMutability": "nonpayable",
      "type": "function"
    },
    {
      "inputs": [],
      "name": "createWater",
      "outputs": [],
      "stateMutability": "nonpayable",
      "type": "function"
    },
    {
      "inputs": [],
      "name": "getRandomNumber",
      "outputs": [
        {
          "internalType": "bytes32",
          "name": "requestId",
          "type": "bytes32"
        }
      ],
      "stateMutability": "nonpayable",
      "type": "function"
    },
    {
      "inputs": [
        {
          "internalType": "address",
          "name": "account",
          "type": "address"
        },
        {
          "internalType": "address",
          "name": "operator",
          "type": "address"
        }
      ],
      "name": "isApprovedForAll",
      "outputs": [
        {
          "internalType": "bool",
          "name": "",
          "type": "bool"
        }
      ],
      "stateMutability": "view",
      "type": "function"
    },
    {
      "inputs": [
        {
          "internalType": "uint256",
          "name": "_amount",
          "type": "uint256"
        }
      ],
      "name": "mintBTC",
      "outputs": [],
      "stateMutability": "nonpayable",
      "type": "function"
    },
    {
      "inputs": [
        {
          "internalType": "uint256",
          "name": "_amount",
          "type": "uint256"
        }
      ],
      "name": "mintBeryllium",
      "outputs": [],
      "stateMutability": "nonpayable",
      "type": "function"
    },
    {
      "inputs": [
        {
          "internalType": "uint256",
          "name": "_amount",
          "type": "uint256"
        }
      ],
      "name": "mintHelium",
      "outputs": [],
      "stateMutability": "nonpayable",
      "type": "function"
    },
    {
      "inputs": [
        {
          "internalType": "uint256",
          "name": "_amount",
          "type": "uint256"
        }
      ],
      "name": "mintHydrogen",
      "outputs": [],
      "stateMutability": "nonpayable",
      "type": "function"
    },
    {
      "inputs": [
        {
          "internalType": "uint256",
          "name": "_amount",
          "type": "uint256"
        }
      ],
      "name": "mintLithium",
      "outputs": [],
      "stateMutability": "nonpayable",
      "type": "function"
    },
    {
      "inputs": [
        {
          "internalType": "uint256",
          "name": "_amount",
          "type": "uint256"
        }
      ],
      "name": "mintOxygen",
      "outputs": [],
      "stateMutability": "nonpayable",
      "type": "function"
    },
    {
      "inputs": [],
      "name": "name",
      "outputs": [
        {
          "internalType": "string",
          "name": "",
          "type": "string"
        }
      ],
      "stateMutability": "pure",
      "type": "function"
    },
    {
      "inputs": [],
      "name": "owner",
      "outputs": [
        {
          "internalType": "address",
          "name": "",
          "type": "address"
        }
      ],
      "stateMutability": "view",
      "type": "function"
    },
    {
      "inputs": [],
      "name": "randomResult",
      "outputs": [
        {
          "internalType": "uint256",
          "name": "",
          "type": "uint256"
        }
      ],
      "stateMutability": "view",
      "type": "function"
    },
    {
      "inputs": [
        {
          "internalType": "bytes32",
          "name": "requestId",
          "type": "bytes32"
        },
        {
          "internalType": "uint256",
          "name": "randomness",
          "type": "uint256"
        }
      ],
      "name": "rawFulfillRandomness",
      "outputs": [],
      "stateMutability": "nonpayable",
      "type": "function"
    },
    {
      "inputs": [],
      "name": "renounceOwnership",
      "outputs": [],
      "stateMutability": "nonpayable",
      "type": "function"
    },
    {
      "inputs": [
        {
          "internalType": "address",
          "name": "from",
          "type": "address"
        },
        {
          "internalType": "address",
          "name": "to",
          "type": "address"
        },
        {
          "internalType": "uint256[]",
          "name": "ids",
          "type": "uint256[]"
        },
        {
          "internalType": "uint256[]",
          "name": "amounts",
          "type": "uint256[]"
        },
        {
          "internalType": "bytes",
          "name": "data",
          "type": "bytes"
        }
      ],
      "name": "safeBatchTransferFrom",
      "outputs": [],
      "stateMutability": "nonpayable",
      "type": "function"
    },
    {
      "inputs": [
        {
          "internalType": "address",
          "name": "from",
          "type": "address"
        },
        {
          "internalType": "address",
          "name": "to",
          "type": "address"
        },
        {
          "internalType": "uint256",
          "name": "id",
          "type": "uint256"
        },
        {
          "internalType": "uint256",
          "name": "amount",
          "type": "uint256"
        },
        {
          "internalType": "bytes",
          "name": "data",
          "type": "bytes"
        }
      ],
      "name": "safeTransferFrom",
      "outputs": [],
      "stateMutability": "nonpayable",
      "type": "function"
    },
    {
      "inputs": [
        {
          "internalType": "uint256",
          "name": "_amount",
          "type": "uint256"
        }
      ],
      "name": "sellNFT",
      "outputs": [],
      "stateMutability": "nonpayable",
      "type": "function"
    },
    {
      "inputs": [
        {
          "internalType": "address",
          "name": "operator",
          "type": "address"
        },
        {
          "internalType": "bool",
          "name": "approved",
          "type": "bool"
        }
      ],
      "name": "setApprovalForAll",
      "outputs": [],
      "stateMutability": "nonpayable",
      "type": "function"
    },
    {
      "inputs": [
        {
          "internalType": "address",
          "name": "addr",
          "type": "address"
        }
      ],
      "name": "setwbtcContract",
      "outputs": [],
      "stateMutability": "nonpayable",
      "type": "function"
    },
    {
      "inputs": [
        {
          "internalType": "uint256",
          "name": "_amount",
          "type": "uint256"
        }
      ],
      "name": "stakeBTC",
      "outputs": [],
      "stateMutability": "payable",
      "type": "function"
    },
    {
      "inputs": [
        {
          "internalType": "address",
          "name": "",
          "type": "address"
        },
        {
          "internalType": "uint256",
          "name": "",
          "type": "uint256"
        }
      ],
      "name": "supplyBalance",
      "outputs": [
        {
          "internalType": "uint256",
          "name": "",
          "type": "uint256"
        }
      ],
      "stateMutability": "view",
      "type": "function"
    },
    {
      "inputs": [
        {
          "internalType": "bytes4",
          "name": "interfaceId",
          "type": "bytes4"
        }
      ],
      "name": "supportsInterface",
      "outputs": [
        {
          "internalType": "bool",
          "name": "",
          "type": "bool"
        }
      ],
      "stateMutability": "view",
      "type": "function"
    },
    {
      "inputs": [],
      "name": "symbol",
      "outputs": [
        {
          "internalType": "string",
          "name": "",
          "type": "string"
        }
      ],
      "stateMutability": "pure",
      "type": "function"
    },
    {
      "inputs": [
        {
          "internalType": "address",
          "name": "newOwner",
          "type": "address"
        }
      ],
      "name": "transferOwnership",
      "outputs": [],
      "stateMutability": "nonpayable",
      "type": "function"
    },
    {
      "inputs": [
        {
          "internalType": "uint256",
          "name": "_tokenId",
          "type": "uint256"
        }
      ],
      "name": "uri",
      "outputs": [
        {
          "internalType": "string",
          "name": "",
          "type": "string"
        }
      ],
      "stateMutability": "view",
      "type": "function"
    },
    {
      "inputs": [],
      "name": "wbtcContract",
      "outputs": [
        {
          "internalType": "contract WBTC",
          "name": "",
          "type": "address"
        }
      ],
      "stateMutability": "view",
      "type": "function"
    },
    {
      "inputs": [],
      "name": "withdrawLink",
      "outputs": [],
      "stateMutability": "nonpayable",
      "type": "function"
    }
  ],
  "bytecode": "0x610120604052603660c081815290620037a360e03980516200002a91600a916020909101906200020e565b503480156200003857600080fd5b50604051620037d9380380620037d98339810160408190526200005b91620002b4565b738c7382f9d8f56b33781fe506e897a4f1e2d1725573326c977e6efc84e512bb9c30f76e30c160ed06fb600a80546200009490620002e6565b80601f0160208091040260200160405190810160405280929190818152602001828054620000c290620002e6565b8015620001135780601f10620000e75761010080835404028352916020019162000113565b820191906000526020600020905b815481529060010190602001808311620000f557829003601f168201915b50505050506200012981620001a360201b60201c565b506200013533620001bc565b606091821b6001600160601b031990811660a052911b16608052600580546001600160a01b0319166001600160a01b03929092169190911790557f6e75b569a01ef56d18cab6a8e71e6600d6ce853834d4a5748b720d06f878b3a4600955655af3107a400060075562000323565b8051620001b89060029060208401906200020e565b5050565b600380546001600160a01b038381166001600160a01b0319831681179093556040519116919082907f8be0079c531659141344cd1fd0a4f28419497f9722a3daafe3b4186f6b6457e090600090a35050565b8280546200021c90620002e6565b90600052602060002090601f0160209004810192826200024057600085556200028b565b82601f106200025b57805160ff19168380011785556200028b565b828001600101855582156200028b579182015b828111156200028b5782518255916020019190600101906200026e565b50620002999291506200029d565b5090565b5b808211156200029957600081556001016200029e565b600060208284031215620002c757600080fd5b81516001600160a01b0381168114620002df57600080fd5b9392505050565b600181811c90821680620002fb57607f821691505b602082108114156200031d57634e487b7160e01b600052602260045260246000fd5b50919050565b60805160601c60a05160601c61343f620003646000396000818161123a0152612505015260008181611082015281816118cb01526124d6015261343f6000f3fe6080604052600436106102875760003560e01c8063800253ce1161015a578063b63426b3116100c1578063e985e9c51161007a578063e985e9c514610758578063ee9cdfb3146107a1578063eee0d9e2146107c1578063f242432a146107d6578063f2fde38b146107f6578063f85060551461081657600080fd5b8063b63426b3146106dc578063bea1d66a146106f1578063c2b8472214610706578063db19d93f14610719578063dbdff2c11461072e578063dff6405b1461074357600080fd5b806394985ddd1161011357806394985ddd14610630578063958d9c311461065057806395d89b4114610665578063a22cb46514610692578063abc40ce4146106b2578063b3e6d03e146106c757600080fd5b8063800253ce1461057b578063807a012d146105905780638da5cb5b146105c85780638dc654a2146105e65780638fcb4325146105fb5780639280d8ee1461061057600080fd5b80632eb2c2d6116101fe5780635b5d897f116101b75780635b5d897f146104f25780636e69adcf14610512578063715018a614610527578063777880b01461053c57806377b07f6b146105515780637d35a2571461056657600080fd5b80632eb2c2d6146104455780632f3104e41461046557806335926b9c1461047a578063403c617e1461049a57806342619f66146104af5780634e1273f4146104c557600080fd5b80630e89341c116102505780630e89341c14610360578063142cee9314610380578063159907de146103ad57806316b488a0146103e55780632014218a14610405578063225abdbd1461042557600080fd5b8062fdd58e1461028c57806301ffc9a7146102bf57806305f36283146102ef57806306fdde0314610304578063080f54f71461033e575b600080fd5b34801561029857600080fd5b506102ac6102a7366004612c93565b61082b565b6040519081526020015b60405180910390f35b3480156102cb57600080fd5b506102df6102da366004612dcd565b6108c2565b60405190151581526020016102b6565b3480156102fb57600080fd5b506102ac600781565b34801561031057600080fd5b50604080518082019091526008815267456c656d656e747360c01b60208201525b6040516102b69190613079565b34801561034a57600080fd5b5061035e610359366004612e07565b610914565b005b34801561036c57600080fd5b5061033161037b366004612e07565b6109ff565b34801561038c57600080fd5b506102ac61039b366004612af8565b600c6020526000908152604090205481565b3480156103b957600080fd5b506102ac6103c8366004612c93565b600b60209081526000928352604080842090915290825290205481565b3480156103f157600080fd5b5061035e610400366004612af8565b610a33565b34801561041157600080fd5b5061035e610420366004612e07565b610a7f565b34801561043157600080fd5b5061035e610440366004612e07565b610ae1565b34801561045157600080fd5b5061035e610460366004612b4d565b610b43565b34801561047157600080fd5b506102ac600681565b34801561048657600080fd5b5061035e610495366004612e07565b610bda565b3480156104a657600080fd5b506102ac600181565b3480156104bb57600080fd5b506102ac60085481565b3480156104d157600080fd5b506104e56104e0366004612cbd565b610c3c565b6040516102b69190613041565b3480156104fe57600080fd5b5061035e61050d366004612e07565b610d66565b34801561051e57600080fd5b506102ac60c881565b34801561053357600080fd5b5061035e610dc8565b34801561054857600080fd5b506102ac60ca81565b34801561055d57600080fd5b506102ac600381565b34801561057257600080fd5b5061035e610dfe565b34801561058757600080fd5b506102ac60c981565b34801561059c57600080fd5b506005546105b0906001600160a01b031681565b6040516001600160a01b0390911681526020016102b6565b3480156105d457600080fd5b506003546001600160a01b03166105b0565b3480156105f257600080fd5b5061035e611043565b34801561060757600080fd5b506102ac600481565b34801561061c57600080fd5b5061035e61062b366004612e07565b6111cd565b34801561063c57600080fd5b5061035e61064b366004612dab565b61122f565b34801561065c57600080fd5b5061035e6112b1565b34801561067157600080fd5b506040805180820190915260048152631153135560e21b6020820152610331565b34801561069e57600080fd5b5061035e6106ad366004612c5c565b611543565b3480156106be57600080fd5b506102ac600281565b3480156106d357600080fd5b5061035e61154e565b3480156106e857600080fd5b506102ac600881565b3480156106fd57600080fd5b506102ac600981565b61035e610714366004612e07565b611771565b34801561072557600080fd5b506102ac600581565b34801561073a57600080fd5b506102ac6118a7565b34801561074f57600080fd5b506102ac60cb81565b34801561076457600080fd5b506102df610773366004612b1a565b6001600160a01b03918216600090815260016020908152604080832093909416825291909152205460ff1690565b3480156107ad57600080fd5b5061035e6107bc366004612e07565b6119ba565b3480156107cd57600080fd5b50610331611c76565b3480156107e257600080fd5b5061035e6107f1366004612bf7565b611d04565b34801561080257600080fd5b5061035e610811366004612af8565b611d8b565b34801561082257600080fd5b506102ac600a81565b60006001600160a01b03831661089c5760405162461bcd60e51b815260206004820152602b60248201527f455243313135353a2062616c616e636520717565727920666f7220746865207a60448201526a65726f206164647265737360a81b60648201526084015b60405180910390fd5b506000908152602081815260408083206001600160a01b03949094168352929052205490565b60006001600160e01b03198216636cdb3d1360e11b14806108f357506001600160e01b031982166303a24d0760e21b145b8061090e57506301ffc9a760e01b6001600160e01b03198316145b92915050565b6005546040516340c10f1960e01b8152336004820152602481018390526001600160a01b03909116906340c10f1990604401600060405180830381600087803b15801561096057600080fd5b505af1158015610974573d6000803e3d6000fd5b5050336000908152600c6020526040812080548594509092506109989084906131dd565b90915550506040517f5fe6c9fd9b1d778d130db1fa0af25c265f2adfb2365bb9c8e5dda87bdd64cefe906109eb906020808252600b908201526a1dd09510c8135a5b9d195960aa1b604082015260600190565b60405180910390a16109fb6118a7565b5050565b6060600a610a0c83611e26565b604051602001610a1d929190612ebc565b6040516020818303038152906040529050919050565b6003546001600160a01b03163314610a5d5760405162461bcd60e51b815260040161089390613184565b600580546001600160a01b0319166001600160a01b0392909216919091179055565b610a9b3360018360405180602001604052806000815250611f2c565b336000908152600b6020908152604080832060018452909152902054610ac29082906131dd565b336000908152600b602090815260408083206001845290915290205550565b610afd3360038360405180602001604052806000815250611f2c565b336000908152600b6020908152604080832060038452909152902054610b249082906131dd565b336000908152600b602090815260408083206003845290915290205550565b6001600160a01b038516331480610b5f5750610b5f8533610773565b610bc65760405162461bcd60e51b815260206004820152603260248201527f455243313135353a207472616e736665722063616c6c6572206973206e6f74206044820152711bdddb995c881b9bdc88185c1c1c9bdd995960721b6064820152608401610893565b610bd38585858585612036565b5050505050565b610bf63360088360405180602001604052806000815250611f2c565b336000908152600b6020908152604080832060088452909152902054610c1d9082906131dd565b336000908152600b602090815260408083206008845290915290205550565b60608151835114610ca15760405162461bcd60e51b815260206004820152602960248201527f455243313135353a206163636f756e747320616e6420696473206c656e677468604482015268040dad2e6dac2e8c6d60bb1b6064820152608401610893565b6000835167ffffffffffffffff811115610cbd57610cbd613329565b604051908082528060200260200182016040528015610ce6578160200160208202803683370190505b50905060005b8451811015610d5e57610d31858281518110610d0a57610d0a613313565b6020026020010151858381518110610d2457610d24613313565b602002602001015161082b565b828281518110610d4357610d43613313565b6020908102919091010152610d57816132b8565b9050610cec565b509392505050565b610d823360028360405180602001604052806000815250611f2c565b336000908152600b6020908152604080832060028452909152902054610da99082906131dd565b336000908152600b602090815260408083206002845290915290205550565b6003546001600160a01b03163314610df25760405162461bcd60e51b815260040161089390613184565b610dfc6000612213565b565b336000908152600b60209081526040808320600180855292528083205460088452922054906002908082851015610e6d5760405162461bcd60e51b81526020600482015260136024820152722737ba1022b737bab3b410243cb23937b3b2b760691b6044820152606401610893565b81841015610eb15760405162461bcd60e51b81526020600482015260116024820152702737ba1022b737bab3b41027bc3cb3b2b760791b6044820152606401610893565b610ebd33600185612265565b336000908152600b602090815260408083206001845290915281208054859290610ee8908490613209565b90915550610efa905033600884612265565b336000908152600b602090815260408083206008845290915281208054849290610f25908490613209565b90915550506008546040518181527fec6cdc8e735e4069f6e89062582f3e5532a8e71373e7ef2962fa916cf2af21f29060200160405180910390a1600a811015610fa3577fa11c889fee9dafbb2ce8aea81cdab60c4af9c573fdacf23056d4da9ab596796c604051610f96906130d4565b60405180910390a1611032565b610fbf3360c88460405180602001604052806000815250611f2c565b336000908152600b6020908152604080832060c8845290915281208054849290610fea9084906131dd565b90915550506040805160c881523360208201529081018390527f41dc43fe6204194dd095effea839309c4fc5c4f84c88d1b81372b0bcc9a60118906060015b60405180910390a15b61103a6118a7565b50505050505050565b6003546001600160a01b0316331461106d5760405162461bcd60e51b815260040161089390613184565b6040516370a0823160e01b81523060048201527f00000000000000000000000000000000000000000000000000000000000000006001600160a01b03169063a9059cbb90339083906370a082319060240160206040518083038186803b1580156110d657600080fd5b505afa1580156110ea573d6000803e3d6000fd5b505050506040513d601f19601f8201168201806040525081019061110e9190612e20565b6040516001600160e01b031960e085901b1681526001600160a01b0390921660048301526024820152604401602060405180830381600087803b15801561115457600080fd5b505af1158015611168573d6000803e3d6000fd5b505050506040513d601f19601f8201168201806040525081019061118c9190612d8e565b610dfc5760405162461bcd60e51b81526020600482015260126024820152712ab730b13632903a37903a3930b739b332b960711b6044820152606401610893565b6111e93360048360405180602001604052806000815250611f2c565b336000908152600b60209081526040808320600484529091529020546112109082906131dd565b336000908152600b602090815260408083206004845290915290205550565b336001600160a01b037f000000000000000000000000000000000000000000000000000000000000000016146112a75760405162461bcd60e51b815260206004820152601f60248201527f4f6e6c7920565246436f6f7264696e61746f722063616e2066756c66696c6c006044820152606401610893565b6109fb82826123df565b336000908152600b60209081526040808320600384529091528082205460c88352912054600280806001818610156113205760405162461bcd60e51b81526020600482015260126024820152714e6f7420456e6f756768204c69746869756d60701b6044820152606401610893565b828510156113635760405162461bcd60e51b815260206004820152601060248201526f2737ba1022b737bab3b4102bb0ba32b960811b6044820152606401610893565b61136f33600386612265565b336000908152600b60209081526040808320600384529091528120805486929061139a908490613209565b909155506113ac90503360c885612265565b336000908152600b6020908152604080832060c88452909152812080548592906113d7908490613209565b90915550506008546040518181527fec6cdc8e735e4069f6e89062582f3e5532a8e71373e7ef2962fa916cf2af21f29060200160405180910390a1600a811015611455577f49a1946fe8daef8073ed3fb59b4f4f2c53415001c550b18ffa6833f4b171a68a604051611448906130d4565b60405180910390a1611531565b6114713360c98560405180602001604052806000815250611f2c565b336000908152600b6020908152604080832060c984529091528120805485929061149c9084906131dd565b925050819055506114bf3360ca8460405180602001604052806000815250611f2c565b336000908152600b6020908152604080832060ca8452909152812080548492906114ea9084906131dd565b90915550506040805160c981523360208201529081018490527f4a1e2fef6acdaaafcdc152c27b40e5dbcc5348d738dc84551cfbda746100ff569060600160405180910390a15b6115396118a7565b5050505050505050565b6109fb3383836123f1565b336000908152600b60209081526040808320600180855292528083205460088452922054906002908190818510156115be5760405162461bcd60e51b81526020600482015260136024820152722737ba1022b737bab3b410243cb23937b3b2b760691b6044820152606401610893565b818410156116025760405162461bcd60e51b81526020600482015260116024820152702737ba1022b737bab3b41027bc3cb3b2b760791b6044820152606401610893565b61160e33600185612265565b336000908152600b602090815260408083206001845290915281208054859290611639908490613209565b9091555061164b905033600884612265565b336000908152600b602090815260408083206008845290915281208054849290611676908490613209565b90915550506008546040518181527fec6cdc8e735e4069f6e89062582f3e5532a8e71373e7ef2962fa916cf2af21f29060200160405180910390a1600a8110156116e7577f4b827df5fef37feb5b7b656c6c0878bb2119e79dc6eb3494624a5df29b5567e3604051610f96906130d4565b6117033360cb8460405180602001604052806000815250611f2c565b336000908152600b6020908152604080832060cb84529091528120805484929061172e9084906131dd565b90915550506040805160cb81523360208201529081018390527ffe7b2a3e9229ab3ba1a52c7b5385abafc6d5c90d8c2bacb94715a676570f0f9790606001611029565b600081116117c15760405162461bcd60e51b815260206004820181905260248201527f416d6f756e74206d7573742062652067726561746572207468616e207a6572306044820152606401610893565b6005546040516323b872dd60e01b8152336004820152306024820152604481018390526001600160a01b03909116906323b872dd90606401602060405180830381600087803b15801561181357600080fd5b505af1158015611827573d6000803e3d6000fd5b505050506040513d601f19601f8201168201806040525081019061184b9190612d8e565b50336000908152600c60205260408120805483929061186b908490613209565b9091555061187b9050600a610a7f565b611885600a610d66565b61188f600a6111cd565b611899600a610ae1565b6118a3600a610bda565b6109fb5b6007546040516370a0823160e01b8152306004820152600091906001600160a01b037f000000000000000000000000000000000000000000000000000000000000000016906370a082319060240160206040518083038186803b15801561190d57600080fd5b505afa158015611921573d6000803e3d6000fd5b505050506040513d601f19601f820116820180604052508101906119459190612e20565b10156119a75760405162461bcd60e51b815260206004820152602b60248201527f4e6f7420656e6f756768204c494e4b202d2066696c6c20636f6e74726163742060448201526a1dda5d1a0819985d58d95d60aa1b6064820152608401610893565b6119b56009546007546124d2565b905090565b60c881101580156119cc575060cb8111155b611a0d5760405162461bcd60e51b81526020600482015260126024820152712737ba102b30b634b21021b932b0ba34b7b760711b6044820152606401610893565b662386f26fc10000600160c8831415611b0b57611a2c3360c883612265565b336000908152600b6020908152604080832060c8845290915281208054849290611a57908490613209565b909155505060055460405163a9059cbb60e01b8152336004820152602481018490526001600160a01b039091169063a9059cbb90604401602060405180830381600087803b158015611aa857600080fd5b505af1158015611abc573d6000803e3d6000fd5b505050506040513d601f19601f82011682018060405250810190611ae09190612d8e565b50336000908152600c602052604081208054849290611b009084906131dd565b90915550611c719050565b60c9831415611b4b57611b203360c983612265565b336000908152600b6020908152604080832060c9845290915281208054849290611a57908490613209565b60ca831415611b8b57611b603360ca83612265565b336000908152600b6020908152604080832060ca845290915281208054849290611a57908490613209565b611b973360cb83612265565b336000908152600b6020908152604080832060cb845290915281208054849290611bc2908490613209565b909155505060055460405163a9059cbb60e01b8152336004820152602481018490526001600160a01b039091169063a9059cbb90604401602060405180830381600087803b158015611c1357600080fd5b505af1158015611c27573d6000803e3d6000fd5b505050506040513d601f19601f82011682018060405250810190611c4b9190612d8e565b50336000908152600c602052604081208054849290611c6b9084906131dd565b90915550505b505050565b600a8054611c8390613250565b80601f0160208091040260200160405190810160405280929190818152602001828054611caf90613250565b8015611cfc5780601f10611cd157610100808354040283529160200191611cfc565b820191906000526020600020905b815481529060010190602001808311611cdf57829003601f168201915b505050505081565b6001600160a01b038516331480611d205750611d208533610773565b611d7e5760405162461bcd60e51b815260206004820152602960248201527f455243313135353a2063616c6c6572206973206e6f74206f776e6572206e6f7260448201526808185c1c1c9bdd995960ba1b6064820152608401610893565b610bd3858585858561265d565b6003546001600160a01b03163314611db55760405162461bcd60e51b815260040161089390613184565b6001600160a01b038116611e1a5760405162461bcd60e51b815260206004820152602660248201527f4f776e61626c653a206e6577206f776e657220697320746865207a65726f206160448201526564647265737360d01b6064820152608401610893565b611e2381612213565b50565b606081611e4a5750506040805180820190915260018152600360fc1b602082015290565b8160005b8115611e745780611e5e816132b8565b9150611e6d9050600a836131f5565b9150611e4e565b60008167ffffffffffffffff811115611e8f57611e8f613329565b6040519080825280601f01601f191660200182016040528015611eb9576020820181803683370190505b5090505b8415611f2457611ece600183613209565b9150611edb600a866132d3565b611ee69060306131dd565b60f81b818381518110611efb57611efb613313565b60200101906001600160f81b031916908160001a905350611f1d600a866131f5565b9450611ebd565b949350505050565b6001600160a01b038416611f8c5760405162461bcd60e51b815260206004820152602160248201527f455243313135353a206d696e7420746f20746865207a65726f206164647265736044820152607360f81b6064820152608401610893565b33611fa681600087611f9d88612771565b610bd388612771565b6000848152602081815260408083206001600160a01b038916845290915281208054859290611fd69084906131dd565b909155505060408051858152602081018590526001600160a01b0380881692600092918516917fc3d58168c5ae7397731d063d5bbf3d657854427343f4c083240f7aacaa2d0f62910160405180910390a4610bd3816000878787876127bc565b81518351146120985760405162461bcd60e51b815260206004820152602860248201527f455243313135353a2069647320616e6420616d6f756e7473206c656e677468206044820152670dad2e6dac2e8c6d60c31b6064820152608401610893565b6001600160a01b0384166120be5760405162461bcd60e51b8152600401610893906130f5565b3360005b84518110156121a55760008582815181106120df576120df613313565b6020026020010151905060008583815181106120fd576120fd613313565b602090810291909101810151600084815280835260408082206001600160a01b038e16835290935291909120549091508181101561214d5760405162461bcd60e51b81526004016108939061313a565b6000838152602081815260408083206001600160a01b038e8116855292528083208585039055908b1682528120805484929061218a9084906131dd565b925050819055505050508061219e906132b8565b90506120c2565b50846001600160a01b0316866001600160a01b0316826001600160a01b03167f4a39dc06d4c0dbc64b70af90fd698a233a518aa5d07e595d983b8c0526c8f7fb87876040516121f5929190613054565b60405180910390a461220b818787878787612927565b505050505050565b600380546001600160a01b038381166001600160a01b0319831681179093556040519116919082907f8be0079c531659141344cd1fd0a4f28419497f9722a3daafe3b4186f6b6457e090600090a35050565b6001600160a01b0383166122c75760405162461bcd60e51b815260206004820152602360248201527f455243313135353a206275726e2066726f6d20746865207a65726f206164647260448201526265737360e81b6064820152608401610893565b336122f7818560006122d887612771565b6122e187612771565b5050604080516020810190915260009052505050565b6000838152602081815260408083206001600160a01b0388168452909152902054828110156123745760405162461bcd60e51b8152602060048201526024808201527f455243313135353a206275726e20616d6f756e7420657863656564732062616c604482015263616e636560e01b6064820152608401610893565b6000848152602081815260408083206001600160a01b03898116808652918452828520888703905582518981529384018890529092908616917fc3d58168c5ae7397731d063d5bbf3d657854427343f4c083240f7aacaa2d0f62910160405180910390a45050505050565b6123ea6064826132d3565b6008555050565b816001600160a01b0316836001600160a01b031614156124655760405162461bcd60e51b815260206004820152602960248201527f455243313135353a2073657474696e6720617070726f76616c20737461747573604482015268103337b91039b2b63360b91b6064820152608401610893565b6001600160a01b03838116600081815260016020908152604080832094871680845294825291829020805460ff191686151590811790915591519182527f17307eab39ab6107e8899845ad3d59bd9653f200f220920489ca2b5937696c31910160405180910390a3505050565b60007f00000000000000000000000000000000000000000000000000000000000000006001600160a01b0316634000aea07f000000000000000000000000000000000000000000000000000000000000000084866000604051602001612542929190918252602082015260400190565b6040516020818303038152906040526040518463ffffffff1660e01b815260040161256f9392919061301a565b602060405180830381600087803b15801561258957600080fd5b505af115801561259d573d6000803e3d6000fd5b505050506040513d601f19601f820116820180604052508101906125c19190612d8e565b50600083815260046020818152604080842054815180840189905280830186905230606082015260808082018390528351808303909101815260a09091019092528151918301919091209387905291905261261d9060016131dd565b600085815260046020526040902055611f248482604080516020808201949094528082019290925280518083038201815260609092019052805191012090565b6001600160a01b0384166126835760405162461bcd60e51b8152600401610893906130f5565b33612693818787611f9d88612771565b6000848152602081815260408083206001600160a01b038a168452909152902054838110156126d45760405162461bcd60e51b81526004016108939061313a565b6000858152602081815260408083206001600160a01b038b81168552925280832087850390559088168252812080548692906127119084906131dd565b909155505060408051868152602081018690526001600160a01b03808916928a821692918616917fc3d58168c5ae7397731d063d5bbf3d657854427343f4c083240f7aacaa2d0f62910160405180910390a461103a8288888888886127bc565b604080516001808252818301909252606091600091906020808301908036833701905050905082816000815181106127ab576127ab613313565b602090810291909101015292915050565b6001600160a01b0384163b1561220b5760405163f23a6e6160e01b81526001600160a01b0385169063f23a6e61906128009089908990889088908890600401612fd5565b602060405180830381600087803b15801561281a57600080fd5b505af192505050801561284a575060408051601f3d908101601f1916820190925261284791810190612dea565b60015b6128f75761285661333f565b806308c379a01415612890575061286b61335b565b806128765750612892565b8060405162461bcd60e51b81526004016108939190613079565b505b60405162461bcd60e51b815260206004820152603460248201527f455243313135353a207472616e7366657220746f206e6f6e20455243313135356044820152732932b1b2b4bb32b91034b6b83632b6b2b73a32b960611b6064820152608401610893565b6001600160e01b0319811663f23a6e6160e01b1461103a5760405162461bcd60e51b81526004016108939061308c565b6001600160a01b0384163b1561220b5760405163bc197c8160e01b81526001600160a01b0385169063bc197c819061296b9089908990889088908890600401612f77565b602060405180830381600087803b15801561298557600080fd5b505af19250505080156129b5575060408051601f3d908101601f191682019092526129b291810190612dea565b60015b6129c15761285661333f565b6001600160e01b0319811663bc197c8160e01b1461103a5760405162461bcd60e51b81526004016108939061308c565b80356001600160a01b0381168114612a0857600080fd5b919050565b600082601f830112612a1e57600080fd5b81356020612a2b826131b9565b604051612a38828261328b565b8381528281019150858301600585901b87018401881015612a5857600080fd5b60005b85811015612a7757813584529284019290840190600101612a5b565b5090979650505050505050565b600082601f830112612a9557600080fd5b813567ffffffffffffffff811115612aaf57612aaf613329565b604051612ac6601f8301601f19166020018261328b565b818152846020838601011115612adb57600080fd5b816020850160208301376000918101602001919091529392505050565b600060208284031215612b0a57600080fd5b612b13826129f1565b9392505050565b60008060408385031215612b2d57600080fd5b612b36836129f1565b9150612b44602084016129f1565b90509250929050565b600080600080600060a08688031215612b6557600080fd5b612b6e866129f1565b9450612b7c602087016129f1565b9350604086013567ffffffffffffffff80821115612b9957600080fd5b612ba589838a01612a0d565b94506060880135915080821115612bbb57600080fd5b612bc789838a01612a0d565b93506080880135915080821115612bdd57600080fd5b50612bea88828901612a84565b9150509295509295909350565b600080600080600060a08688031215612c0f57600080fd5b612c18866129f1565b9450612c26602087016129f1565b93506040860135925060608601359150608086013567ffffffffffffffff811115612c5057600080fd5b612bea88828901612a84565b60008060408385031215612c6f57600080fd5b612c78836129f1565b91506020830135612c88816133e5565b809150509250929050565b60008060408385031215612ca657600080fd5b612caf836129f1565b946020939093013593505050565b60008060408385031215612cd057600080fd5b823567ffffffffffffffff80821115612ce857600080fd5b818501915085601f830112612cfc57600080fd5b81356020612d09826131b9565b604051612d16828261328b565b8381528281019150858301600585901b870184018b1015612d3657600080fd5b600096505b84871015612d6057612d4c816129f1565b835260019690960195918301918301612d3b565b5096505086013592505080821115612d7757600080fd5b50612d8485828601612a0d565b9150509250929050565b600060208284031215612da057600080fd5b8151612b13816133e5565b60008060408385031215612dbe57600080fd5b50508035926020909101359150565b600060208284031215612ddf57600080fd5b8135612b13816133f3565b600060208284031215612dfc57600080fd5b8151612b13816133f3565b600060208284031215612e1957600080fd5b5035919050565b600060208284031215612e3257600080fd5b5051919050565b600081518084526020808501945080840160005b83811015612e6957815187529582019590820190600101612e4d565b509495945050505050565b60008151808452612e8c816020860160208601613220565b601f01601f19169290920160200192915050565b60008151612eb2818560208601613220565b9290920192915050565b600080845481600182811c915080831680612ed857607f831692505b6020808410821415612ef857634e487b7160e01b86526022600452602486fd5b818015612f0c5760018114612f1d57612f4a565b60ff19861689528489019650612f4a565b60008b81526020902060005b86811015612f425781548b820152908501908301612f29565b505084890196505b505050505050612f6e612f5d8286612ea0565b64173539b7b760d91b815260050190565b95945050505050565b6001600160a01b0386811682528516602082015260a060408201819052600090612fa390830186612e39565b8281036060840152612fb58186612e39565b90508281036080840152612fc98185612e74565b98975050505050505050565b6001600160a01b03868116825285166020820152604081018490526060810183905260a06080820181905260009061300f90830184612e74565b979650505050505050565b60018060a01b0384168152826020820152606060408201526000612f6e6060830184612e74565b602081526000612b136020830184612e39565b6040815260006130676040830185612e39565b8281036020840152612f6e8185612e39565b602081526000612b136020830184612e74565b60208082526028908201527f455243313135353a204552433131353552656365697665722072656a656374656040820152676420746f6b656e7360c01b606082015260800190565b6020808252600790820152664661696c75726560c81b604082015260600190565b60208082526025908201527f455243313135353a207472616e7366657220746f20746865207a65726f206164604082015264647265737360d81b606082015260800190565b6020808252602a908201527f455243313135353a20696e73756666696369656e742062616c616e636520666f60408201526939103a3930b739b332b960b11b606082015260800190565b6020808252818101527f4f776e61626c653a2063616c6c6572206973206e6f7420746865206f776e6572604082015260600190565b600067ffffffffffffffff8211156131d3576131d3613329565b5060051b60200190565b600082198211156131f0576131f06132e7565b500190565b600082613204576132046132fd565b500490565b60008282101561321b5761321b6132e7565b500390565b60005b8381101561323b578181015183820152602001613223565b8381111561324a576000848401525b50505050565b600181811c9082168061326457607f821691505b6020821081141561328557634e487b7160e01b600052602260045260246000fd5b50919050565b601f8201601f1916810167ffffffffffffffff811182821017156132b1576132b1613329565b6040525050565b60006000198214156132cc576132cc6132e7565b5060010190565b6000826132e2576132e26132fd565b500690565b634e487b7160e01b600052601160045260246000fd5b634e487b7160e01b600052601260045260246000fd5b634e487b7160e01b600052603260045260246000fd5b634e487b7160e01b600052604160045260246000fd5b600060033d11156133585760046000803e5060005160e01c5b90565b600060443d10156133695790565b6040516003193d81016004833e81513d67ffffffffffffffff816024840111818411171561339957505050505090565b82850191508151818111156133b15750505050505090565b843d87010160208285010111156133cb5750505050505090565b6133da6020828601018761328b565b509095945050505050565b8015158114611e2357600080fd5b6001600160e01b031981168114611e2357600080fdfea26469706673582212207045fbe237d88a3d3b2c3cc04ad5b513a42e279b8e216af1bb9e076262e4060064736f6c63430008070033697066733a2f2f516d536f47566e6a4438324236544a574e3435394c7571696578416368737279656f767a5341526e5638544576582f",
  "linkReferences": {},
  "deployedLinkReferences": {}
}