{
  "_format": "hh-sol-artifact-1",
  "contractName": "Chem",
  "sourceName": "contracts/Chem.sol",
  "abi": [
    {
      "inputs": [
        {
          "internalType": "address",
          "name": "_address",
          "type": "address"
        }
      ],
      "stateMutability": "nonpayable",
      "type": "constructor"
    },
    {
      "anonymous": false,
      "inputs": [
        {
          "indexed": true,
          "internalType": "address",
          "name": "account",
          "type": "address"
        },
        {
          "indexed": true,
          "internalType": "address",
          "name": "operator",
          "type": "address"
        },
        {
          "indexed": false,
          "internalType": "bool",
          "name": "approved",
          "type": "bool"
        }
      ],
      "name": "ApprovalForAll",
      "type": "event"
    },
    {
      "anonymous": false,
      "inputs": [
        {
          "indexed": true,
          "internalType": "address",
          "name": "previousOwner",
          "type": "address"
        },
        {
          "indexed": true,
          "internalType": "address",
          "name": "newOwner",
          "type": "address"
        }
      ],
      "name": "OwnershipTransferred",
      "type": "event"
    },
    {
      "anonymous": false,
      "inputs": [
        {
          "indexed": true,
          "internalType": "address",
          "name": "operator",
          "type": "address"
        },
        {
          "indexed": true,
          "internalType": "address",
          "name": "from",
          "type": "address"
        },
        {
          "indexed": true,
          "internalType": "address",
          "name": "to",
          "type": "address"
        },
        {
          "indexed": false,
          "internalType": "uint256[]",
          "name": "ids",
          "type": "uint256[]"
        },
        {
          "indexed": false,
          "internalType": "uint256[]",
          "name": "values",
          "type": "uint256[]"
        }
      ],
      "name": "TransferBatch",
      "type": "event"
    },
    {
      "anonymous": false,
      "inputs": [
        {
          "indexed": true,
          "internalType": "address",
          "name": "operator",
          "type": "address"
        },
        {
          "indexed": true,
          "internalType": "address",
          "name": "from",
          "type": "address"
        },
        {
          "indexed": true,
          "internalType": "address",
          "name": "to",
          "type": "address"
        },
        {
          "indexed": false,
          "internalType": "uint256",
          "name": "id",
          "type": "uint256"
        },
        {
          "indexed": false,
          "internalType": "uint256",
          "name": "value",
          "type": "uint256"
        }
      ],
      "name": "TransferSingle",
      "type": "event"
    },
    {
      "anonymous": false,
      "inputs": [
        {
          "indexed": false,
          "internalType": "string",
          "name": "value",
          "type": "string"
        },
        {
          "indexed": true,
          "internalType": "uint256",
          "name": "id",
          "type": "uint256"
        }
      ],
      "name": "URI",
      "type": "event"
    },
    {
      "inputs": [],
      "name": "Beryllium",
      "outputs": [
        {
          "internalType": "uint256",
          "name": "",
          "type": "uint256"
        }
      ],
      "stateMutability": "view",
      "type": "function"
    },
    {
      "inputs": [],
      "name": "Elements",
      "outputs": [
        {
          "internalType": "string",
          "name": "",
          "type": "string"
        }
      ],
      "stateMutability": "view",
      "type": "function"
    },
    {
      "inputs": [],
      "name": "Helium",
      "outputs": [
        {
          "internalType": "uint256",
          "name": "",
          "type": "uint256"
        }
      ],
      "stateMutability": "view",
      "type": "function"
    },
    {
      "inputs": [],
      "name": "Hydrogen",
      "outputs": [
        {
          "internalType": "uint256",
          "name": "",
          "type": "uint256"
        }
      ],
      "stateMutability": "view",
      "type": "function"
    },
    {
      "inputs": [],
      "name": "Lithium",
      "outputs": [
        {
          "internalType": "uint256",
          "name": "",
          "type": "uint256"
        }
      ],
      "stateMutability": "view",
      "type": "function"
    },
    {
      "inputs": [],
      "name": "Oxygen",
      "outputs": [
        {
          "internalType": "uint256",
          "name": "",
          "type": "uint256"
        }
      ],
      "stateMutability": "view",
      "type": "function"
    },
    {
      "inputs": [],
      "name": "PureWater",
      "outputs": [
        {
          "internalType": "uint256",
          "name": "",
          "type": "uint256"
        }
      ],
      "stateMutability": "view",
      "type": "function"
    },
    {
      "inputs": [],
      "name": "Water",
      "outputs": [
        {
          "internalType": "uint256",
          "name": "",
          "type": "uint256"
        }
      ],
      "stateMutability": "view",
      "type": "function"
    },
    {
      "inputs": [
        {
          "internalType": "address",
          "name": "account",
          "type": "address"
        },
        {
          "internalType": "uint256",
          "name": "id",
          "type": "uint256"
        }
      ],
      "name": "balanceOf",
      "outputs": [
        {
          "internalType": "uint256",
          "name": "",
          "type": "uint256"
        }
      ],
      "stateMutability": "view",
      "type": "function"
    },
    {
      "inputs": [
        {
          "internalType": "address[]",
          "name": "accounts",
          "type": "address[]"
        },
        {
          "internalType": "uint256[]",
          "name": "ids",
          "type": "uint256[]"
        }
      ],
      "name": "balanceOfBatch",
      "outputs": [
        {
          "internalType": "uint256[]",
          "name": "",
          "type": "uint256[]"
        }
      ],
      "stateMutability": "view",
      "type": "function"
    },
    {
      "inputs": [
        {
          "internalType": "address",
          "name": "",
          "type": "address"
        }
      ],
      "name": "btcTokenBalance",
      "outputs": [
        {
          "internalType": "uint256",
          "name": "",
          "type": "uint256"
        }
      ],
      "stateMutability": "view",
      "type": "function"
    },
    {
      "inputs": [],
      "name": "cheapBeaker",
      "outputs": [
        {
          "internalType": "uint256",
          "name": "",
          "type": "uint256"
        }
      ],
      "stateMutability": "view",
      "type": "function"
    },
    {
      "inputs": [
        {
          "internalType": "uint256",
          "name": "_beaker",
          "type": "uint256"
        }
      ],
      "name": "createWater",
      "outputs": [],
      "stateMutability": "nonpayable",
      "type": "function"
    },
    {
      "inputs": [],
      "name": "epicBeaker",
      "outputs": [
        {
          "internalType": "uint256",
          "name": "",
          "type": "uint256"
        }
      ],
      "stateMutability": "view",
      "type": "function"
    },
    {
      "inputs": [
        {
          "internalType": "address",
          "name": "account",
          "type": "address"
        },
        {
          "internalType": "address",
          "name": "operator",
          "type": "address"
        }
      ],
      "name": "isApprovedForAll",
      "outputs": [
        {
          "internalType": "bool",
          "name": "",
          "type": "bool"
        }
      ],
      "stateMutability": "view",
      "type": "function"
    },
    {
      "inputs": [
        {
          "internalType": "uint256",
          "name": "_amount",
          "type": "uint256"
        }
      ],
      "name": "mintBTC",
      "outputs": [],
      "stateMutability": "nonpayable",
      "type": "function"
    },
    {
      "inputs": [
        {
          "internalType": "uint256",
          "name": "_amount",
          "type": "uint256"
        }
      ],
      "name": "mintBeryllium",
      "outputs": [],
      "stateMutability": "nonpayable",
      "type": "function"
    },
    {
      "inputs": [
        {
          "internalType": "uint256",
          "name": "_amount",
          "type": "uint256"
        }
      ],
      "name": "mintCheapBeaker",
      "outputs": [],
      "stateMutability": "nonpayable",
      "type": "function"
    },
    {
      "inputs": [
        {
          "internalType": "uint256",
          "name": "_amount",
          "type": "uint256"
        }
      ],
      "name": "mintEpicBeaker",
      "outputs": [],
      "stateMutability": "nonpayable",
      "type": "function"
    },
    {
      "inputs": [
        {
          "internalType": "uint256",
          "name": "_amount",
          "type": "uint256"
        }
      ],
      "name": "mintHelium",
      "outputs": [],
      "stateMutability": "nonpayable",
      "type": "function"
    },
    {
      "inputs": [
        {
          "internalType": "uint256",
          "name": "_amount",
          "type": "uint256"
        }
      ],
      "name": "mintHydrogen",
      "outputs": [],
      "stateMutability": "nonpayable",
      "type": "function"
    },
    {
      "inputs": [
        {
          "internalType": "uint256",
          "name": "_amount",
          "type": "uint256"
        }
      ],
      "name": "mintLithium",
      "outputs": [],
      "stateMutability": "nonpayable",
      "type": "function"
    },
    {
      "inputs": [
        {
          "internalType": "uint256",
          "name": "_amount",
          "type": "uint256"
        }
      ],
      "name": "mintOxygen",
      "outputs": [],
      "stateMutability": "nonpayable",
      "type": "function"
    },
    {
      "inputs": [
        {
          "internalType": "uint256",
          "name": "_amount",
          "type": "uint256"
        }
      ],
      "name": "mintRegularBeaker",
      "outputs": [],
      "stateMutability": "nonpayable",
      "type": "function"
    },
    {
      "inputs": [],
      "name": "name",
      "outputs": [
        {
          "internalType": "string",
          "name": "",
          "type": "string"
        }
      ],
      "stateMutability": "pure",
      "type": "function"
    },
    {
      "inputs": [],
      "name": "owner",
      "outputs": [
        {
          "internalType": "address",
          "name": "",
          "type": "address"
        }
      ],
      "stateMutability": "view",
      "type": "function"
    },
    {
      "inputs": [],
      "name": "regularBeaker",
      "outputs": [
        {
          "internalType": "uint256",
          "name": "",
          "type": "uint256"
        }
      ],
      "stateMutability": "view",
      "type": "function"
    },
    {
      "inputs": [],
      "name": "renounceOwnership",
      "outputs": [],
      "stateMutability": "nonpayable",
      "type": "function"
    },
    {
      "inputs": [
        {
          "internalType": "address",
          "name": "from",
          "type": "address"
        },
        {
          "internalType": "address",
          "name": "to",
          "type": "address"
        },
        {
          "internalType": "uint256[]",
          "name": "ids",
          "type": "uint256[]"
        },
        {
          "internalType": "uint256[]",
          "name": "amounts",
          "type": "uint256[]"
        },
        {
          "internalType": "bytes",
          "name": "data",
          "type": "bytes"
        }
      ],
      "name": "safeBatchTransferFrom",
      "outputs": [],
      "stateMutability": "nonpayable",
      "type": "function"
    },
    {
      "inputs": [
        {
          "internalType": "address",
          "name": "from",
          "type": "address"
        },
        {
          "internalType": "address",
          "name": "to",
          "type": "address"
        },
        {
          "internalType": "uint256",
          "name": "id",
          "type": "uint256"
        },
        {
          "internalType": "uint256",
          "name": "amount",
          "type": "uint256"
        },
        {
          "internalType": "bytes",
          "name": "data",
          "type": "bytes"
        }
      ],
      "name": "safeTransferFrom",
      "outputs": [],
      "stateMutability": "nonpayable",
      "type": "function"
    },
    {
      "inputs": [
        {
          "internalType": "uint256",
          "name": "_amount",
          "type": "uint256"
        }
      ],
      "name": "sellNFT",
      "outputs": [],
      "stateMutability": "nonpayable",
      "type": "function"
    },
    {
      "inputs": [
        {
          "internalType": "address",
          "name": "operator",
          "type": "address"
        },
        {
          "internalType": "bool",
          "name": "approved",
          "type": "bool"
        }
      ],
      "name": "setApprovalForAll",
      "outputs": [],
      "stateMutability": "nonpayable",
      "type": "function"
    },
    {
      "inputs": [
        {
          "internalType": "address",
          "name": "addr",
          "type": "address"
        }
      ],
      "name": "setwbtcContract",
      "outputs": [],
      "stateMutability": "nonpayable",
      "type": "function"
    },
    {
      "inputs": [
        {
          "internalType": "uint256",
          "name": "_amount",
          "type": "uint256"
        }
      ],
      "name": "stakeBTC",
      "outputs": [],
      "stateMutability": "payable",
      "type": "function"
    },
    {
      "inputs": [
        {
          "internalType": "address",
          "name": "",
          "type": "address"
        },
        {
          "internalType": "uint256",
          "name": "",
          "type": "uint256"
        }
      ],
      "name": "supplyBalance",
      "outputs": [
        {
          "internalType": "uint256",
          "name": "",
          "type": "uint256"
        }
      ],
      "stateMutability": "view",
      "type": "function"
    },
    {
      "inputs": [
        {
          "internalType": "bytes4",
          "name": "interfaceId",
          "type": "bytes4"
        }
      ],
      "name": "supportsInterface",
      "outputs": [
        {
          "internalType": "bool",
          "name": "",
          "type": "bool"
        }
      ],
      "stateMutability": "view",
      "type": "function"
    },
    {
      "inputs": [],
      "name": "symbol",
      "outputs": [
        {
          "internalType": "string",
          "name": "",
          "type": "string"
        }
      ],
      "stateMutability": "pure",
      "type": "function"
    },
    {
      "inputs": [
        {
          "internalType": "address",
          "name": "newOwner",
          "type": "address"
        }
      ],
      "name": "transferOwnership",
      "outputs": [],
      "stateMutability": "nonpayable",
      "type": "function"
    },
    {
      "inputs": [
        {
          "internalType": "uint256",
          "name": "_tokenId",
          "type": "uint256"
        }
      ],
      "name": "uri",
      "outputs": [
        {
          "internalType": "string",
          "name": "",
          "type": "string"
        }
      ],
      "stateMutability": "view",
      "type": "function"
    },
    {
      "inputs": [],
      "name": "wbtcContract",
      "outputs": [
        {
          "internalType": "contract WBTC",
          "name": "",
          "type": "address"
        }
      ],
      "stateMutability": "view",
      "type": "function"
    }
  ],
  "bytecode": "0x60e0604052603660808181529062002e7160a039805162000029916006916020909101906200019b565b503480156200003757600080fd5b5060405162002ea738038062002ea78339810160408190526200005a9162000241565b60068054620000699062000273565b80601f0160208091040260200160405190810160405280929190818152602001828054620000979062000273565b8015620000e85780601f10620000bc57610100808354040283529160200191620000e8565b820191906000526020600020905b815481529060010190602001808311620000ca57829003601f168201915b5050505050620000fe816200013060201b60201c565b506200010a3362000149565b600480546001600160a01b0319166001600160a01b0392909216919091179055620002b0565b8051620001459060029060208401906200019b565b5050565b600380546001600160a01b038381166001600160a01b0319831681179093556040519116919082907f8be0079c531659141344cd1fd0a4f28419497f9722a3daafe3b4186f6b6457e090600090a35050565b828054620001a99062000273565b90600052602060002090601f016020900481019282620001cd576000855562000218565b82601f10620001e857805160ff191683800117855562000218565b8280016001018555821562000218579182015b8281111562000218578251825591602001919060010190620001fb565b50620002269291506200022a565b5090565b5b808211156200022657600081556001016200022b565b6000602082840312156200025457600080fd5b81516001600160a01b03811681146200026c57600080fd5b9392505050565b600181811c908216806200028857607f821691505b60208210811415620002aa57634e487b7160e01b600052602260045260246000fd5b50919050565b612bb180620002c06000396000f3fe60806040526004361061023a5760003560e01c806377b07f6b1161012e578063b63426b3116100ab578063f242432a1161006f578063f242432a146106d9578063f27d7dcd146106f9578063f2fde38b1461070e578063f58ee1cc1461072e578063f6f104c01461074e57600080fd5b8063b63426b314610633578063c2b8472214610648578063e985e9c51461065b578063ee9cdfb3146106a4578063eee0d9e2146106c457600080fd5b80639280d8ee116100f25780639280d8ee1461059b57806395d89b41146105bb578063a22cb465146105e8578063abc40ce414610608578063ae365e201461061d57600080fd5b806377b07f6b146105055780637b5fdac41461051a578063807a012d146105305780638da5cb5b146105685780638fcb43251461058657600080fd5b80632e4712f0116101bc5780635a0c38d4116101805780635a0c38d4146104855780635b5d897f1461049b5780636d546083146104bb5780636e69adcf146104db578063715018a6146104f057600080fd5b80632e4712f0146103e35780632eb2c2d61461040357806335926b9c14610423578063403c617e146104435780634e1273f41461045857600080fd5b8063142cee9311610203578063142cee931461031e578063159907de1461034b57806316b488a0146103835780632014218a146103a3578063225abdbd146103c357600080fd5b8062fdd58e1461023f57806301ffc9a71461027257806306fdde03146102a2578063080f54f7146102dc5780630e89341c146102fe575b600080fd5b34801561024b57600080fd5b5061025f61025a366004612466565b61076e565b6040519081526020015b60405180910390f35b34801561027e57600080fd5b5061029261028d36600461257e565b610805565b6040519015158152602001610269565b3480156102ae57600080fd5b50604080518082019091526008815267456c656d656e747360c01b60208201525b60405161026991906127ea565b3480156102e857600080fd5b506102fc6102f73660046125b8565b610857565b005b34801561030a57600080fd5b506102cf6103193660046125b8565b6108e4565b34801561032a57600080fd5b5061025f6103393660046122cb565b60086020526000908152604090205481565b34801561035757600080fd5b5061025f610366366004612466565b600760209081526000928352604080842090915290825290205481565b34801561038f57600080fd5b506102fc61039e3660046122cb565b610918565b3480156103af57600080fd5b506102fc6103be3660046125b8565b610964565b3480156103cf57600080fd5b506102fc6103de3660046125b8565b6109c6565b3480156103ef57600080fd5b506102fc6103fe3660046125b8565b610a28565b34801561040f57600080fd5b506102fc61041e366004612320565b610a8d565b34801561042f57600080fd5b506102fc61043e3660046125b8565b610b24565b34801561044f57600080fd5b5061025f600181565b34801561046457600080fd5b50610478610473366004612490565b610b86565b60405161026991906127b2565b34801561049157600080fd5b5061025f6103e881565b3480156104a757600080fd5b506102fc6104b63660046125b8565b610cb0565b3480156104c757600080fd5b506102fc6104d63660046125b8565b610d12565b3480156104e757600080fd5b5061025f60c881565b3480156104fc57600080fd5b506102fc610d77565b34801561051157600080fd5b5061025f600381565b34801561052657600080fd5b5061025f6103ea81565b34801561053c57600080fd5b50600454610550906001600160a01b031681565b6040516001600160a01b039091168152602001610269565b34801561057457600080fd5b506003546001600160a01b0316610550565b34801561059257600080fd5b5061025f600481565b3480156105a757600080fd5b506102fc6105b63660046125b8565b610dad565b3480156105c757600080fd5b506040805180820190915260048152631153135560e21b60208201526102cf565b3480156105f457600080fd5b506102fc61060336600461242f565b610e0f565b34801561061457600080fd5b5061025f600281565b34801561062957600080fd5b5061025f6103e981565b34801561063f57600080fd5b5061025f600881565b6102fc6106563660046125b8565b610e1e565b34801561066757600080fd5b506102926106763660046122ed565b6001600160a01b03918216600090815260016020908152604080832093909416825291909152205460ff1690565b3480156106b057600080fd5b506102fc6106bf3660046125b8565b610f72565b3480156106d057600080fd5b506102cf611137565b3480156106e557600080fd5b506102fc6106f43660046123ca565b6111c5565b34801561070557600080fd5b5061025f60c981565b34801561071a57600080fd5b506102fc6107293660046122cb565b61124c565b34801561073a57600080fd5b506102fc6107493660046125b8565b6112e4565b34801561075a57600080fd5b506102fc6107693660046125b8565b611655565b60006001600160a01b0383166107df5760405162461bcd60e51b815260206004820152602b60248201527f455243313135353a2062616c616e636520717565727920666f7220746865207a60448201526a65726f206164647265737360a81b60648201526084015b60405180910390fd5b506000908152602081815260408083206001600160a01b03949094168352929052205490565b60006001600160e01b03198216636cdb3d1360e11b148061083657506001600160e01b031982166303a24d0760e21b145b8061085157506301ffc9a760e01b6001600160e01b03198316145b92915050565b600480546040516340c10f1960e01b81523392810192909252602482018390526001600160a01b0316906340c10f1990604401600060405180830381600087803b1580156108a457600080fd5b505af11580156108b8573d6000803e3d6000fd5b505033600090815260086020526040812080548594509092506108dc90849061294f565b909155505050565b606060066108f1836116ba565b604051602001610902929190612654565b6040516020818303038152906040529050919050565b6003546001600160a01b031633146109425760405162461bcd60e51b81526004016107d6906128f6565b600480546001600160a01b0319166001600160a01b0392909216919091179055565b61098033600183604051806020016040528060008152506117c0565b336000908152600760209081526040808320600184529091529020546109a790829061294f565b3360009081526007602090815260408083206001845290915290205550565b6109e233600383604051806020016040528060008152506117c0565b33600090815260076020908152604080832060038452909152902054610a0990829061294f565b3360009081526007602090815260408083206003845290915290205550565b610a45336103ea83604051806020016040528060008152506117c0565b3360009081526007602090815260408083206103ea8452909152902054610a6d90829061294f565b3360009081526007602090815260408083206103ea845290915290205550565b6001600160a01b038516331480610aa95750610aa98533610676565b610b105760405162461bcd60e51b815260206004820152603260248201527f455243313135353a207472616e736665722063616c6c6572206973206e6f74206044820152711bdddb995c881b9bdc88185c1c1c9bdd995960721b60648201526084016107d6565b610b1d85858585856118ca565b5050505050565b610b4033600883604051806020016040528060008152506117c0565b33600090815260076020908152604080832060088452909152902054610b6790829061294f565b3360009081526007602090815260408083206008845290915290205550565b60608151835114610beb5760405162461bcd60e51b815260206004820152602960248201527f455243313135353a206163636f756e747320616e6420696473206c656e677468604482015268040dad2e6dac2e8c6d60bb1b60648201526084016107d6565b6000835167ffffffffffffffff811115610c0757610c07612a9b565b604051908082528060200260200182016040528015610c30578160200160208202803683370190505b50905060005b8451811015610ca857610c7b858281518110610c5457610c54612a85565b6020026020010151858381518110610c6e57610c6e612a85565b602002602001015161076e565b828281518110610c8d57610c8d612a85565b6020908102919091010152610ca181612a2a565b9050610c36565b509392505050565b610ccc33600283604051806020016040528060008152506117c0565b33600090815260076020908152604080832060028452909152902054610cf390829061294f565b3360009081526007602090815260408083206002845290915290205550565b610d2f336103e883604051806020016040528060008152506117c0565b3360009081526007602090815260408083206103e88452909152902054610d5790829061294f565b3360009081526007602090815260408083206103e8845290915290205550565b6003546001600160a01b03163314610da15760405162461bcd60e51b81526004016107d6906128f6565b610dab6000611aa7565b565b610dc933600483604051806020016040528060008152506117c0565b33600090815260076020908152604080832060048452909152902054610df090829061294f565b3360009081526007602090815260408083206004845290915290205550565b610e1a338383611af9565b5050565b60008111610e6e5760405162461bcd60e51b815260206004820181905260248201527f416d6f756e74206d7573742062652067726561746572207468616e207a65723060448201526064016107d6565b600480546040516323b872dd60e01b81523392810192909252306024830152604482018390526001600160a01b0316906323b872dd90606401602060405180830381600087803b158015610ec157600080fd5b505af1158015610ed5573d6000803e3d6000fd5b505050506040513d601f19601f82011682018060405250810190610ef99190612561565b503360009081526008602052604081208054839290610f1990849061297b565b90915550610f299050600a610964565b610f33600a610cb0565b610f3d600a610dad565b610f47600a6109c6565b610f51600a610b24565b610f5b600a610d12565b610f65600a610a28565b610f6f600a611655565b50565b60c88110158015610f84575060c98111155b610fc55760405162461bcd60e51b81526020600482015260126024820152712737ba102b30b634b21021b932b0ba34b7b760711b60448201526064016107d6565b610ffc604051806040016040528060168152602001751c185cdcd959081d1a19481c995c5d5a5c995b595b9d60521b815250611bda565b6002600160c88314156111325760026110158184612967565b92506110456040518060400160405280600c81526020016b7265776172642076616c756560a01b81525084611c1d565b6110513360c884611c62565b33600090815260076020908152604080832060c884529091528120805485929061107c90849061297b565b90915550506004805460405163a9059cbb60e01b81523392810192909252602482018590526001600160a01b03169063a9059cbb90604401602060405180830381600087803b1580156110ce57600080fd5b505af11580156110e2573d6000803e3d6000fd5b505050506040513d601f19601f820116820180604052508101906111069190612561565b50336000908152600860205260408120805485929061112690849061294f565b90915550611132915050565b505050565b60068054611144906129c2565b80601f0160208091040260200160405190810160405280929190818152602001828054611170906129c2565b80156111bd5780601f10611192576101008083540402835291602001916111bd565b820191906000526020600020905b8154815290600101906020018083116111a057829003601f168201915b505050505081565b6001600160a01b0385163314806111e157506111e18533610676565b61123f5760405162461bcd60e51b815260206004820152602960248201527f455243313135353a2063616c6c6572206973206e6f74206f776e6572206e6f7260448201526808185c1c1c9bdd995960ba1b60648201526084016107d6565b610b1d8585858585611ddc565b6003546001600160a01b031633146112765760405162461bcd60e51b81526004016107d6906128f6565b6001600160a01b0381166112db5760405162461bcd60e51b815260206004820152602660248201527f4f776e61626c653a206e6577206f776e657220697320746865207a65726f206160448201526564647265737360d01b60648201526084016107d6565b610f6f81611aa7565b3360009081526007602090815260408083206001808552925280832054600884529220549060029080828510156113535760405162461bcd60e51b81526020600482015260136024820152722737ba1022b737bab3b410243cb23937b3b2b760691b60448201526064016107d6565b818410156113975760405162461bcd60e51b81526020600482015260116024820152702737ba1022b737bab3b41027bc3cb3b2b760791b60448201526064016107d6565b6103e886101580156113ab57506103ea8611155b6113ec5760405162461bcd60e51b81526020600482015260126024820152712737ba1030903b30b634b2102132b0b5b2b960711b60448201526064016107d6565b6113f833600185611c62565b336000908152600760209081526040808320600184529091528120805485929061142390849061297b565b90915550611435905033600884611c62565b336000908152600760209081526040808320600884529091528120805484929061146090849061297b565b9091555060009050611470611ef0565b90506114a5604051806040016040528060118152602001703930b73237b690373ab6b132b91034b99d60791b81525082611c1d565b6103e88714156115655760328111156114e5576114e0604051806040016040528060078152602001666661696c75726560c81b815250611bda565b61164c565b6115136040518060400160405280600d81526020016c15d85d195c8810dc99585d1959609a1b815250611bda565b61152f3360c884604051806020016040528060008152506117c0565b33600090815260076020908152604080832060c884529091528120805484929061155a90849061294f565b9091555061164c9050565b6103e98714156115a05760468111156114e5576114e0604051806040016040528060078152602001666661696c75726560c81b815250611bda565b605f8111156115d1576114e0604051806040016040528060078152602001666661696c75726560c81b815250611bda565b6115ff6040518060400160405280600d81526020016c15d85d195c8810dc99585d1959609a1b815250611bda565b61161b3360c884604051806020016040528060008152506117c0565b33600090815260076020908152604080832060c884529091528120805484929061164690849061294f565b90915550505b50505050505050565b611672336103e983604051806020016040528060008152506117c0565b3360009081526007602090815260408083206103e9845290915290205461169a90829061294f565b3360009081526007602090815260408083206103e9845290915290205550565b6060816116de5750506040805180820190915260018152600360fc1b602082015290565b8160005b811561170857806116f281612a2a565b91506117019050600a83612967565b91506116e2565b60008167ffffffffffffffff81111561172357611723612a9b565b6040519080825280601f01601f19166020018201604052801561174d576020820181803683370190505b5090505b84156117b85761176260018361297b565b915061176f600a86612a45565b61177a90603061294f565b60f81b81838151811061178f5761178f612a85565b60200101906001600160f81b031916908160001a9053506117b1600a86612967565b9450611751565b949350505050565b6001600160a01b0384166118205760405162461bcd60e51b815260206004820152602160248201527f455243313135353a206d696e7420746f20746865207a65726f206164647265736044820152607360f81b60648201526084016107d6565b3361183a8160008761183188611f23565b610b1d88611f23565b6000848152602081815260408083206001600160a01b03891684529091528120805485929061186a90849061294f565b909155505060408051858152602081018590526001600160a01b0380881692600092918516917fc3d58168c5ae7397731d063d5bbf3d657854427343f4c083240f7aacaa2d0f62910160405180910390a4610b1d81600087878787611f6e565b815183511461192c5760405162461bcd60e51b815260206004820152602860248201527f455243313135353a2069647320616e6420616d6f756e7473206c656e677468206044820152670dad2e6dac2e8c6d60c31b60648201526084016107d6565b6001600160a01b0384166119525760405162461bcd60e51b81526004016107d690612867565b3360005b8451811015611a3957600085828151811061197357611973612a85565b60200260200101519050600085838151811061199157611991612a85565b602090810291909101810151600084815280835260408082206001600160a01b038e1683529093529190912054909150818110156119e15760405162461bcd60e51b81526004016107d6906128ac565b6000838152602081815260408083206001600160a01b038e8116855292528083208585039055908b16825281208054849290611a1e90849061294f565b9250508190555050505080611a3290612a2a565b9050611956565b50846001600160a01b0316866001600160a01b0316826001600160a01b03167f4a39dc06d4c0dbc64b70af90fd698a233a518aa5d07e595d983b8c0526c8f7fb8787604051611a899291906127c5565b60405180910390a4611a9f8187878787876120d9565b505050505050565b600380546001600160a01b038381166001600160a01b0319831681179093556040519116919082907f8be0079c531659141344cd1fd0a4f28419497f9722a3daafe3b4186f6b6457e090600090a35050565b816001600160a01b0316836001600160a01b03161415611b6d5760405162461bcd60e51b815260206004820152602960248201527f455243313135353a2073657474696e6720617070726f76616c20737461747573604482015268103337b91039b2b63360b91b60648201526084016107d6565b6001600160a01b03838116600081815260016020908152604080832094871680845294825291829020805460ff191686151590811790915591519182527f17307eab39ab6107e8899845ad3d59bd9653f200f220920489ca2b5937696c31910160405180910390a3505050565b610f6f81604051602401611bee91906127ea565b60408051601f198184030181529190526020810180516001600160e01b031663104c13eb60e21b1790526121a3565b610e1a8282604051602401611c339291906127fd565b60408051601f198184030181529190526020810180516001600160e01b03166309710a9d60e41b1790526121a3565b6001600160a01b038316611cc45760405162461bcd60e51b815260206004820152602360248201527f455243313135353a206275726e2066726f6d20746865207a65726f206164647260448201526265737360e81b60648201526084016107d6565b33611cf481856000611cd587611f23565b611cde87611f23565b5050604080516020810190915260009052505050565b6000838152602081815260408083206001600160a01b038816845290915290205482811015611d715760405162461bcd60e51b8152602060048201526024808201527f455243313135353a206275726e20616d6f756e7420657863656564732062616c604482015263616e636560e01b60648201526084016107d6565b6000848152602081815260408083206001600160a01b03898116808652918452828520888703905582518981529384018890529092908616917fc3d58168c5ae7397731d063d5bbf3d657854427343f4c083240f7aacaa2d0f62910160405180910390a45050505050565b6001600160a01b038416611e025760405162461bcd60e51b81526004016107d690612867565b33611e1281878761183188611f23565b6000848152602081815260408083206001600160a01b038a16845290915290205483811015611e535760405162461bcd60e51b81526004016107d6906128ac565b6000858152602081815260408083206001600160a01b038b8116855292528083208785039055908816825281208054869290611e9090849061294f565b909155505060408051868152602081018690526001600160a01b03808916928a821692918616917fc3d58168c5ae7397731d063d5bbf3d657854427343f4c083240f7aacaa2d0f62910160405180910390a461164c828888888888611f6e565b60008060646005544244611f04919061294f565b611f0e919061294f565b611f189190612a45565b600581905592915050565b60408051600180825281830190925260609160009190602080830190803683370190505090508281600081518110611f5d57611f5d612a85565b602090810291909101015292915050565b6001600160a01b0384163b15611a9f5760405163f23a6e6160e01b81526001600160a01b0385169063f23a6e6190611fb2908990899088908890889060040161276d565b602060405180830381600087803b158015611fcc57600080fd5b505af1925050508015611ffc575060408051601f3d908101601f19168201909252611ff99181019061259b565b60015b6120a957612008612ab1565b806308c379a01415612042575061201d612acd565b806120285750612044565b8060405162461bcd60e51b81526004016107d691906127ea565b505b60405162461bcd60e51b815260206004820152603460248201527f455243313135353a207472616e7366657220746f206e6f6e20455243313135356044820152732932b1b2b4bb32b91034b6b83632b6b2b73a32b960611b60648201526084016107d6565b6001600160e01b0319811663f23a6e6160e01b1461164c5760405162461bcd60e51b81526004016107d69061281f565b6001600160a01b0384163b15611a9f5760405163bc197c8160e01b81526001600160a01b0385169063bc197c819061211d908990899088908890889060040161270f565b602060405180830381600087803b15801561213757600080fd5b505af1925050508015612167575060408051601f3d908101601f191682019092526121649181019061259b565b60015b61217357612008612ab1565b6001600160e01b0319811663bc197c8160e01b1461164c5760405162461bcd60e51b81526004016107d69061281f565b80516a636f6e736f6c652e6c6f67602083016000808483855afa5050505050565b80356001600160a01b03811681146121db57600080fd5b919050565b600082601f8301126121f157600080fd5b813560206121fe8261292b565b60405161220b82826129fd565b8381528281019150858301600585901b8701840188101561222b57600080fd5b60005b8581101561224a5781358452928401929084019060010161222e565b5090979650505050505050565b600082601f83011261226857600080fd5b813567ffffffffffffffff81111561228257612282612a9b565b604051612299601f8301601f1916602001826129fd565b8181528460208386010111156122ae57600080fd5b816020850160208301376000918101602001919091529392505050565b6000602082840312156122dd57600080fd5b6122e6826121c4565b9392505050565b6000806040838503121561230057600080fd5b612309836121c4565b9150612317602084016121c4565b90509250929050565b600080600080600060a0868803121561233857600080fd5b612341866121c4565b945061234f602087016121c4565b9350604086013567ffffffffffffffff8082111561236c57600080fd5b61237889838a016121e0565b9450606088013591508082111561238e57600080fd5b61239a89838a016121e0565b935060808801359150808211156123b057600080fd5b506123bd88828901612257565b9150509295509295909350565b600080600080600060a086880312156123e257600080fd5b6123eb866121c4565b94506123f9602087016121c4565b93506040860135925060608601359150608086013567ffffffffffffffff81111561242357600080fd5b6123bd88828901612257565b6000806040838503121561244257600080fd5b61244b836121c4565b9150602083013561245b81612b57565b809150509250929050565b6000806040838503121561247957600080fd5b612482836121c4565b946020939093013593505050565b600080604083850312156124a357600080fd5b823567ffffffffffffffff808211156124bb57600080fd5b818501915085601f8301126124cf57600080fd5b813560206124dc8261292b565b6040516124e982826129fd565b8381528281019150858301600585901b870184018b101561250957600080fd5b600096505b848710156125335761251f816121c4565b83526001969096019591830191830161250e565b509650508601359250508082111561254a57600080fd5b50612557858286016121e0565b9150509250929050565b60006020828403121561257357600080fd5b81516122e681612b57565b60006020828403121561259057600080fd5b81356122e681612b65565b6000602082840312156125ad57600080fd5b81516122e681612b65565b6000602082840312156125ca57600080fd5b5035919050565b600081518084526020808501945080840160005b83811015612601578151875295820195908201906001016125e5565b509495945050505050565b60008151808452612624816020860160208601612992565b601f01601f19169290920160200192915050565b6000815161264a818560208601612992565b9290920192915050565b600080845481600182811c91508083168061267057607f831692505b602080841082141561269057634e487b7160e01b86526022600452602486fd5b8180156126a457600181146126b5576126e2565b60ff198616895284890196506126e2565b60008b81526020902060005b868110156126da5781548b8201529085019083016126c1565b505084890196505b5050505050506127066126f58286612638565b64173539b7b760d91b815260050190565b95945050505050565b6001600160a01b0386811682528516602082015260a06040820181905260009061273b908301866125d1565b828103606084015261274d81866125d1565b90508281036080840152612761818561260c565b98975050505050505050565b6001600160a01b03868116825285166020820152604081018490526060810183905260a0608082018190526000906127a79083018461260c565b979650505050505050565b6020815260006122e660208301846125d1565b6040815260006127d860408301856125d1565b828103602084015261270681856125d1565b6020815260006122e6602083018461260c565b604081526000612810604083018561260c565b90508260208301529392505050565b60208082526028908201527f455243313135353a204552433131353552656365697665722072656a656374656040820152676420746f6b656e7360c01b606082015260800190565b60208082526025908201527f455243313135353a207472616e7366657220746f20746865207a65726f206164604082015264647265737360d81b606082015260800190565b6020808252602a908201527f455243313135353a20696e73756666696369656e742062616c616e636520666f60408201526939103a3930b739b332b960b11b606082015260800190565b6020808252818101527f4f776e61626c653a2063616c6c6572206973206e6f7420746865206f776e6572604082015260600190565b600067ffffffffffffffff82111561294557612945612a9b565b5060051b60200190565b6000821982111561296257612962612a59565b500190565b60008261297657612976612a6f565b500490565b60008282101561298d5761298d612a59565b500390565b60005b838110156129ad578181015183820152602001612995565b838111156129bc576000848401525b50505050565b600181811c908216806129d657607f821691505b602082108114156129f757634e487b7160e01b600052602260045260246000fd5b50919050565b601f8201601f1916810167ffffffffffffffff81118282101715612a2357612a23612a9b565b6040525050565b6000600019821415612a3e57612a3e612a59565b5060010190565b600082612a5457612a54612a6f565b500690565b634e487b7160e01b600052601160045260246000fd5b634e487b7160e01b600052601260045260246000fd5b634e487b7160e01b600052603260045260246000fd5b634e487b7160e01b600052604160045260246000fd5b600060033d1115612aca5760046000803e5060005160e01c5b90565b600060443d1015612adb5790565b6040516003193d81016004833e81513d67ffffffffffffffff8160248401118184111715612b0b57505050505090565b8285019150815181811115612b235750505050505090565b843d8701016020828501011115612b3d5750505050505090565b612b4c602082860101876129fd565b509095945050505050565b8015158114610f6f57600080fd5b6001600160e01b031981168114610f6f57600080fdfea2646970667358221220ccfeb3662ddba8d4dd3a573ffdc0b78f7f5ae4205cb68244a4fefb1e525a831e64736f6c63430008070033697066733a2f2f516d634a3162516242523368556f733155614c6d3776326d46784a39796b484556357a4c4c6d595770637038424e2f",
  "linkReferences": {},
  "deployedLinkReferences": {}
}