{
  "_format": "hh-sol-artifact-1",
  "contractName": "Chem",
  "sourceName": "contracts/Chem.sol",
  "abi": [
    {
      "inputs": [
        {
          "internalType": "address",
          "name": "_address",
          "type": "address"
        }
      ],
      "stateMutability": "nonpayable",
      "type": "constructor"
    },
    {
      "anonymous": false,
      "inputs": [
        {
          "indexed": true,
          "internalType": "address",
          "name": "account",
          "type": "address"
        },
        {
          "indexed": true,
          "internalType": "address",
          "name": "operator",
          "type": "address"
        },
        {
          "indexed": false,
          "internalType": "bool",
          "name": "approved",
          "type": "bool"
        }
      ],
      "name": "ApprovalForAll",
      "type": "event"
    },
    {
      "anonymous": false,
      "inputs": [
        {
          "indexed": true,
          "internalType": "address",
          "name": "previousOwner",
          "type": "address"
        },
        {
          "indexed": true,
          "internalType": "address",
          "name": "newOwner",
          "type": "address"
        }
      ],
      "name": "OwnershipTransferred",
      "type": "event"
    },
    {
      "anonymous": false,
      "inputs": [
        {
          "indexed": true,
          "internalType": "address",
          "name": "operator",
          "type": "address"
        },
        {
          "indexed": true,
          "internalType": "address",
          "name": "from",
          "type": "address"
        },
        {
          "indexed": true,
          "internalType": "address",
          "name": "to",
          "type": "address"
        },
        {
          "indexed": false,
          "internalType": "uint256[]",
          "name": "ids",
          "type": "uint256[]"
        },
        {
          "indexed": false,
          "internalType": "uint256[]",
          "name": "values",
          "type": "uint256[]"
        }
      ],
      "name": "TransferBatch",
      "type": "event"
    },
    {
      "anonymous": false,
      "inputs": [
        {
          "indexed": true,
          "internalType": "address",
          "name": "operator",
          "type": "address"
        },
        {
          "indexed": true,
          "internalType": "address",
          "name": "from",
          "type": "address"
        },
        {
          "indexed": true,
          "internalType": "address",
          "name": "to",
          "type": "address"
        },
        {
          "indexed": false,
          "internalType": "uint256",
          "name": "id",
          "type": "uint256"
        },
        {
          "indexed": false,
          "internalType": "uint256",
          "name": "value",
          "type": "uint256"
        }
      ],
      "name": "TransferSingle",
      "type": "event"
    },
    {
      "anonymous": false,
      "inputs": [
        {
          "indexed": false,
          "internalType": "string",
          "name": "value",
          "type": "string"
        },
        {
          "indexed": true,
          "internalType": "uint256",
          "name": "id",
          "type": "uint256"
        }
      ],
      "name": "URI",
      "type": "event"
    },
    {
      "inputs": [],
      "name": "Beryllium",
      "outputs": [
        {
          "internalType": "uint256",
          "name": "",
          "type": "uint256"
        }
      ],
      "stateMutability": "view",
      "type": "function"
    },
    {
      "inputs": [],
      "name": "Elements",
      "outputs": [
        {
          "internalType": "string",
          "name": "",
          "type": "string"
        }
      ],
      "stateMutability": "view",
      "type": "function"
    },
    {
      "inputs": [],
      "name": "Helium",
      "outputs": [
        {
          "internalType": "uint256",
          "name": "",
          "type": "uint256"
        }
      ],
      "stateMutability": "view",
      "type": "function"
    },
    {
      "inputs": [],
      "name": "Hydrogen",
      "outputs": [
        {
          "internalType": "uint256",
          "name": "",
          "type": "uint256"
        }
      ],
      "stateMutability": "view",
      "type": "function"
    },
    {
      "inputs": [],
      "name": "Lithium",
      "outputs": [
        {
          "internalType": "uint256",
          "name": "",
          "type": "uint256"
        }
      ],
      "stateMutability": "view",
      "type": "function"
    },
    {
      "inputs": [],
      "name": "Oxygen",
      "outputs": [
        {
          "internalType": "uint256",
          "name": "",
          "type": "uint256"
        }
      ],
      "stateMutability": "view",
      "type": "function"
    },
    {
      "inputs": [],
      "name": "PureWater",
      "outputs": [
        {
          "internalType": "uint256",
          "name": "",
          "type": "uint256"
        }
      ],
      "stateMutability": "view",
      "type": "function"
    },
    {
      "inputs": [],
      "name": "Water",
      "outputs": [
        {
          "internalType": "uint256",
          "name": "",
          "type": "uint256"
        }
      ],
      "stateMutability": "view",
      "type": "function"
    },
    {
      "inputs": [
        {
          "internalType": "address",
          "name": "account",
          "type": "address"
        },
        {
          "internalType": "uint256",
          "name": "id",
          "type": "uint256"
        }
      ],
      "name": "balanceOf",
      "outputs": [
        {
          "internalType": "uint256",
          "name": "",
          "type": "uint256"
        }
      ],
      "stateMutability": "view",
      "type": "function"
    },
    {
      "inputs": [
        {
          "internalType": "address[]",
          "name": "accounts",
          "type": "address[]"
        },
        {
          "internalType": "uint256[]",
          "name": "ids",
          "type": "uint256[]"
        }
      ],
      "name": "balanceOfBatch",
      "outputs": [
        {
          "internalType": "uint256[]",
          "name": "",
          "type": "uint256[]"
        }
      ],
      "stateMutability": "view",
      "type": "function"
    },
    {
      "inputs": [
        {
          "internalType": "address",
          "name": "",
          "type": "address"
        }
      ],
      "name": "btcTokenBalance",
      "outputs": [
        {
          "internalType": "uint256",
          "name": "",
          "type": "uint256"
        }
      ],
      "stateMutability": "view",
      "type": "function"
    },
    {
      "inputs": [],
      "name": "cheapBeaker",
      "outputs": [
        {
          "internalType": "uint256",
          "name": "",
          "type": "uint256"
        }
      ],
      "stateMutability": "view",
      "type": "function"
    },
    {
      "inputs": [
        {
          "internalType": "uint256",
          "name": "_beaker",
          "type": "uint256"
        }
      ],
      "name": "createWater",
      "outputs": [],
      "stateMutability": "nonpayable",
      "type": "function"
    },
    {
      "inputs": [],
      "name": "epicBeaker",
      "outputs": [
        {
          "internalType": "uint256",
          "name": "",
          "type": "uint256"
        }
      ],
      "stateMutability": "view",
      "type": "function"
    },
    {
      "inputs": [],
      "name": "getRandomNumber",
      "outputs": [
        {
          "internalType": "bytes32",
          "name": "requestId",
          "type": "bytes32"
        }
      ],
      "stateMutability": "nonpayable",
      "type": "function"
    },
    {
      "inputs": [
        {
          "internalType": "address",
          "name": "account",
          "type": "address"
        },
        {
          "internalType": "address",
          "name": "operator",
          "type": "address"
        }
      ],
      "name": "isApprovedForAll",
      "outputs": [
        {
          "internalType": "bool",
          "name": "",
          "type": "bool"
        }
      ],
      "stateMutability": "view",
      "type": "function"
    },
    {
      "inputs": [
        {
          "internalType": "uint256",
          "name": "_beaker",
          "type": "uint256"
        }
      ],
      "name": "mergeElements",
      "outputs": [],
      "stateMutability": "nonpayable",
      "type": "function"
    },
    {
      "inputs": [
        {
          "internalType": "uint256",
          "name": "_amount",
          "type": "uint256"
        }
      ],
      "name": "mintBTC",
      "outputs": [],
      "stateMutability": "nonpayable",
      "type": "function"
    },
    {
      "inputs": [
        {
          "internalType": "uint256",
          "name": "_amount",
          "type": "uint256"
        }
      ],
      "name": "mintBeryllium",
      "outputs": [],
      "stateMutability": "nonpayable",
      "type": "function"
    },
    {
      "inputs": [
        {
          "internalType": "uint256",
          "name": "_amount",
          "type": "uint256"
        }
      ],
      "name": "mintCheapBeaker",
      "outputs": [],
      "stateMutability": "nonpayable",
      "type": "function"
    },
    {
      "inputs": [
        {
          "internalType": "uint256",
          "name": "_amount",
          "type": "uint256"
        }
      ],
      "name": "mintEpicBeaker",
      "outputs": [],
      "stateMutability": "nonpayable",
      "type": "function"
    },
    {
      "inputs": [
        {
          "internalType": "uint256",
          "name": "_amount",
          "type": "uint256"
        }
      ],
      "name": "mintHelium",
      "outputs": [],
      "stateMutability": "nonpayable",
      "type": "function"
    },
    {
      "inputs": [
        {
          "internalType": "uint256",
          "name": "_amount",
          "type": "uint256"
        }
      ],
      "name": "mintHydrogen",
      "outputs": [],
      "stateMutability": "nonpayable",
      "type": "function"
    },
    {
      "inputs": [
        {
          "internalType": "uint256",
          "name": "_amount",
          "type": "uint256"
        }
      ],
      "name": "mintLithium",
      "outputs": [],
      "stateMutability": "nonpayable",
      "type": "function"
    },
    {
      "inputs": [
        {
          "internalType": "uint256",
          "name": "_amount",
          "type": "uint256"
        }
      ],
      "name": "mintOxygen",
      "outputs": [],
      "stateMutability": "nonpayable",
      "type": "function"
    },
    {
      "inputs": [
        {
          "internalType": "uint256",
          "name": "_amount",
          "type": "uint256"
        }
      ],
      "name": "mintRegularBeaker",
      "outputs": [],
      "stateMutability": "nonpayable",
      "type": "function"
    },
    {
      "inputs": [],
      "name": "name",
      "outputs": [
        {
          "internalType": "string",
          "name": "",
          "type": "string"
        }
      ],
      "stateMutability": "pure",
      "type": "function"
    },
    {
      "inputs": [],
      "name": "owner",
      "outputs": [
        {
          "internalType": "address",
          "name": "",
          "type": "address"
        }
      ],
      "stateMutability": "view",
      "type": "function"
    },
    {
      "inputs": [],
      "name": "randomResult",
      "outputs": [
        {
          "internalType": "uint256",
          "name": "",
          "type": "uint256"
        }
      ],
      "stateMutability": "view",
      "type": "function"
    },
    {
      "inputs": [
        {
          "internalType": "bytes32",
          "name": "requestId",
          "type": "bytes32"
        },
        {
          "internalType": "uint256",
          "name": "randomness",
          "type": "uint256"
        }
      ],
      "name": "rawFulfillRandomness",
      "outputs": [],
      "stateMutability": "nonpayable",
      "type": "function"
    },
    {
      "inputs": [],
      "name": "regularBeaker",
      "outputs": [
        {
          "internalType": "uint256",
          "name": "",
          "type": "uint256"
        }
      ],
      "stateMutability": "view",
      "type": "function"
    },
    {
      "inputs": [],
      "name": "renounceOwnership",
      "outputs": [],
      "stateMutability": "nonpayable",
      "type": "function"
    },
    {
      "inputs": [
        {
          "internalType": "address",
          "name": "from",
          "type": "address"
        },
        {
          "internalType": "address",
          "name": "to",
          "type": "address"
        },
        {
          "internalType": "uint256[]",
          "name": "ids",
          "type": "uint256[]"
        },
        {
          "internalType": "uint256[]",
          "name": "amounts",
          "type": "uint256[]"
        },
        {
          "internalType": "bytes",
          "name": "data",
          "type": "bytes"
        }
      ],
      "name": "safeBatchTransferFrom",
      "outputs": [],
      "stateMutability": "nonpayable",
      "type": "function"
    },
    {
      "inputs": [
        {
          "internalType": "address",
          "name": "from",
          "type": "address"
        },
        {
          "internalType": "address",
          "name": "to",
          "type": "address"
        },
        {
          "internalType": "uint256",
          "name": "id",
          "type": "uint256"
        },
        {
          "internalType": "uint256",
          "name": "amount",
          "type": "uint256"
        },
        {
          "internalType": "bytes",
          "name": "data",
          "type": "bytes"
        }
      ],
      "name": "safeTransferFrom",
      "outputs": [],
      "stateMutability": "nonpayable",
      "type": "function"
    },
    {
      "inputs": [
        {
          "internalType": "uint256",
          "name": "_amount",
          "type": "uint256"
        }
      ],
      "name": "sellNFT",
      "outputs": [],
      "stateMutability": "nonpayable",
      "type": "function"
    },
    {
      "inputs": [
        {
          "internalType": "address",
          "name": "operator",
          "type": "address"
        },
        {
          "internalType": "bool",
          "name": "approved",
          "type": "bool"
        }
      ],
      "name": "setApprovalForAll",
      "outputs": [],
      "stateMutability": "nonpayable",
      "type": "function"
    },
    {
      "inputs": [
        {
          "internalType": "address",
          "name": "addr",
          "type": "address"
        }
      ],
      "name": "setwbtcContract",
      "outputs": [],
      "stateMutability": "nonpayable",
      "type": "function"
    },
    {
      "inputs": [
        {
          "internalType": "uint256",
          "name": "_amount",
          "type": "uint256"
        }
      ],
      "name": "stakeBTC",
      "outputs": [],
      "stateMutability": "payable",
      "type": "function"
    },
    {
      "inputs": [
        {
          "internalType": "address",
          "name": "",
          "type": "address"
        },
        {
          "internalType": "uint256",
          "name": "",
          "type": "uint256"
        }
      ],
      "name": "supplyBalance",
      "outputs": [
        {
          "internalType": "uint256",
          "name": "",
          "type": "uint256"
        }
      ],
      "stateMutability": "view",
      "type": "function"
    },
    {
      "inputs": [
        {
          "internalType": "bytes4",
          "name": "interfaceId",
          "type": "bytes4"
        }
      ],
      "name": "supportsInterface",
      "outputs": [
        {
          "internalType": "bool",
          "name": "",
          "type": "bool"
        }
      ],
      "stateMutability": "view",
      "type": "function"
    },
    {
      "inputs": [],
      "name": "symbol",
      "outputs": [
        {
          "internalType": "string",
          "name": "",
          "type": "string"
        }
      ],
      "stateMutability": "pure",
      "type": "function"
    },
    {
      "inputs": [
        {
          "internalType": "address",
          "name": "newOwner",
          "type": "address"
        }
      ],
      "name": "transferOwnership",
      "outputs": [],
      "stateMutability": "nonpayable",
      "type": "function"
    },
    {
      "inputs": [
        {
          "internalType": "uint256",
          "name": "_tokenId",
          "type": "uint256"
        }
      ],
      "name": "uri",
      "outputs": [
        {
          "internalType": "string",
          "name": "",
          "type": "string"
        }
      ],
      "stateMutability": "view",
      "type": "function"
    },
    {
      "inputs": [],
      "name": "wbtcContract",
      "outputs": [
        {
          "internalType": "contract WBTC",
          "name": "",
          "type": "address"
        }
      ],
      "stateMutability": "view",
      "type": "function"
    }
  ],
  "bytecode": "0x610120604052603660c081815290620032f460e03980516200002a91600a916020909101906200020e565b503480156200003857600080fd5b506040516200332a3803806200332a8339810160408190526200005b91620002b4565b738c7382f9d8f56b33781fe506e897a4f1e2d1725573326c977e6efc84e512bb9c30f76e30c160ed06fb600a80546200009490620002e6565b80601f0160208091040260200160405190810160405280929190818152602001828054620000c290620002e6565b8015620001135780601f10620000e75761010080835404028352916020019162000113565b820191906000526020600020905b815481529060010190602001808311620000f557829003601f168201915b50505050506200012981620001a360201b60201c565b506200013533620001bc565b606091821b6001600160601b031990811660a052911b16608052600580546001600160a01b0319166001600160a01b03929092169190911790557f6e75b569a01ef56d18cab6a8e71e6600d6ce853834d4a5748b720d06f878b3a4600955655af3107a400060075562000323565b8051620001b89060029060208401906200020e565b5050565b600380546001600160a01b038381166001600160a01b0319831681179093556040519116919082907f8be0079c531659141344cd1fd0a4f28419497f9722a3daafe3b4186f6b6457e090600090a35050565b8280546200021c90620002e6565b90600052602060002090601f0160209004810192826200024057600085556200028b565b82601f106200025b57805160ff19168380011785556200028b565b828001600101855582156200028b579182015b828111156200028b5782518255916020019190600101906200026e565b50620002999291506200029d565b5090565b5b808211156200029957600081556001016200029e565b600060208284031215620002c757600080fd5b81516001600160a01b0381168114620002df57600080fd5b9392505050565b600181811c90821680620002fb57607f821691505b602082108114156200031d57634e487b7160e01b600052602260045260246000fd5b50919050565b60805160601c60a05160601c612f976200035d60003960008181610ec50152611e390152600081816110bb0152611e0a0152612f976000f3fe6080604052600436106102665760003560e01c806377b07f6b11610144578063b63426b3116100b6578063eee0d9e21161007a578063eee0d9e21461075b578063f242432a14610770578063f27d7dcd14610790578063f2fde38b146107a5578063f58ee1cc146107c5578063f6f104c0146107e557600080fd5b8063b63426b3146106b5578063c2b84722146106ca578063dbdff2c1146106dd578063e985e9c5146106f2578063ee9cdfb31461073b57600080fd5b80639280d8ee116101085780639280d8ee146105fd57806394985ddd1461061d57806395d89b411461063d578063a22cb4651461066a578063abc40ce41461068a578063ae365e201461069f57600080fd5b806377b07f6b146105675780637b5fdac41461057c578063807a012d146105925780638da5cb5b146105ca5780638fcb4325146105e857600080fd5b80632e4712f0116101dd5780634e1273f4116101a15780634e1273f4146104ba5780635a0c38d4146104e75780635b5d897f146104fd5780636d5460831461051d5780636e69adcf1461053d578063715018a61461055257600080fd5b80632e4712f01461042f5780632eb2c2d61461044f57806335926b9c1461046f578063403c617e1461048f57806342619f66146104a457600080fd5b80630e89341c1161022f5780630e89341c1461034a578063142cee931461036a578063159907de1461039757806316b488a0146103cf5780632014218a146103ef578063225abdbd1461040f57600080fd5b8062fdd58e1461026b57806301ffc9a71461029e57806306fdde03146102ce578063080f54f7146103085780630d23b9bc1461032a575b600080fd5b34801561027757600080fd5b5061028b6102863660046127ea565b610805565b6040519081526020015b60405180910390f35b3480156102aa57600080fd5b506102be6102b9366004612924565b61089c565b6040519015158152602001610295565b3480156102da57600080fd5b50604080518082019091526008815267456c656d656e747360c01b60208201525b6040516102959190612bd0565b34801561031457600080fd5b5061032861032336600461295e565b6108ee565b005b34801561033657600080fd5b5061032861034536600461295e565b61097a565b34801561035657600080fd5b506102fb61036536600461295e565b61098f565b34801561037657600080fd5b5061028b61038536600461264f565b600c6020526000908152604090205481565b3480156103a357600080fd5b5061028b6103b23660046127ea565b600b60209081526000928352604080842090915290825290205481565b3480156103db57600080fd5b506103286103ea36600461264f565b6109c3565b3480156103fb57600080fd5b5061032861040a36600461295e565b610a0f565b34801561041b57600080fd5b5061032861042a36600461295e565b610a71565b34801561043b57600080fd5b5061032861044a36600461295e565b610ad3565b34801561045b57600080fd5b5061032861046a3660046126a4565b610b38565b34801561047b57600080fd5b5061032861048a36600461295e565b610bcf565b34801561049b57600080fd5b5061028b600181565b3480156104b057600080fd5b5061028b60085481565b3480156104c657600080fd5b506104da6104d5366004612814565b610c31565b6040516102959190612b98565b3480156104f357600080fd5b5061028b6103e881565b34801561050957600080fd5b5061032861051836600461295e565b610d5b565b34801561052957600080fd5b5061032861053836600461295e565b610dbd565b34801561054957600080fd5b5061028b60c881565b34801561055e57600080fd5b50610328610e22565b34801561057357600080fd5b5061028b600381565b34801561058857600080fd5b5061028b6103ea81565b34801561059e57600080fd5b506005546105b2906001600160a01b031681565b6040516001600160a01b039091168152602001610295565b3480156105d657600080fd5b506003546001600160a01b03166105b2565b3480156105f457600080fd5b5061028b600481565b34801561060957600080fd5b5061032861061836600461295e565b610e58565b34801561062957600080fd5b50610328610638366004612902565b610eba565b34801561064957600080fd5b506040805180820190915260048152631153135560e21b60208201526102fb565b34801561067657600080fd5b506103286106853660046127b3565b610f3c565b34801561069657600080fd5b5061028b600281565b3480156106ab57600080fd5b5061028b6103e981565b3480156106c157600080fd5b5061028b600881565b6103286106d836600461295e565b610f47565b3480156106e957600080fd5b5061028b611097565b3480156106fe57600080fd5b506102be61070d366004612671565b6001600160a01b03918216600090815260016020908152604080832093909416825291909152205460ff1690565b34801561074757600080fd5b5061032861075636600461295e565b6111aa565b34801561076757600080fd5b506102fb61136e565b34801561077c57600080fd5b5061032861078b36600461274e565b6113fc565b34801561079c57600080fd5b5061028b60c981565b3480156107b157600080fd5b506103286107c036600461264f565b611483565b3480156107d157600080fd5b506103286107e036600461295e565b61151b565b3480156107f157600080fd5b5061032861080036600461295e565b611881565b60006001600160a01b0383166108765760405162461bcd60e51b815260206004820152602b60248201527f455243313135353a2062616c616e636520717565727920666f7220746865207a60448201526a65726f206164647265737360a81b60648201526084015b60405180910390fd5b506000908152602081815260408083206001600160a01b03949094168352929052205490565b60006001600160e01b03198216636cdb3d1360e11b14806108cd57506001600160e01b031982166303a24d0760e21b145b806108e857506301ffc9a760e01b6001600160e01b03198316145b92915050565b6005546040516340c10f1960e01b8152336004820152602481018390526001600160a01b03909116906340c10f1990604401600060405180830381600087803b15801561093a57600080fd5b505af115801561094e573d6000803e3d6000fd5b5050336000908152600c602052604081208054859450909250610972908490612d35565b909155505050565b610982611097565b5061098c8161151b565b50565b6060600a61099c836118e6565b6040516020016109ad929190612a13565b6040516020818303038152906040529050919050565b6003546001600160a01b031633146109ed5760405162461bcd60e51b815260040161086d90612cdc565b600580546001600160a01b0319166001600160a01b0392909216919091179055565b610a2b33600183604051806020016040528060008152506119ec565b336000908152600b6020908152604080832060018452909152902054610a52908290612d35565b336000908152600b602090815260408083206001845290915290205550565b610a8d33600383604051806020016040528060008152506119ec565b336000908152600b6020908152604080832060038452909152902054610ab4908290612d35565b336000908152600b602090815260408083206003845290915290205550565b610af0336103ea83604051806020016040528060008152506119ec565b336000908152600b602090815260408083206103ea8452909152902054610b18908290612d35565b336000908152600b602090815260408083206103ea845290915290205550565b6001600160a01b038516331480610b545750610b54853361070d565b610bbb5760405162461bcd60e51b815260206004820152603260248201527f455243313135353a207472616e736665722063616c6c6572206973206e6f74206044820152711bdddb995c881b9bdc88185c1c1c9bdd995960721b606482015260840161086d565b610bc88585858585611af6565b5050505050565b610beb33600883604051806020016040528060008152506119ec565b336000908152600b6020908152604080832060088452909152902054610c12908290612d35565b336000908152600b602090815260408083206008845290915290205550565b60608151835114610c965760405162461bcd60e51b815260206004820152602960248201527f455243313135353a206163636f756e747320616e6420696473206c656e677468604482015268040dad2e6dac2e8c6d60bb1b606482015260840161086d565b6000835167ffffffffffffffff811115610cb257610cb2612e81565b604051908082528060200260200182016040528015610cdb578160200160208202803683370190505b50905060005b8451811015610d5357610d26858281518110610cff57610cff612e6b565b6020026020010151858381518110610d1957610d19612e6b565b6020026020010151610805565b828281518110610d3857610d38612e6b565b6020908102919091010152610d4c81612e10565b9050610ce1565b509392505050565b610d7733600283604051806020016040528060008152506119ec565b336000908152600b6020908152604080832060028452909152902054610d9e908290612d35565b336000908152600b602090815260408083206002845290915290205550565b610dda336103e883604051806020016040528060008152506119ec565b336000908152600b602090815260408083206103e88452909152902054610e02908290612d35565b336000908152600b602090815260408083206103e8845290915290205550565b6003546001600160a01b03163314610e4c5760405162461bcd60e51b815260040161086d90612cdc565b610e566000611cd3565b565b610e7433600483604051806020016040528060008152506119ec565b336000908152600b6020908152604080832060048452909152902054610e9b908290612d35565b336000908152600b602090815260408083206004845290915290205550565b336001600160a01b037f00000000000000000000000000000000000000000000000000000000000000001614610f325760405162461bcd60e51b815260206004820152601f60248201527f4f6e6c7920565246436f6f7264696e61746f722063616e2066756c66696c6c00604482015260640161086d565b60085550565b5050565b610f38338383611d25565b60008111610f975760405162461bcd60e51b815260206004820181905260248201527f416d6f756e74206d7573742062652067726561746572207468616e207a657230604482015260640161086d565b6005546040516323b872dd60e01b8152336004820152306024820152604481018390526001600160a01b03909116906323b872dd90606401602060405180830381600087803b158015610fe957600080fd5b505af1158015610ffd573d6000803e3d6000fd5b505050506040513d601f19601f8201168201806040525081019061102191906128e5565b50336000908152600c602052604081208054839290611041908490612d61565b909155506110519050600a610a0f565b61105b600a610d5b565b611065600a610e58565b61106f600a610a71565b611079600a610bcf565b611083600a610dbd565b61108d600a610ad3565b61098c600a611881565b6007546040516370a0823160e01b8152306004820152600091906001600160a01b037f000000000000000000000000000000000000000000000000000000000000000016906370a082319060240160206040518083038186803b1580156110fd57600080fd5b505afa158015611111573d6000803e3d6000fd5b505050506040513d601f19601f820116820180604052508101906111359190612977565b10156111975760405162461bcd60e51b815260206004820152602b60248201527f4e6f7420656e6f756768204c494e4b202d2066696c6c20636f6e74726163742060448201526a1dda5d1a0819985d58d95d60aa1b606482015260840161086d565b6111a5600954600754611e06565b905090565b60c881101580156111bc575060c98111155b6111fd5760405162461bcd60e51b81526020600482015260126024820152712737ba102b30b634b21021b932b0ba34b7b760711b604482015260640161086d565b611234604051806040016040528060168152602001751c185cdcd959081d1a19481c995c5d5a5c995b595b9d60521b815250611f91565b6002600160c883141561136957600261124d8184612d4d565b925061127d6040518060400160405280600c81526020016b7265776172642076616c756560a01b81525084611fd4565b6112893360c884612019565b336000908152600b6020908152604080832060c88452909152812080548592906112b4908490612d61565b909155505060055460405163a9059cbb60e01b8152336004820152602481018590526001600160a01b039091169063a9059cbb90604401602060405180830381600087803b15801561130557600080fd5b505af1158015611319573d6000803e3d6000fd5b505050506040513d601f19601f8201168201806040525081019061133d91906128e5565b50336000908152600c60205260408120805485929061135d908490612d35565b90915550611369915050565b505050565b600a805461137b90612da8565b80601f01602080910402602001604051908101604052809291908181526020018280546113a790612da8565b80156113f45780601f106113c9576101008083540402835291602001916113f4565b820191906000526020600020905b8154815290600101906020018083116113d757829003601f168201915b505050505081565b6001600160a01b0385163314806114185750611418853361070d565b6114765760405162461bcd60e51b815260206004820152602960248201527f455243313135353a2063616c6c6572206973206e6f74206f776e6572206e6f7260448201526808185c1c1c9bdd995960ba1b606482015260840161086d565b610bc88585858585612193565b6003546001600160a01b031633146114ad5760405162461bcd60e51b815260040161086d90612cdc565b6001600160a01b0381166115125760405162461bcd60e51b815260206004820152602660248201527f4f776e61626c653a206e6577206f776e657220697320746865207a65726f206160448201526564647265737360d01b606482015260840161086d565b61098c81611cd3565b336000908152600b6020908152604080832060018085529252808320546008845292205490600290808285101561158a5760405162461bcd60e51b81526020600482015260136024820152722737ba1022b737bab3b410243cb23937b3b2b760691b604482015260640161086d565b818410156115ce5760405162461bcd60e51b81526020600482015260116024820152702737ba1022b737bab3b41027bc3cb3b2b760791b604482015260640161086d565b6103e886101580156115e257506103ea8611155b6116235760405162461bcd60e51b81526020600482015260126024820152712737ba1030903b30b634b2102132b0b5b2b960711b604482015260640161086d565b61162f33600185612019565b336000908152600b60209081526040808320600184529091528120805485929061165a908490612d61565b9091555061166c905033600884612019565b336000908152600b602090815260408083206008845290915281208054849290611697908490612d61565b90915550506008546040805180820190915260118152703930b73237b690373ab6b132b91034b99d60791b60208201526116d19082611fd4565b6103e88714156117915760328111156117115761170c604051806040016040528060078152602001666661696c75726560c81b815250611f91565b611878565b61173f6040518060400160405280600d81526020016c15d85d195c8810dc99585d1959609a1b815250611f91565b61175b3360c884604051806020016040528060008152506119ec565b336000908152600b6020908152604080832060c8845290915281208054849290611786908490612d35565b909155506118789050565b6103e98714156117cc5760468111156117115761170c604051806040016040528060078152602001666661696c75726560c81b815250611f91565b605f8111156117fd5761170c604051806040016040528060078152602001666661696c75726560c81b815250611f91565b61182b6040518060400160405280600d81526020016c15d85d195c8810dc99585d1959609a1b815250611f91565b6118473360c884604051806020016040528060008152506119ec565b336000908152600b6020908152604080832060c8845290915281208054849290611872908490612d35565b90915550505b50505050505050565b61189e336103e983604051806020016040528060008152506119ec565b336000908152600b602090815260408083206103e984529091529020546118c6908290612d35565b336000908152600b602090815260408083206103e9845290915290205550565b60608161190a5750506040805180820190915260018152600360fc1b602082015290565b8160005b8115611934578061191e81612e10565b915061192d9050600a83612d4d565b915061190e565b60008167ffffffffffffffff81111561194f5761194f612e81565b6040519080825280601f01601f191660200182016040528015611979576020820181803683370190505b5090505b84156119e45761198e600183612d61565b915061199b600a86612e2b565b6119a6906030612d35565b60f81b8183815181106119bb576119bb612e6b565b60200101906001600160f81b031916908160001a9053506119dd600a86612d4d565b945061197d565b949350505050565b6001600160a01b038416611a4c5760405162461bcd60e51b815260206004820152602160248201527f455243313135353a206d696e7420746f20746865207a65726f206164647265736044820152607360f81b606482015260840161086d565b33611a6681600087611a5d886122a7565b610bc8886122a7565b6000848152602081815260408083206001600160a01b038916845290915281208054859290611a96908490612d35565b909155505060408051858152602081018590526001600160a01b0380881692600092918516917fc3d58168c5ae7397731d063d5bbf3d657854427343f4c083240f7aacaa2d0f62910160405180910390a4610bc8816000878787876122f2565b8151835114611b585760405162461bcd60e51b815260206004820152602860248201527f455243313135353a2069647320616e6420616d6f756e7473206c656e677468206044820152670dad2e6dac2e8c6d60c31b606482015260840161086d565b6001600160a01b038416611b7e5760405162461bcd60e51b815260040161086d90612c4d565b3360005b8451811015611c65576000858281518110611b9f57611b9f612e6b565b602002602001015190506000858381518110611bbd57611bbd612e6b565b602090810291909101810151600084815280835260408082206001600160a01b038e168352909352919091205490915081811015611c0d5760405162461bcd60e51b815260040161086d90612c92565b6000838152602081815260408083206001600160a01b038e8116855292528083208585039055908b16825281208054849290611c4a908490612d35565b9250508190555050505080611c5e90612e10565b9050611b82565b50846001600160a01b0316866001600160a01b0316826001600160a01b03167f4a39dc06d4c0dbc64b70af90fd698a233a518aa5d07e595d983b8c0526c8f7fb8787604051611cb5929190612bab565b60405180910390a4611ccb81878787878761245d565b505050505050565b600380546001600160a01b038381166001600160a01b0319831681179093556040519116919082907f8be0079c531659141344cd1fd0a4f28419497f9722a3daafe3b4186f6b6457e090600090a35050565b816001600160a01b0316836001600160a01b03161415611d995760405162461bcd60e51b815260206004820152602960248201527f455243313135353a2073657474696e6720617070726f76616c20737461747573604482015268103337b91039b2b63360b91b606482015260840161086d565b6001600160a01b03838116600081815260016020908152604080832094871680845294825291829020805460ff191686151590811790915591519182527f17307eab39ab6107e8899845ad3d59bd9653f200f220920489ca2b5937696c31910160405180910390a3505050565b60007f00000000000000000000000000000000000000000000000000000000000000006001600160a01b0316634000aea07f000000000000000000000000000000000000000000000000000000000000000084866000604051602001611e76929190918252602082015260400190565b6040516020818303038152906040526040518463ffffffff1660e01b8152600401611ea393929190612b71565b602060405180830381600087803b158015611ebd57600080fd5b505af1158015611ed1573d6000803e3d6000fd5b505050506040513d601f19601f82011682018060405250810190611ef591906128e5565b50600083815260046020818152604080842054815180840189905280830186905230606082015260808082018390528351808303909101815260a090910190925281519183019190912093879052919052611f51906001612d35565b6000858152600460205260409020556119e48482604080516020808201949094528082019290925280518083038201815260609092019052805191012090565b61098c81604051602401611fa59190612bd0565b60408051601f198184030181529190526020810180516001600160e01b031663104c13eb60e21b179052612527565b610f388282604051602401611fea929190612be3565b60408051601f198184030181529190526020810180516001600160e01b03166309710a9d60e41b179052612527565b6001600160a01b03831661207b5760405162461bcd60e51b815260206004820152602360248201527f455243313135353a206275726e2066726f6d20746865207a65726f206164647260448201526265737360e81b606482015260840161086d565b336120ab8185600061208c876122a7565b612095876122a7565b5050604080516020810190915260009052505050565b6000838152602081815260408083206001600160a01b0388168452909152902054828110156121285760405162461bcd60e51b8152602060048201526024808201527f455243313135353a206275726e20616d6f756e7420657863656564732062616c604482015263616e636560e01b606482015260840161086d565b6000848152602081815260408083206001600160a01b03898116808652918452828520888703905582518981529384018890529092908616917fc3d58168c5ae7397731d063d5bbf3d657854427343f4c083240f7aacaa2d0f62910160405180910390a45050505050565b6001600160a01b0384166121b95760405162461bcd60e51b815260040161086d90612c4d565b336121c9818787611a5d886122a7565b6000848152602081815260408083206001600160a01b038a1684529091529020548381101561220a5760405162461bcd60e51b815260040161086d90612c92565b6000858152602081815260408083206001600160a01b038b8116855292528083208785039055908816825281208054869290612247908490612d35565b909155505060408051868152602081018690526001600160a01b03808916928a821692918616917fc3d58168c5ae7397731d063d5bbf3d657854427343f4c083240f7aacaa2d0f62910160405180910390a46118788288888888886122f2565b604080516001808252818301909252606091600091906020808301908036833701905050905082816000815181106122e1576122e1612e6b565b602090810291909101015292915050565b6001600160a01b0384163b15611ccb5760405163f23a6e6160e01b81526001600160a01b0385169063f23a6e61906123369089908990889088908890600401612b2c565b602060405180830381600087803b15801561235057600080fd5b505af1925050508015612380575060408051601f3d908101601f1916820190925261237d91810190612941565b60015b61242d5761238c612e97565b806308c379a014156123c657506123a1612eb3565b806123ac57506123c8565b8060405162461bcd60e51b815260040161086d9190612bd0565b505b60405162461bcd60e51b815260206004820152603460248201527f455243313135353a207472616e7366657220746f206e6f6e20455243313135356044820152732932b1b2b4bb32b91034b6b83632b6b2b73a32b960611b606482015260840161086d565b6001600160e01b0319811663f23a6e6160e01b146118785760405162461bcd60e51b815260040161086d90612c05565b6001600160a01b0384163b15611ccb5760405163bc197c8160e01b81526001600160a01b0385169063bc197c81906124a19089908990889088908890600401612ace565b602060405180830381600087803b1580156124bb57600080fd5b505af19250505080156124eb575060408051601f3d908101601f191682019092526124e891810190612941565b60015b6124f75761238c612e97565b6001600160e01b0319811663bc197c8160e01b146118785760405162461bcd60e51b815260040161086d90612c05565b80516a636f6e736f6c652e6c6f67602083016000808483855afa5050505050565b80356001600160a01b038116811461255f57600080fd5b919050565b600082601f83011261257557600080fd5b8135602061258282612d11565b60405161258f8282612de3565b8381528281019150858301600585901b870184018810156125af57600080fd5b60005b858110156125ce578135845292840192908401906001016125b2565b5090979650505050505050565b600082601f8301126125ec57600080fd5b813567ffffffffffffffff81111561260657612606612e81565b60405161261d601f8301601f191660200182612de3565b81815284602083860101111561263257600080fd5b816020850160208301376000918101602001919091529392505050565b60006020828403121561266157600080fd5b61266a82612548565b9392505050565b6000806040838503121561268457600080fd5b61268d83612548565b915061269b60208401612548565b90509250929050565b600080600080600060a086880312156126bc57600080fd5b6126c586612548565b94506126d360208701612548565b9350604086013567ffffffffffffffff808211156126f057600080fd5b6126fc89838a01612564565b9450606088013591508082111561271257600080fd5b61271e89838a01612564565b9350608088013591508082111561273457600080fd5b50612741888289016125db565b9150509295509295909350565b600080600080600060a0868803121561276657600080fd5b61276f86612548565b945061277d60208701612548565b93506040860135925060608601359150608086013567ffffffffffffffff8111156127a757600080fd5b612741888289016125db565b600080604083850312156127c657600080fd5b6127cf83612548565b915060208301356127df81612f3d565b809150509250929050565b600080604083850312156127fd57600080fd5b61280683612548565b946020939093013593505050565b6000806040838503121561282757600080fd5b823567ffffffffffffffff8082111561283f57600080fd5b818501915085601f83011261285357600080fd5b8135602061286082612d11565b60405161286d8282612de3565b8381528281019150858301600585901b870184018b101561288d57600080fd5b600096505b848710156128b7576128a381612548565b835260019690960195918301918301612892565b50965050860135925050808211156128ce57600080fd5b506128db85828601612564565b9150509250929050565b6000602082840312156128f757600080fd5b815161266a81612f3d565b6000806040838503121561291557600080fd5b50508035926020909101359150565b60006020828403121561293657600080fd5b813561266a81612f4b565b60006020828403121561295357600080fd5b815161266a81612f4b565b60006020828403121561297057600080fd5b5035919050565b60006020828403121561298957600080fd5b5051919050565b600081518084526020808501945080840160005b838110156129c0578151875295820195908201906001016129a4565b509495945050505050565b600081518084526129e3816020860160208601612d78565b601f01601f19169290920160200192915050565b60008151612a09818560208601612d78565b9290920192915050565b600080845481600182811c915080831680612a2f57607f831692505b6020808410821415612a4f57634e487b7160e01b86526022600452602486fd5b818015612a635760018114612a7457612aa1565b60ff19861689528489019650612aa1565b60008b81526020902060005b86811015612a995781548b820152908501908301612a80565b505084890196505b505050505050612ac5612ab482866129f7565b64173539b7b760d91b815260050190565b95945050505050565b6001600160a01b0386811682528516602082015260a060408201819052600090612afa90830186612990565b8281036060840152612b0c8186612990565b90508281036080840152612b2081856129cb565b98975050505050505050565b6001600160a01b03868116825285166020820152604081018490526060810183905260a060808201819052600090612b66908301846129cb565b979650505050505050565b60018060a01b0384168152826020820152606060408201526000612ac560608301846129cb565b60208152600061266a6020830184612990565b604081526000612bbe6040830185612990565b8281036020840152612ac58185612990565b60208152600061266a60208301846129cb565b604081526000612bf660408301856129cb565b90508260208301529392505050565b60208082526028908201527f455243313135353a204552433131353552656365697665722072656a656374656040820152676420746f6b656e7360c01b606082015260800190565b60208082526025908201527f455243313135353a207472616e7366657220746f20746865207a65726f206164604082015264647265737360d81b606082015260800190565b6020808252602a908201527f455243313135353a20696e73756666696369656e742062616c616e636520666f60408201526939103a3930b739b332b960b11b606082015260800190565b6020808252818101527f4f776e61626c653a2063616c6c6572206973206e6f7420746865206f776e6572604082015260600190565b600067ffffffffffffffff821115612d2b57612d2b612e81565b5060051b60200190565b60008219821115612d4857612d48612e3f565b500190565b600082612d5c57612d5c612e55565b500490565b600082821015612d7357612d73612e3f565b500390565b60005b83811015612d93578181015183820152602001612d7b565b83811115612da2576000848401525b50505050565b600181811c90821680612dbc57607f821691505b60208210811415612ddd57634e487b7160e01b600052602260045260246000fd5b50919050565b601f8201601f1916810167ffffffffffffffff81118282101715612e0957612e09612e81565b6040525050565b6000600019821415612e2457612e24612e3f565b5060010190565b600082612e3a57612e3a612e55565b500690565b634e487b7160e01b600052601160045260246000fd5b634e487b7160e01b600052601260045260246000fd5b634e487b7160e01b600052603260045260246000fd5b634e487b7160e01b600052604160045260246000fd5b600060033d1115612eb05760046000803e5060005160e01c5b90565b600060443d1015612ec15790565b6040516003193d81016004833e81513d67ffffffffffffffff8160248401118184111715612ef157505050505090565b8285019150815181811115612f095750505050505090565b843d8701016020828501011115612f235750505050505090565b612f3260208286010187612de3565b509095945050505050565b801515811461098c57600080fd5b6001600160e01b03198116811461098c57600080fdfea2646970667358221220bcba5bf1a948e27efdd633a1146bebbbda39c05e5119e14b870568f36b234b9164736f6c63430008070033697066733a2f2f516d634a3162516242523368556f733155614c6d3776326d46784a39796b484556357a4c4c6d595770637038424e2f",
  "linkReferences": {},
  "deployedLinkReferences": {}
}