{
  "_format": "hh-sol-artifact-1",
  "contractName": "Chem",
  "sourceName": "contracts/Chem.sol",
  "abi": [
    {
      "inputs": [
        {
          "internalType": "address",
          "name": "_address",
          "type": "address"
        }
      ],
      "stateMutability": "nonpayable",
      "type": "constructor"
    },
    {
      "anonymous": false,
      "inputs": [
        {
          "indexed": true,
          "internalType": "address",
          "name": "account",
          "type": "address"
        },
        {
          "indexed": true,
          "internalType": "address",
          "name": "operator",
          "type": "address"
        },
        {
          "indexed": false,
          "internalType": "bool",
          "name": "approved",
          "type": "bool"
        }
      ],
      "name": "ApprovalForAll",
      "type": "event"
    },
    {
      "anonymous": false,
      "inputs": [
        {
          "indexed": false,
          "internalType": "uint256",
          "name": "H202",
          "type": "uint256"
        },
        {
          "indexed": false,
          "internalType": "address",
          "name": "recieverHO",
          "type": "address"
        },
        {
          "indexed": false,
          "internalType": "uint256",
          "name": "mintedH202",
          "type": "uint256"
        }
      ],
      "name": "H2O2Created",
      "type": "event"
    },
    {
      "anonymous": false,
      "inputs": [
        {
          "indexed": false,
          "internalType": "string",
          "name": "FailedH202",
          "type": "string"
        }
      ],
      "name": "H2O2CreationFailed",
      "type": "event"
    },
    {
      "anonymous": false,
      "inputs": [
        {
          "indexed": false,
          "internalType": "uint256",
          "name": "LithWat",
          "type": "uint256"
        },
        {
          "indexed": false,
          "internalType": "address",
          "name": "recieverLit",
          "type": "address"
        },
        {
          "indexed": false,
          "internalType": "uint256",
          "name": "mintedLiH202",
          "type": "uint256"
        }
      ],
      "name": "LiOHCreated",
      "type": "event"
    },
    {
      "anonymous": false,
      "inputs": [
        {
          "indexed": false,
          "internalType": "string",
          "name": "FailedLiH202",
          "type": "string"
        }
      ],
      "name": "LiOHCreationFailed",
      "type": "event"
    },
    {
      "anonymous": false,
      "inputs": [
        {
          "indexed": true,
          "internalType": "address",
          "name": "previousOwner",
          "type": "address"
        },
        {
          "indexed": true,
          "internalType": "address",
          "name": "newOwner",
          "type": "address"
        }
      ],
      "name": "OwnershipTransferred",
      "type": "event"
    },
    {
      "anonymous": false,
      "inputs": [
        {
          "indexed": false,
          "internalType": "uint256",
          "name": "randomReturn",
          "type": "uint256"
        }
      ],
      "name": "RandomNumber",
      "type": "event"
    },
    {
      "anonymous": false,
      "inputs": [
        {
          "indexed": true,
          "internalType": "address",
          "name": "operator",
          "type": "address"
        },
        {
          "indexed": true,
          "internalType": "address",
          "name": "from",
          "type": "address"
        },
        {
          "indexed": true,
          "internalType": "address",
          "name": "to",
          "type": "address"
        },
        {
          "indexed": false,
          "internalType": "uint256[]",
          "name": "ids",
          "type": "uint256[]"
        },
        {
          "indexed": false,
          "internalType": "uint256[]",
          "name": "values",
          "type": "uint256[]"
        }
      ],
      "name": "TransferBatch",
      "type": "event"
    },
    {
      "anonymous": false,
      "inputs": [
        {
          "indexed": true,
          "internalType": "address",
          "name": "operator",
          "type": "address"
        },
        {
          "indexed": true,
          "internalType": "address",
          "name": "from",
          "type": "address"
        },
        {
          "indexed": true,
          "internalType": "address",
          "name": "to",
          "type": "address"
        },
        {
          "indexed": false,
          "internalType": "uint256",
          "name": "id",
          "type": "uint256"
        },
        {
          "indexed": false,
          "internalType": "uint256",
          "name": "value",
          "type": "uint256"
        }
      ],
      "name": "TransferSingle",
      "type": "event"
    },
    {
      "anonymous": false,
      "inputs": [
        {
          "indexed": false,
          "internalType": "string",
          "name": "value",
          "type": "string"
        },
        {
          "indexed": true,
          "internalType": "uint256",
          "name": "id",
          "type": "uint256"
        }
      ],
      "name": "URI",
      "type": "event"
    },
    {
      "anonymous": false,
      "inputs": [
        {
          "indexed": false,
          "internalType": "string",
          "name": "Minted",
          "type": "string"
        }
      ],
      "name": "WBTCMinted",
      "type": "event"
    },
    {
      "anonymous": false,
      "inputs": [
        {
          "indexed": false,
          "internalType": "uint256",
          "name": "tokenId",
          "type": "uint256"
        },
        {
          "indexed": false,
          "internalType": "address",
          "name": "receiver",
          "type": "address"
        },
        {
          "indexed": false,
          "internalType": "uint256",
          "name": "mintedAmount",
          "type": "uint256"
        }
      ],
      "name": "WaterCreated",
      "type": "event"
    },
    {
      "anonymous": false,
      "inputs": [
        {
          "indexed": false,
          "internalType": "string",
          "name": "failure",
          "type": "string"
        }
      ],
      "name": "WaterCreationFailed",
      "type": "event"
    },
    {
      "inputs": [],
      "name": "Beryllium",
      "outputs": [
        {
          "internalType": "uint256",
          "name": "",
          "type": "uint256"
        }
      ],
      "stateMutability": "view",
      "type": "function"
    },
    {
      "inputs": [],
      "name": "Boron",
      "outputs": [
        {
          "internalType": "uint256",
          "name": "",
          "type": "uint256"
        }
      ],
      "stateMutability": "view",
      "type": "function"
    },
    {
      "inputs": [],
      "name": "Carbon",
      "outputs": [
        {
          "internalType": "uint256",
          "name": "",
          "type": "uint256"
        }
      ],
      "stateMutability": "view",
      "type": "function"
    },
    {
      "inputs": [],
      "name": "Elements",
      "outputs": [
        {
          "internalType": "string",
          "name": "",
          "type": "string"
        }
      ],
      "stateMutability": "view",
      "type": "function"
    },
    {
      "inputs": [],
      "name": "Fluorine",
      "outputs": [
        {
          "internalType": "uint256",
          "name": "",
          "type": "uint256"
        }
      ],
      "stateMutability": "view",
      "type": "function"
    },
    {
      "inputs": [],
      "name": "H2",
      "outputs": [
        {
          "internalType": "uint256",
          "name": "",
          "type": "uint256"
        }
      ],
      "stateMutability": "view",
      "type": "function"
    },
    {
      "inputs": [],
      "name": "H2O2",
      "outputs": [
        {
          "internalType": "uint256",
          "name": "",
          "type": "uint256"
        }
      ],
      "stateMutability": "view",
      "type": "function"
    },
    {
      "inputs": [],
      "name": "Helium",
      "outputs": [
        {
          "internalType": "uint256",
          "name": "",
          "type": "uint256"
        }
      ],
      "stateMutability": "view",
      "type": "function"
    },
    {
      "inputs": [],
      "name": "Hydrogen",
      "outputs": [
        {
          "internalType": "uint256",
          "name": "",
          "type": "uint256"
        }
      ],
      "stateMutability": "view",
      "type": "function"
    },
    {
      "inputs": [],
      "name": "LiOH",
      "outputs": [
        {
          "internalType": "uint256",
          "name": "",
          "type": "uint256"
        }
      ],
      "stateMutability": "view",
      "type": "function"
    },
    {
      "inputs": [],
      "name": "Lithium",
      "outputs": [
        {
          "internalType": "uint256",
          "name": "",
          "type": "uint256"
        }
      ],
      "stateMutability": "view",
      "type": "function"
    },
    {
      "inputs": [],
      "name": "Neon",
      "outputs": [
        {
          "internalType": "uint256",
          "name": "",
          "type": "uint256"
        }
      ],
      "stateMutability": "view",
      "type": "function"
    },
    {
      "inputs": [],
      "name": "Nitrogen",
      "outputs": [
        {
          "internalType": "uint256",
          "name": "",
          "type": "uint256"
        }
      ],
      "stateMutability": "view",
      "type": "function"
    },
    {
      "inputs": [],
      "name": "Oxygen",
      "outputs": [
        {
          "internalType": "uint256",
          "name": "",
          "type": "uint256"
        }
      ],
      "stateMutability": "view",
      "type": "function"
    },
    {
      "inputs": [],
      "name": "Water",
      "outputs": [
        {
          "internalType": "uint256",
          "name": "",
          "type": "uint256"
        }
      ],
      "stateMutability": "view",
      "type": "function"
    },
    {
      "inputs": [
        {
          "internalType": "address",
          "name": "account",
          "type": "address"
        },
        {
          "internalType": "uint256",
          "name": "id",
          "type": "uint256"
        }
      ],
      "name": "balanceOf",
      "outputs": [
        {
          "internalType": "uint256",
          "name": "",
          "type": "uint256"
        }
      ],
      "stateMutability": "view",
      "type": "function"
    },
    {
      "inputs": [
        {
          "internalType": "address[]",
          "name": "accounts",
          "type": "address[]"
        },
        {
          "internalType": "uint256[]",
          "name": "ids",
          "type": "uint256[]"
        }
      ],
      "name": "balanceOfBatch",
      "outputs": [
        {
          "internalType": "uint256[]",
          "name": "",
          "type": "uint256[]"
        }
      ],
      "stateMutability": "view",
      "type": "function"
    },
    {
      "inputs": [
        {
          "internalType": "address",
          "name": "",
          "type": "address"
        }
      ],
      "name": "btcTokenBalance",
      "outputs": [
        {
          "internalType": "uint256",
          "name": "",
          "type": "uint256"
        }
      ],
      "stateMutability": "view",
      "type": "function"
    },
    {
      "inputs": [
        {
          "internalType": "uint256",
          "name": "_amount",
          "type": "uint256"
        }
      ],
      "name": "createH2O2",
      "outputs": [],
      "stateMutability": "nonpayable",
      "type": "function"
    },
    {
      "inputs": [
        {
          "internalType": "uint256",
          "name": "_amount",
          "type": "uint256"
        }
      ],
      "name": "createLiH2O",
      "outputs": [],
      "stateMutability": "nonpayable",
      "type": "function"
    },
    {
      "inputs": [
        {
          "internalType": "uint256",
          "name": "_amount",
          "type": "uint256"
        }
      ],
      "name": "createWater",
      "outputs": [],
      "stateMutability": "nonpayable",
      "type": "function"
    },
    {
      "inputs": [],
      "name": "getRandomNumber",
      "outputs": [
        {
          "internalType": "bytes32",
          "name": "requestId",
          "type": "bytes32"
        }
      ],
      "stateMutability": "nonpayable",
      "type": "function"
    },
    {
      "inputs": [
        {
          "internalType": "address",
          "name": "account",
          "type": "address"
        },
        {
          "internalType": "address",
          "name": "operator",
          "type": "address"
        }
      ],
      "name": "isApprovedForAll",
      "outputs": [
        {
          "internalType": "bool",
          "name": "",
          "type": "bool"
        }
      ],
      "stateMutability": "view",
      "type": "function"
    },
    {
      "inputs": [
        {
          "internalType": "uint256",
          "name": "_amount",
          "type": "uint256"
        }
      ],
      "name": "mintBTC",
      "outputs": [],
      "stateMutability": "nonpayable",
      "type": "function"
    },
    {
      "inputs": [
        {
          "internalType": "uint256",
          "name": "_amount",
          "type": "uint256"
        }
      ],
      "name": "mintBeryllium",
      "outputs": [],
      "stateMutability": "nonpayable",
      "type": "function"
    },
    {
      "inputs": [
        {
          "internalType": "uint256",
          "name": "_amount",
          "type": "uint256"
        }
      ],
      "name": "mintHelium",
      "outputs": [],
      "stateMutability": "nonpayable",
      "type": "function"
    },
    {
      "inputs": [
        {
          "internalType": "uint256",
          "name": "_amount",
          "type": "uint256"
        }
      ],
      "name": "mintHydrogen",
      "outputs": [],
      "stateMutability": "nonpayable",
      "type": "function"
    },
    {
      "inputs": [
        {
          "internalType": "uint256",
          "name": "_amount",
          "type": "uint256"
        }
      ],
      "name": "mintLithium",
      "outputs": [],
      "stateMutability": "nonpayable",
      "type": "function"
    },
    {
      "inputs": [
        {
          "internalType": "uint256",
          "name": "_amount",
          "type": "uint256"
        }
      ],
      "name": "mintOxygen",
      "outputs": [],
      "stateMutability": "nonpayable",
      "type": "function"
    },
    {
      "inputs": [],
      "name": "name",
      "outputs": [
        {
          "internalType": "string",
          "name": "",
          "type": "string"
        }
      ],
      "stateMutability": "pure",
      "type": "function"
    },
    {
      "inputs": [],
      "name": "owner",
      "outputs": [
        {
          "internalType": "address",
          "name": "",
          "type": "address"
        }
      ],
      "stateMutability": "view",
      "type": "function"
    },
    {
      "inputs": [],
      "name": "randomResult",
      "outputs": [
        {
          "internalType": "uint256",
          "name": "",
          "type": "uint256"
        }
      ],
      "stateMutability": "view",
      "type": "function"
    },
    {
      "inputs": [
        {
          "internalType": "bytes32",
          "name": "requestId",
          "type": "bytes32"
        },
        {
          "internalType": "uint256",
          "name": "randomness",
          "type": "uint256"
        }
      ],
      "name": "rawFulfillRandomness",
      "outputs": [],
      "stateMutability": "nonpayable",
      "type": "function"
    },
    {
      "inputs": [],
      "name": "renounceOwnership",
      "outputs": [],
      "stateMutability": "nonpayable",
      "type": "function"
    },
    {
      "inputs": [
        {
          "internalType": "address",
          "name": "from",
          "type": "address"
        },
        {
          "internalType": "address",
          "name": "to",
          "type": "address"
        },
        {
          "internalType": "uint256[]",
          "name": "ids",
          "type": "uint256[]"
        },
        {
          "internalType": "uint256[]",
          "name": "amounts",
          "type": "uint256[]"
        },
        {
          "internalType": "bytes",
          "name": "data",
          "type": "bytes"
        }
      ],
      "name": "safeBatchTransferFrom",
      "outputs": [],
      "stateMutability": "nonpayable",
      "type": "function"
    },
    {
      "inputs": [
        {
          "internalType": "address",
          "name": "from",
          "type": "address"
        },
        {
          "internalType": "address",
          "name": "to",
          "type": "address"
        },
        {
          "internalType": "uint256",
          "name": "id",
          "type": "uint256"
        },
        {
          "internalType": "uint256",
          "name": "amount",
          "type": "uint256"
        },
        {
          "internalType": "bytes",
          "name": "data",
          "type": "bytes"
        }
      ],
      "name": "safeTransferFrom",
      "outputs": [],
      "stateMutability": "nonpayable",
      "type": "function"
    },
    {
      "inputs": [
        {
          "internalType": "uint256",
          "name": "_amount",
          "type": "uint256"
        }
      ],
      "name": "sellNFT",
      "outputs": [],
      "stateMutability": "nonpayable",
      "type": "function"
    },
    {
      "inputs": [
        {
          "internalType": "address",
          "name": "operator",
          "type": "address"
        },
        {
          "internalType": "bool",
          "name": "approved",
          "type": "bool"
        }
      ],
      "name": "setApprovalForAll",
      "outputs": [],
      "stateMutability": "nonpayable",
      "type": "function"
    },
    {
      "inputs": [
        {
          "internalType": "address",
          "name": "addr",
          "type": "address"
        }
      ],
      "name": "setwbtcContract",
      "outputs": [],
      "stateMutability": "nonpayable",
      "type": "function"
    },
    {
      "inputs": [
        {
          "internalType": "uint256",
          "name": "_amount",
          "type": "uint256"
        }
      ],
      "name": "stakeBTC",
      "outputs": [],
      "stateMutability": "payable",
      "type": "function"
    },
    {
      "inputs": [
        {
          "internalType": "address",
          "name": "",
          "type": "address"
        },
        {
          "internalType": "uint256",
          "name": "",
          "type": "uint256"
        }
      ],
      "name": "supplyBalance",
      "outputs": [
        {
          "internalType": "uint256",
          "name": "",
          "type": "uint256"
        }
      ],
      "stateMutability": "view",
      "type": "function"
    },
    {
      "inputs": [
        {
          "internalType": "bytes4",
          "name": "interfaceId",
          "type": "bytes4"
        }
      ],
      "name": "supportsInterface",
      "outputs": [
        {
          "internalType": "bool",
          "name": "",
          "type": "bool"
        }
      ],
      "stateMutability": "view",
      "type": "function"
    },
    {
      "inputs": [],
      "name": "symbol",
      "outputs": [
        {
          "internalType": "string",
          "name": "",
          "type": "string"
        }
      ],
      "stateMutability": "pure",
      "type": "function"
    },
    {
      "inputs": [
        {
          "internalType": "address",
          "name": "newOwner",
          "type": "address"
        }
      ],
      "name": "transferOwnership",
      "outputs": [],
      "stateMutability": "nonpayable",
      "type": "function"
    },
    {
      "inputs": [
        {
          "internalType": "uint256",
          "name": "_tokenId",
          "type": "uint256"
        }
      ],
      "name": "uri",
      "outputs": [
        {
          "internalType": "string",
          "name": "",
          "type": "string"
        }
      ],
      "stateMutability": "view",
      "type": "function"
    },
    {
      "inputs": [],
      "name": "wbtcContract",
      "outputs": [
        {
          "internalType": "contract WBTC",
          "name": "",
          "type": "address"
        }
      ],
      "stateMutability": "view",
      "type": "function"
    },
    {
      "inputs": [],
      "name": "withdrawLink",
      "outputs": [],
      "stateMutability": "nonpayable",
      "type": "function"
    }
  ],
  "bytecode": "0x610120604052603660c08181529062003deb60e03980516200002a91600a916020909101906200020e565b503480156200003857600080fd5b5060405162003e2138038062003e218339810160408190526200005b91620002b4565b738c7382f9d8f56b33781fe506e897a4f1e2d1725573326c977e6efc84e512bb9c30f76e30c160ed06fb600a80546200009490620002e6565b80601f0160208091040260200160405190810160405280929190818152602001828054620000c290620002e6565b8015620001135780601f10620000e75761010080835404028352916020019162000113565b820191906000526020600020905b815481529060010190602001808311620000f557829003601f168201915b50505050506200012981620001a360201b60201c565b506200013533620001bc565b606091821b6001600160601b031990811660a052911b16608052600580546001600160a01b0319166001600160a01b03929092169190911790557f6e75b569a01ef56d18cab6a8e71e6600d6ce853834d4a5748b720d06f878b3a4600955655af3107a400060075562000323565b8051620001b89060029060208401906200020e565b5050565b600380546001600160a01b038381166001600160a01b0319831681179093556040519116919082907f8be0079c531659141344cd1fd0a4f28419497f9722a3daafe3b4186f6b6457e090600090a35050565b8280546200021c90620002e6565b90600052602060002090601f0160209004810192826200024057600085556200028b565b82601f106200025b57805160ff19168380011785556200028b565b828001600101855582156200028b579182015b828111156200028b5782518255916020019190600101906200026e565b50620002999291506200029d565b5090565b5b808211156200029957600081556001016200029e565b600060208284031215620002c757600080fd5b81516001600160a01b0381168114620002df57600080fd5b9392505050565b600181811c90821680620002fb57607f821691505b602082108114156200031d57634e487b7160e01b600052602260045260246000fd5b50919050565b60805160601c60a05160601c613a8762000364600039600081816117120152612a8b01526000818161148d01528181611b690152612a5c0152613a876000f3fe6080604052600436106102875760003560e01c8063800253ce1161015a578063c2b84722116100c1578063ee9cdfb31161007a578063ee9cdfb3146107a2578063eee0d9e2146107c2578063f242432a146107d7578063f2fde38b146107f7578063f58ee1cc14610817578063f85060551461083757600080fd5b8063c2b84722146106e7578063c6e4b906146106fa578063db19d93f1461071a578063dbdff2c11461072f578063dff6405b14610744578063e985e9c51461075957600080fd5b806394985ddd1161011357806394985ddd1461063b57806395d89b411461065b578063a22cb46514610688578063abc40ce4146106a8578063b63426b3146106bd578063bea1d66a146106d257600080fd5b8063800253ce14610586578063807a012d1461059b5780638da5cb5b146105d35780638dc654a2146105f15780638fcb4325146106065780639280d8ee1461061b57600080fd5b80632eb2c2d6116101fe578063512a50cd116101b7578063512a50cd146104f25780635b5d897f146105125780636e69adcf14610532578063715018a614610547578063777880b01461055c57806377b07f6b1461057157600080fd5b80632eb2c2d6146104455780632f3104e41461046557806335926b9c1461047a578063403c617e1461049a57806342619f66146104af5780634e1273f4146104c557600080fd5b80630e89341c116102505780630e89341c14610360578063142cee9314610380578063159907de146103ad57806316b488a0146103e55780632014218a14610405578063225abdbd1461042557600080fd5b8062fdd58e1461028c57806301ffc9a7146102bf57806305f36283146102ef57806306fdde0314610304578063080f54f71461033e575b600080fd5b34801561029857600080fd5b506102ac6102a7366004613222565b61084c565b6040519081526020015b60405180910390f35b3480156102cb57600080fd5b506102df6102da36600461335c565b6108e3565b60405190151581526020016102b6565b3480156102fb57600080fd5b506102ac600781565b34801561031057600080fd5b50604080518082019091526008815267456c656d656e747360c01b60208201525b6040516102b6919061362c565b34801561034a57600080fd5b5061035e610359366004613396565b610935565b005b34801561036c57600080fd5b5061033161037b366004613396565b610a20565b34801561038c57600080fd5b506102ac61039b366004613087565b600c6020526000908152604090205481565b3480156103b957600080fd5b506102ac6103c8366004613222565b600b60209081526000928352604080842090915290825290205481565b3480156103f157600080fd5b5061035e610400366004613087565b610a54565b34801561041157600080fd5b5061035e610420366004613396565b610aa0565b34801561043157600080fd5b5061035e610440366004613396565b610bcf565b34801561045157600080fd5b5061035e6104603660046130dc565b610cfe565b34801561047157600080fd5b506102ac600681565b34801561048657600080fd5b5061035e610495366004613396565b610d95565b3480156104a657600080fd5b506102ac600181565b3480156104bb57600080fd5b506102ac60085481565b3480156104d157600080fd5b506104e56104e036600461324c565b610ec4565b6040516102b691906135f4565b3480156104fe57600080fd5b5061035e61050d366004613396565b610fee565b34801561051e57600080fd5b5061035e61052d366004613396565b6112e9565b34801561053e57600080fd5b506102ac60c881565b34801561055357600080fd5b5061035e611418565b34801561056857600080fd5b506102ac60ca81565b34801561057d57600080fd5b506102ac600381565b34801561059257600080fd5b506102ac60c981565b3480156105a757600080fd5b506005546105bb906001600160a01b031681565b6040516001600160a01b0390911681526020016102b6565b3480156105df57600080fd5b506003546001600160a01b03166105bb565b3480156105fd57600080fd5b5061035e61144e565b34801561061257600080fd5b506102ac600481565b34801561062757600080fd5b5061035e610636366004613396565b6115d8565b34801561064757600080fd5b5061035e61065636600461333a565b611707565b34801561066757600080fd5b506040805180820190915260048152631153135560e21b6020820152610331565b34801561069457600080fd5b5061035e6106a33660046131eb565b611789565b3480156106b457600080fd5b506102ac600281565b3480156106c957600080fd5b506102ac600881565b3480156106de57600080fd5b506102ac600981565b61035e6106f5366004613396565b611794565b34801561070657600080fd5b5061035e610715366004613396565b61189a565b34801561072657600080fd5b506102ac600581565b34801561073b57600080fd5b506102ac611b45565b34801561075057600080fd5b506102ac60cb81565b34801561076557600080fd5b506102df6107743660046130a9565b6001600160a01b03918216600090815260016020908152604080832093909416825291909152205460ff1690565b3480156107ae57600080fd5b5061035e6107bd366004613396565b611c58565b3480156107ce57600080fd5b50610331611f77565b3480156107e357600080fd5b5061035e6107f2366004613186565b612005565b34801561080357600080fd5b5061035e610812366004613087565b61208c565b34801561082357600080fd5b5061035e610832366004613396565b612127565b34801561084357600080fd5b506102ac600a81565b60006001600160a01b0383166108bd5760405162461bcd60e51b815260206004820152602b60248201527f455243313135353a2062616c616e636520717565727920666f7220746865207a60448201526a65726f206164647265737360a81b60648201526084015b60405180910390fd5b506000908152602081815260408083206001600160a01b03949094168352929052205490565b60006001600160e01b03198216636cdb3d1360e11b148061091457506001600160e01b031982166303a24d0760e21b145b8061092f57506301ffc9a760e01b6001600160e01b03198316145b92915050565b6005546040516340c10f1960e01b8152336004820152602481018390526001600160a01b03909116906340c10f1990604401600060405180830381600087803b15801561098157600080fd5b505af1158015610995573d6000803e3d6000fd5b5050336000908152600c6020526040812080548594509092506109b9908490613806565b90915550506040517f5fe6c9fd9b1d778d130db1fa0af25c265f2adfb2365bb9c8e5dda87bdd64cefe90610a0c906020808252600b908201526a1dd09510c8135a5b9d195960aa1b604082015260600190565b60405180910390a1610a1c611b45565b5050565b6060600a610a2d836123ac565b604051602001610a3e92919061344b565b6040516020818303038152906040529050919050565b6003546001600160a01b03163314610a7e5760405162461bcd60e51b81526004016108b4906137ad565b600580546001600160a01b0319166001600160a01b0392909216919091179055565b60008111610ac05760405162461bcd60e51b81526004016108b4906136a8565b6005546040516323b872dd60e01b81526001600160a01b03909116906323b872dd90610af490339030908690600401613564565b602060405180830381600087803b158015610b0e57600080fd5b505af1158015610b22573d6000803e3d6000fd5b505050506040513d601f19601f82011682018060405250810190610b46919061331d565b50336000908152600c602052604081208054839290610b66908490613851565b92505081905550610b8933600183604051806020016040528060008152506124b2565b336000908152600b6020908152604080832060018452909152902054610bb0908290613806565b336000908152600b602090815260408083206001845290915290205550565b60008111610bef5760405162461bcd60e51b81526004016108b4906136a8565b6005546040516323b872dd60e01b81526001600160a01b03909116906323b872dd90610c2390339030908690600401613564565b602060405180830381600087803b158015610c3d57600080fd5b505af1158015610c51573d6000803e3d6000fd5b505050506040513d601f19601f82011682018060405250810190610c75919061331d565b50336000908152600c602052604081208054839290610c95908490613851565b92505081905550610cb833600383604051806020016040528060008152506124b2565b336000908152600b6020908152604080832060038452909152902054610cdf908290613806565b336000908152600b602090815260408083206003845290915290205550565b6001600160a01b038516331480610d1a5750610d1a8533610774565b610d815760405162461bcd60e51b815260206004820152603260248201527f455243313135353a207472616e736665722063616c6c6572206973206e6f74206044820152711bdddb995c881b9bdc88185c1c1c9bdd995960721b60648201526084016108b4565b610d8e85858585856125bc565b5050505050565b60008111610db55760405162461bcd60e51b81526004016108b4906136a8565b6005546040516323b872dd60e01b81526001600160a01b03909116906323b872dd90610de990339030908690600401613564565b602060405180830381600087803b158015610e0357600080fd5b505af1158015610e17573d6000803e3d6000fd5b505050506040513d601f19601f82011682018060405250810190610e3b919061331d565b50336000908152600c602052604081208054839290610e5b908490613851565b92505081905550610e7e33600883604051806020016040528060008152506124b2565b336000908152600b6020908152604080832060088452909152902054610ea5908290613806565b336000908152600b602090815260408083206008845290915290205550565b60608151835114610f295760405162461bcd60e51b815260206004820152602960248201527f455243313135353a206163636f756e747320616e6420696473206c656e677468604482015268040dad2e6dac2e8c6d60bb1b60648201526084016108b4565b6000835167ffffffffffffffff811115610f4557610f45613971565b604051908082528060200260200182016040528015610f6e578160200160208202803683370190505b50905060005b8451811015610fe657610fb9858281518110610f9257610f9261395b565b6020026020010151858381518110610fac57610fac61395b565b602002602001015161084c565b828281518110610fcb57610fcb61395b565b6020908102919091010152610fdf81613900565b9050610f74565b509392505050565b6000811161100e5760405162461bcd60e51b81526004016108b4906136dd565b336000908152600b60209081526040808320600384529091528082205460c8835290822054909160029081906110448683613832565b90506000611053876002613832565b600854604051818152919250600291600191907fec6cdc8e735e4069f6e89062582f3e5532a8e71373e7ef2962fa916cf2af21f29060200160405180910390a1848910156110d85760405162461bcd60e51b81526020600482015260126024820152714e6f7420456e6f756768204c69746869756d60701b60448201526064016108b4565b8388101561111b5760405162461bcd60e51b815260206004820152601060248201526f2737ba1022b737bab3b4102bb0ba32b960811b60448201526064016108b4565b600a81101561115e577f49a1946fe8daef8073ed3fb59b4f4f2c53415001c550b18ffa6833f4b171a68a60405161115190613687565b60405180910390a16112d4565b60005b8a811015611291576111753360038a612799565b336000908152600b6020908152604080832060038452909152812080548a92906111a0908490613851565b909155506111b290503360c889612799565b336000908152600b6020908152604080832060c88452909152812080548992906111dd908490613851565b925050819055506112003360c986604051806020016040528060008152506124b2565b336000908152600b6020908152604080832060c984529091528120805486929061122b908490613806565b9250508190555061124e3360ca85604051806020016040528060008152506124b2565b336000908152600b6020908152604080832060ca845290915281208054859290611279908490613806565b9091555081905061128981613900565b915050611161565b506040805160c981523360208201529081018490527f4a1e2fef6acdaaafcdc152c27b40e5dbcc5348d738dc84551cfbda746100ff569060600160405180910390a15b6112dc611b45565b5050505050505050505050565b600081116113095760405162461bcd60e51b81526004016108b4906136a8565b6005546040516323b872dd60e01b81526001600160a01b03909116906323b872dd9061133d90339030908690600401613564565b602060405180830381600087803b15801561135757600080fd5b505af115801561136b573d6000803e3d6000fd5b505050506040513d601f19601f8201168201806040525081019061138f919061331d565b50336000908152600c6020526040812080548392906113af908490613851565b925050819055506113d233600283604051806020016040528060008152506124b2565b336000908152600b60209081526040808320600284529091529020546113f9908290613806565b336000908152600b602090815260408083206002845290915290205550565b6003546001600160a01b031633146114425760405162461bcd60e51b81526004016108b4906137ad565b61144c6000612913565b565b6003546001600160a01b031633146114785760405162461bcd60e51b81526004016108b4906137ad565b6040516370a0823160e01b81523060048201527f00000000000000000000000000000000000000000000000000000000000000006001600160a01b03169063a9059cbb90339083906370a082319060240160206040518083038186803b1580156114e157600080fd5b505afa1580156114f5573d6000803e3d6000fd5b505050506040513d601f19601f8201168201806040525081019061151991906133af565b6040516001600160e01b031960e085901b1681526001600160a01b0390921660048301526024820152604401602060405180830381600087803b15801561155f57600080fd5b505af1158015611573573d6000803e3d6000fd5b505050506040513d601f19601f82011682018060405250810190611597919061331d565b61144c5760405162461bcd60e51b81526020600482015260126024820152712ab730b13632903a37903a3930b739b332b960711b60448201526064016108b4565b600081116115f85760405162461bcd60e51b81526004016108b4906136a8565b6005546040516323b872dd60e01b81526001600160a01b03909116906323b872dd9061162c90339030908690600401613564565b602060405180830381600087803b15801561164657600080fd5b505af115801561165a573d6000803e3d6000fd5b505050506040513d601f19601f8201168201806040525081019061167e919061331d565b50336000908152600c60205260408120805483929061169e908490613851565b925050819055506116c133600483604051806020016040528060008152506124b2565b336000908152600b60209081526040808320600484529091529020546116e8908290613806565b336000908152600b602090815260408083206004845290915290205550565b336001600160a01b037f0000000000000000000000000000000000000000000000000000000000000000161461177f5760405162461bcd60e51b815260206004820152601f60248201527f4f6e6c7920565246436f6f7264696e61746f722063616e2066756c66696c6c0060448201526064016108b4565b610a1c8282612965565b610a1c338383612977565b600081116117b45760405162461bcd60e51b81526004016108b4906136a8565b6005546040516323b872dd60e01b81526001600160a01b03909116906323b872dd906117e890339030908690600401613564565b602060405180830381600087803b15801561180257600080fd5b505af1158015611816573d6000803e3d6000fd5b505050506040513d601f19601f8201168201806040525081019061183a919061331d565b50336000908152600c60205260408120805483929061185a908490613851565b9091555061186a9050600a610aa0565b611874600a6112e9565b61187e600a6115d8565b611888600a610bcf565b611892600a610d95565b610a1c611b45565b600081116118ba5760405162461bcd60e51b81526004016108b4906136dd565b336000908152600b6020908152604080832060018452909152808220546008835290822054909160029081906118f08683613832565b905060006118ff876002613832565b6008546040518181529192506001917fec6cdc8e735e4069f6e89062582f3e5532a8e71373e7ef2962fa916cf2af21f29060200160405180910390a1838810156119815760405162461bcd60e51b81526020600482015260136024820152722737ba1022b737bab3b410243cb23937b3b2b760691b60448201526064016108b4565b828710156119c55760405162461bcd60e51b81526020600482015260116024820152702737ba1022b737bab3b41027bc3cb3b2b760791b60448201526064016108b4565b600a811015611a08577f4b827df5fef37feb5b7b656c6c0878bb2119e79dc6eb3494624a5df29b5567e36040516119fb90613687565b60405180910390a1611b31565b60005b89811015611aed57611a1f33600189612799565b336000908152600b602090815260408083206001845290915281208054899290611a4a908490613851565b90915550611a5c905033600888612799565b336000908152600b602090815260408083206008845290915281208054889290611a87908490613851565b92505081905550611aaa3360cb85604051806020016040528060008152506124b2565b336000908152600b6020908152604080832060cb845290915281208054859290611ad5908490613806565b90915550819050611ae581613900565b915050611a0b565b506040805160cb81523360208201529081018390527ffe7b2a3e9229ab3ba1a52c7b5385abafc6d5c90d8c2bacb94715a676570f0f97906060015b60405180910390a15b611b39611b45565b50505050505050505050565b6007546040516370a0823160e01b8152306004820152600091906001600160a01b037f000000000000000000000000000000000000000000000000000000000000000016906370a082319060240160206040518083038186803b158015611bab57600080fd5b505afa158015611bbf573d6000803e3d6000fd5b505050506040513d601f19601f82011682018060405250810190611be391906133af565b1015611c455760405162461bcd60e51b815260206004820152602b60248201527f4e6f7420656e6f756768204c494e4b202d2066696c6c20636f6e74726163742060448201526a1dda5d1a0819985d58d95d60aa1b60648201526084016108b4565b611c53600954600754612a58565b905090565b60c88110158015611c6a575060cb8111155b611cab5760405162461bcd60e51b81526020600482015260126024820152712737ba102b30b634b21021b932b0ba34b7b760711b60448201526064016108b4565b336000908152600b60209081526040808320848452909152902054811015611d155760405162461bcd60e51b815260206004820152601760248201527f4e6f20456c656d656e7420496e20496e76656e746f727900000000000000000060448201526064016108b4565b60018060c8831415611e0c57611d2d3360c883612799565b336000908152600b6020908152604080832060c8845290915281208054849290611d58908490613851565b909155505060055460405163a9059cbb60e01b8152336004820152602481018490526001600160a01b039091169063a9059cbb90604401602060405180830381600087803b158015611da957600080fd5b505af1158015611dbd573d6000803e3d6000fd5b505050506040513d601f19601f82011682018060405250810190611de1919061331d565b50336000908152600c602052604081208054849290611e01908490613806565b90915550611f729050565b60c9831415611e4c57611e213360c983612799565b336000908152600b6020908152604080832060c9845290915281208054849290611d58908490613851565b60ca831415611e8c57611e613360ca83612799565b336000908152600b6020908152604080832060ca845290915281208054849290611d58908490613851565b611e983360cb83612799565b336000908152600b6020908152604080832060cb845290915281208054849290611ec3908490613851565b909155505060055460405163a9059cbb60e01b8152336004820152602481018490526001600160a01b039091169063a9059cbb90604401602060405180830381600087803b158015611f1457600080fd5b505af1158015611f28573d6000803e3d6000fd5b505050506040513d601f19601f82011682018060405250810190611f4c919061331d565b50336000908152600c602052604081208054849290611f6c908490613806565b90915550505b505050565b600a8054611f8490613898565b80601f0160208091040260200160405190810160405280929190818152602001828054611fb090613898565b8015611ffd5780601f10611fd257610100808354040283529160200191611ffd565b820191906000526020600020905b815481529060010190602001808311611fe057829003601f168201915b505050505081565b6001600160a01b03851633148061202157506120218533610774565b61207f5760405162461bcd60e51b815260206004820152602960248201527f455243313135353a2063616c6c6572206973206e6f74206f776e6572206e6f7260448201526808185c1c1c9bdd995960ba1b60648201526084016108b4565b610d8e8585858585612be3565b6003546001600160a01b031633146120b65760405162461bcd60e51b81526004016108b4906137ad565b6001600160a01b03811661211b5760405162461bcd60e51b815260206004820152602660248201527f4f776e61626c653a206e6577206f776e657220697320746865207a65726f206160448201526564647265737360d01b60648201526084016108b4565b61212481612913565b50565b600081116121475760405162461bcd60e51b81526004016108b4906136dd565b336000908152600b60209081526040808320600180855292528083205460088452908320549092909160029161217d8684613832565b9050600061218c876002613832565b6008546040518181529192506001917fec6cdc8e735e4069f6e89062582f3e5532a8e71373e7ef2962fa916cf2af21f29060200160405180910390a18388101561220e5760405162461bcd60e51b81526020600482015260136024820152722737ba1022b737bab3b410243cb23937b3b2b760691b60448201526064016108b4565b828710156122525760405162461bcd60e51b81526020600482015260116024820152702737ba1022b737bab3b41027bc3cb3b2b760791b60448201526064016108b4565b600a811015612288577fa11c889fee9dafbb2ce8aea81cdab60c4af9c573fdacf23056d4da9ab596796c6040516119fb90613687565b60005b8981101561236d5761229f33600189612799565b336000908152600b6020908152604080832060018452909152812080548992906122ca908490613851565b909155506122dc905033600888612799565b336000908152600b602090815260408083206008845290915281208054889290612307908490613851565b9250508190555061232a3360c885604051806020016040528060008152506124b2565b336000908152600b6020908152604080832060c8845290915281208054859290612355908490613806565b9091555081905061236581613900565b91505061228b565b506040805160c881523360208201529081018a90527f41dc43fe6204194dd095effea839309c4fc5c4f84c88d1b81372b0bcc9a6011890606001611b28565b6060816123d05750506040805180820190915260018152600360fc1b602082015290565b8160005b81156123fa57806123e481613900565b91506123f39050600a8361381e565b91506123d4565b60008167ffffffffffffffff81111561241557612415613971565b6040519080825280601f01601f19166020018201604052801561243f576020820181803683370190505b5090505b84156124aa57612454600183613851565b9150612461600a8661391b565b61246c906030613806565b60f81b8183815181106124815761248161395b565b60200101906001600160f81b031916908160001a9053506124a3600a8661381e565b9450612443565b949350505050565b6001600160a01b0384166125125760405162461bcd60e51b815260206004820152602160248201527f455243313135353a206d696e7420746f20746865207a65726f206164647265736044820152607360f81b60648201526084016108b4565b3361252c8160008761252388612d00565b610d8e88612d00565b6000848152602081815260408083206001600160a01b03891684529091528120805485929061255c908490613806565b909155505060408051858152602081018590526001600160a01b0380881692600092918516917fc3d58168c5ae7397731d063d5bbf3d657854427343f4c083240f7aacaa2d0f62910160405180910390a4610d8e81600087878787612d4b565b815183511461261e5760405162461bcd60e51b815260206004820152602860248201527f455243313135353a2069647320616e6420616d6f756e7473206c656e677468206044820152670dad2e6dac2e8c6d60c31b60648201526084016108b4565b6001600160a01b0384166126445760405162461bcd60e51b81526004016108b49061371e565b3360005b845181101561272b5760008582815181106126655761266561395b565b6020026020010151905060008583815181106126835761268361395b565b602090810291909101810151600084815280835260408082206001600160a01b038e1683529093529190912054909150818110156126d35760405162461bcd60e51b81526004016108b490613763565b6000838152602081815260408083206001600160a01b038e8116855292528083208585039055908b16825281208054849290612710908490613806565b925050819055505050508061272490613900565b9050612648565b50846001600160a01b0316866001600160a01b0316826001600160a01b03167f4a39dc06d4c0dbc64b70af90fd698a233a518aa5d07e595d983b8c0526c8f7fb878760405161277b929190613607565b60405180910390a4612791818787878787612eb6565b505050505050565b6001600160a01b0383166127fb5760405162461bcd60e51b815260206004820152602360248201527f455243313135353a206275726e2066726f6d20746865207a65726f206164647260448201526265737360e81b60648201526084016108b4565b3361282b8185600061280c87612d00565b61281587612d00565b5050604080516020810190915260009052505050565b6000838152602081815260408083206001600160a01b0388168452909152902054828110156128a85760405162461bcd60e51b8152602060048201526024808201527f455243313135353a206275726e20616d6f756e7420657863656564732062616c604482015263616e636560e01b60648201526084016108b4565b6000848152602081815260408083206001600160a01b03898116808652918452828520888703905582518981529384018890529092908616917fc3d58168c5ae7397731d063d5bbf3d657854427343f4c083240f7aacaa2d0f62910160405180910390a45050505050565b600380546001600160a01b038381166001600160a01b0319831681179093556040519116919082907f8be0079c531659141344cd1fd0a4f28419497f9722a3daafe3b4186f6b6457e090600090a35050565b61297060648261391b565b6008555050565b816001600160a01b0316836001600160a01b031614156129eb5760405162461bcd60e51b815260206004820152602960248201527f455243313135353a2073657474696e6720617070726f76616c20737461747573604482015268103337b91039b2b63360b91b60648201526084016108b4565b6001600160a01b03838116600081815260016020908152604080832094871680845294825291829020805460ff191686151590811790915591519182527f17307eab39ab6107e8899845ad3d59bd9653f200f220920489ca2b5937696c31910160405180910390a3505050565b60007f00000000000000000000000000000000000000000000000000000000000000006001600160a01b0316634000aea07f000000000000000000000000000000000000000000000000000000000000000084866000604051602001612ac8929190918252602082015260400190565b6040516020818303038152906040526040518463ffffffff1660e01b8152600401612af5939291906135cd565b602060405180830381600087803b158015612b0f57600080fd5b505af1158015612b23573d6000803e3d6000fd5b505050506040513d601f19601f82011682018060405250810190612b47919061331d565b50600083815260046020818152604080842054815180840189905280830186905230606082015260808082018390528351808303909101815260a090910190925281519183019190912093879052919052612ba3906001613806565b6000858152600460205260409020556124aa8482604080516020808201949094528082019290925280518083038201815260609092019052805191012090565b6001600160a01b038416612c095760405162461bcd60e51b81526004016108b49061371e565b33612c1981878761252388612d00565b6000848152602081815260408083206001600160a01b038a16845290915290205483811015612c5a5760405162461bcd60e51b81526004016108b490613763565b6000858152602081815260408083206001600160a01b038b8116855292528083208785039055908816825281208054869290612c97908490613806565b909155505060408051868152602081018690526001600160a01b03808916928a821692918616917fc3d58168c5ae7397731d063d5bbf3d657854427343f4c083240f7aacaa2d0f62910160405180910390a4612cf7828888888888612d4b565b50505050505050565b60408051600180825281830190925260609160009190602080830190803683370190505090508281600081518110612d3a57612d3a61395b565b602090810291909101015292915050565b6001600160a01b0384163b156127915760405163f23a6e6160e01b81526001600160a01b0385169063f23a6e6190612d8f9089908990889088908890600401613588565b602060405180830381600087803b158015612da957600080fd5b505af1925050508015612dd9575060408051601f3d908101601f19168201909252612dd691810190613379565b60015b612e8657612de5613987565b806308c379a01415612e1f5750612dfa6139a3565b80612e055750612e21565b8060405162461bcd60e51b81526004016108b4919061362c565b505b60405162461bcd60e51b815260206004820152603460248201527f455243313135353a207472616e7366657220746f206e6f6e20455243313135356044820152732932b1b2b4bb32b91034b6b83632b6b2b73a32b960611b60648201526084016108b4565b6001600160e01b0319811663f23a6e6160e01b14612cf75760405162461bcd60e51b81526004016108b49061363f565b6001600160a01b0384163b156127915760405163bc197c8160e01b81526001600160a01b0385169063bc197c8190612efa9089908990889088908890600401613506565b602060405180830381600087803b158015612f1457600080fd5b505af1925050508015612f44575060408051601f3d908101601f19168201909252612f4191810190613379565b60015b612f5057612de5613987565b6001600160e01b0319811663bc197c8160e01b14612cf75760405162461bcd60e51b81526004016108b49061363f565b80356001600160a01b0381168114612f9757600080fd5b919050565b600082601f830112612fad57600080fd5b81356020612fba826137e2565b604051612fc782826138d3565b8381528281019150858301600585901b87018401881015612fe757600080fd5b60005b8581101561300657813584529284019290840190600101612fea565b5090979650505050505050565b600082601f83011261302457600080fd5b813567ffffffffffffffff81111561303e5761303e613971565b604051613055601f8301601f1916602001826138d3565b81815284602083860101111561306a57600080fd5b816020850160208301376000918101602001919091529392505050565b60006020828403121561309957600080fd5b6130a282612f80565b9392505050565b600080604083850312156130bc57600080fd5b6130c583612f80565b91506130d360208401612f80565b90509250929050565b600080600080600060a086880312156130f457600080fd5b6130fd86612f80565b945061310b60208701612f80565b9350604086013567ffffffffffffffff8082111561312857600080fd5b61313489838a01612f9c565b9450606088013591508082111561314a57600080fd5b61315689838a01612f9c565b9350608088013591508082111561316c57600080fd5b5061317988828901613013565b9150509295509295909350565b600080600080600060a0868803121561319e57600080fd5b6131a786612f80565b94506131b560208701612f80565b93506040860135925060608601359150608086013567ffffffffffffffff8111156131df57600080fd5b61317988828901613013565b600080604083850312156131fe57600080fd5b61320783612f80565b9150602083013561321781613a2d565b809150509250929050565b6000806040838503121561323557600080fd5b61323e83612f80565b946020939093013593505050565b6000806040838503121561325f57600080fd5b823567ffffffffffffffff8082111561327757600080fd5b818501915085601f83011261328b57600080fd5b81356020613298826137e2565b6040516132a582826138d3565b8381528281019150858301600585901b870184018b10156132c557600080fd5b600096505b848710156132ef576132db81612f80565b8352600196909601959183019183016132ca565b509650508601359250508082111561330657600080fd5b5061331385828601612f9c565b9150509250929050565b60006020828403121561332f57600080fd5b81516130a281613a2d565b6000806040838503121561334d57600080fd5b50508035926020909101359150565b60006020828403121561336e57600080fd5b81356130a281613a3b565b60006020828403121561338b57600080fd5b81516130a281613a3b565b6000602082840312156133a857600080fd5b5035919050565b6000602082840312156133c157600080fd5b5051919050565b600081518084526020808501945080840160005b838110156133f8578151875295820195908201906001016133dc565b509495945050505050565b6000815180845261341b816020860160208601613868565b601f01601f19169290920160200192915050565b60008151613441818560208601613868565b9290920192915050565b600080845481600182811c91508083168061346757607f831692505b602080841082141561348757634e487b7160e01b86526022600452602486fd5b81801561349b57600181146134ac576134d9565b60ff198616895284890196506134d9565b60008b81526020902060005b868110156134d15781548b8201529085019083016134b8565b505084890196505b5050505050506134fd6134ec828661342f565b64173539b7b760d91b815260050190565b95945050505050565b6001600160a01b0386811682528516602082015260a060408201819052600090613532908301866133c8565b828103606084015261354481866133c8565b905082810360808401526135588185613403565b98975050505050505050565b6001600160a01b039384168152919092166020820152604081019190915260600190565b6001600160a01b03868116825285166020820152604081018490526060810183905260a0608082018190526000906135c290830184613403565b979650505050505050565b60018060a01b03841681528260208201526060604082015260006134fd6060830184613403565b6020815260006130a260208301846133c8565b60408152600061361a60408301856133c8565b82810360208401526134fd81856133c8565b6020815260006130a26020830184613403565b60208082526028908201527f455243313135353a204552433131353552656365697665722072656a656374656040820152676420746f6b656e7360c01b606082015260800190565b6020808252600790820152664661696c75726560c81b604082015260600190565b6020808252818101527f416d6f756e74206d7573742062652067726561746572207468616e207a657230604082015260600190565b60208082526021908201527f416d6f756e74206e6565647320746f2062652067726561746572207468616e206040820152600360fc1b606082015260800190565b60208082526025908201527f455243313135353a207472616e7366657220746f20746865207a65726f206164604082015264647265737360d81b606082015260800190565b6020808252602a908201527f455243313135353a20696e73756666696369656e742062616c616e636520666f60408201526939103a3930b739b332b960b11b606082015260800190565b6020808252818101527f4f776e61626c653a2063616c6c6572206973206e6f7420746865206f776e6572604082015260600190565b600067ffffffffffffffff8211156137fc576137fc613971565b5060051b60200190565b600082198211156138195761381961392f565b500190565b60008261382d5761382d613945565b500490565b600081600019048311821515161561384c5761384c61392f565b500290565b6000828210156138635761386361392f565b500390565b60005b8381101561388357818101518382015260200161386b565b83811115613892576000848401525b50505050565b600181811c908216806138ac57607f821691505b602082108114156138cd57634e487b7160e01b600052602260045260246000fd5b50919050565b601f8201601f1916810167ffffffffffffffff811182821017156138f9576138f9613971565b6040525050565b60006000198214156139145761391461392f565b5060010190565b60008261392a5761392a613945565b500690565b634e487b7160e01b600052601160045260246000fd5b634e487b7160e01b600052601260045260246000fd5b634e487b7160e01b600052603260045260246000fd5b634e487b7160e01b600052604160045260246000fd5b600060033d11156139a05760046000803e5060005160e01c5b90565b600060443d10156139b15790565b6040516003193d81016004833e81513d67ffffffffffffffff81602484011181841117156139e157505050505090565b82850191508151818111156139f95750505050505090565b843d8701016020828501011115613a135750505050505090565b613a22602082860101876138d3565b509095945050505050565b801515811461212457600080fd5b6001600160e01b03198116811461212457600080fdfea264697066735822122040288c37f5f5dcc97160cb3e1d6242ddc8ddc3f66c6aa4ee18b2a155cafeb5d764736f6c63430008070033697066733a2f2f516d536f47566e6a4438324236544a574e3435394c7571696578416368737279656f767a5341526e5638544576582f",
  "linkReferences": {},
  "deployedLinkReferences": {}
}