{
  "_format": "hh-sol-artifact-1",
  "contractName": "Chem",
  "sourceName": "contracts/Chem.sol",
  "abi": [
    {
      "inputs": [
        {
          "internalType": "address",
          "name": "_address",
          "type": "address"
        }
      ],
      "stateMutability": "nonpayable",
      "type": "constructor"
    },
    {
      "anonymous": false,
      "inputs": [
        {
          "indexed": true,
          "internalType": "address",
          "name": "account",
          "type": "address"
        },
        {
          "indexed": true,
          "internalType": "address",
          "name": "operator",
          "type": "address"
        },
        {
          "indexed": false,
          "internalType": "bool",
          "name": "approved",
          "type": "bool"
        }
      ],
      "name": "ApprovalForAll",
      "type": "event"
    },
    {
      "anonymous": false,
      "inputs": [
        {
          "indexed": true,
          "internalType": "address",
          "name": "previousOwner",
          "type": "address"
        },
        {
          "indexed": true,
          "internalType": "address",
          "name": "newOwner",
          "type": "address"
        }
      ],
      "name": "OwnershipTransferred",
      "type": "event"
    },
    {
      "anonymous": false,
      "inputs": [
        {
          "indexed": false,
          "internalType": "uint256",
          "name": "randomReturn",
          "type": "uint256"
        }
      ],
      "name": "RandomNumber",
      "type": "event"
    },
    {
      "anonymous": false,
      "inputs": [
        {
          "indexed": true,
          "internalType": "address",
          "name": "operator",
          "type": "address"
        },
        {
          "indexed": true,
          "internalType": "address",
          "name": "from",
          "type": "address"
        },
        {
          "indexed": true,
          "internalType": "address",
          "name": "to",
          "type": "address"
        },
        {
          "indexed": false,
          "internalType": "uint256[]",
          "name": "ids",
          "type": "uint256[]"
        },
        {
          "indexed": false,
          "internalType": "uint256[]",
          "name": "values",
          "type": "uint256[]"
        }
      ],
      "name": "TransferBatch",
      "type": "event"
    },
    {
      "anonymous": false,
      "inputs": [
        {
          "indexed": true,
          "internalType": "address",
          "name": "operator",
          "type": "address"
        },
        {
          "indexed": true,
          "internalType": "address",
          "name": "from",
          "type": "address"
        },
        {
          "indexed": true,
          "internalType": "address",
          "name": "to",
          "type": "address"
        },
        {
          "indexed": false,
          "internalType": "uint256",
          "name": "id",
          "type": "uint256"
        },
        {
          "indexed": false,
          "internalType": "uint256",
          "name": "value",
          "type": "uint256"
        }
      ],
      "name": "TransferSingle",
      "type": "event"
    },
    {
      "anonymous": false,
      "inputs": [
        {
          "indexed": false,
          "internalType": "string",
          "name": "value",
          "type": "string"
        },
        {
          "indexed": true,
          "internalType": "uint256",
          "name": "id",
          "type": "uint256"
        }
      ],
      "name": "URI",
      "type": "event"
    },
    {
      "anonymous": false,
      "inputs": [
        {
          "indexed": false,
          "internalType": "string",
          "name": "Minted",
          "type": "string"
        }
      ],
      "name": "WBTCMinted",
      "type": "event"
    },
    {
      "anonymous": false,
      "inputs": [
        {
          "indexed": false,
          "internalType": "uint256",
          "name": "tokenId",
          "type": "uint256"
        },
        {
          "indexed": false,
          "internalType": "address",
          "name": "receiver",
          "type": "address"
        },
        {
          "indexed": false,
          "internalType": "uint256",
          "name": "mintedAmount",
          "type": "uint256"
        }
      ],
      "name": "WaterCreated",
      "type": "event"
    },
    {
      "anonymous": false,
      "inputs": [
        {
          "indexed": false,
          "internalType": "string",
          "name": "failure",
          "type": "string"
        }
      ],
      "name": "WaterCreationFailed",
      "type": "event"
    },
    {
      "inputs": [],
      "name": "Beryllium",
      "outputs": [
        {
          "internalType": "uint256",
          "name": "",
          "type": "uint256"
        }
      ],
      "stateMutability": "view",
      "type": "function"
    },
    {
      "inputs": [],
      "name": "Boron",
      "outputs": [
        {
          "internalType": "uint256",
          "name": "",
          "type": "uint256"
        }
      ],
      "stateMutability": "view",
      "type": "function"
    },
    {
      "inputs": [],
      "name": "Carbon",
      "outputs": [
        {
          "internalType": "uint256",
          "name": "",
          "type": "uint256"
        }
      ],
      "stateMutability": "view",
      "type": "function"
    },
    {
      "inputs": [],
      "name": "Elements",
      "outputs": [
        {
          "internalType": "string",
          "name": "",
          "type": "string"
        }
      ],
      "stateMutability": "view",
      "type": "function"
    },
    {
      "inputs": [],
      "name": "Fluorine",
      "outputs": [
        {
          "internalType": "uint256",
          "name": "",
          "type": "uint256"
        }
      ],
      "stateMutability": "view",
      "type": "function"
    },
    {
      "inputs": [],
      "name": "Helium",
      "outputs": [
        {
          "internalType": "uint256",
          "name": "",
          "type": "uint256"
        }
      ],
      "stateMutability": "view",
      "type": "function"
    },
    {
      "inputs": [],
      "name": "Hydrogen",
      "outputs": [
        {
          "internalType": "uint256",
          "name": "",
          "type": "uint256"
        }
      ],
      "stateMutability": "view",
      "type": "function"
    },
    {
      "inputs": [],
      "name": "Lithium",
      "outputs": [
        {
          "internalType": "uint256",
          "name": "",
          "type": "uint256"
        }
      ],
      "stateMutability": "view",
      "type": "function"
    },
    {
      "inputs": [],
      "name": "Neon",
      "outputs": [
        {
          "internalType": "uint256",
          "name": "",
          "type": "uint256"
        }
      ],
      "stateMutability": "view",
      "type": "function"
    },
    {
      "inputs": [],
      "name": "Nitrogen",
      "outputs": [
        {
          "internalType": "uint256",
          "name": "",
          "type": "uint256"
        }
      ],
      "stateMutability": "view",
      "type": "function"
    },
    {
      "inputs": [],
      "name": "Oxygen",
      "outputs": [
        {
          "internalType": "uint256",
          "name": "",
          "type": "uint256"
        }
      ],
      "stateMutability": "view",
      "type": "function"
    },
    {
      "inputs": [],
      "name": "PureWater",
      "outputs": [
        {
          "internalType": "uint256",
          "name": "",
          "type": "uint256"
        }
      ],
      "stateMutability": "view",
      "type": "function"
    },
    {
      "inputs": [],
      "name": "Water",
      "outputs": [
        {
          "internalType": "uint256",
          "name": "",
          "type": "uint256"
        }
      ],
      "stateMutability": "view",
      "type": "function"
    },
    {
      "inputs": [
        {
          "internalType": "address",
          "name": "account",
          "type": "address"
        },
        {
          "internalType": "uint256",
          "name": "id",
          "type": "uint256"
        }
      ],
      "name": "balanceOf",
      "outputs": [
        {
          "internalType": "uint256",
          "name": "",
          "type": "uint256"
        }
      ],
      "stateMutability": "view",
      "type": "function"
    },
    {
      "inputs": [
        {
          "internalType": "address[]",
          "name": "accounts",
          "type": "address[]"
        },
        {
          "internalType": "uint256[]",
          "name": "ids",
          "type": "uint256[]"
        }
      ],
      "name": "balanceOfBatch",
      "outputs": [
        {
          "internalType": "uint256[]",
          "name": "",
          "type": "uint256[]"
        }
      ],
      "stateMutability": "view",
      "type": "function"
    },
    {
      "inputs": [
        {
          "internalType": "address",
          "name": "",
          "type": "address"
        }
      ],
      "name": "btcTokenBalance",
      "outputs": [
        {
          "internalType": "uint256",
          "name": "",
          "type": "uint256"
        }
      ],
      "stateMutability": "view",
      "type": "function"
    },
    {
      "inputs": [],
      "name": "getRandomNumber",
      "outputs": [
        {
          "internalType": "bytes32",
          "name": "requestId",
          "type": "bytes32"
        }
      ],
      "stateMutability": "nonpayable",
      "type": "function"
    },
    {
      "inputs": [
        {
          "internalType": "address",
          "name": "account",
          "type": "address"
        },
        {
          "internalType": "address",
          "name": "operator",
          "type": "address"
        }
      ],
      "name": "isApprovedForAll",
      "outputs": [
        {
          "internalType": "bool",
          "name": "",
          "type": "bool"
        }
      ],
      "stateMutability": "view",
      "type": "function"
    },
    {
      "inputs": [],
      "name": "mergeElements",
      "outputs": [],
      "stateMutability": "nonpayable",
      "type": "function"
    },
    {
      "inputs": [
        {
          "internalType": "uint256",
          "name": "_amount",
          "type": "uint256"
        }
      ],
      "name": "mintBTC",
      "outputs": [],
      "stateMutability": "nonpayable",
      "type": "function"
    },
    {
      "inputs": [
        {
          "internalType": "uint256",
          "name": "_amount",
          "type": "uint256"
        }
      ],
      "name": "mintBeryllium",
      "outputs": [],
      "stateMutability": "nonpayable",
      "type": "function"
    },
    {
      "inputs": [
        {
          "internalType": "uint256",
          "name": "_amount",
          "type": "uint256"
        }
      ],
      "name": "mintHelium",
      "outputs": [],
      "stateMutability": "nonpayable",
      "type": "function"
    },
    {
      "inputs": [
        {
          "internalType": "uint256",
          "name": "_amount",
          "type": "uint256"
        }
      ],
      "name": "mintHydrogen",
      "outputs": [],
      "stateMutability": "nonpayable",
      "type": "function"
    },
    {
      "inputs": [
        {
          "internalType": "uint256",
          "name": "_amount",
          "type": "uint256"
        }
      ],
      "name": "mintLithium",
      "outputs": [],
      "stateMutability": "nonpayable",
      "type": "function"
    },
    {
      "inputs": [
        {
          "internalType": "uint256",
          "name": "_amount",
          "type": "uint256"
        }
      ],
      "name": "mintOxygen",
      "outputs": [],
      "stateMutability": "nonpayable",
      "type": "function"
    },
    {
      "inputs": [],
      "name": "name",
      "outputs": [
        {
          "internalType": "string",
          "name": "",
          "type": "string"
        }
      ],
      "stateMutability": "pure",
      "type": "function"
    },
    {
      "inputs": [],
      "name": "owner",
      "outputs": [
        {
          "internalType": "address",
          "name": "",
          "type": "address"
        }
      ],
      "stateMutability": "view",
      "type": "function"
    },
    {
      "inputs": [],
      "name": "randomResult",
      "outputs": [
        {
          "internalType": "uint256",
          "name": "",
          "type": "uint256"
        }
      ],
      "stateMutability": "view",
      "type": "function"
    },
    {
      "inputs": [
        {
          "internalType": "bytes32",
          "name": "requestId",
          "type": "bytes32"
        },
        {
          "internalType": "uint256",
          "name": "randomness",
          "type": "uint256"
        }
      ],
      "name": "rawFulfillRandomness",
      "outputs": [],
      "stateMutability": "nonpayable",
      "type": "function"
    },
    {
      "inputs": [],
      "name": "renounceOwnership",
      "outputs": [],
      "stateMutability": "nonpayable",
      "type": "function"
    },
    {
      "inputs": [
        {
          "internalType": "address",
          "name": "from",
          "type": "address"
        },
        {
          "internalType": "address",
          "name": "to",
          "type": "address"
        },
        {
          "internalType": "uint256[]",
          "name": "ids",
          "type": "uint256[]"
        },
        {
          "internalType": "uint256[]",
          "name": "amounts",
          "type": "uint256[]"
        },
        {
          "internalType": "bytes",
          "name": "data",
          "type": "bytes"
        }
      ],
      "name": "safeBatchTransferFrom",
      "outputs": [],
      "stateMutability": "nonpayable",
      "type": "function"
    },
    {
      "inputs": [
        {
          "internalType": "address",
          "name": "from",
          "type": "address"
        },
        {
          "internalType": "address",
          "name": "to",
          "type": "address"
        },
        {
          "internalType": "uint256",
          "name": "id",
          "type": "uint256"
        },
        {
          "internalType": "uint256",
          "name": "amount",
          "type": "uint256"
        },
        {
          "internalType": "bytes",
          "name": "data",
          "type": "bytes"
        }
      ],
      "name": "safeTransferFrom",
      "outputs": [],
      "stateMutability": "nonpayable",
      "type": "function"
    },
    {
      "inputs": [
        {
          "internalType": "uint256",
          "name": "_amount",
          "type": "uint256"
        }
      ],
      "name": "sellNFT",
      "outputs": [],
      "stateMutability": "nonpayable",
      "type": "function"
    },
    {
      "inputs": [
        {
          "internalType": "address",
          "name": "operator",
          "type": "address"
        },
        {
          "internalType": "bool",
          "name": "approved",
          "type": "bool"
        }
      ],
      "name": "setApprovalForAll",
      "outputs": [],
      "stateMutability": "nonpayable",
      "type": "function"
    },
    {
      "inputs": [
        {
          "internalType": "address",
          "name": "addr",
          "type": "address"
        }
      ],
      "name": "setwbtcContract",
      "outputs": [],
      "stateMutability": "nonpayable",
      "type": "function"
    },
    {
      "inputs": [
        {
          "internalType": "uint256",
          "name": "_amount",
          "type": "uint256"
        }
      ],
      "name": "stakeBTC",
      "outputs": [],
      "stateMutability": "payable",
      "type": "function"
    },
    {
      "inputs": [
        {
          "internalType": "address",
          "name": "",
          "type": "address"
        },
        {
          "internalType": "uint256",
          "name": "",
          "type": "uint256"
        }
      ],
      "name": "supplyBalance",
      "outputs": [
        {
          "internalType": "uint256",
          "name": "",
          "type": "uint256"
        }
      ],
      "stateMutability": "view",
      "type": "function"
    },
    {
      "inputs": [
        {
          "internalType": "bytes4",
          "name": "interfaceId",
          "type": "bytes4"
        }
      ],
      "name": "supportsInterface",
      "outputs": [
        {
          "internalType": "bool",
          "name": "",
          "type": "bool"
        }
      ],
      "stateMutability": "view",
      "type": "function"
    },
    {
      "inputs": [],
      "name": "symbol",
      "outputs": [
        {
          "internalType": "string",
          "name": "",
          "type": "string"
        }
      ],
      "stateMutability": "pure",
      "type": "function"
    },
    {
      "inputs": [
        {
          "internalType": "address",
          "name": "newOwner",
          "type": "address"
        }
      ],
      "name": "transferOwnership",
      "outputs": [],
      "stateMutability": "nonpayable",
      "type": "function"
    },
    {
      "inputs": [
        {
          "internalType": "uint256",
          "name": "_tokenId",
          "type": "uint256"
        }
      ],
      "name": "uri",
      "outputs": [
        {
          "internalType": "string",
          "name": "",
          "type": "string"
        }
      ],
      "stateMutability": "view",
      "type": "function"
    },
    {
      "inputs": [],
      "name": "wbtcContract",
      "outputs": [
        {
          "internalType": "contract WBTC",
          "name": "",
          "type": "address"
        }
      ],
      "stateMutability": "view",
      "type": "function"
    }
  ],
  "bytecode": "0x610120604052603660c08181529062002f6560e03980516200002a91600a916020909101906200020e565b503480156200003857600080fd5b5060405162002f9b38038062002f9b8339810160408190526200005b91620002b4565b738c7382f9d8f56b33781fe506e897a4f1e2d1725573326c977e6efc84e512bb9c30f76e30c160ed06fb600a80546200009490620002e6565b80601f0160208091040260200160405190810160405280929190818152602001828054620000c290620002e6565b8015620001135780601f10620000e75761010080835404028352916020019162000113565b820191906000526020600020905b815481529060010190602001808311620000f557829003601f168201915b50505050506200012981620001a360201b60201c565b506200013533620001bc565b606091821b6001600160601b031990811660a052911b16608052600580546001600160a01b0319166001600160a01b03929092169190911790557f6e75b569a01ef56d18cab6a8e71e6600d6ce853834d4a5748b720d06f878b3a4600955655af3107a400060075562000323565b8051620001b89060029060208401906200020e565b5050565b600380546001600160a01b038381166001600160a01b0319831681179093556040519116919082907f8be0079c531659141344cd1fd0a4f28419497f9722a3daafe3b4186f6b6457e090600090a35050565b8280546200021c90620002e6565b90600052602060002090601f0160209004810192826200024057600085556200028b565b82601f106200025b57805160ff19168380011785556200028b565b828001600101855582156200028b579182015b828111156200028b5782518255916020019190600101906200026e565b50620002999291506200029d565b5090565b5b808211156200029957600081556001016200029e565b600060208284031215620002c757600080fd5b81516001600160a01b0381168114620002df57600080fd5b9392505050565b600181811c90821680620002fb57607f821691505b602082108114156200031d57634e487b7160e01b600052602260045260246000fd5b50919050565b60805160601c60a05160601c612c086200035d60003960008181610dc20152611b6c015260008181610fb30152611b3d0152612c086000f3fe6080604052600436106102505760003560e01c8063807a012d11610139578063bea1d66a116100b6578063ee9cdfb31161007a578063ee9cdfb3146106ec578063eee0d9e21461070c578063f242432a14610721578063f27d7dcd14610741578063f2fde38b14610756578063f85060551461077657600080fd5b8063bea1d66a14610651578063c2b8472214610666578063db19d93f14610679578063dbdff2c11461068e578063e985e9c5146106a357600080fd5b806395d89b41116100fd57806395d89b41146105c55780639f211be2146105f2578063a22cb46514610607578063abc40ce414610627578063b63426b31461063c57600080fd5b8063807a012d1461051a5780638da5cb5b146105525780638fcb4325146105705780639280d8ee1461058557806394985ddd146105a557600080fd5b8063225abdbd116101d257806342619f661161019657806342619f66146104785780634e1273f41461048e5780635b5d897f146104bb5780636e69adcf146104db578063715018a6146104f057806377b07f6b1461050557600080fd5b8063225abdbd146103ee5780632eb2c2d61461040e5780632f3104e41461042e57806335926b9c14610443578063403c617e1461046357600080fd5b80630e89341c116102195780630e89341c14610329578063142cee9314610349578063159907de1461037657806316b488a0146103ae5780632014218a146103ce57600080fd5b8062fdd58e1461025557806301ffc9a71461028857806305f36283146102b857806306fdde03146102cd578063080f54f714610307575b600080fd5b34801561026157600080fd5b5061027561027036600461247d565b61078b565b6040519081526020015b60405180910390f35b34801561029457600080fd5b506102a86102a33660046125b7565b610822565b604051901515815260200161027f565b3480156102c457600080fd5b50610275600781565b3480156102d957600080fd5b50604080518082019091526008815267456c656d656e747360c01b60208201525b60405161027f9190612863565b34801561031357600080fd5b506103276103223660046125f1565b610874565b005b34801561033557600080fd5b506102fa6103443660046125f1565b610956565b34801561035557600080fd5b506102756103643660046122e2565b600c6020526000908152604090205481565b34801561038257600080fd5b5061027561039136600461247d565b600b60209081526000928352604080842090915290825290205481565b3480156103ba57600080fd5b506103276103c93660046122e2565b61098a565b3480156103da57600080fd5b506103276103e93660046125f1565b6109d6565b3480156103fa57600080fd5b506103276104093660046125f1565b610a38565b34801561041a57600080fd5b50610327610429366004612337565b610a9a565b34801561043a57600080fd5b50610275600681565b34801561044f57600080fd5b5061032761045e3660046125f1565b610b31565b34801561046f57600080fd5b50610275600181565b34801561048457600080fd5b5061027560085481565b34801561049a57600080fd5b506104ae6104a93660046124a7565b610b93565b60405161027f919061282b565b3480156104c757600080fd5b506103276104d63660046125f1565b610cbd565b3480156104e757600080fd5b5061027560c881565b3480156104fc57600080fd5b50610327610d1f565b34801561051157600080fd5b50610275600381565b34801561052657600080fd5b5060055461053a906001600160a01b031681565b6040516001600160a01b03909116815260200161027f565b34801561055e57600080fd5b506003546001600160a01b031661053a565b34801561057c57600080fd5b50610275600481565b34801561059157600080fd5b506103276105a03660046125f1565b610d55565b3480156105b157600080fd5b506103276105c0366004612595565b610db7565b3480156105d157600080fd5b506040805180820190915260048152631153135560e21b60208201526102fa565b3480156105fe57600080fd5b50610327610e3d565b34801561061357600080fd5b50610327610622366004612446565b610e4e565b34801561063357600080fd5b50610275600281565b34801561064857600080fd5b50610275600881565b34801561065d57600080fd5b50610275600981565b6103276106743660046125f1565b610e59565b34801561068557600080fd5b50610275600581565b34801561069a57600080fd5b50610275610f8f565b3480156106af57600080fd5b506102a86106be366004612304565b6001600160a01b03918216600090815260016020908152604080832093909416825291909152205460ff1690565b3480156106f857600080fd5b506103276107073660046125f1565b6110a2565b34801561071857600080fd5b506102fa611201565b34801561072d57600080fd5b5061032761073c3660046123e1565b61128f565b34801561074d57600080fd5b5061027560c981565b34801561076257600080fd5b506103276107713660046122e2565b611316565b34801561078257600080fd5b50610275600a81565b60006001600160a01b0383166107fc5760405162461bcd60e51b815260206004820152602b60248201527f455243313135353a2062616c616e636520717565727920666f7220746865207a60448201526a65726f206164647265737360a81b60648201526084015b60405180910390fd5b506000908152602081815260408083206001600160a01b03949094168352929052205490565b60006001600160e01b03198216636cdb3d1360e11b148061085357506001600160e01b031982166303a24d0760e21b145b8061086e57506301ffc9a760e01b6001600160e01b03198316145b92915050565b6005546040516340c10f1960e01b8152336004820152602481018390526001600160a01b03909116906340c10f1990604401600060405180830381600087803b1580156108c057600080fd5b505af11580156108d4573d6000803e3d6000fd5b5050336000908152600c6020526040812080548594509092506108f89084906129a6565b90915550506040517f5fe6c9fd9b1d778d130db1fa0af25c265f2adfb2365bb9c8e5dda87bdd64cefe9061094b906020808252600b908201526a1dd09510c8135a5b9d195960aa1b604082015260600190565b60405180910390a150565b6060600a610963836113b1565b6040516020016109749291906126a6565b6040516020818303038152906040529050919050565b6003546001600160a01b031633146109b45760405162461bcd60e51b81526004016107f39061294d565b600580546001600160a01b0319166001600160a01b0392909216919091179055565b6109f233600183604051806020016040528060008152506114b7565b336000908152600b6020908152604080832060018452909152902054610a199082906129a6565b336000908152600b602090815260408083206001845290915290205550565b610a5433600383604051806020016040528060008152506114b7565b336000908152600b6020908152604080832060038452909152902054610a7b9082906129a6565b336000908152600b602090815260408083206003845290915290205550565b6001600160a01b038516331480610ab65750610ab685336106be565b610b1d5760405162461bcd60e51b815260206004820152603260248201527f455243313135353a207472616e736665722063616c6c6572206973206e6f74206044820152711bdddb995c881b9bdc88185c1c1c9bdd995960721b60648201526084016107f3565b610b2a85858585856115c1565b5050505050565b610b4d33600883604051806020016040528060008152506114b7565b336000908152600b6020908152604080832060088452909152902054610b749082906129a6565b336000908152600b602090815260408083206008845290915290205550565b60608151835114610bf85760405162461bcd60e51b815260206004820152602960248201527f455243313135353a206163636f756e747320616e6420696473206c656e677468604482015268040dad2e6dac2e8c6d60bb1b60648201526084016107f3565b6000835167ffffffffffffffff811115610c1457610c14612af2565b604051908082528060200260200182016040528015610c3d578160200160208202803683370190505b50905060005b8451811015610cb557610c88858281518110610c6157610c61612adc565b6020026020010151858381518110610c7b57610c7b612adc565b602002602001015161078b565b828281518110610c9a57610c9a612adc565b6020908102919091010152610cae81612a81565b9050610c43565b509392505050565b610cd933600283604051806020016040528060008152506114b7565b336000908152600b6020908152604080832060028452909152902054610d009082906129a6565b336000908152600b602090815260408083206002845290915290205550565b6003546001600160a01b03163314610d495760405162461bcd60e51b81526004016107f39061294d565b610d53600061179e565b565b610d7133600483604051806020016040528060008152506114b7565b336000908152600b6020908152604080832060048452909152902054610d989082906129a6565b336000908152600b602090815260408083206004845290915290205550565b336001600160a01b037f00000000000000000000000000000000000000000000000000000000000000001614610e2f5760405162461bcd60e51b815260206004820152601f60248201527f4f6e6c7920565246436f6f7264696e61746f722063616e2066756c66696c6c0060448201526064016107f3565b610e3982826117f0565b5050565b610e45610f8f565b50610d53611802565b610e39338383611a58565b60008111610ea95760405162461bcd60e51b815260206004820181905260248201527f416d6f756e74206d7573742062652067726561746572207468616e207a65723060448201526064016107f3565b6005546040516323b872dd60e01b8152336004820152306024820152604481018390526001600160a01b03909116906323b872dd90606401602060405180830381600087803b158015610efb57600080fd5b505af1158015610f0f573d6000803e3d6000fd5b505050506040513d601f19601f82011682018060405250810190610f339190612578565b50336000908152600c602052604081208054839290610f539084906129d2565b90915550610f639050600a6109d6565b610f6d600a610cbd565b610f77600a610d55565b610f81600a610a38565b610f8b600a610b31565b610e395b6007546040516370a0823160e01b8152306004820152600091906001600160a01b037f000000000000000000000000000000000000000000000000000000000000000016906370a082319060240160206040518083038186803b158015610ff557600080fd5b505afa158015611009573d6000803e3d6000fd5b505050506040513d601f19601f8201168201806040525081019061102d919061260a565b101561108f5760405162461bcd60e51b815260206004820152602b60248201527f4e6f7420656e6f756768204c494e4b202d2066696c6c20636f6e74726163742060448201526a1dda5d1a0819985d58d95d60aa1b60648201526084016107f3565b61109d600954600754611b39565b905090565b60c881101580156110b4575060c98111155b6110f55760405162461bcd60e51b81526020600482015260126024820152712737ba102b30b634b21021b932b0ba34b7b760711b60448201526064016107f3565b6002600160c88314156111fc57600261110e81846129be565b925061111c3360c884611cc4565b336000908152600b6020908152604080832060c88452909152812080548592906111479084906129d2565b909155505060055460405163a9059cbb60e01b8152336004820152602481018590526001600160a01b039091169063a9059cbb90604401602060405180830381600087803b15801561119857600080fd5b505af11580156111ac573d6000803e3d6000fd5b505050506040513d601f19601f820116820180604052508101906111d09190612578565b50336000908152600c6020526040812080548592906111f09084906129a6565b909155506111fc915050565b505050565b600a805461120e90612a19565b80601f016020809104026020016040519081016040528092919081815260200182805461123a90612a19565b80156112875780601f1061125c57610100808354040283529160200191611287565b820191906000526020600020905b81548152906001019060200180831161126a57829003601f168201915b505050505081565b6001600160a01b0385163314806112ab57506112ab85336106be565b6113095760405162461bcd60e51b815260206004820152602960248201527f455243313135353a2063616c6c6572206973206e6f74206f776e6572206e6f7260448201526808185c1c1c9bdd995960ba1b60648201526084016107f3565b610b2a8585858585611e3e565b6003546001600160a01b031633146113405760405162461bcd60e51b81526004016107f39061294d565b6001600160a01b0381166113a55760405162461bcd60e51b815260206004820152602660248201527f4f776e61626c653a206e6577206f776e657220697320746865207a65726f206160448201526564647265737360d01b60648201526084016107f3565b6113ae8161179e565b50565b6060816113d55750506040805180820190915260018152600360fc1b602082015290565b8160005b81156113ff57806113e981612a81565b91506113f89050600a836129be565b91506113d9565b60008167ffffffffffffffff81111561141a5761141a612af2565b6040519080825280601f01601f191660200182016040528015611444576020820181803683370190505b5090505b84156114af576114596001836129d2565b9150611466600a86612a9c565b6114719060306129a6565b60f81b81838151811061148657611486612adc565b60200101906001600160f81b031916908160001a9053506114a8600a866129be565b9450611448565b949350505050565b6001600160a01b0384166115175760405162461bcd60e51b815260206004820152602160248201527f455243313135353a206d696e7420746f20746865207a65726f206164647265736044820152607360f81b60648201526084016107f3565b336115318160008761152888611f5b565b610b2a88611f5b565b6000848152602081815260408083206001600160a01b0389168452909152812080548592906115619084906129a6565b909155505060408051858152602081018590526001600160a01b0380881692600092918516917fc3d58168c5ae7397731d063d5bbf3d657854427343f4c083240f7aacaa2d0f62910160405180910390a4610b2a81600087878787611fa6565b81518351146116235760405162461bcd60e51b815260206004820152602860248201527f455243313135353a2069647320616e6420616d6f756e7473206c656e677468206044820152670dad2e6dac2e8c6d60c31b60648201526084016107f3565b6001600160a01b0384166116495760405162461bcd60e51b81526004016107f3906128be565b3360005b845181101561173057600085828151811061166a5761166a612adc565b60200260200101519050600085838151811061168857611688612adc565b602090810291909101810151600084815280835260408082206001600160a01b038e1683529093529190912054909150818110156116d85760405162461bcd60e51b81526004016107f390612903565b6000838152602081815260408083206001600160a01b038e8116855292528083208585039055908b168252812080548492906117159084906129a6565b925050819055505050508061172990612a81565b905061164d565b50846001600160a01b0316866001600160a01b0316826001600160a01b03167f4a39dc06d4c0dbc64b70af90fd698a233a518aa5d07e595d983b8c0526c8f7fb878760405161178092919061283e565b60405180910390a4611796818787878787612111565b505050505050565b600380546001600160a01b038381166001600160a01b0319831681179093556040519116919082907f8be0079c531659141344cd1fd0a4f28419497f9722a3daafe3b4186f6b6457e090600090a35050565b6117fb606482612a9c565b6008555050565b336000908152600b602090815260408083206001808552925280832054600884529220549060029080828510156118715760405162461bcd60e51b81526020600482015260136024820152722737ba1022b737bab3b410243cb23937b3b2b760691b60448201526064016107f3565b818410156118b55760405162461bcd60e51b81526020600482015260116024820152702737ba1022b737bab3b41027bc3cb3b2b760791b60448201526064016107f3565b6118c133600185611cc4565b336000908152600b6020908152604080832060018452909152812080548592906118ec9084906129d2565b909155506118fe905033600884611cc4565b336000908152600b6020908152604080832060088452909152812080548492906119299084906129d2565b90915550506008546040518181527fec6cdc8e735e4069f6e89062582f3e5532a8e71373e7ef2962fa916cf2af21f29060200160405180910390a1600a8110156119c3577fa11c889fee9dafbb2ce8aea81cdab60c4af9c573fdacf23056d4da9ab596796c6040516119b6906020808252600790820152664661696c75726560c81b604082015260600190565b60405180910390a1611796565b6119df3360c884604051806020016040528060008152506114b7565b336000908152600b6020908152604080832060c8845290915281208054849290611a0a9084906129a6565b90915550506040805160c881523360208201529081018390527f41dc43fe6204194dd095effea839309c4fc5c4f84c88d1b81372b0bcc9a601189060600160405180910390a1505050505050565b816001600160a01b0316836001600160a01b03161415611acc5760405162461bcd60e51b815260206004820152602960248201527f455243313135353a2073657474696e6720617070726f76616c20737461747573604482015268103337b91039b2b63360b91b60648201526084016107f3565b6001600160a01b03838116600081815260016020908152604080832094871680845294825291829020805460ff191686151590811790915591519182527f17307eab39ab6107e8899845ad3d59bd9653f200f220920489ca2b5937696c31910160405180910390a3505050565b60007f00000000000000000000000000000000000000000000000000000000000000006001600160a01b0316634000aea07f000000000000000000000000000000000000000000000000000000000000000084866000604051602001611ba9929190918252602082015260400190565b6040516020818303038152906040526040518463ffffffff1660e01b8152600401611bd693929190612804565b602060405180830381600087803b158015611bf057600080fd5b505af1158015611c04573d6000803e3d6000fd5b505050506040513d601f19601f82011682018060405250810190611c289190612578565b50600083815260046020818152604080842054815180840189905280830186905230606082015260808082018390528351808303909101815260a090910190925281519183019190912093879052919052611c849060016129a6565b6000858152600460205260409020556114af8482604080516020808201949094528082019290925280518083038201815260609092019052805191012090565b6001600160a01b038316611d265760405162461bcd60e51b815260206004820152602360248201527f455243313135353a206275726e2066726f6d20746865207a65726f206164647260448201526265737360e81b60648201526084016107f3565b33611d5681856000611d3787611f5b565b611d4087611f5b565b5050604080516020810190915260009052505050565b6000838152602081815260408083206001600160a01b038816845290915290205482811015611dd35760405162461bcd60e51b8152602060048201526024808201527f455243313135353a206275726e20616d6f756e7420657863656564732062616c604482015263616e636560e01b60648201526084016107f3565b6000848152602081815260408083206001600160a01b03898116808652918452828520888703905582518981529384018890529092908616917fc3d58168c5ae7397731d063d5bbf3d657854427343f4c083240f7aacaa2d0f62910160405180910390a45050505050565b6001600160a01b038416611e645760405162461bcd60e51b81526004016107f3906128be565b33611e7481878761152888611f5b565b6000848152602081815260408083206001600160a01b038a16845290915290205483811015611eb55760405162461bcd60e51b81526004016107f390612903565b6000858152602081815260408083206001600160a01b038b8116855292528083208785039055908816825281208054869290611ef29084906129a6565b909155505060408051868152602081018690526001600160a01b03808916928a821692918616917fc3d58168c5ae7397731d063d5bbf3d657854427343f4c083240f7aacaa2d0f62910160405180910390a4611f52828888888888611fa6565b50505050505050565b60408051600180825281830190925260609160009190602080830190803683370190505090508281600081518110611f9557611f95612adc565b602090810291909101015292915050565b6001600160a01b0384163b156117965760405163f23a6e6160e01b81526001600160a01b0385169063f23a6e6190611fea90899089908890889088906004016127bf565b602060405180830381600087803b15801561200457600080fd5b505af1925050508015612034575060408051601f3d908101601f19168201909252612031918101906125d4565b60015b6120e157612040612b08565b806308c379a0141561207a5750612055612b24565b80612060575061207c565b8060405162461bcd60e51b81526004016107f39190612863565b505b60405162461bcd60e51b815260206004820152603460248201527f455243313135353a207472616e7366657220746f206e6f6e20455243313135356044820152732932b1b2b4bb32b91034b6b83632b6b2b73a32b960611b60648201526084016107f3565b6001600160e01b0319811663f23a6e6160e01b14611f525760405162461bcd60e51b81526004016107f390612876565b6001600160a01b0384163b156117965760405163bc197c8160e01b81526001600160a01b0385169063bc197c81906121559089908990889088908890600401612761565b602060405180830381600087803b15801561216f57600080fd5b505af192505050801561219f575060408051601f3d908101601f1916820190925261219c918101906125d4565b60015b6121ab57612040612b08565b6001600160e01b0319811663bc197c8160e01b14611f525760405162461bcd60e51b81526004016107f390612876565b80356001600160a01b03811681146121f257600080fd5b919050565b600082601f83011261220857600080fd5b8135602061221582612982565b6040516122228282612a54565b8381528281019150858301600585901b8701840188101561224257600080fd5b60005b8581101561226157813584529284019290840190600101612245565b5090979650505050505050565b600082601f83011261227f57600080fd5b813567ffffffffffffffff81111561229957612299612af2565b6040516122b0601f8301601f191660200182612a54565b8181528460208386010111156122c557600080fd5b816020850160208301376000918101602001919091529392505050565b6000602082840312156122f457600080fd5b6122fd826121db565b9392505050565b6000806040838503121561231757600080fd5b612320836121db565b915061232e602084016121db565b90509250929050565b600080600080600060a0868803121561234f57600080fd5b612358866121db565b9450612366602087016121db565b9350604086013567ffffffffffffffff8082111561238357600080fd5b61238f89838a016121f7565b945060608801359150808211156123a557600080fd5b6123b189838a016121f7565b935060808801359150808211156123c757600080fd5b506123d48882890161226e565b9150509295509295909350565b600080600080600060a086880312156123f957600080fd5b612402866121db565b9450612410602087016121db565b93506040860135925060608601359150608086013567ffffffffffffffff81111561243a57600080fd5b6123d48882890161226e565b6000806040838503121561245957600080fd5b612462836121db565b9150602083013561247281612bae565b809150509250929050565b6000806040838503121561249057600080fd5b612499836121db565b946020939093013593505050565b600080604083850312156124ba57600080fd5b823567ffffffffffffffff808211156124d257600080fd5b818501915085601f8301126124e657600080fd5b813560206124f382612982565b6040516125008282612a54565b8381528281019150858301600585901b870184018b101561252057600080fd5b600096505b8487101561254a57612536816121db565b835260019690960195918301918301612525565b509650508601359250508082111561256157600080fd5b5061256e858286016121f7565b9150509250929050565b60006020828403121561258a57600080fd5b81516122fd81612bae565b600080604083850312156125a857600080fd5b50508035926020909101359150565b6000602082840312156125c957600080fd5b81356122fd81612bbc565b6000602082840312156125e657600080fd5b81516122fd81612bbc565b60006020828403121561260357600080fd5b5035919050565b60006020828403121561261c57600080fd5b5051919050565b600081518084526020808501945080840160005b8381101561265357815187529582019590820190600101612637565b509495945050505050565b600081518084526126768160208601602086016129e9565b601f01601f19169290920160200192915050565b6000815161269c8185602086016129e9565b9290920192915050565b600080845481600182811c9150808316806126c257607f831692505b60208084108214156126e257634e487b7160e01b86526022600452602486fd5b8180156126f6576001811461270757612734565b60ff19861689528489019650612734565b60008b81526020902060005b8681101561272c5781548b820152908501908301612713565b505084890196505b505050505050612758612747828661268a565b64173539b7b760d91b815260050190565b95945050505050565b6001600160a01b0386811682528516602082015260a06040820181905260009061278d90830186612623565b828103606084015261279f8186612623565b905082810360808401526127b3818561265e565b98975050505050505050565b6001600160a01b03868116825285166020820152604081018490526060810183905260a0608082018190526000906127f99083018461265e565b979650505050505050565b60018060a01b0384168152826020820152606060408201526000612758606083018461265e565b6020815260006122fd6020830184612623565b6040815260006128516040830185612623565b82810360208401526127588185612623565b6020815260006122fd602083018461265e565b60208082526028908201527f455243313135353a204552433131353552656365697665722072656a656374656040820152676420746f6b656e7360c01b606082015260800190565b60208082526025908201527f455243313135353a207472616e7366657220746f20746865207a65726f206164604082015264647265737360d81b606082015260800190565b6020808252602a908201527f455243313135353a20696e73756666696369656e742062616c616e636520666f60408201526939103a3930b739b332b960b11b606082015260800190565b6020808252818101527f4f776e61626c653a2063616c6c6572206973206e6f7420746865206f776e6572604082015260600190565b600067ffffffffffffffff82111561299c5761299c612af2565b5060051b60200190565b600082198211156129b9576129b9612ab0565b500190565b6000826129cd576129cd612ac6565b500490565b6000828210156129e4576129e4612ab0565b500390565b60005b83811015612a045781810151838201526020016129ec565b83811115612a13576000848401525b50505050565b600181811c90821680612a2d57607f821691505b60208210811415612a4e57634e487b7160e01b600052602260045260246000fd5b50919050565b601f8201601f1916810167ffffffffffffffff81118282101715612a7a57612a7a612af2565b6040525050565b6000600019821415612a9557612a95612ab0565b5060010190565b600082612aab57612aab612ac6565b500690565b634e487b7160e01b600052601160045260246000fd5b634e487b7160e01b600052601260045260246000fd5b634e487b7160e01b600052603260045260246000fd5b634e487b7160e01b600052604160045260246000fd5b600060033d1115612b215760046000803e5060005160e01c5b90565b600060443d1015612b325790565b6040516003193d81016004833e81513d67ffffffffffffffff8160248401118184111715612b6257505050505090565b8285019150815181811115612b7a5750505050505090565b843d8701016020828501011115612b945750505050505090565b612ba360208286010187612a54565b509095945050505050565b80151581146113ae57600080fd5b6001600160e01b0319811681146113ae57600080fdfea2646970667358221220e6a576a578899471684d9a3c198f710eb547a4a978fd938bf9129e8815b1ef4b64736f6c63430008070033697066733a2f2f516d634a3162516242523368556f733155614c6d3776326d46784a39796b484556357a4c4c6d595770637038424e2f",
  "linkReferences": {},
  "deployedLinkReferences": {}
}