{
  "_format": "hh-sol-artifact-1",
  "contractName": "Chem",
  "sourceName": "contracts/Chem.sol",
  "abi": [
    {
      "inputs": [
        {
          "internalType": "address",
          "name": "_address",
          "type": "address"
        }
      ],
      "stateMutability": "nonpayable",
      "type": "constructor"
    },
    {
      "anonymous": false,
      "inputs": [
        {
          "indexed": true,
          "internalType": "address",
          "name": "account",
          "type": "address"
        },
        {
          "indexed": true,
          "internalType": "address",
          "name": "operator",
          "type": "address"
        },
        {
          "indexed": false,
          "internalType": "bool",
          "name": "approved",
          "type": "bool"
        }
      ],
      "name": "ApprovalForAll",
      "type": "event"
    },
    {
      "anonymous": false,
      "inputs": [
        {
          "indexed": true,
          "internalType": "address",
          "name": "operator",
          "type": "address"
        },
        {
          "indexed": true,
          "internalType": "address",
          "name": "from",
          "type": "address"
        },
        {
          "indexed": true,
          "internalType": "address",
          "name": "to",
          "type": "address"
        },
        {
          "indexed": false,
          "internalType": "uint256[]",
          "name": "ids",
          "type": "uint256[]"
        },
        {
          "indexed": false,
          "internalType": "uint256[]",
          "name": "values",
          "type": "uint256[]"
        }
      ],
      "name": "TransferBatch",
      "type": "event"
    },
    {
      "anonymous": false,
      "inputs": [
        {
          "indexed": true,
          "internalType": "address",
          "name": "operator",
          "type": "address"
        },
        {
          "indexed": true,
          "internalType": "address",
          "name": "from",
          "type": "address"
        },
        {
          "indexed": true,
          "internalType": "address",
          "name": "to",
          "type": "address"
        },
        {
          "indexed": false,
          "internalType": "uint256",
          "name": "id",
          "type": "uint256"
        },
        {
          "indexed": false,
          "internalType": "uint256",
          "name": "value",
          "type": "uint256"
        }
      ],
      "name": "TransferSingle",
      "type": "event"
    },
    {
      "anonymous": false,
      "inputs": [
        {
          "indexed": false,
          "internalType": "string",
          "name": "value",
          "type": "string"
        },
        {
          "indexed": true,
          "internalType": "uint256",
          "name": "id",
          "type": "uint256"
        }
      ],
      "name": "URI",
      "type": "event"
    },
    {
      "inputs": [],
      "name": "Beryllium",
      "outputs": [
        {
          "internalType": "uint256",
          "name": "",
          "type": "uint256"
        }
      ],
      "stateMutability": "view",
      "type": "function"
    },
    {
      "inputs": [],
      "name": "Elements",
      "outputs": [
        {
          "internalType": "string",
          "name": "",
          "type": "string"
        }
      ],
      "stateMutability": "view",
      "type": "function"
    },
    {
      "inputs": [],
      "name": "Helium",
      "outputs": [
        {
          "internalType": "uint256",
          "name": "",
          "type": "uint256"
        }
      ],
      "stateMutability": "view",
      "type": "function"
    },
    {
      "inputs": [],
      "name": "Hydrogen",
      "outputs": [
        {
          "internalType": "uint256",
          "name": "",
          "type": "uint256"
        }
      ],
      "stateMutability": "view",
      "type": "function"
    },
    {
      "inputs": [],
      "name": "Lithium",
      "outputs": [
        {
          "internalType": "uint256",
          "name": "",
          "type": "uint256"
        }
      ],
      "stateMutability": "view",
      "type": "function"
    },
    {
      "inputs": [],
      "name": "Oxygen",
      "outputs": [
        {
          "internalType": "uint256",
          "name": "",
          "type": "uint256"
        }
      ],
      "stateMutability": "view",
      "type": "function"
    },
    {
      "inputs": [],
      "name": "Water",
      "outputs": [
        {
          "internalType": "uint256",
          "name": "",
          "type": "uint256"
        }
      ],
      "stateMutability": "view",
      "type": "function"
    },
    {
      "inputs": [
        {
          "internalType": "address",
          "name": "account",
          "type": "address"
        },
        {
          "internalType": "uint256",
          "name": "id",
          "type": "uint256"
        }
      ],
      "name": "balanceOf",
      "outputs": [
        {
          "internalType": "uint256",
          "name": "",
          "type": "uint256"
        }
      ],
      "stateMutability": "view",
      "type": "function"
    },
    {
      "inputs": [
        {
          "internalType": "address[]",
          "name": "accounts",
          "type": "address[]"
        },
        {
          "internalType": "uint256[]",
          "name": "ids",
          "type": "uint256[]"
        }
      ],
      "name": "balanceOfBatch",
      "outputs": [
        {
          "internalType": "uint256[]",
          "name": "",
          "type": "uint256[]"
        }
      ],
      "stateMutability": "view",
      "type": "function"
    },
    {
      "inputs": [
        {
          "internalType": "address",
          "name": "",
          "type": "address"
        }
      ],
      "name": "btcTokenBalance",
      "outputs": [
        {
          "internalType": "uint256",
          "name": "",
          "type": "uint256"
        }
      ],
      "stateMutability": "view",
      "type": "function"
    },
    {
      "inputs": [],
      "name": "cheapBeaker",
      "outputs": [
        {
          "internalType": "uint256",
          "name": "",
          "type": "uint256"
        }
      ],
      "stateMutability": "view",
      "type": "function"
    },
    {
      "inputs": [
        {
          "internalType": "uint256",
          "name": "_beaker",
          "type": "uint256"
        }
      ],
      "name": "createWater",
      "outputs": [],
      "stateMutability": "nonpayable",
      "type": "function"
    },
    {
      "inputs": [],
      "name": "epicBeaker",
      "outputs": [
        {
          "internalType": "uint256",
          "name": "",
          "type": "uint256"
        }
      ],
      "stateMutability": "view",
      "type": "function"
    },
    {
      "inputs": [
        {
          "internalType": "address",
          "name": "account",
          "type": "address"
        },
        {
          "internalType": "address",
          "name": "operator",
          "type": "address"
        }
      ],
      "name": "isApprovedForAll",
      "outputs": [
        {
          "internalType": "bool",
          "name": "",
          "type": "bool"
        }
      ],
      "stateMutability": "view",
      "type": "function"
    },
    {
      "inputs": [
        {
          "internalType": "uint256",
          "name": "_amount",
          "type": "uint256"
        }
      ],
      "name": "mintBTC",
      "outputs": [],
      "stateMutability": "nonpayable",
      "type": "function"
    },
    {
      "inputs": [
        {
          "internalType": "uint256",
          "name": "_amount",
          "type": "uint256"
        }
      ],
      "name": "mintBeryllium",
      "outputs": [],
      "stateMutability": "nonpayable",
      "type": "function"
    },
    {
      "inputs": [
        {
          "internalType": "uint256",
          "name": "_amount",
          "type": "uint256"
        }
      ],
      "name": "mintCheapBeaker",
      "outputs": [],
      "stateMutability": "nonpayable",
      "type": "function"
    },
    {
      "inputs": [
        {
          "internalType": "uint256",
          "name": "_amount",
          "type": "uint256"
        }
      ],
      "name": "mintEpicBeaker",
      "outputs": [],
      "stateMutability": "nonpayable",
      "type": "function"
    },
    {
      "inputs": [
        {
          "internalType": "uint256",
          "name": "_amount",
          "type": "uint256"
        }
      ],
      "name": "mintHelium",
      "outputs": [],
      "stateMutability": "nonpayable",
      "type": "function"
    },
    {
      "inputs": [
        {
          "internalType": "uint256",
          "name": "_amount",
          "type": "uint256"
        }
      ],
      "name": "mintHydrogen",
      "outputs": [],
      "stateMutability": "nonpayable",
      "type": "function"
    },
    {
      "inputs": [
        {
          "internalType": "uint256",
          "name": "_amount",
          "type": "uint256"
        }
      ],
      "name": "mintLithium",
      "outputs": [],
      "stateMutability": "nonpayable",
      "type": "function"
    },
    {
      "inputs": [
        {
          "internalType": "uint256",
          "name": "_amount",
          "type": "uint256"
        }
      ],
      "name": "mintOxygen",
      "outputs": [],
      "stateMutability": "nonpayable",
      "type": "function"
    },
    {
      "inputs": [
        {
          "internalType": "uint256",
          "name": "_amount",
          "type": "uint256"
        }
      ],
      "name": "mintRegularBeaker",
      "outputs": [],
      "stateMutability": "nonpayable",
      "type": "function"
    },
    {
      "inputs": [],
      "name": "name",
      "outputs": [
        {
          "internalType": "string",
          "name": "",
          "type": "string"
        }
      ],
      "stateMutability": "pure",
      "type": "function"
    },
    {
      "inputs": [],
      "name": "regularBeaker",
      "outputs": [
        {
          "internalType": "uint256",
          "name": "",
          "type": "uint256"
        }
      ],
      "stateMutability": "view",
      "type": "function"
    },
    {
      "inputs": [
        {
          "internalType": "address",
          "name": "from",
          "type": "address"
        },
        {
          "internalType": "address",
          "name": "to",
          "type": "address"
        },
        {
          "internalType": "uint256[]",
          "name": "ids",
          "type": "uint256[]"
        },
        {
          "internalType": "uint256[]",
          "name": "amounts",
          "type": "uint256[]"
        },
        {
          "internalType": "bytes",
          "name": "data",
          "type": "bytes"
        }
      ],
      "name": "safeBatchTransferFrom",
      "outputs": [],
      "stateMutability": "nonpayable",
      "type": "function"
    },
    {
      "inputs": [
        {
          "internalType": "address",
          "name": "from",
          "type": "address"
        },
        {
          "internalType": "address",
          "name": "to",
          "type": "address"
        },
        {
          "internalType": "uint256",
          "name": "id",
          "type": "uint256"
        },
        {
          "internalType": "uint256",
          "name": "amount",
          "type": "uint256"
        },
        {
          "internalType": "bytes",
          "name": "data",
          "type": "bytes"
        }
      ],
      "name": "safeTransferFrom",
      "outputs": [],
      "stateMutability": "nonpayable",
      "type": "function"
    },
    {
      "inputs": [
        {
          "internalType": "address",
          "name": "operator",
          "type": "address"
        },
        {
          "internalType": "bool",
          "name": "approved",
          "type": "bool"
        }
      ],
      "name": "setApprovalForAll",
      "outputs": [],
      "stateMutability": "nonpayable",
      "type": "function"
    },
    {
      "inputs": [
        {
          "internalType": "address",
          "name": "",
          "type": "address"
        },
        {
          "internalType": "uint256",
          "name": "",
          "type": "uint256"
        }
      ],
      "name": "supplyBalance",
      "outputs": [
        {
          "internalType": "uint256",
          "name": "",
          "type": "uint256"
        }
      ],
      "stateMutability": "view",
      "type": "function"
    },
    {
      "inputs": [
        {
          "internalType": "bytes4",
          "name": "interfaceId",
          "type": "bytes4"
        }
      ],
      "name": "supportsInterface",
      "outputs": [
        {
          "internalType": "bool",
          "name": "",
          "type": "bool"
        }
      ],
      "stateMutability": "view",
      "type": "function"
    },
    {
      "inputs": [],
      "name": "symbol",
      "outputs": [
        {
          "internalType": "string",
          "name": "",
          "type": "string"
        }
      ],
      "stateMutability": "pure",
      "type": "function"
    },
    {
      "inputs": [
        {
          "internalType": "uint256",
          "name": "_tokenId",
          "type": "uint256"
        }
      ],
      "name": "uri",
      "outputs": [
        {
          "internalType": "string",
          "name": "",
          "type": "string"
        }
      ],
      "stateMutability": "view",
      "type": "function"
    },
    {
      "inputs": [],
      "name": "wbtcContract",
      "outputs": [
        {
          "internalType": "contract WBTC",
          "name": "",
          "type": "address"
        }
      ],
      "stateMutability": "view",
      "type": "function"
    }
  ],
  "bytecode": "0x60e060405260366080818152906200269560a039805162000029916005916020909101906200013e565b503480156200003757600080fd5b50604051620026cb380380620026cb8339810160408190526200005a91620001e4565b60058054620000699062000216565b80601f0160208091040260200160405190810160405280929190818152602001828054620000979062000216565b8015620000e85780601f10620000bc57610100808354040283529160200191620000e8565b820191906000526020600020905b815481529060010190602001808311620000ca57829003601f168201915b5050505050620000fe816200012560201b60201c565b50600380546001600160a01b0319166001600160a01b039290921691909117905562000253565b80516200013a9060029060208401906200013e565b5050565b8280546200014c9062000216565b90600052602060002090601f016020900481019282620001705760008555620001bb565b82601f106200018b57805160ff1916838001178555620001bb565b82800160010185558215620001bb579182015b82811115620001bb5782518255916020019190600101906200019e565b50620001c9929150620001cd565b5090565b5b80821115620001c95760008155600101620001ce565b600060208284031215620001f757600080fd5b81516001600160a01b03811681146200020f57600080fd5b9392505050565b600181811c908216806200022b57607f821691505b602082108114156200024d57634e487b7160e01b600052602260045260246000fd5b50919050565b61243280620002636000396000f3fe608060405234801561001057600080fd5b50600436106101fa5760003560e01c80636d5460831161011a578063a22cb465116100ad578063e985e9c51161007c578063e985e9c514610449578063eee0d9e214610485578063f242432a1461048d578063f58ee1cc146104a0578063f6f104c0146104b357600080fd5b8063a22cb4651461041d578063abc40ce414610430578063ae365e2014610438578063b63426b31461044157600080fd5b8063807a012d116100e9578063807a012d146103b75780638fcb4325146103e25780639280d8ee146103ea57806395d89b41146103fd57600080fd5b80636d5460831461038b5780636e69adcf1461039e57806377b07f6b146103a65780637b5fdac4146103ae57600080fd5b8063225abdbd11610192578063403c617e11610161578063403c617e146103475780634e1273f41461034f5780635a0c38d41461036f5780635b5d897f1461037857600080fd5b8063225abdbd146102fb5780632e4712f01461030e5780632eb2c2d61461032157806335926b9c1461033457600080fd5b80630e89341c116101ce5780630e89341c1461028a578063142cee931461029d578063159907de146102bd5780632014218a146102e857600080fd5b8062fdd58e146101ff57806301ffc9a71461022557806306fdde0314610248578063080f54f714610275575b600080fd5b61021261020d366004611d47565b6104c6565b6040519081526020015b60405180910390f35b610238610233366004611e42565b61055d565b604051901515815260200161021c565b604080518082019091526008815267456c656d656e747360c01b60208201525b60405161021c91906120ae565b610288610283366004611e7c565b6105af565b005b610268610298366004611e7c565b61063b565b6102126102ab366004611ba7565b60076020526000908152604090205481565b6102126102cb366004611d47565b600660209081526000928352604080842090915290825290205481565b6102886102f6366004611e7c565b61066f565b610288610309366004611e7c565b6106d1565b61028861031c366004611e7c565b610733565b61028861032f366004611bfc565b610798565b610288610342366004611e7c565b61082f565b610212600181565b61036261035d366004611d71565b610891565b60405161021c9190612076565b6102126103e881565b610288610386366004611e7c565b6109bb565b610288610399366004611e7c565b610a1d565b61021260c881565b610212600381565b6102126103ea81565b6003546103ca906001600160a01b031681565b6040516001600160a01b03909116815260200161021c565b610212600481565b6102886103f8366004611e7c565b610a82565b6040805180820190915260048152631153135560e21b6020820152610268565b61028861042b366004611d0b565b610ae4565b610212600281565b6102126103e981565b610212600881565b610238610457366004611bc9565b6001600160a01b03918216600090815260016020908152604080832093909416825291909152205460ff1690565b610268610af3565b61028861049b366004611ca6565b610b81565b6102886104ae366004611e7c565b610c08565b6102886104c1366004611e7c565b610f77565b60006001600160a01b0383166105375760405162461bcd60e51b815260206004820152602b60248201527f455243313135353a2062616c616e636520717565727920666f7220746865207a60448201526a65726f206164647265737360a81b60648201526084015b60405180910390fd5b506000908152602081815260408083206001600160a01b03949094168352929052205490565b60006001600160e01b03198216636cdb3d1360e11b148061058e57506001600160e01b031982166303a24d0760e21b145b806105a957506301ffc9a760e01b6001600160e01b03198316145b92915050565b6003546040516340c10f1960e01b8152336004820152602481018390526001600160a01b03909116906340c10f1990604401600060405180830381600087803b1580156105fb57600080fd5b505af115801561060f573d6000803e3d6000fd5b505033600090815260076020526040812080548594509092506106339084906121de565b909155505050565b6060600561064883610fdc565b604051602001610659929190611f18565b6040516020818303038152906040529050919050565b61068b33600183604051806020016040528060008152506110e2565b336000908152600660209081526040808320600184529091529020546106b29082906121de565b3360009081526006602090815260408083206001845290915290205550565b6106ed33600383604051806020016040528060008152506110e2565b336000908152600660209081526040808320600384529091529020546107149082906121de565b3360009081526006602090815260408083206003845290915290205550565b610750336103ea83604051806020016040528060008152506110e2565b3360009081526006602090815260408083206103ea84529091529020546107789082906121de565b3360009081526006602090815260408083206103ea845290915290205550565b6001600160a01b0385163314806107b457506107b48533610457565b61081b5760405162461bcd60e51b815260206004820152603260248201527f455243313135353a207472616e736665722063616c6c6572206973206e6f74206044820152711bdddb995c881b9bdc88185c1c1c9bdd995960721b606482015260840161052e565b61082885858585856111ec565b5050505050565b61084b33600883604051806020016040528060008152506110e2565b336000908152600660209081526040808320600884529091529020546108729082906121de565b3360009081526006602090815260408083206008845290915290205550565b606081518351146108f65760405162461bcd60e51b815260206004820152602960248201527f455243313135353a206163636f756e747320616e6420696473206c656e677468604482015268040dad2e6dac2e8c6d60bb1b606482015260840161052e565b6000835167ffffffffffffffff8111156109125761091261232a565b60405190808252806020026020018201604052801561093b578160200160208202803683370190505b50905060005b84518110156109b35761098685828151811061095f5761095f612314565b602002602001015185838151811061097957610979612314565b60200260200101516104c6565b82828151811061099857610998612314565b60209081029190910101526109ac816122b9565b9050610941565b509392505050565b6109d733600283604051806020016040528060008152506110e2565b336000908152600660209081526040808320600284529091529020546109fe9082906121de565b3360009081526006602090815260408083206002845290915290205550565b610a3a336103e883604051806020016040528060008152506110e2565b3360009081526006602090815260408083206103e88452909152902054610a629082906121de565b3360009081526006602090815260408083206103e8845290915290205550565b610a9e33600483604051806020016040528060008152506110e2565b33600090815260066020908152604080832060048452909152902054610ac59082906121de565b3360009081526006602090815260408083206004845290915290205550565b610aef3383836113c9565b5050565b60058054610b0090612251565b80601f0160208091040260200160405190810160405280929190818152602001828054610b2c90612251565b8015610b795780601f10610b4e57610100808354040283529160200191610b79565b820191906000526020600020905b815481529060010190602001808311610b5c57829003601f168201915b505050505081565b6001600160a01b038516331480610b9d5750610b9d8533610457565b610bfb5760405162461bcd60e51b815260206004820152602960248201527f455243313135353a2063616c6c6572206973206e6f74206f776e6572206e6f7260448201526808185c1c1c9bdd995960ba1b606482015260840161052e565b61082885858585856114aa565b33600090815260066020908152604080832060018085529252808320546008845292205490600290808280861015610c785760405162461bcd60e51b81526020600482015260136024820152722737ba1022b737bab3b410243cb23937b3b2b760691b604482015260640161052e565b82851015610cbc5760405162461bcd60e51b81526020600482015260116024820152702737ba1022b737bab3b41027bc3cb3b2b760791b604482015260640161052e565b6103e88710158015610cd057506103ea8711155b610d115760405162461bcd60e51b81526020600482015260126024820152712737ba1030903b30b634b2102132b0b5b2b960711b604482015260640161052e565b610d1d336001866115c7565b3360009081526006602090815260408083206001845290915281208054869290610d4890849061220a565b90915550610d5a9050336008856115c7565b3360009081526006602090815260408083206008845290915281208054859290610d8590849061220a565b9091555060009050610d95611741565b9050610dca604051806040016040528060118152602001703930b73237b690373ab6b132b91034b99d60791b81525082611774565b6103e8881415610ea1576032811115610e2f57610df93360c885604051806020016040528060008152506110e2565b33600090815260066020908152604080832060c8845290915281208054859290610e249084906121de565b90915550610f6d9050565b610e5960405180604001604052806009815260200168189bdb9d5cc81a1a5d60ba1b8152506117b9565b610e763360c86002604051806020016040528060008152506110e2565b33600090815260066020908152604080832060c8845290915281208054849290610e249084906121de565b6103e9881415610ed0576046811115610e2f57610df93360c885604051806020016040528060008152506110e2565b605f811115610ef557610df93360c885604051806020016040528060008152506110e2565b610f1f60405180604001604052806009815260200168189bdb9d5cc81a1a5d60ba1b8152506117b9565b610f3c3360c86002604051806020016040528060008152506110e2565b33600090815260066020908152604080832060c8845290915281208054849290610f679084906121de565b90915550505b5050505050505050565b610f94336103e983604051806020016040528060008152506110e2565b3360009081526006602090815260408083206103e98452909152902054610fbc9082906121de565b3360009081526006602090815260408083206103e9845290915290205550565b6060816110005750506040805180820190915260018152600360fc1b602082015290565b8160005b811561102a5780611014816122b9565b91506110239050600a836121f6565b9150611004565b60008167ffffffffffffffff8111156110455761104561232a565b6040519080825280601f01601f19166020018201604052801561106f576020820181803683370190505b5090505b84156110da5761108460018361220a565b9150611091600a866122d4565b61109c9060306121de565b60f81b8183815181106110b1576110b1612314565b60200101906001600160f81b031916908160001a9053506110d3600a866121f6565b9450611073565b949350505050565b6001600160a01b0384166111425760405162461bcd60e51b815260206004820152602160248201527f455243313135353a206d696e7420746f20746865207a65726f206164647265736044820152607360f81b606482015260840161052e565b3361115c81600087611153886117ff565b610828886117ff565b6000848152602081815260408083206001600160a01b03891684529091528120805485929061118c9084906121de565b909155505060408051858152602081018590526001600160a01b0380881692600092918516917fc3d58168c5ae7397731d063d5bbf3d657854427343f4c083240f7aacaa2d0f62910160405180910390a46108288160008787878761184a565b815183511461124e5760405162461bcd60e51b815260206004820152602860248201527f455243313135353a2069647320616e6420616d6f756e7473206c656e677468206044820152670dad2e6dac2e8c6d60c31b606482015260840161052e565b6001600160a01b0384166112745760405162461bcd60e51b815260040161052e9061212b565b3360005b845181101561135b57600085828151811061129557611295612314565b6020026020010151905060008583815181106112b3576112b3612314565b602090810291909101810151600084815280835260408082206001600160a01b038e1683529093529190912054909150818110156113035760405162461bcd60e51b815260040161052e90612170565b6000838152602081815260408083206001600160a01b038e8116855292528083208585039055908b168252812080548492906113409084906121de565b9250508190555050505080611354906122b9565b9050611278565b50846001600160a01b0316866001600160a01b0316826001600160a01b03167f4a39dc06d4c0dbc64b70af90fd698a233a518aa5d07e595d983b8c0526c8f7fb87876040516113ab929190612089565b60405180910390a46113c18187878787876119b5565b505050505050565b816001600160a01b0316836001600160a01b0316141561143d5760405162461bcd60e51b815260206004820152602960248201527f455243313135353a2073657474696e6720617070726f76616c20737461747573604482015268103337b91039b2b63360b91b606482015260840161052e565b6001600160a01b03838116600081815260016020908152604080832094871680845294825291829020805460ff191686151590811790915591519182527f17307eab39ab6107e8899845ad3d59bd9653f200f220920489ca2b5937696c31910160405180910390a3505050565b6001600160a01b0384166114d05760405162461bcd60e51b815260040161052e9061212b565b336114e0818787611153886117ff565b6000848152602081815260408083206001600160a01b038a168452909152902054838110156115215760405162461bcd60e51b815260040161052e90612170565b6000858152602081815260408083206001600160a01b038b811685529252808320878503905590881682528120805486929061155e9084906121de565b909155505060408051868152602081018690526001600160a01b03808916928a821692918616917fc3d58168c5ae7397731d063d5bbf3d657854427343f4c083240f7aacaa2d0f62910160405180910390a46115be82888888888861184a565b50505050505050565b6001600160a01b0383166116295760405162461bcd60e51b815260206004820152602360248201527f455243313135353a206275726e2066726f6d20746865207a65726f206164647260448201526265737360e81b606482015260840161052e565b336116598185600061163a876117ff565b611643876117ff565b5050604080516020810190915260009052505050565b6000838152602081815260408083206001600160a01b0388168452909152902054828110156116d65760405162461bcd60e51b8152602060048201526024808201527f455243313135353a206275726e20616d6f756e7420657863656564732062616c604482015263616e636560e01b606482015260840161052e565b6000848152602081815260408083206001600160a01b03898116808652918452828520888703905582518981529384018890529092908616917fc3d58168c5ae7397731d063d5bbf3d657854427343f4c083240f7aacaa2d0f62910160405180910390a45050505050565b6000806064600454424461175591906121de565b61175f91906121de565b61176991906122d4565b600481905592915050565b610aef828260405160240161178a9291906120c1565b60408051601f198184030181529190526020810180516001600160e01b03166309710a9d60e41b179052611a7f565b6117fc816040516024016117cd91906120ae565b60408051601f198184030181529190526020810180516001600160e01b031663104c13eb60e21b179052611a7f565b50565b6040805160018082528183019092526060916000919060208083019080368337019050509050828160008151811061183957611839612314565b602090810291909101015292915050565b6001600160a01b0384163b156113c15760405163f23a6e6160e01b81526001600160a01b0385169063f23a6e619061188e9089908990889088908890600401612031565b602060405180830381600087803b1580156118a857600080fd5b505af19250505080156118d8575060408051601f3d908101601f191682019092526118d591810190611e5f565b60015b611985576118e4612340565b806308c379a0141561191e57506118f961235c565b806119045750611920565b8060405162461bcd60e51b815260040161052e91906120ae565b505b60405162461bcd60e51b815260206004820152603460248201527f455243313135353a207472616e7366657220746f206e6f6e20455243313135356044820152732932b1b2b4bb32b91034b6b83632b6b2b73a32b960611b606482015260840161052e565b6001600160e01b0319811663f23a6e6160e01b146115be5760405162461bcd60e51b815260040161052e906120e3565b6001600160a01b0384163b156113c15760405163bc197c8160e01b81526001600160a01b0385169063bc197c81906119f99089908990889088908890600401611fd3565b602060405180830381600087803b158015611a1357600080fd5b505af1925050508015611a43575060408051601f3d908101601f19168201909252611a4091810190611e5f565b60015b611a4f576118e4612340565b6001600160e01b0319811663bc197c8160e01b146115be5760405162461bcd60e51b815260040161052e906120e3565b80516a636f6e736f6c652e6c6f67602083016000808483855afa5050505050565b80356001600160a01b0381168114611ab757600080fd5b919050565b600082601f830112611acd57600080fd5b81356020611ada826121ba565b604051611ae7828261228c565b8381528281019150858301600585901b87018401881015611b0757600080fd5b60005b85811015611b2657813584529284019290840190600101611b0a565b5090979650505050505050565b600082601f830112611b4457600080fd5b813567ffffffffffffffff811115611b5e57611b5e61232a565b604051611b75601f8301601f19166020018261228c565b818152846020838601011115611b8a57600080fd5b816020850160208301376000918101602001919091529392505050565b600060208284031215611bb957600080fd5b611bc282611aa0565b9392505050565b60008060408385031215611bdc57600080fd5b611be583611aa0565b9150611bf360208401611aa0565b90509250929050565b600080600080600060a08688031215611c1457600080fd5b611c1d86611aa0565b9450611c2b60208701611aa0565b9350604086013567ffffffffffffffff80821115611c4857600080fd5b611c5489838a01611abc565b94506060880135915080821115611c6a57600080fd5b611c7689838a01611abc565b93506080880135915080821115611c8c57600080fd5b50611c9988828901611b33565b9150509295509295909350565b600080600080600060a08688031215611cbe57600080fd5b611cc786611aa0565b9450611cd560208701611aa0565b93506040860135925060608601359150608086013567ffffffffffffffff811115611cff57600080fd5b611c9988828901611b33565b60008060408385031215611d1e57600080fd5b611d2783611aa0565b915060208301358015158114611d3c57600080fd5b809150509250929050565b60008060408385031215611d5a57600080fd5b611d6383611aa0565b946020939093013593505050565b60008060408385031215611d8457600080fd5b823567ffffffffffffffff80821115611d9c57600080fd5b818501915085601f830112611db057600080fd5b81356020611dbd826121ba565b604051611dca828261228c565b8381528281019150858301600585901b870184018b1015611dea57600080fd5b600096505b84871015611e1457611e0081611aa0565b835260019690960195918301918301611def565b5096505086013592505080821115611e2b57600080fd5b50611e3885828601611abc565b9150509250929050565b600060208284031215611e5457600080fd5b8135611bc2816123e6565b600060208284031215611e7157600080fd5b8151611bc2816123e6565b600060208284031215611e8e57600080fd5b5035919050565b600081518084526020808501945080840160005b83811015611ec557815187529582019590820190600101611ea9565b509495945050505050565b60008151808452611ee8816020860160208601612221565b601f01601f19169290920160200192915050565b60008151611f0e818560208601612221565b9290920192915050565b600080845481600182811c915080831680611f3457607f831692505b6020808410821415611f5457634e487b7160e01b86526022600452602486fd5b818015611f685760018114611f7957611fa6565b60ff19861689528489019650611fa6565b60008b81526020902060005b86811015611f9e5781548b820152908501908301611f85565b505084890196505b505050505050611fca611fb98286611efc565b64173539b7b760d91b815260050190565b95945050505050565b6001600160a01b0386811682528516602082015260a060408201819052600090611fff90830186611e95565b82810360608401526120118186611e95565b905082810360808401526120258185611ed0565b98975050505050505050565b6001600160a01b03868116825285166020820152604081018490526060810183905260a06080820181905260009061206b90830184611ed0565b979650505050505050565b602081526000611bc26020830184611e95565b60408152600061209c6040830185611e95565b8281036020840152611fca8185611e95565b602081526000611bc26020830184611ed0565b6040815260006120d46040830185611ed0565b90508260208301529392505050565b60208082526028908201527f455243313135353a204552433131353552656365697665722072656a656374656040820152676420746f6b656e7360c01b606082015260800190565b60208082526025908201527f455243313135353a207472616e7366657220746f20746865207a65726f206164604082015264647265737360d81b606082015260800190565b6020808252602a908201527f455243313135353a20696e73756666696369656e742062616c616e636520666f60408201526939103a3930b739b332b960b11b606082015260800190565b600067ffffffffffffffff8211156121d4576121d461232a565b5060051b60200190565b600082198211156121f1576121f16122e8565b500190565b600082612205576122056122fe565b500490565b60008282101561221c5761221c6122e8565b500390565b60005b8381101561223c578181015183820152602001612224565b8381111561224b576000848401525b50505050565b600181811c9082168061226557607f821691505b6020821081141561228657634e487b7160e01b600052602260045260246000fd5b50919050565b601f8201601f1916810167ffffffffffffffff811182821017156122b2576122b261232a565b6040525050565b60006000198214156122cd576122cd6122e8565b5060010190565b6000826122e3576122e36122fe565b500690565b634e487b7160e01b600052601160045260246000fd5b634e487b7160e01b600052601260045260246000fd5b634e487b7160e01b600052603260045260246000fd5b634e487b7160e01b600052604160045260246000fd5b600060033d11156123595760046000803e5060005160e01c5b90565b600060443d101561236a5790565b6040516003193d81016004833e81513d67ffffffffffffffff816024840111818411171561239a57505050505090565b82850191508151818111156123b25750505050505090565b843d87010160208285010111156123cc5750505050505090565b6123db6020828601018761228c565b509095945050505050565b6001600160e01b0319811681146117fc57600080fdfea26469706673582212201701dd57c29ea8c17dcbfc60e3b67805189580b9fe7f63d86df6bf43821e931764736f6c63430008070033697066733a2f2f516d634a3162516242523368556f733155614c6d3776326d46784a39796b484556357a4c4c6d595770637038424e2f",
  "linkReferences": {},
  "deployedLinkReferences": {}
}