{
  "_format": "hh-sol-artifact-1",
  "contractName": "Chem",
  "sourceName": "contracts/Chem.sol",
  "abi": [
    {
      "inputs": [
        {
          "internalType": "address",
          "name": "_address",
          "type": "address"
        }
      ],
      "stateMutability": "nonpayable",
      "type": "constructor"
    },
    {
      "anonymous": false,
      "inputs": [
        {
          "indexed": true,
          "internalType": "address",
          "name": "account",
          "type": "address"
        },
        {
          "indexed": true,
          "internalType": "address",
          "name": "operator",
          "type": "address"
        },
        {
          "indexed": false,
          "internalType": "bool",
          "name": "approved",
          "type": "bool"
        }
      ],
      "name": "ApprovalForAll",
      "type": "event"
    },
    {
      "anonymous": false,
      "inputs": [
        {
          "indexed": false,
          "internalType": "uint256",
          "name": "H202",
          "type": "uint256"
        },
        {
          "indexed": false,
          "internalType": "address",
          "name": "recieverHO",
          "type": "address"
        },
        {
          "indexed": false,
          "internalType": "uint256",
          "name": "mintedH202",
          "type": "uint256"
        }
      ],
      "name": "H2O2Created",
      "type": "event"
    },
    {
      "anonymous": false,
      "inputs": [
        {
          "indexed": false,
          "internalType": "string",
          "name": "FailedH202",
          "type": "string"
        }
      ],
      "name": "H2O2CreationFailed",
      "type": "event"
    },
    {
      "anonymous": false,
      "inputs": [
        {
          "indexed": false,
          "internalType": "uint256",
          "name": "LithWat",
          "type": "uint256"
        },
        {
          "indexed": false,
          "internalType": "address",
          "name": "recieverLit",
          "type": "address"
        },
        {
          "indexed": false,
          "internalType": "uint256",
          "name": "mintedLiH202",
          "type": "uint256"
        }
      ],
      "name": "LiOHCreated",
      "type": "event"
    },
    {
      "anonymous": false,
      "inputs": [
        {
          "indexed": false,
          "internalType": "string",
          "name": "FailedLiH202",
          "type": "string"
        }
      ],
      "name": "LiOHCreationFailed",
      "type": "event"
    },
    {
      "anonymous": false,
      "inputs": [
        {
          "indexed": true,
          "internalType": "address",
          "name": "previousOwner",
          "type": "address"
        },
        {
          "indexed": true,
          "internalType": "address",
          "name": "newOwner",
          "type": "address"
        }
      ],
      "name": "OwnershipTransferred",
      "type": "event"
    },
    {
      "anonymous": false,
      "inputs": [
        {
          "indexed": false,
          "internalType": "uint256",
          "name": "randomReturn",
          "type": "uint256"
        }
      ],
      "name": "RandomNumber",
      "type": "event"
    },
    {
      "anonymous": false,
      "inputs": [
        {
          "indexed": true,
          "internalType": "address",
          "name": "operator",
          "type": "address"
        },
        {
          "indexed": true,
          "internalType": "address",
          "name": "from",
          "type": "address"
        },
        {
          "indexed": true,
          "internalType": "address",
          "name": "to",
          "type": "address"
        },
        {
          "indexed": false,
          "internalType": "uint256[]",
          "name": "ids",
          "type": "uint256[]"
        },
        {
          "indexed": false,
          "internalType": "uint256[]",
          "name": "values",
          "type": "uint256[]"
        }
      ],
      "name": "TransferBatch",
      "type": "event"
    },
    {
      "anonymous": false,
      "inputs": [
        {
          "indexed": true,
          "internalType": "address",
          "name": "operator",
          "type": "address"
        },
        {
          "indexed": true,
          "internalType": "address",
          "name": "from",
          "type": "address"
        },
        {
          "indexed": true,
          "internalType": "address",
          "name": "to",
          "type": "address"
        },
        {
          "indexed": false,
          "internalType": "uint256",
          "name": "id",
          "type": "uint256"
        },
        {
          "indexed": false,
          "internalType": "uint256",
          "name": "value",
          "type": "uint256"
        }
      ],
      "name": "TransferSingle",
      "type": "event"
    },
    {
      "anonymous": false,
      "inputs": [
        {
          "indexed": false,
          "internalType": "string",
          "name": "value",
          "type": "string"
        },
        {
          "indexed": true,
          "internalType": "uint256",
          "name": "id",
          "type": "uint256"
        }
      ],
      "name": "URI",
      "type": "event"
    },
    {
      "anonymous": false,
      "inputs": [
        {
          "indexed": false,
          "internalType": "string",
          "name": "Minted",
          "type": "string"
        }
      ],
      "name": "WBTCMinted",
      "type": "event"
    },
    {
      "anonymous": false,
      "inputs": [
        {
          "indexed": false,
          "internalType": "uint256",
          "name": "tokenId",
          "type": "uint256"
        },
        {
          "indexed": false,
          "internalType": "address",
          "name": "receiver",
          "type": "address"
        },
        {
          "indexed": false,
          "internalType": "uint256",
          "name": "mintedAmount",
          "type": "uint256"
        }
      ],
      "name": "WaterCreated",
      "type": "event"
    },
    {
      "anonymous": false,
      "inputs": [
        {
          "indexed": false,
          "internalType": "string",
          "name": "failure",
          "type": "string"
        }
      ],
      "name": "WaterCreationFailed",
      "type": "event"
    },
    {
      "inputs": [],
      "name": "Beryllium",
      "outputs": [
        {
          "internalType": "uint256",
          "name": "",
          "type": "uint256"
        }
      ],
      "stateMutability": "view",
      "type": "function"
    },
    {
      "inputs": [],
      "name": "Boron",
      "outputs": [
        {
          "internalType": "uint256",
          "name": "",
          "type": "uint256"
        }
      ],
      "stateMutability": "view",
      "type": "function"
    },
    {
      "inputs": [],
      "name": "Carbon",
      "outputs": [
        {
          "internalType": "uint256",
          "name": "",
          "type": "uint256"
        }
      ],
      "stateMutability": "view",
      "type": "function"
    },
    {
      "inputs": [],
      "name": "Elements",
      "outputs": [
        {
          "internalType": "string",
          "name": "",
          "type": "string"
        }
      ],
      "stateMutability": "view",
      "type": "function"
    },
    {
      "inputs": [],
      "name": "Fluorine",
      "outputs": [
        {
          "internalType": "uint256",
          "name": "",
          "type": "uint256"
        }
      ],
      "stateMutability": "view",
      "type": "function"
    },
    {
      "inputs": [],
      "name": "H2",
      "outputs": [
        {
          "internalType": "uint256",
          "name": "",
          "type": "uint256"
        }
      ],
      "stateMutability": "view",
      "type": "function"
    },
    {
      "inputs": [],
      "name": "H2O2",
      "outputs": [
        {
          "internalType": "uint256",
          "name": "",
          "type": "uint256"
        }
      ],
      "stateMutability": "view",
      "type": "function"
    },
    {
      "inputs": [],
      "name": "Helium",
      "outputs": [
        {
          "internalType": "uint256",
          "name": "",
          "type": "uint256"
        }
      ],
      "stateMutability": "view",
      "type": "function"
    },
    {
      "inputs": [],
      "name": "Hydrogen",
      "outputs": [
        {
          "internalType": "uint256",
          "name": "",
          "type": "uint256"
        }
      ],
      "stateMutability": "view",
      "type": "function"
    },
    {
      "inputs": [],
      "name": "LiOH",
      "outputs": [
        {
          "internalType": "uint256",
          "name": "",
          "type": "uint256"
        }
      ],
      "stateMutability": "view",
      "type": "function"
    },
    {
      "inputs": [],
      "name": "Lithium",
      "outputs": [
        {
          "internalType": "uint256",
          "name": "",
          "type": "uint256"
        }
      ],
      "stateMutability": "view",
      "type": "function"
    },
    {
      "inputs": [],
      "name": "Neon",
      "outputs": [
        {
          "internalType": "uint256",
          "name": "",
          "type": "uint256"
        }
      ],
      "stateMutability": "view",
      "type": "function"
    },
    {
      "inputs": [],
      "name": "Nitrogen",
      "outputs": [
        {
          "internalType": "uint256",
          "name": "",
          "type": "uint256"
        }
      ],
      "stateMutability": "view",
      "type": "function"
    },
    {
      "inputs": [],
      "name": "Oxygen",
      "outputs": [
        {
          "internalType": "uint256",
          "name": "",
          "type": "uint256"
        }
      ],
      "stateMutability": "view",
      "type": "function"
    },
    {
      "inputs": [],
      "name": "Water",
      "outputs": [
        {
          "internalType": "uint256",
          "name": "",
          "type": "uint256"
        }
      ],
      "stateMutability": "view",
      "type": "function"
    },
    {
      "inputs": [
        {
          "internalType": "address",
          "name": "account",
          "type": "address"
        },
        {
          "internalType": "uint256",
          "name": "id",
          "type": "uint256"
        }
      ],
      "name": "balanceOf",
      "outputs": [
        {
          "internalType": "uint256",
          "name": "",
          "type": "uint256"
        }
      ],
      "stateMutability": "view",
      "type": "function"
    },
    {
      "inputs": [
        {
          "internalType": "address[]",
          "name": "accounts",
          "type": "address[]"
        },
        {
          "internalType": "uint256[]",
          "name": "ids",
          "type": "uint256[]"
        }
      ],
      "name": "balanceOfBatch",
      "outputs": [
        {
          "internalType": "uint256[]",
          "name": "",
          "type": "uint256[]"
        }
      ],
      "stateMutability": "view",
      "type": "function"
    },
    {
      "inputs": [
        {
          "internalType": "address",
          "name": "",
          "type": "address"
        }
      ],
      "name": "btcTokenBalance",
      "outputs": [
        {
          "internalType": "uint256",
          "name": "",
          "type": "uint256"
        }
      ],
      "stateMutability": "view",
      "type": "function"
    },
    {
      "inputs": [
        {
          "internalType": "uint256",
          "name": "_amount",
          "type": "uint256"
        }
      ],
      "name": "createH2O2",
      "outputs": [],
      "stateMutability": "nonpayable",
      "type": "function"
    },
    {
      "inputs": [
        {
          "internalType": "uint256",
          "name": "_amount",
          "type": "uint256"
        }
      ],
      "name": "createLiH2O",
      "outputs": [],
      "stateMutability": "nonpayable",
      "type": "function"
    },
    {
      "inputs": [
        {
          "internalType": "uint256",
          "name": "_amount",
          "type": "uint256"
        }
      ],
      "name": "createWater",
      "outputs": [],
      "stateMutability": "nonpayable",
      "type": "function"
    },
    {
      "inputs": [],
      "name": "getRandomNumber",
      "outputs": [
        {
          "internalType": "bytes32",
          "name": "requestId",
          "type": "bytes32"
        }
      ],
      "stateMutability": "nonpayable",
      "type": "function"
    },
    {
      "inputs": [
        {
          "internalType": "address",
          "name": "account",
          "type": "address"
        },
        {
          "internalType": "address",
          "name": "operator",
          "type": "address"
        }
      ],
      "name": "isApprovedForAll",
      "outputs": [
        {
          "internalType": "bool",
          "name": "",
          "type": "bool"
        }
      ],
      "stateMutability": "view",
      "type": "function"
    },
    {
      "inputs": [
        {
          "internalType": "uint256",
          "name": "_amount",
          "type": "uint256"
        }
      ],
      "name": "mintBTC",
      "outputs": [],
      "stateMutability": "nonpayable",
      "type": "function"
    },
    {
      "inputs": [
        {
          "internalType": "uint256",
          "name": "_amount",
          "type": "uint256"
        }
      ],
      "name": "mintBeryllium",
      "outputs": [],
      "stateMutability": "nonpayable",
      "type": "function"
    },
    {
      "inputs": [
        {
          "internalType": "uint256",
          "name": "_amount",
          "type": "uint256"
        }
      ],
      "name": "mintHelium",
      "outputs": [],
      "stateMutability": "nonpayable",
      "type": "function"
    },
    {
      "inputs": [
        {
          "internalType": "uint256",
          "name": "_amount",
          "type": "uint256"
        }
      ],
      "name": "mintHydrogen",
      "outputs": [],
      "stateMutability": "nonpayable",
      "type": "function"
    },
    {
      "inputs": [
        {
          "internalType": "uint256",
          "name": "_amount",
          "type": "uint256"
        }
      ],
      "name": "mintLithium",
      "outputs": [],
      "stateMutability": "nonpayable",
      "type": "function"
    },
    {
      "inputs": [
        {
          "internalType": "uint256",
          "name": "_amount",
          "type": "uint256"
        }
      ],
      "name": "mintOxygen",
      "outputs": [],
      "stateMutability": "nonpayable",
      "type": "function"
    },
    {
      "inputs": [],
      "name": "name",
      "outputs": [
        {
          "internalType": "string",
          "name": "",
          "type": "string"
        }
      ],
      "stateMutability": "pure",
      "type": "function"
    },
    {
      "inputs": [],
      "name": "owner",
      "outputs": [
        {
          "internalType": "address",
          "name": "",
          "type": "address"
        }
      ],
      "stateMutability": "view",
      "type": "function"
    },
    {
      "inputs": [],
      "name": "randomResult",
      "outputs": [
        {
          "internalType": "uint256",
          "name": "",
          "type": "uint256"
        }
      ],
      "stateMutability": "view",
      "type": "function"
    },
    {
      "inputs": [
        {
          "internalType": "bytes32",
          "name": "requestId",
          "type": "bytes32"
        },
        {
          "internalType": "uint256",
          "name": "randomness",
          "type": "uint256"
        }
      ],
      "name": "rawFulfillRandomness",
      "outputs": [],
      "stateMutability": "nonpayable",
      "type": "function"
    },
    {
      "inputs": [],
      "name": "renounceOwnership",
      "outputs": [],
      "stateMutability": "nonpayable",
      "type": "function"
    },
    {
      "inputs": [
        {
          "internalType": "address",
          "name": "from",
          "type": "address"
        },
        {
          "internalType": "address",
          "name": "to",
          "type": "address"
        },
        {
          "internalType": "uint256[]",
          "name": "ids",
          "type": "uint256[]"
        },
        {
          "internalType": "uint256[]",
          "name": "amounts",
          "type": "uint256[]"
        },
        {
          "internalType": "bytes",
          "name": "data",
          "type": "bytes"
        }
      ],
      "name": "safeBatchTransferFrom",
      "outputs": [],
      "stateMutability": "nonpayable",
      "type": "function"
    },
    {
      "inputs": [
        {
          "internalType": "address",
          "name": "from",
          "type": "address"
        },
        {
          "internalType": "address",
          "name": "to",
          "type": "address"
        },
        {
          "internalType": "uint256",
          "name": "id",
          "type": "uint256"
        },
        {
          "internalType": "uint256",
          "name": "amount",
          "type": "uint256"
        },
        {
          "internalType": "bytes",
          "name": "data",
          "type": "bytes"
        }
      ],
      "name": "safeTransferFrom",
      "outputs": [],
      "stateMutability": "nonpayable",
      "type": "function"
    },
    {
      "inputs": [
        {
          "internalType": "uint256",
          "name": "_amount",
          "type": "uint256"
        }
      ],
      "name": "sellNFT",
      "outputs": [],
      "stateMutability": "nonpayable",
      "type": "function"
    },
    {
      "inputs": [
        {
          "internalType": "address",
          "name": "operator",
          "type": "address"
        },
        {
          "internalType": "bool",
          "name": "approved",
          "type": "bool"
        }
      ],
      "name": "setApprovalForAll",
      "outputs": [],
      "stateMutability": "nonpayable",
      "type": "function"
    },
    {
      "inputs": [
        {
          "internalType": "address",
          "name": "addr",
          "type": "address"
        }
      ],
      "name": "setwbtcContract",
      "outputs": [],
      "stateMutability": "nonpayable",
      "type": "function"
    },
    {
      "inputs": [
        {
          "internalType": "uint256",
          "name": "_amount",
          "type": "uint256"
        }
      ],
      "name": "stakeBTC",
      "outputs": [],
      "stateMutability": "payable",
      "type": "function"
    },
    {
      "inputs": [
        {
          "internalType": "address",
          "name": "",
          "type": "address"
        },
        {
          "internalType": "uint256",
          "name": "",
          "type": "uint256"
        }
      ],
      "name": "supplyBalance",
      "outputs": [
        {
          "internalType": "uint256",
          "name": "",
          "type": "uint256"
        }
      ],
      "stateMutability": "view",
      "type": "function"
    },
    {
      "inputs": [
        {
          "internalType": "bytes4",
          "name": "interfaceId",
          "type": "bytes4"
        }
      ],
      "name": "supportsInterface",
      "outputs": [
        {
          "internalType": "bool",
          "name": "",
          "type": "bool"
        }
      ],
      "stateMutability": "view",
      "type": "function"
    },
    {
      "inputs": [],
      "name": "symbol",
      "outputs": [
        {
          "internalType": "string",
          "name": "",
          "type": "string"
        }
      ],
      "stateMutability": "pure",
      "type": "function"
    },
    {
      "inputs": [
        {
          "internalType": "address",
          "name": "newOwner",
          "type": "address"
        }
      ],
      "name": "transferOwnership",
      "outputs": [],
      "stateMutability": "nonpayable",
      "type": "function"
    },
    {
      "inputs": [
        {
          "internalType": "uint256",
          "name": "_tokenId",
          "type": "uint256"
        }
      ],
      "name": "uri",
      "outputs": [
        {
          "internalType": "string",
          "name": "",
          "type": "string"
        }
      ],
      "stateMutability": "view",
      "type": "function"
    },
    {
      "inputs": [],
      "name": "wbtcContract",
      "outputs": [
        {
          "internalType": "contract WBTC",
          "name": "",
          "type": "address"
        }
      ],
      "stateMutability": "view",
      "type": "function"
    },
    {
      "inputs": [],
      "name": "withdrawLink",
      "outputs": [],
      "stateMutability": "nonpayable",
      "type": "function"
    }
  ],
  "bytecode": "0x610120604052603660c08181529062003d8160e03980516200002a91600a916020909101906200020e565b503480156200003857600080fd5b5060405162003db738038062003db78339810160408190526200005b91620002b4565b738c7382f9d8f56b33781fe506e897a4f1e2d1725573326c977e6efc84e512bb9c30f76e30c160ed06fb600a80546200009490620002e6565b80601f0160208091040260200160405190810160405280929190818152602001828054620000c290620002e6565b8015620001135780601f10620000e75761010080835404028352916020019162000113565b820191906000526020600020905b815481529060010190602001808311620000f557829003601f168201915b50505050506200012981620001a360201b60201c565b506200013533620001bc565b606091821b6001600160601b031990811660a052911b16608052600580546001600160a01b0319166001600160a01b03929092169190911790557f6e75b569a01ef56d18cab6a8e71e6600d6ce853834d4a5748b720d06f878b3a4600955655af3107a400060075562000323565b8051620001b89060029060208401906200020e565b5050565b600380546001600160a01b038381166001600160a01b0319831681179093556040519116919082907f8be0079c531659141344cd1fd0a4f28419497f9722a3daafe3b4186f6b6457e090600090a35050565b8280546200021c90620002e6565b90600052602060002090601f0160209004810192826200024057600085556200028b565b82601f106200025b57805160ff19168380011785556200028b565b828001600101855582156200028b579182015b828111156200028b5782518255916020019190600101906200026e565b50620002999291506200029d565b5090565b5b808211156200029957600081556001016200029e565b600060208284031215620002c757600080fd5b81516001600160a01b0381168114620002df57600080fd5b9392505050565b600181811c90821680620002fb57607f821691505b602082108114156200031d57634e487b7160e01b600052602260045260246000fd5b50919050565b60805160601c60a05160601c613a1d62000364600039600081816117120152612a2101526000818161148d01528181611b6901526129f20152613a1d6000f3fe6080604052600436106102875760003560e01c8063800253ce1161015a578063c2b84722116100c1578063ee9cdfb31161007a578063ee9cdfb3146107a2578063eee0d9e2146107c2578063f242432a146107d7578063f2fde38b146107f7578063f58ee1cc14610817578063f85060551461083757600080fd5b8063c2b84722146106e7578063c6e4b906146106fa578063db19d93f1461071a578063dbdff2c11461072f578063dff6405b14610744578063e985e9c51461075957600080fd5b806394985ddd1161011357806394985ddd1461063b57806395d89b411461065b578063a22cb46514610688578063abc40ce4146106a8578063b63426b3146106bd578063bea1d66a146106d257600080fd5b8063800253ce14610586578063807a012d1461059b5780638da5cb5b146105d35780638dc654a2146105f15780638fcb4325146106065780639280d8ee1461061b57600080fd5b80632eb2c2d6116101fe578063512a50cd116101b7578063512a50cd146104f25780635b5d897f146105125780636e69adcf14610532578063715018a614610547578063777880b01461055c57806377b07f6b1461057157600080fd5b80632eb2c2d6146104455780632f3104e41461046557806335926b9c1461047a578063403c617e1461049a57806342619f66146104af5780634e1273f4146104c557600080fd5b80630e89341c116102505780630e89341c14610360578063142cee9314610380578063159907de146103ad57806316b488a0146103e55780632014218a14610405578063225abdbd1461042557600080fd5b8062fdd58e1461028c57806301ffc9a7146102bf57806305f36283146102ef57806306fdde0314610304578063080f54f71461033e575b600080fd5b34801561029857600080fd5b506102ac6102a73660046131b8565b61084c565b6040519081526020015b60405180910390f35b3480156102cb57600080fd5b506102df6102da3660046132f2565b6108e3565b60405190151581526020016102b6565b3480156102fb57600080fd5b506102ac600781565b34801561031057600080fd5b50604080518082019091526008815267456c656d656e747360c01b60208201525b6040516102b691906135c2565b34801561034a57600080fd5b5061035e61035936600461332c565b610935565b005b34801561036c57600080fd5b5061033161037b36600461332c565b610a20565b34801561038c57600080fd5b506102ac61039b36600461301d565b600c6020526000908152604090205481565b3480156103b957600080fd5b506102ac6103c83660046131b8565b600b60209081526000928352604080842090915290825290205481565b3480156103f157600080fd5b5061035e61040036600461301d565b610a54565b34801561041157600080fd5b5061035e61042036600461332c565b610aa0565b34801561043157600080fd5b5061035e61044036600461332c565b610bcf565b34801561045157600080fd5b5061035e610460366004613072565b610cfe565b34801561047157600080fd5b506102ac600681565b34801561048657600080fd5b5061035e61049536600461332c565b610d95565b3480156104a657600080fd5b506102ac600181565b3480156104bb57600080fd5b506102ac60085481565b3480156104d157600080fd5b506104e56104e03660046131e2565b610ec4565b6040516102b6919061358a565b3480156104fe57600080fd5b5061035e61050d36600461332c565b610fee565b34801561051e57600080fd5b5061035e61052d36600461332c565b6112e9565b34801561053e57600080fd5b506102ac60c881565b34801561055357600080fd5b5061035e611418565b34801561056857600080fd5b506102ac60ca81565b34801561057d57600080fd5b506102ac600381565b34801561059257600080fd5b506102ac60c981565b3480156105a757600080fd5b506005546105bb906001600160a01b031681565b6040516001600160a01b0390911681526020016102b6565b3480156105df57600080fd5b506003546001600160a01b03166105bb565b3480156105fd57600080fd5b5061035e61144e565b34801561061257600080fd5b506102ac600481565b34801561062757600080fd5b5061035e61063636600461332c565b6115d8565b34801561064757600080fd5b5061035e6106563660046132d0565b611707565b34801561066757600080fd5b506040805180820190915260048152631153135560e21b6020820152610331565b34801561069457600080fd5b5061035e6106a3366004613181565b611789565b3480156106b457600080fd5b506102ac600281565b3480156106c957600080fd5b506102ac600881565b3480156106de57600080fd5b506102ac600981565b61035e6106f536600461332c565b611794565b34801561070657600080fd5b5061035e61071536600461332c565b61189a565b34801561072657600080fd5b506102ac600581565b34801561073b57600080fd5b506102ac611b45565b34801561075057600080fd5b506102ac60cb81565b34801561076557600080fd5b506102df61077436600461303f565b6001600160a01b03918216600090815260016020908152604080832093909416825291909152205460ff1690565b3480156107ae57600080fd5b5061035e6107bd36600461332c565b611c58565b3480156107ce57600080fd5b50610331611f0d565b3480156107e357600080fd5b5061035e6107f236600461311c565b611f9b565b34801561080357600080fd5b5061035e61081236600461301d565b612022565b34801561082357600080fd5b5061035e61083236600461332c565b6120bd565b34801561084357600080fd5b506102ac600a81565b60006001600160a01b0383166108bd5760405162461bcd60e51b815260206004820152602b60248201527f455243313135353a2062616c616e636520717565727920666f7220746865207a60448201526a65726f206164647265737360a81b60648201526084015b60405180910390fd5b506000908152602081815260408083206001600160a01b03949094168352929052205490565b60006001600160e01b03198216636cdb3d1360e11b148061091457506001600160e01b031982166303a24d0760e21b145b8061092f57506301ffc9a760e01b6001600160e01b03198316145b92915050565b6005546040516340c10f1960e01b8152336004820152602481018390526001600160a01b03909116906340c10f1990604401600060405180830381600087803b15801561098157600080fd5b505af1158015610995573d6000803e3d6000fd5b5050336000908152600c6020526040812080548594509092506109b990849061379c565b90915550506040517f5fe6c9fd9b1d778d130db1fa0af25c265f2adfb2365bb9c8e5dda87bdd64cefe90610a0c906020808252600b908201526a1dd09510c8135a5b9d195960aa1b604082015260600190565b60405180910390a1610a1c611b45565b5050565b6060600a610a2d83612342565b604051602001610a3e9291906133e1565b6040516020818303038152906040529050919050565b6003546001600160a01b03163314610a7e5760405162461bcd60e51b81526004016108b490613743565b600580546001600160a01b0319166001600160a01b0392909216919091179055565b60008111610ac05760405162461bcd60e51b81526004016108b49061363e565b6005546040516323b872dd60e01b81526001600160a01b03909116906323b872dd90610af4903390309086906004016134fa565b602060405180830381600087803b158015610b0e57600080fd5b505af1158015610b22573d6000803e3d6000fd5b505050506040513d601f19601f82011682018060405250810190610b4691906132b3565b50336000908152600c602052604081208054839290610b669084906137e7565b92505081905550610b893360018360405180602001604052806000815250612448565b336000908152600b6020908152604080832060018452909152902054610bb090829061379c565b336000908152600b602090815260408083206001845290915290205550565b60008111610bef5760405162461bcd60e51b81526004016108b49061363e565b6005546040516323b872dd60e01b81526001600160a01b03909116906323b872dd90610c23903390309086906004016134fa565b602060405180830381600087803b158015610c3d57600080fd5b505af1158015610c51573d6000803e3d6000fd5b505050506040513d601f19601f82011682018060405250810190610c7591906132b3565b50336000908152600c602052604081208054839290610c959084906137e7565b92505081905550610cb83360038360405180602001604052806000815250612448565b336000908152600b6020908152604080832060038452909152902054610cdf90829061379c565b336000908152600b602090815260408083206003845290915290205550565b6001600160a01b038516331480610d1a5750610d1a8533610774565b610d815760405162461bcd60e51b815260206004820152603260248201527f455243313135353a207472616e736665722063616c6c6572206973206e6f74206044820152711bdddb995c881b9bdc88185c1c1c9bdd995960721b60648201526084016108b4565b610d8e8585858585612552565b5050505050565b60008111610db55760405162461bcd60e51b81526004016108b49061363e565b6005546040516323b872dd60e01b81526001600160a01b03909116906323b872dd90610de9903390309086906004016134fa565b602060405180830381600087803b158015610e0357600080fd5b505af1158015610e17573d6000803e3d6000fd5b505050506040513d601f19601f82011682018060405250810190610e3b91906132b3565b50336000908152600c602052604081208054839290610e5b9084906137e7565b92505081905550610e7e3360088360405180602001604052806000815250612448565b336000908152600b6020908152604080832060088452909152902054610ea590829061379c565b336000908152600b602090815260408083206008845290915290205550565b60608151835114610f295760405162461bcd60e51b815260206004820152602960248201527f455243313135353a206163636f756e747320616e6420696473206c656e677468604482015268040dad2e6dac2e8c6d60bb1b60648201526084016108b4565b6000835167ffffffffffffffff811115610f4557610f45613907565b604051908082528060200260200182016040528015610f6e578160200160208202803683370190505b50905060005b8451811015610fe657610fb9858281518110610f9257610f926138f1565b6020026020010151858381518110610fac57610fac6138f1565b602002602001015161084c565b828281518110610fcb57610fcb6138f1565b6020908102919091010152610fdf81613896565b9050610f74565b509392505050565b6000811161100e5760405162461bcd60e51b81526004016108b490613673565b336000908152600b60209081526040808320600384529091528082205460c88352908220549091600290819061104486836137c8565b905060006110538760026137c8565b600854604051818152919250600291600191907fec6cdc8e735e4069f6e89062582f3e5532a8e71373e7ef2962fa916cf2af21f29060200160405180910390a1848910156110d85760405162461bcd60e51b81526020600482015260126024820152714e6f7420456e6f756768204c69746869756d60701b60448201526064016108b4565b8388101561111b5760405162461bcd60e51b815260206004820152601060248201526f2737ba1022b737bab3b4102bb0ba32b960811b60448201526064016108b4565b600a81101561115e577f49a1946fe8daef8073ed3fb59b4f4f2c53415001c550b18ffa6833f4b171a68a6040516111519061361d565b60405180910390a16112d4565b60005b8a811015611291576111753360038a61272f565b336000908152600b6020908152604080832060038452909152812080548a92906111a09084906137e7565b909155506111b290503360c88961272f565b336000908152600b6020908152604080832060c88452909152812080548992906111dd9084906137e7565b925050819055506112003360c98660405180602001604052806000815250612448565b336000908152600b6020908152604080832060c984529091528120805486929061122b90849061379c565b9250508190555061124e3360ca8560405180602001604052806000815250612448565b336000908152600b6020908152604080832060ca84529091528120805485929061127990849061379c565b9091555081905061128981613896565b915050611161565b506040805160c981523360208201529081018490527f4a1e2fef6acdaaafcdc152c27b40e5dbcc5348d738dc84551cfbda746100ff569060600160405180910390a15b6112dc611b45565b5050505050505050505050565b600081116113095760405162461bcd60e51b81526004016108b49061363e565b6005546040516323b872dd60e01b81526001600160a01b03909116906323b872dd9061133d903390309086906004016134fa565b602060405180830381600087803b15801561135757600080fd5b505af115801561136b573d6000803e3d6000fd5b505050506040513d601f19601f8201168201806040525081019061138f91906132b3565b50336000908152600c6020526040812080548392906113af9084906137e7565b925050819055506113d23360028360405180602001604052806000815250612448565b336000908152600b60209081526040808320600284529091529020546113f990829061379c565b336000908152600b602090815260408083206002845290915290205550565b6003546001600160a01b031633146114425760405162461bcd60e51b81526004016108b490613743565b61144c60006128a9565b565b6003546001600160a01b031633146114785760405162461bcd60e51b81526004016108b490613743565b6040516370a0823160e01b81523060048201527f00000000000000000000000000000000000000000000000000000000000000006001600160a01b03169063a9059cbb90339083906370a082319060240160206040518083038186803b1580156114e157600080fd5b505afa1580156114f5573d6000803e3d6000fd5b505050506040513d601f19601f820116820180604052508101906115199190613345565b6040516001600160e01b031960e085901b1681526001600160a01b0390921660048301526024820152604401602060405180830381600087803b15801561155f57600080fd5b505af1158015611573573d6000803e3d6000fd5b505050506040513d601f19601f8201168201806040525081019061159791906132b3565b61144c5760405162461bcd60e51b81526020600482015260126024820152712ab730b13632903a37903a3930b739b332b960711b60448201526064016108b4565b600081116115f85760405162461bcd60e51b81526004016108b49061363e565b6005546040516323b872dd60e01b81526001600160a01b03909116906323b872dd9061162c903390309086906004016134fa565b602060405180830381600087803b15801561164657600080fd5b505af115801561165a573d6000803e3d6000fd5b505050506040513d601f19601f8201168201806040525081019061167e91906132b3565b50336000908152600c60205260408120805483929061169e9084906137e7565b925050819055506116c13360048360405180602001604052806000815250612448565b336000908152600b60209081526040808320600484529091529020546116e890829061379c565b336000908152600b602090815260408083206004845290915290205550565b336001600160a01b037f0000000000000000000000000000000000000000000000000000000000000000161461177f5760405162461bcd60e51b815260206004820152601f60248201527f4f6e6c7920565246436f6f7264696e61746f722063616e2066756c66696c6c0060448201526064016108b4565b610a1c82826128fb565b610a1c33838361290d565b600081116117b45760405162461bcd60e51b81526004016108b49061363e565b6005546040516323b872dd60e01b81526001600160a01b03909116906323b872dd906117e8903390309086906004016134fa565b602060405180830381600087803b15801561180257600080fd5b505af1158015611816573d6000803e3d6000fd5b505050506040513d601f19601f8201168201806040525081019061183a91906132b3565b50336000908152600c60205260408120805483929061185a9084906137e7565b9091555061186a9050600a610aa0565b611874600a6112e9565b61187e600a6115d8565b611888600a610bcf565b611892600a610d95565b610a1c611b45565b600081116118ba5760405162461bcd60e51b81526004016108b490613673565b336000908152600b6020908152604080832060018452909152808220546008835290822054909160029081906118f086836137c8565b905060006118ff8760026137c8565b6008546040518181529192506001917fec6cdc8e735e4069f6e89062582f3e5532a8e71373e7ef2962fa916cf2af21f29060200160405180910390a1838810156119815760405162461bcd60e51b81526020600482015260136024820152722737ba1022b737bab3b410243cb23937b3b2b760691b60448201526064016108b4565b828710156119c55760405162461bcd60e51b81526020600482015260116024820152702737ba1022b737bab3b41027bc3cb3b2b760791b60448201526064016108b4565b600a811015611a08577f4b827df5fef37feb5b7b656c6c0878bb2119e79dc6eb3494624a5df29b5567e36040516119fb9061361d565b60405180910390a1611b31565b60005b89811015611aed57611a1f3360018961272f565b336000908152600b602090815260408083206001845290915281208054899290611a4a9084906137e7565b90915550611a5c90503360088861272f565b336000908152600b602090815260408083206008845290915281208054889290611a879084906137e7565b92505081905550611aaa3360cb8560405180602001604052806000815250612448565b336000908152600b6020908152604080832060cb845290915281208054859290611ad590849061379c565b90915550819050611ae581613896565b915050611a0b565b506040805160cb81523360208201529081018390527ffe7b2a3e9229ab3ba1a52c7b5385abafc6d5c90d8c2bacb94715a676570f0f97906060015b60405180910390a15b611b39611b45565b50505050505050505050565b6007546040516370a0823160e01b8152306004820152600091906001600160a01b037f000000000000000000000000000000000000000000000000000000000000000016906370a082319060240160206040518083038186803b158015611bab57600080fd5b505afa158015611bbf573d6000803e3d6000fd5b505050506040513d601f19601f82011682018060405250810190611be39190613345565b1015611c455760405162461bcd60e51b815260206004820152602b60248201527f4e6f7420656e6f756768204c494e4b202d2066696c6c20636f6e74726163742060448201526a1dda5d1a0819985d58d95d60aa1b60648201526084016108b4565b611c536009546007546129ee565b905090565b60c88110158015611c6a575060cb8111155b611cab5760405162461bcd60e51b81526020600482015260126024820152712737ba102b30b634b21021b932b0ba34b7b760711b60448201526064016108b4565b60018060c8831415611da257611cc33360c88361272f565b336000908152600b6020908152604080832060c8845290915281208054849290611cee9084906137e7565b909155505060055460405163a9059cbb60e01b8152336004820152602481018490526001600160a01b039091169063a9059cbb90604401602060405180830381600087803b158015611d3f57600080fd5b505af1158015611d53573d6000803e3d6000fd5b505050506040513d601f19601f82011682018060405250810190611d7791906132b3565b50336000908152600c602052604081208054849290611d9790849061379c565b90915550611f089050565b60c9831415611de257611db73360c98361272f565b336000908152600b6020908152604080832060c9845290915281208054849290611cee9084906137e7565b60ca831415611e2257611df73360ca8361272f565b336000908152600b6020908152604080832060ca845290915281208054849290611cee9084906137e7565b611e2e3360cb8361272f565b336000908152600b6020908152604080832060cb845290915281208054849290611e599084906137e7565b909155505060055460405163a9059cbb60e01b8152336004820152602481018490526001600160a01b039091169063a9059cbb90604401602060405180830381600087803b158015611eaa57600080fd5b505af1158015611ebe573d6000803e3d6000fd5b505050506040513d601f19601f82011682018060405250810190611ee291906132b3565b50336000908152600c602052604081208054849290611f0290849061379c565b90915550505b505050565b600a8054611f1a9061382e565b80601f0160208091040260200160405190810160405280929190818152602001828054611f469061382e565b8015611f935780601f10611f6857610100808354040283529160200191611f93565b820191906000526020600020905b815481529060010190602001808311611f7657829003601f168201915b505050505081565b6001600160a01b038516331480611fb75750611fb78533610774565b6120155760405162461bcd60e51b815260206004820152602960248201527f455243313135353a2063616c6c6572206973206e6f74206f776e6572206e6f7260448201526808185c1c1c9bdd995960ba1b60648201526084016108b4565b610d8e8585858585612b79565b6003546001600160a01b0316331461204c5760405162461bcd60e51b81526004016108b490613743565b6001600160a01b0381166120b15760405162461bcd60e51b815260206004820152602660248201527f4f776e61626c653a206e6577206f776e657220697320746865207a65726f206160448201526564647265737360d01b60648201526084016108b4565b6120ba816128a9565b50565b600081116120dd5760405162461bcd60e51b81526004016108b490613673565b336000908152600b60209081526040808320600180855292528083205460088452908320549092909160029161211386846137c8565b905060006121228760026137c8565b6008546040518181529192506001917fec6cdc8e735e4069f6e89062582f3e5532a8e71373e7ef2962fa916cf2af21f29060200160405180910390a1838810156121a45760405162461bcd60e51b81526020600482015260136024820152722737ba1022b737bab3b410243cb23937b3b2b760691b60448201526064016108b4565b828710156121e85760405162461bcd60e51b81526020600482015260116024820152702737ba1022b737bab3b41027bc3cb3b2b760791b60448201526064016108b4565b600a81101561221e577fa11c889fee9dafbb2ce8aea81cdab60c4af9c573fdacf23056d4da9ab596796c6040516119fb9061361d565b60005b89811015612303576122353360018961272f565b336000908152600b6020908152604080832060018452909152812080548992906122609084906137e7565b9091555061227290503360088861272f565b336000908152600b60209081526040808320600884529091528120805488929061229d9084906137e7565b925050819055506122c03360c88560405180602001604052806000815250612448565b336000908152600b6020908152604080832060c88452909152812080548592906122eb90849061379c565b909155508190506122fb81613896565b915050612221565b506040805160c881523360208201529081018a90527f41dc43fe6204194dd095effea839309c4fc5c4f84c88d1b81372b0bcc9a6011890606001611b28565b6060816123665750506040805180820190915260018152600360fc1b602082015290565b8160005b8115612390578061237a81613896565b91506123899050600a836137b4565b915061236a565b60008167ffffffffffffffff8111156123ab576123ab613907565b6040519080825280601f01601f1916602001820160405280156123d5576020820181803683370190505b5090505b8415612440576123ea6001836137e7565b91506123f7600a866138b1565b61240290603061379c565b60f81b818381518110612417576124176138f1565b60200101906001600160f81b031916908160001a905350612439600a866137b4565b94506123d9565b949350505050565b6001600160a01b0384166124a85760405162461bcd60e51b815260206004820152602160248201527f455243313135353a206d696e7420746f20746865207a65726f206164647265736044820152607360f81b60648201526084016108b4565b336124c2816000876124b988612c96565b610d8e88612c96565b6000848152602081815260408083206001600160a01b0389168452909152812080548592906124f290849061379c565b909155505060408051858152602081018590526001600160a01b0380881692600092918516917fc3d58168c5ae7397731d063d5bbf3d657854427343f4c083240f7aacaa2d0f62910160405180910390a4610d8e81600087878787612ce1565b81518351146125b45760405162461bcd60e51b815260206004820152602860248201527f455243313135353a2069647320616e6420616d6f756e7473206c656e677468206044820152670dad2e6dac2e8c6d60c31b60648201526084016108b4565b6001600160a01b0384166125da5760405162461bcd60e51b81526004016108b4906136b4565b3360005b84518110156126c15760008582815181106125fb576125fb6138f1565b602002602001015190506000858381518110612619576126196138f1565b602090810291909101810151600084815280835260408082206001600160a01b038e1683529093529190912054909150818110156126695760405162461bcd60e51b81526004016108b4906136f9565b6000838152602081815260408083206001600160a01b038e8116855292528083208585039055908b168252812080548492906126a690849061379c565b92505081905550505050806126ba90613896565b90506125de565b50846001600160a01b0316866001600160a01b0316826001600160a01b03167f4a39dc06d4c0dbc64b70af90fd698a233a518aa5d07e595d983b8c0526c8f7fb878760405161271192919061359d565b60405180910390a4612727818787878787612e4c565b505050505050565b6001600160a01b0383166127915760405162461bcd60e51b815260206004820152602360248201527f455243313135353a206275726e2066726f6d20746865207a65726f206164647260448201526265737360e81b60648201526084016108b4565b336127c1818560006127a287612c96565b6127ab87612c96565b5050604080516020810190915260009052505050565b6000838152602081815260408083206001600160a01b03881684529091529020548281101561283e5760405162461bcd60e51b8152602060048201526024808201527f455243313135353a206275726e20616d6f756e7420657863656564732062616c604482015263616e636560e01b60648201526084016108b4565b6000848152602081815260408083206001600160a01b03898116808652918452828520888703905582518981529384018890529092908616917fc3d58168c5ae7397731d063d5bbf3d657854427343f4c083240f7aacaa2d0f62910160405180910390a45050505050565b600380546001600160a01b038381166001600160a01b0319831681179093556040519116919082907f8be0079c531659141344cd1fd0a4f28419497f9722a3daafe3b4186f6b6457e090600090a35050565b6129066064826138b1565b6008555050565b816001600160a01b0316836001600160a01b031614156129815760405162461bcd60e51b815260206004820152602960248201527f455243313135353a2073657474696e6720617070726f76616c20737461747573604482015268103337b91039b2b63360b91b60648201526084016108b4565b6001600160a01b03838116600081815260016020908152604080832094871680845294825291829020805460ff191686151590811790915591519182527f17307eab39ab6107e8899845ad3d59bd9653f200f220920489ca2b5937696c31910160405180910390a3505050565b60007f00000000000000000000000000000000000000000000000000000000000000006001600160a01b0316634000aea07f000000000000000000000000000000000000000000000000000000000000000084866000604051602001612a5e929190918252602082015260400190565b6040516020818303038152906040526040518463ffffffff1660e01b8152600401612a8b93929190613563565b602060405180830381600087803b158015612aa557600080fd5b505af1158015612ab9573d6000803e3d6000fd5b505050506040513d601f19601f82011682018060405250810190612add91906132b3565b50600083815260046020818152604080842054815180840189905280830186905230606082015260808082018390528351808303909101815260a090910190925281519183019190912093879052919052612b3990600161379c565b6000858152600460205260409020556124408482604080516020808201949094528082019290925280518083038201815260609092019052805191012090565b6001600160a01b038416612b9f5760405162461bcd60e51b81526004016108b4906136b4565b33612baf8187876124b988612c96565b6000848152602081815260408083206001600160a01b038a16845290915290205483811015612bf05760405162461bcd60e51b81526004016108b4906136f9565b6000858152602081815260408083206001600160a01b038b8116855292528083208785039055908816825281208054869290612c2d90849061379c565b909155505060408051868152602081018690526001600160a01b03808916928a821692918616917fc3d58168c5ae7397731d063d5bbf3d657854427343f4c083240f7aacaa2d0f62910160405180910390a4612c8d828888888888612ce1565b50505050505050565b60408051600180825281830190925260609160009190602080830190803683370190505090508281600081518110612cd057612cd06138f1565b602090810291909101015292915050565b6001600160a01b0384163b156127275760405163f23a6e6160e01b81526001600160a01b0385169063f23a6e6190612d25908990899088908890889060040161351e565b602060405180830381600087803b158015612d3f57600080fd5b505af1925050508015612d6f575060408051601f3d908101601f19168201909252612d6c9181019061330f565b60015b612e1c57612d7b61391d565b806308c379a01415612db55750612d90613939565b80612d9b5750612db7565b8060405162461bcd60e51b81526004016108b491906135c2565b505b60405162461bcd60e51b815260206004820152603460248201527f455243313135353a207472616e7366657220746f206e6f6e20455243313135356044820152732932b1b2b4bb32b91034b6b83632b6b2b73a32b960611b60648201526084016108b4565b6001600160e01b0319811663f23a6e6160e01b14612c8d5760405162461bcd60e51b81526004016108b4906135d5565b6001600160a01b0384163b156127275760405163bc197c8160e01b81526001600160a01b0385169063bc197c8190612e90908990899088908890889060040161349c565b602060405180830381600087803b158015612eaa57600080fd5b505af1925050508015612eda575060408051601f3d908101601f19168201909252612ed79181019061330f565b60015b612ee657612d7b61391d565b6001600160e01b0319811663bc197c8160e01b14612c8d5760405162461bcd60e51b81526004016108b4906135d5565b80356001600160a01b0381168114612f2d57600080fd5b919050565b600082601f830112612f4357600080fd5b81356020612f5082613778565b604051612f5d8282613869565b8381528281019150858301600585901b87018401881015612f7d57600080fd5b60005b85811015612f9c57813584529284019290840190600101612f80565b5090979650505050505050565b600082601f830112612fba57600080fd5b813567ffffffffffffffff811115612fd457612fd4613907565b604051612feb601f8301601f191660200182613869565b81815284602083860101111561300057600080fd5b816020850160208301376000918101602001919091529392505050565b60006020828403121561302f57600080fd5b61303882612f16565b9392505050565b6000806040838503121561305257600080fd5b61305b83612f16565b915061306960208401612f16565b90509250929050565b600080600080600060a0868803121561308a57600080fd5b61309386612f16565b94506130a160208701612f16565b9350604086013567ffffffffffffffff808211156130be57600080fd5b6130ca89838a01612f32565b945060608801359150808211156130e057600080fd5b6130ec89838a01612f32565b9350608088013591508082111561310257600080fd5b5061310f88828901612fa9565b9150509295509295909350565b600080600080600060a0868803121561313457600080fd5b61313d86612f16565b945061314b60208701612f16565b93506040860135925060608601359150608086013567ffffffffffffffff81111561317557600080fd5b61310f88828901612fa9565b6000806040838503121561319457600080fd5b61319d83612f16565b915060208301356131ad816139c3565b809150509250929050565b600080604083850312156131cb57600080fd5b6131d483612f16565b946020939093013593505050565b600080604083850312156131f557600080fd5b823567ffffffffffffffff8082111561320d57600080fd5b818501915085601f83011261322157600080fd5b8135602061322e82613778565b60405161323b8282613869565b8381528281019150858301600585901b870184018b101561325b57600080fd5b600096505b848710156132855761327181612f16565b835260019690960195918301918301613260565b509650508601359250508082111561329c57600080fd5b506132a985828601612f32565b9150509250929050565b6000602082840312156132c557600080fd5b8151613038816139c3565b600080604083850312156132e357600080fd5b50508035926020909101359150565b60006020828403121561330457600080fd5b8135613038816139d1565b60006020828403121561332157600080fd5b8151613038816139d1565b60006020828403121561333e57600080fd5b5035919050565b60006020828403121561335757600080fd5b5051919050565b600081518084526020808501945080840160005b8381101561338e57815187529582019590820190600101613372565b509495945050505050565b600081518084526133b18160208601602086016137fe565b601f01601f19169290920160200192915050565b600081516133d78185602086016137fe565b9290920192915050565b600080845481600182811c9150808316806133fd57607f831692505b602080841082141561341d57634e487b7160e01b86526022600452602486fd5b81801561343157600181146134425761346f565b60ff1986168952848901965061346f565b60008b81526020902060005b868110156134675781548b82015290850190830161344e565b505084890196505b50505050505061349361348282866133c5565b64173539b7b760d91b815260050190565b95945050505050565b6001600160a01b0386811682528516602082015260a0604082018190526000906134c89083018661335e565b82810360608401526134da818661335e565b905082810360808401526134ee8185613399565b98975050505050505050565b6001600160a01b039384168152919092166020820152604081019190915260600190565b6001600160a01b03868116825285166020820152604081018490526060810183905260a06080820181905260009061355890830184613399565b979650505050505050565b60018060a01b03841681528260208201526060604082015260006134936060830184613399565b602081526000613038602083018461335e565b6040815260006135b0604083018561335e565b8281036020840152613493818561335e565b6020815260006130386020830184613399565b60208082526028908201527f455243313135353a204552433131353552656365697665722072656a656374656040820152676420746f6b656e7360c01b606082015260800190565b6020808252600790820152664661696c75726560c81b604082015260600190565b6020808252818101527f416d6f756e74206d7573742062652067726561746572207468616e207a657230604082015260600190565b60208082526021908201527f416d6f756e74206e6565647320746f2062652067726561746572207468616e206040820152600360fc1b606082015260800190565b60208082526025908201527f455243313135353a207472616e7366657220746f20746865207a65726f206164604082015264647265737360d81b606082015260800190565b6020808252602a908201527f455243313135353a20696e73756666696369656e742062616c616e636520666f60408201526939103a3930b739b332b960b11b606082015260800190565b6020808252818101527f4f776e61626c653a2063616c6c6572206973206e6f7420746865206f776e6572604082015260600190565b600067ffffffffffffffff82111561379257613792613907565b5060051b60200190565b600082198211156137af576137af6138c5565b500190565b6000826137c3576137c36138db565b500490565b60008160001904831182151516156137e2576137e26138c5565b500290565b6000828210156137f9576137f96138c5565b500390565b60005b83811015613819578181015183820152602001613801565b83811115613828576000848401525b50505050565b600181811c9082168061384257607f821691505b6020821081141561386357634e487b7160e01b600052602260045260246000fd5b50919050565b601f8201601f1916810167ffffffffffffffff8111828210171561388f5761388f613907565b6040525050565b60006000198214156138aa576138aa6138c5565b5060010190565b6000826138c0576138c06138db565b500690565b634e487b7160e01b600052601160045260246000fd5b634e487b7160e01b600052601260045260246000fd5b634e487b7160e01b600052603260045260246000fd5b634e487b7160e01b600052604160045260246000fd5b600060033d11156139365760046000803e5060005160e01c5b90565b600060443d10156139475790565b6040516003193d81016004833e81513d67ffffffffffffffff816024840111818411171561397757505050505090565b828501915081518181111561398f5750505050505090565b843d87010160208285010111156139a95750505050505090565b6139b860208286010187613869565b509095945050505050565b80151581146120ba57600080fd5b6001600160e01b0319811681146120ba57600080fdfea2646970667358221220e0fa3f558632acbbc7f4a6a7b7bda2c3c4cdb73b21d96d1bd449308cf8bba19664736f6c63430008070033697066733a2f2f516d536f47566e6a4438324236544a574e3435394c7571696578416368737279656f767a5341526e5638544576582f",
  "linkReferences": {},
  "deployedLinkReferences": {}
}