{
  "_format": "hh-sol-artifact-1",
  "contractName": "Chem",
  "sourceName": "contracts/Chem.sol",
  "abi": [
    {
      "inputs": [
        {
          "internalType": "address",
          "name": "_address",
          "type": "address"
        }
      ],
      "stateMutability": "nonpayable",
      "type": "constructor"
    },
    {
      "anonymous": false,
      "inputs": [
        {
          "indexed": true,
          "internalType": "address",
          "name": "account",
          "type": "address"
        },
        {
          "indexed": true,
          "internalType": "address",
          "name": "operator",
          "type": "address"
        },
        {
          "indexed": false,
          "internalType": "bool",
          "name": "approved",
          "type": "bool"
        }
      ],
      "name": "ApprovalForAll",
      "type": "event"
    },
    {
      "anonymous": false,
      "inputs": [
        {
          "indexed": true,
          "internalType": "address",
          "name": "previousOwner",
          "type": "address"
        },
        {
          "indexed": true,
          "internalType": "address",
          "name": "newOwner",
          "type": "address"
        }
      ],
      "name": "OwnershipTransferred",
      "type": "event"
    },
    {
      "anonymous": false,
      "inputs": [
        {
          "indexed": false,
          "internalType": "uint256",
          "name": "randomReturn",
          "type": "uint256"
        }
      ],
      "name": "RandomNumber",
      "type": "event"
    },
    {
      "anonymous": false,
      "inputs": [
        {
          "indexed": true,
          "internalType": "address",
          "name": "operator",
          "type": "address"
        },
        {
          "indexed": true,
          "internalType": "address",
          "name": "from",
          "type": "address"
        },
        {
          "indexed": true,
          "internalType": "address",
          "name": "to",
          "type": "address"
        },
        {
          "indexed": false,
          "internalType": "uint256[]",
          "name": "ids",
          "type": "uint256[]"
        },
        {
          "indexed": false,
          "internalType": "uint256[]",
          "name": "values",
          "type": "uint256[]"
        }
      ],
      "name": "TransferBatch",
      "type": "event"
    },
    {
      "anonymous": false,
      "inputs": [
        {
          "indexed": true,
          "internalType": "address",
          "name": "operator",
          "type": "address"
        },
        {
          "indexed": true,
          "internalType": "address",
          "name": "from",
          "type": "address"
        },
        {
          "indexed": true,
          "internalType": "address",
          "name": "to",
          "type": "address"
        },
        {
          "indexed": false,
          "internalType": "uint256",
          "name": "id",
          "type": "uint256"
        },
        {
          "indexed": false,
          "internalType": "uint256",
          "name": "value",
          "type": "uint256"
        }
      ],
      "name": "TransferSingle",
      "type": "event"
    },
    {
      "anonymous": false,
      "inputs": [
        {
          "indexed": false,
          "internalType": "string",
          "name": "value",
          "type": "string"
        },
        {
          "indexed": true,
          "internalType": "uint256",
          "name": "id",
          "type": "uint256"
        }
      ],
      "name": "URI",
      "type": "event"
    },
    {
      "anonymous": false,
      "inputs": [
        {
          "indexed": false,
          "internalType": "string",
          "name": "Minted",
          "type": "string"
        }
      ],
      "name": "WBTCMinted",
      "type": "event"
    },
    {
      "anonymous": false,
      "inputs": [
        {
          "indexed": false,
          "internalType": "uint256",
          "name": "tokenId",
          "type": "uint256"
        },
        {
          "indexed": false,
          "internalType": "address",
          "name": "receiver",
          "type": "address"
        },
        {
          "indexed": false,
          "internalType": "uint256",
          "name": "mintedAmount",
          "type": "uint256"
        }
      ],
      "name": "WaterCreated",
      "type": "event"
    },
    {
      "anonymous": false,
      "inputs": [
        {
          "indexed": false,
          "internalType": "string",
          "name": "failure",
          "type": "string"
        }
      ],
      "name": "WaterCreationFailed",
      "type": "event"
    },
    {
      "inputs": [],
      "name": "Beryllium",
      "outputs": [
        {
          "internalType": "uint256",
          "name": "",
          "type": "uint256"
        }
      ],
      "stateMutability": "view",
      "type": "function"
    },
    {
      "inputs": [],
      "name": "Boron",
      "outputs": [
        {
          "internalType": "uint256",
          "name": "",
          "type": "uint256"
        }
      ],
      "stateMutability": "view",
      "type": "function"
    },
    {
      "inputs": [],
      "name": "Carbon",
      "outputs": [
        {
          "internalType": "uint256",
          "name": "",
          "type": "uint256"
        }
      ],
      "stateMutability": "view",
      "type": "function"
    },
    {
      "inputs": [],
      "name": "Elements",
      "outputs": [
        {
          "internalType": "string",
          "name": "",
          "type": "string"
        }
      ],
      "stateMutability": "view",
      "type": "function"
    },
    {
      "inputs": [],
      "name": "Fluorine",
      "outputs": [
        {
          "internalType": "uint256",
          "name": "",
          "type": "uint256"
        }
      ],
      "stateMutability": "view",
      "type": "function"
    },
    {
      "inputs": [],
      "name": "Helium",
      "outputs": [
        {
          "internalType": "uint256",
          "name": "",
          "type": "uint256"
        }
      ],
      "stateMutability": "view",
      "type": "function"
    },
    {
      "inputs": [],
      "name": "Hydrogen",
      "outputs": [
        {
          "internalType": "uint256",
          "name": "",
          "type": "uint256"
        }
      ],
      "stateMutability": "view",
      "type": "function"
    },
    {
      "inputs": [],
      "name": "Lithium",
      "outputs": [
        {
          "internalType": "uint256",
          "name": "",
          "type": "uint256"
        }
      ],
      "stateMutability": "view",
      "type": "function"
    },
    {
      "inputs": [],
      "name": "Neon",
      "outputs": [
        {
          "internalType": "uint256",
          "name": "",
          "type": "uint256"
        }
      ],
      "stateMutability": "view",
      "type": "function"
    },
    {
      "inputs": [],
      "name": "Nitrogen",
      "outputs": [
        {
          "internalType": "uint256",
          "name": "",
          "type": "uint256"
        }
      ],
      "stateMutability": "view",
      "type": "function"
    },
    {
      "inputs": [],
      "name": "Oxygen",
      "outputs": [
        {
          "internalType": "uint256",
          "name": "",
          "type": "uint256"
        }
      ],
      "stateMutability": "view",
      "type": "function"
    },
    {
      "inputs": [],
      "name": "PureWater",
      "outputs": [
        {
          "internalType": "uint256",
          "name": "",
          "type": "uint256"
        }
      ],
      "stateMutability": "view",
      "type": "function"
    },
    {
      "inputs": [],
      "name": "Water",
      "outputs": [
        {
          "internalType": "uint256",
          "name": "",
          "type": "uint256"
        }
      ],
      "stateMutability": "view",
      "type": "function"
    },
    {
      "inputs": [
        {
          "internalType": "address",
          "name": "account",
          "type": "address"
        },
        {
          "internalType": "uint256",
          "name": "id",
          "type": "uint256"
        }
      ],
      "name": "balanceOf",
      "outputs": [
        {
          "internalType": "uint256",
          "name": "",
          "type": "uint256"
        }
      ],
      "stateMutability": "view",
      "type": "function"
    },
    {
      "inputs": [
        {
          "internalType": "address[]",
          "name": "accounts",
          "type": "address[]"
        },
        {
          "internalType": "uint256[]",
          "name": "ids",
          "type": "uint256[]"
        }
      ],
      "name": "balanceOfBatch",
      "outputs": [
        {
          "internalType": "uint256[]",
          "name": "",
          "type": "uint256[]"
        }
      ],
      "stateMutability": "view",
      "type": "function"
    },
    {
      "inputs": [
        {
          "internalType": "address",
          "name": "",
          "type": "address"
        }
      ],
      "name": "btcTokenBalance",
      "outputs": [
        {
          "internalType": "uint256",
          "name": "",
          "type": "uint256"
        }
      ],
      "stateMutability": "view",
      "type": "function"
    },
    {
      "inputs": [],
      "name": "createWater",
      "outputs": [],
      "stateMutability": "nonpayable",
      "type": "function"
    },
    {
      "inputs": [],
      "name": "getRandomNumber",
      "outputs": [
        {
          "internalType": "bytes32",
          "name": "requestId",
          "type": "bytes32"
        }
      ],
      "stateMutability": "nonpayable",
      "type": "function"
    },
    {
      "inputs": [
        {
          "internalType": "address",
          "name": "account",
          "type": "address"
        },
        {
          "internalType": "address",
          "name": "operator",
          "type": "address"
        }
      ],
      "name": "isApprovedForAll",
      "outputs": [
        {
          "internalType": "bool",
          "name": "",
          "type": "bool"
        }
      ],
      "stateMutability": "view",
      "type": "function"
    },
    {
      "inputs": [],
      "name": "mergeElements",
      "outputs": [],
      "stateMutability": "nonpayable",
      "type": "function"
    },
    {
      "inputs": [
        {
          "internalType": "uint256",
          "name": "_amount",
          "type": "uint256"
        }
      ],
      "name": "mintBTC",
      "outputs": [],
      "stateMutability": "nonpayable",
      "type": "function"
    },
    {
      "inputs": [
        {
          "internalType": "uint256",
          "name": "_amount",
          "type": "uint256"
        }
      ],
      "name": "mintBeryllium",
      "outputs": [],
      "stateMutability": "nonpayable",
      "type": "function"
    },
    {
      "inputs": [
        {
          "internalType": "uint256",
          "name": "_amount",
          "type": "uint256"
        }
      ],
      "name": "mintHelium",
      "outputs": [],
      "stateMutability": "nonpayable",
      "type": "function"
    },
    {
      "inputs": [
        {
          "internalType": "uint256",
          "name": "_amount",
          "type": "uint256"
        }
      ],
      "name": "mintHydrogen",
      "outputs": [],
      "stateMutability": "nonpayable",
      "type": "function"
    },
    {
      "inputs": [
        {
          "internalType": "uint256",
          "name": "_amount",
          "type": "uint256"
        }
      ],
      "name": "mintLithium",
      "outputs": [],
      "stateMutability": "nonpayable",
      "type": "function"
    },
    {
      "inputs": [
        {
          "internalType": "uint256",
          "name": "_amount",
          "type": "uint256"
        }
      ],
      "name": "mintOxygen",
      "outputs": [],
      "stateMutability": "nonpayable",
      "type": "function"
    },
    {
      "inputs": [],
      "name": "name",
      "outputs": [
        {
          "internalType": "string",
          "name": "",
          "type": "string"
        }
      ],
      "stateMutability": "pure",
      "type": "function"
    },
    {
      "inputs": [],
      "name": "owner",
      "outputs": [
        {
          "internalType": "address",
          "name": "",
          "type": "address"
        }
      ],
      "stateMutability": "view",
      "type": "function"
    },
    {
      "inputs": [],
      "name": "randomResult",
      "outputs": [
        {
          "internalType": "uint256",
          "name": "",
          "type": "uint256"
        }
      ],
      "stateMutability": "view",
      "type": "function"
    },
    {
      "inputs": [
        {
          "internalType": "bytes32",
          "name": "requestId",
          "type": "bytes32"
        },
        {
          "internalType": "uint256",
          "name": "randomness",
          "type": "uint256"
        }
      ],
      "name": "rawFulfillRandomness",
      "outputs": [],
      "stateMutability": "nonpayable",
      "type": "function"
    },
    {
      "inputs": [],
      "name": "renounceOwnership",
      "outputs": [],
      "stateMutability": "nonpayable",
      "type": "function"
    },
    {
      "inputs": [
        {
          "internalType": "address",
          "name": "from",
          "type": "address"
        },
        {
          "internalType": "address",
          "name": "to",
          "type": "address"
        },
        {
          "internalType": "uint256[]",
          "name": "ids",
          "type": "uint256[]"
        },
        {
          "internalType": "uint256[]",
          "name": "amounts",
          "type": "uint256[]"
        },
        {
          "internalType": "bytes",
          "name": "data",
          "type": "bytes"
        }
      ],
      "name": "safeBatchTransferFrom",
      "outputs": [],
      "stateMutability": "nonpayable",
      "type": "function"
    },
    {
      "inputs": [
        {
          "internalType": "address",
          "name": "from",
          "type": "address"
        },
        {
          "internalType": "address",
          "name": "to",
          "type": "address"
        },
        {
          "internalType": "uint256",
          "name": "id",
          "type": "uint256"
        },
        {
          "internalType": "uint256",
          "name": "amount",
          "type": "uint256"
        },
        {
          "internalType": "bytes",
          "name": "data",
          "type": "bytes"
        }
      ],
      "name": "safeTransferFrom",
      "outputs": [],
      "stateMutability": "nonpayable",
      "type": "function"
    },
    {
      "inputs": [
        {
          "internalType": "uint256",
          "name": "_amount",
          "type": "uint256"
        }
      ],
      "name": "sellNFT",
      "outputs": [],
      "stateMutability": "nonpayable",
      "type": "function"
    },
    {
      "inputs": [
        {
          "internalType": "address",
          "name": "operator",
          "type": "address"
        },
        {
          "internalType": "bool",
          "name": "approved",
          "type": "bool"
        }
      ],
      "name": "setApprovalForAll",
      "outputs": [],
      "stateMutability": "nonpayable",
      "type": "function"
    },
    {
      "inputs": [
        {
          "internalType": "address",
          "name": "addr",
          "type": "address"
        }
      ],
      "name": "setwbtcContract",
      "outputs": [],
      "stateMutability": "nonpayable",
      "type": "function"
    },
    {
      "inputs": [
        {
          "internalType": "uint256",
          "name": "_amount",
          "type": "uint256"
        }
      ],
      "name": "stakeBTC",
      "outputs": [],
      "stateMutability": "payable",
      "type": "function"
    },
    {
      "inputs": [
        {
          "internalType": "address",
          "name": "",
          "type": "address"
        },
        {
          "internalType": "uint256",
          "name": "",
          "type": "uint256"
        }
      ],
      "name": "supplyBalance",
      "outputs": [
        {
          "internalType": "uint256",
          "name": "",
          "type": "uint256"
        }
      ],
      "stateMutability": "view",
      "type": "function"
    },
    {
      "inputs": [
        {
          "internalType": "bytes4",
          "name": "interfaceId",
          "type": "bytes4"
        }
      ],
      "name": "supportsInterface",
      "outputs": [
        {
          "internalType": "bool",
          "name": "",
          "type": "bool"
        }
      ],
      "stateMutability": "view",
      "type": "function"
    },
    {
      "inputs": [],
      "name": "symbol",
      "outputs": [
        {
          "internalType": "string",
          "name": "",
          "type": "string"
        }
      ],
      "stateMutability": "pure",
      "type": "function"
    },
    {
      "inputs": [
        {
          "internalType": "address",
          "name": "newOwner",
          "type": "address"
        }
      ],
      "name": "transferOwnership",
      "outputs": [],
      "stateMutability": "nonpayable",
      "type": "function"
    },
    {
      "inputs": [
        {
          "internalType": "uint256",
          "name": "_tokenId",
          "type": "uint256"
        }
      ],
      "name": "uri",
      "outputs": [
        {
          "internalType": "string",
          "name": "",
          "type": "string"
        }
      ],
      "stateMutability": "view",
      "type": "function"
    },
    {
      "inputs": [],
      "name": "wbtcContract",
      "outputs": [
        {
          "internalType": "contract WBTC",
          "name": "",
          "type": "address"
        }
      ],
      "stateMutability": "view",
      "type": "function"
    }
  ],
  "bytecode": "0x610120604052603660c0818152906200310460e03980516200002a91600a916020909101906200020e565b503480156200003857600080fd5b506040516200313a3803806200313a8339810160408190526200005b91620002b4565b738c7382f9d8f56b33781fe506e897a4f1e2d1725573326c977e6efc84e512bb9c30f76e30c160ed06fb600a80546200009490620002e6565b80601f0160208091040260200160405190810160405280929190818152602001828054620000c290620002e6565b8015620001135780601f10620000e75761010080835404028352916020019162000113565b820191906000526020600020905b815481529060010190602001808311620000f557829003601f168201915b50505050506200012981620001a360201b60201c565b506200013533620001bc565b606091821b6001600160601b031990811660a052911b16608052600580546001600160a01b0319166001600160a01b03929092169190911790557f6e75b569a01ef56d18cab6a8e71e6600d6ce853834d4a5748b720d06f878b3a4600955655af3107a400060075562000323565b8051620001b89060029060208401906200020e565b5050565b600380546001600160a01b038381166001600160a01b0319831681179093556040519116919082907f8be0079c531659141344cd1fd0a4f28419497f9722a3daafe3b4186f6b6457e090600090a35050565b8280546200021c90620002e6565b90600052602060002090601f0160209004810192826200024057600085556200028b565b82601f106200025b57805160ff19168380011785556200028b565b828001600101855582156200028b579182015b828111156200028b5782518255916020019190600101906200026e565b50620002999291506200029d565b5090565b5b808211156200029957600081556001016200029e565b600060208284031215620002c757600080fd5b81516001600160a01b0381168114620002df57600080fd5b9392505050565b600181811c90821680620002fb57607f821691505b602082108114156200031d57634e487b7160e01b600052602260045260246000fd5b50919050565b60805160601c60a05160601c612da76200035d6000396000818161108f0152611dfd0152600081816112800152611dce0152612da76000f3fe60806040526004361061025b5760003560e01c80637d35a25711610144578063bea1d66a116100b6578063ee9cdfb31161007a578063ee9cdfb31461070c578063eee0d9e21461072c578063f242432a14610741578063f27d7dcd14610761578063f2fde38b14610776578063f85060551461079657600080fd5b8063bea1d66a14610671578063c2b8472214610686578063db19d93f14610699578063dbdff2c1146106ae578063e985e9c5146106c357600080fd5b806394985ddd1161010857806394985ddd146105c557806395d89b41146105e55780639f211be214610612578063a22cb46514610627578063abc40ce414610647578063b63426b31461065c57600080fd5b80637d35a25714610525578063807a012d1461053a5780638da5cb5b146105725780638fcb4325146105905780639280d8ee146105a557600080fd5b8063225abdbd116101dd57806342619f66116101a157806342619f66146104835780634e1273f4146104995780635b5d897f146104c65780636e69adcf146104e6578063715018a6146104fb57806377b07f6b1461051057600080fd5b8063225abdbd146103f95780632eb2c2d6146104195780632f3104e41461043957806335926b9c1461044e578063403c617e1461046e57600080fd5b80630e89341c116102245780630e89341c14610334578063142cee9314610354578063159907de1461038157806316b488a0146103b95780632014218a146103d957600080fd5b8062fdd58e1461026057806301ffc9a71461029357806305f36283146102c357806306fdde03146102d8578063080f54f714610312575b600080fd5b34801561026c57600080fd5b5061028061027b3660046125fa565b6107ab565b6040519081526020015b60405180910390f35b34801561029f57600080fd5b506102b36102ae366004612734565b610842565b604051901515815260200161028a565b3480156102cf57600080fd5b50610280600781565b3480156102e457600080fd5b50604080518082019091526008815267456c656d656e747360c01b60208201525b60405161028a91906129e0565b34801561031e57600080fd5b5061033261032d36600461276e565b610894565b005b34801561034057600080fd5b5061030561034f36600461276e565b610976565b34801561036057600080fd5b5061028061036f36600461245f565b600c6020526000908152604090205481565b34801561038d57600080fd5b5061028061039c3660046125fa565b600b60209081526000928352604080842090915290825290205481565b3480156103c557600080fd5b506103326103d436600461245f565b6109aa565b3480156103e557600080fd5b506103326103f436600461276e565b6109f6565b34801561040557600080fd5b5061033261041436600461276e565b610a58565b34801561042557600080fd5b506103326104343660046124b4565b610aba565b34801561044557600080fd5b50610280600681565b34801561045a57600080fd5b5061033261046936600461276e565b610b51565b34801561047a57600080fd5b50610280600181565b34801561048f57600080fd5b5061028060085481565b3480156104a557600080fd5b506104b96104b4366004612624565b610bb3565b60405161028a91906129a8565b3480156104d257600080fd5b506103326104e136600461276e565b610cdd565b3480156104f257600080fd5b5061028060c881565b34801561050757600080fd5b50610332610d3f565b34801561051c57600080fd5b50610280600381565b34801561053157600080fd5b50610332610d75565b34801561054657600080fd5b5060055461055a906001600160a01b031681565b6040516001600160a01b03909116815260200161028a565b34801561057e57600080fd5b506003546001600160a01b031661055a565b34801561059c57600080fd5b50610280600481565b3480156105b157600080fd5b506103326105c036600461276e565b611022565b3480156105d157600080fd5b506103326105e0366004612712565b611084565b3480156105f157600080fd5b506040805180820190915260048152631153135560e21b6020820152610305565b34801561061e57600080fd5b5061033261110a565b34801561063357600080fd5b506103326106423660046125c3565b61111b565b34801561065357600080fd5b50610280600281565b34801561066857600080fd5b50610280600881565b34801561067d57600080fd5b50610280600981565b61033261069436600461276e565b611126565b3480156106a557600080fd5b50610280600581565b3480156106ba57600080fd5b5061028061125c565b3480156106cf57600080fd5b506102b36106de366004612481565b6001600160a01b03918216600090815260016020908152604080832093909416825291909152205460ff1690565b34801561071857600080fd5b5061033261072736600461276e565b61136f565b34801561073857600080fd5b50610305611533565b34801561074d57600080fd5b5061033261075c36600461255e565b6115c1565b34801561076d57600080fd5b5061028060c981565b34801561078257600080fd5b5061033261079136600461245f565b611648565b3480156107a257600080fd5b50610280600a81565b60006001600160a01b03831661081c5760405162461bcd60e51b815260206004820152602b60248201527f455243313135353a2062616c616e636520717565727920666f7220746865207a60448201526a65726f206164647265737360a81b60648201526084015b60405180910390fd5b506000908152602081815260408083206001600160a01b03949094168352929052205490565b60006001600160e01b03198216636cdb3d1360e11b148061087357506001600160e01b031982166303a24d0760e21b145b8061088e57506301ffc9a760e01b6001600160e01b03198316145b92915050565b6005546040516340c10f1960e01b8152336004820152602481018390526001600160a01b03909116906340c10f1990604401600060405180830381600087803b1580156108e057600080fd5b505af11580156108f4573d6000803e3d6000fd5b5050336000908152600c602052604081208054859450909250610918908490612b45565b90915550506040517f5fe6c9fd9b1d778d130db1fa0af25c265f2adfb2365bb9c8e5dda87bdd64cefe9061096b906020808252600b908201526a1dd09510c8135a5b9d195960aa1b604082015260600190565b60405180910390a150565b6060600a610983836116e3565b604051602001610994929190612823565b6040516020818303038152906040529050919050565b6003546001600160a01b031633146109d45760405162461bcd60e51b815260040161081390612aec565b600580546001600160a01b0319166001600160a01b0392909216919091179055565b610a1233600183604051806020016040528060008152506117e9565b336000908152600b6020908152604080832060018452909152902054610a39908290612b45565b336000908152600b602090815260408083206001845290915290205550565b610a7433600383604051806020016040528060008152506117e9565b336000908152600b6020908152604080832060038452909152902054610a9b908290612b45565b336000908152600b602090815260408083206003845290915290205550565b6001600160a01b038516331480610ad65750610ad685336106de565b610b3d5760405162461bcd60e51b815260206004820152603260248201527f455243313135353a207472616e736665722063616c6c6572206973206e6f74206044820152711bdddb995c881b9bdc88185c1c1c9bdd995960721b6064820152608401610813565b610b4a85858585856118f3565b5050505050565b610b6d33600883604051806020016040528060008152506117e9565b336000908152600b6020908152604080832060088452909152902054610b94908290612b45565b336000908152600b602090815260408083206008845290915290205550565b60608151835114610c185760405162461bcd60e51b815260206004820152602960248201527f455243313135353a206163636f756e747320616e6420696473206c656e677468604482015268040dad2e6dac2e8c6d60bb1b6064820152608401610813565b6000835167ffffffffffffffff811115610c3457610c34612c91565b604051908082528060200260200182016040528015610c5d578160200160208202803683370190505b50905060005b8451811015610cd557610ca8858281518110610c8157610c81612c7b565b6020026020010151858381518110610c9b57610c9b612c7b565b60200260200101516107ab565b828281518110610cba57610cba612c7b565b6020908102919091010152610cce81612c20565b9050610c63565b509392505050565b610cf933600283604051806020016040528060008152506117e9565b336000908152600b6020908152604080832060028452909152902054610d20908290612b45565b336000908152600b602090815260408083206002845290915290205550565b6003546001600160a01b03163314610d695760405162461bcd60e51b815260040161081390612aec565b610d736000611ac8565b565b336000908152600b60209081526040808320600180855292528083205460088452922054906002908082851015610de45760405162461bcd60e51b81526020600482015260136024820152722737ba1022b737bab3b410243cb23937b3b2b760691b6044820152606401610813565b81841015610e285760405162461bcd60e51b81526020600482015260116024820152702737ba1022b737bab3b41027bc3cb3b2b760791b6044820152606401610813565b610e3433600185611b1a565b336000908152600b602090815260408083206001845290915281208054859290610e5f908490612b71565b90915550610e71905033600884611b1a565b336000908152600b602090815260408083206008845290915281208054849290610e9c908490612b71565b90915550506008546040518181527fec6cdc8e735e4069f6e89062582f3e5532a8e71373e7ef2962fa916cf2af21f29060200160405180910390a1600a811015610f5e577fa11c889fee9dafbb2ce8aea81cdab60c4af9c573fdacf23056d4da9ab596796c604051610f29906020808252600790820152664661696c75726560c81b604082015260600190565b60405180910390a1610f59604051806040016040528060078152602001666661696c75726560c81b815250611c94565b61101a565b610f8c6040518060400160405280600d81526020016c15d85d195c8810dc99585d1959609a1b815250611c94565b610fa83360c884604051806020016040528060008152506117e9565b336000908152600b6020908152604080832060c8845290915281208054849290610fd3908490612b45565b90915550506040805160c881523360208201529081018390527f41dc43fe6204194dd095effea839309c4fc5c4f84c88d1b81372b0bcc9a601189060600160405180910390a15b505050505050565b61103e33600483604051806020016040528060008152506117e9565b336000908152600b6020908152604080832060048452909152902054611065908290612b45565b336000908152600b602090815260408083206004845290915290205550565b336001600160a01b037f000000000000000000000000000000000000000000000000000000000000000016146110fc5760405162461bcd60e51b815260206004820152601f60248201527f4f6e6c7920565246436f6f7264696e61746f722063616e2066756c66696c6c006044820152606401610813565b6111068282611cd7565b5050565b61111261125c565b50610d73610d75565b611106338383611ce9565b600081116111765760405162461bcd60e51b815260206004820181905260248201527f416d6f756e74206d7573742062652067726561746572207468616e207a6572306044820152606401610813565b6005546040516323b872dd60e01b8152336004820152306024820152604481018390526001600160a01b03909116906323b872dd90606401602060405180830381600087803b1580156111c857600080fd5b505af11580156111dc573d6000803e3d6000fd5b505050506040513d601f19601f8201168201806040525081019061120091906126f5565b50336000908152600c602052604081208054839290611220908490612b71565b909155506112309050600a6109f6565b61123a600a610cdd565b611244600a611022565b61124e600a610a58565b611258600a610b51565b6111065b6007546040516370a0823160e01b8152306004820152600091906001600160a01b037f000000000000000000000000000000000000000000000000000000000000000016906370a082319060240160206040518083038186803b1580156112c257600080fd5b505afa1580156112d6573d6000803e3d6000fd5b505050506040513d601f19601f820116820180604052508101906112fa9190612787565b101561135c5760405162461bcd60e51b815260206004820152602b60248201527f4e6f7420656e6f756768204c494e4b202d2066696c6c20636f6e74726163742060448201526a1dda5d1a0819985d58d95d60aa1b6064820152608401610813565b61136a600954600754611dca565b905090565b60c88110158015611381575060c98111155b6113c25760405162461bcd60e51b81526020600482015260126024820152712737ba102b30b634b21021b932b0ba34b7b760711b6044820152606401610813565b6113f9604051806040016040528060168152602001751c185cdcd959081d1a19481c995c5d5a5c995b595b9d60521b815250611c94565b6002600160c883141561152e5760026114128184612b5d565b92506114426040518060400160405280600c81526020016b7265776172642076616c756560a01b81525084611f55565b61144e3360c884611b1a565b336000908152600b6020908152604080832060c8845290915281208054859290611479908490612b71565b909155505060055460405163a9059cbb60e01b8152336004820152602481018590526001600160a01b039091169063a9059cbb90604401602060405180830381600087803b1580156114ca57600080fd5b505af11580156114de573d6000803e3d6000fd5b505050506040513d601f19601f8201168201806040525081019061150291906126f5565b50336000908152600c602052604081208054859290611522908490612b45565b9091555061152e915050565b505050565b600a805461154090612bb8565b80601f016020809104026020016040519081016040528092919081815260200182805461156c90612bb8565b80156115b95780601f1061158e576101008083540402835291602001916115b9565b820191906000526020600020905b81548152906001019060200180831161159c57829003601f168201915b505050505081565b6001600160a01b0385163314806115dd57506115dd85336106de565b61163b5760405162461bcd60e51b815260206004820152602960248201527f455243313135353a2063616c6c6572206973206e6f74206f776e6572206e6f7260448201526808185c1c1c9bdd995960ba1b6064820152608401610813565b610b4a8585858585611f9a565b6003546001600160a01b031633146116725760405162461bcd60e51b815260040161081390612aec565b6001600160a01b0381166116d75760405162461bcd60e51b815260206004820152602660248201527f4f776e61626c653a206e6577206f776e657220697320746865207a65726f206160448201526564647265737360d01b6064820152608401610813565b6116e081611ac8565b50565b6060816117075750506040805180820190915260018152600360fc1b602082015290565b8160005b8115611731578061171b81612c20565b915061172a9050600a83612b5d565b915061170b565b60008167ffffffffffffffff81111561174c5761174c612c91565b6040519080825280601f01601f191660200182016040528015611776576020820181803683370190505b5090505b84156117e15761178b600183612b71565b9150611798600a86612c3b565b6117a3906030612b45565b60f81b8183815181106117b8576117b8612c7b565b60200101906001600160f81b031916908160001a9053506117da600a86612b5d565b945061177a565b949350505050565b6001600160a01b0384166118495760405162461bcd60e51b815260206004820152602160248201527f455243313135353a206d696e7420746f20746865207a65726f206164647265736044820152607360f81b6064820152608401610813565b336118638160008761185a886120b7565b610b4a886120b7565b6000848152602081815260408083206001600160a01b038916845290915281208054859290611893908490612b45565b909155505060408051858152602081018590526001600160a01b0380881692600092918516917fc3d58168c5ae7397731d063d5bbf3d657854427343f4c083240f7aacaa2d0f62910160405180910390a4610b4a81600087878787612102565b81518351146119555760405162461bcd60e51b815260206004820152602860248201527f455243313135353a2069647320616e6420616d6f756e7473206c656e677468206044820152670dad2e6dac2e8c6d60c31b6064820152608401610813565b6001600160a01b03841661197b5760405162461bcd60e51b815260040161081390612a5d565b3360005b8451811015611a6257600085828151811061199c5761199c612c7b565b6020026020010151905060008583815181106119ba576119ba612c7b565b602090810291909101810151600084815280835260408082206001600160a01b038e168352909352919091205490915081811015611a0a5760405162461bcd60e51b815260040161081390612aa2565b6000838152602081815260408083206001600160a01b038e8116855292528083208585039055908b16825281208054849290611a47908490612b45565b9250508190555050505080611a5b90612c20565b905061197f565b50846001600160a01b0316866001600160a01b0316826001600160a01b03167f4a39dc06d4c0dbc64b70af90fd698a233a518aa5d07e595d983b8c0526c8f7fb8787604051611ab29291906129bb565b60405180910390a461101a81878787878761226d565b600380546001600160a01b038381166001600160a01b0319831681179093556040519116919082907f8be0079c531659141344cd1fd0a4f28419497f9722a3daafe3b4186f6b6457e090600090a35050565b6001600160a01b038316611b7c5760405162461bcd60e51b815260206004820152602360248201527f455243313135353a206275726e2066726f6d20746865207a65726f206164647260448201526265737360e81b6064820152608401610813565b33611bac81856000611b8d876120b7565b611b96876120b7565b5050604080516020810190915260009052505050565b6000838152602081815260408083206001600160a01b038816845290915290205482811015611c295760405162461bcd60e51b8152602060048201526024808201527f455243313135353a206275726e20616d6f756e7420657863656564732062616c604482015263616e636560e01b6064820152608401610813565b6000848152602081815260408083206001600160a01b03898116808652918452828520888703905582518981529384018890529092908616917fc3d58168c5ae7397731d063d5bbf3d657854427343f4c083240f7aacaa2d0f62910160405180910390a45050505050565b6116e081604051602401611ca891906129e0565b60408051601f198184030181529190526020810180516001600160e01b031663104c13eb60e21b179052612337565b611ce2606482612c3b565b6008555050565b816001600160a01b0316836001600160a01b03161415611d5d5760405162461bcd60e51b815260206004820152602960248201527f455243313135353a2073657474696e6720617070726f76616c20737461747573604482015268103337b91039b2b63360b91b6064820152608401610813565b6001600160a01b03838116600081815260016020908152604080832094871680845294825291829020805460ff191686151590811790915591519182527f17307eab39ab6107e8899845ad3d59bd9653f200f220920489ca2b5937696c31910160405180910390a3505050565b60007f00000000000000000000000000000000000000000000000000000000000000006001600160a01b0316634000aea07f000000000000000000000000000000000000000000000000000000000000000084866000604051602001611e3a929190918252602082015260400190565b6040516020818303038152906040526040518463ffffffff1660e01b8152600401611e6793929190612981565b602060405180830381600087803b158015611e8157600080fd5b505af1158015611e95573d6000803e3d6000fd5b505050506040513d601f19601f82011682018060405250810190611eb991906126f5565b50600083815260046020818152604080842054815180840189905280830186905230606082015260808082018390528351808303909101815260a090910190925281519183019190912093879052919052611f15906001612b45565b6000858152600460205260409020556117e18482604080516020808201949094528082019290925280518083038201815260609092019052805191012090565b6111068282604051602401611f6b9291906129f3565b60408051601f198184030181529190526020810180516001600160e01b03166309710a9d60e41b179052612337565b6001600160a01b038416611fc05760405162461bcd60e51b815260040161081390612a5d565b33611fd081878761185a886120b7565b6000848152602081815260408083206001600160a01b038a168452909152902054838110156120115760405162461bcd60e51b815260040161081390612aa2565b6000858152602081815260408083206001600160a01b038b811685529252808320878503905590881682528120805486929061204e908490612b45565b909155505060408051868152602081018690526001600160a01b03808916928a821692918616917fc3d58168c5ae7397731d063d5bbf3d657854427343f4c083240f7aacaa2d0f62910160405180910390a46120ae828888888888612102565b50505050505050565b604080516001808252818301909252606091600091906020808301908036833701905050905082816000815181106120f1576120f1612c7b565b602090810291909101015292915050565b6001600160a01b0384163b1561101a5760405163f23a6e6160e01b81526001600160a01b0385169063f23a6e6190612146908990899088908890889060040161293c565b602060405180830381600087803b15801561216057600080fd5b505af1925050508015612190575060408051601f3d908101601f1916820190925261218d91810190612751565b60015b61223d5761219c612ca7565b806308c379a014156121d657506121b1612cc3565b806121bc57506121d8565b8060405162461bcd60e51b815260040161081391906129e0565b505b60405162461bcd60e51b815260206004820152603460248201527f455243313135353a207472616e7366657220746f206e6f6e20455243313135356044820152732932b1b2b4bb32b91034b6b83632b6b2b73a32b960611b6064820152608401610813565b6001600160e01b0319811663f23a6e6160e01b146120ae5760405162461bcd60e51b815260040161081390612a15565b6001600160a01b0384163b1561101a5760405163bc197c8160e01b81526001600160a01b0385169063bc197c81906122b190899089908890889088906004016128de565b602060405180830381600087803b1580156122cb57600080fd5b505af19250505080156122fb575060408051601f3d908101601f191682019092526122f891810190612751565b60015b6123075761219c612ca7565b6001600160e01b0319811663bc197c8160e01b146120ae5760405162461bcd60e51b815260040161081390612a15565b80516a636f6e736f6c652e6c6f67602083016000808483855afa5050505050565b80356001600160a01b038116811461236f57600080fd5b919050565b600082601f83011261238557600080fd5b8135602061239282612b21565b60405161239f8282612bf3565b8381528281019150858301600585901b870184018810156123bf57600080fd5b60005b858110156123de578135845292840192908401906001016123c2565b5090979650505050505050565b600082601f8301126123fc57600080fd5b813567ffffffffffffffff81111561241657612416612c91565b60405161242d601f8301601f191660200182612bf3565b81815284602083860101111561244257600080fd5b816020850160208301376000918101602001919091529392505050565b60006020828403121561247157600080fd5b61247a82612358565b9392505050565b6000806040838503121561249457600080fd5b61249d83612358565b91506124ab60208401612358565b90509250929050565b600080600080600060a086880312156124cc57600080fd5b6124d586612358565b94506124e360208701612358565b9350604086013567ffffffffffffffff8082111561250057600080fd5b61250c89838a01612374565b9450606088013591508082111561252257600080fd5b61252e89838a01612374565b9350608088013591508082111561254457600080fd5b50612551888289016123eb565b9150509295509295909350565b600080600080600060a0868803121561257657600080fd5b61257f86612358565b945061258d60208701612358565b93506040860135925060608601359150608086013567ffffffffffffffff8111156125b757600080fd5b612551888289016123eb565b600080604083850312156125d657600080fd5b6125df83612358565b915060208301356125ef81612d4d565b809150509250929050565b6000806040838503121561260d57600080fd5b61261683612358565b946020939093013593505050565b6000806040838503121561263757600080fd5b823567ffffffffffffffff8082111561264f57600080fd5b818501915085601f83011261266357600080fd5b8135602061267082612b21565b60405161267d8282612bf3565b8381528281019150858301600585901b870184018b101561269d57600080fd5b600096505b848710156126c7576126b381612358565b8352600196909601959183019183016126a2565b50965050860135925050808211156126de57600080fd5b506126eb85828601612374565b9150509250929050565b60006020828403121561270757600080fd5b815161247a81612d4d565b6000806040838503121561272557600080fd5b50508035926020909101359150565b60006020828403121561274657600080fd5b813561247a81612d5b565b60006020828403121561276357600080fd5b815161247a81612d5b565b60006020828403121561278057600080fd5b5035919050565b60006020828403121561279957600080fd5b5051919050565b600081518084526020808501945080840160005b838110156127d0578151875295820195908201906001016127b4565b509495945050505050565b600081518084526127f3816020860160208601612b88565b601f01601f19169290920160200192915050565b60008151612819818560208601612b88565b9290920192915050565b600080845481600182811c91508083168061283f57607f831692505b602080841082141561285f57634e487b7160e01b86526022600452602486fd5b8180156128735760018114612884576128b1565b60ff198616895284890196506128b1565b60008b81526020902060005b868110156128a95781548b820152908501908301612890565b505084890196505b5050505050506128d56128c48286612807565b64173539b7b760d91b815260050190565b95945050505050565b6001600160a01b0386811682528516602082015260a06040820181905260009061290a908301866127a0565b828103606084015261291c81866127a0565b9050828103608084015261293081856127db565b98975050505050505050565b6001600160a01b03868116825285166020820152604081018490526060810183905260a060808201819052600090612976908301846127db565b979650505050505050565b60018060a01b03841681528260208201526060604082015260006128d560608301846127db565b60208152600061247a60208301846127a0565b6040815260006129ce60408301856127a0565b82810360208401526128d581856127a0565b60208152600061247a60208301846127db565b604081526000612a0660408301856127db565b90508260208301529392505050565b60208082526028908201527f455243313135353a204552433131353552656365697665722072656a656374656040820152676420746f6b656e7360c01b606082015260800190565b60208082526025908201527f455243313135353a207472616e7366657220746f20746865207a65726f206164604082015264647265737360d81b606082015260800190565b6020808252602a908201527f455243313135353a20696e73756666696369656e742062616c616e636520666f60408201526939103a3930b739b332b960b11b606082015260800190565b6020808252818101527f4f776e61626c653a2063616c6c6572206973206e6f7420746865206f776e6572604082015260600190565b600067ffffffffffffffff821115612b3b57612b3b612c91565b5060051b60200190565b60008219821115612b5857612b58612c4f565b500190565b600082612b6c57612b6c612c65565b500490565b600082821015612b8357612b83612c4f565b500390565b60005b83811015612ba3578181015183820152602001612b8b565b83811115612bb2576000848401525b50505050565b600181811c90821680612bcc57607f821691505b60208210811415612bed57634e487b7160e01b600052602260045260246000fd5b50919050565b601f8201601f1916810167ffffffffffffffff81118282101715612c1957612c19612c91565b6040525050565b6000600019821415612c3457612c34612c4f565b5060010190565b600082612c4a57612c4a612c65565b500690565b634e487b7160e01b600052601160045260246000fd5b634e487b7160e01b600052601260045260246000fd5b634e487b7160e01b600052603260045260246000fd5b634e487b7160e01b600052604160045260246000fd5b600060033d1115612cc05760046000803e5060005160e01c5b90565b600060443d1015612cd15790565b6040516003193d81016004833e81513d67ffffffffffffffff8160248401118184111715612d0157505050505090565b8285019150815181811115612d195750505050505090565b843d8701016020828501011115612d335750505050505090565b612d4260208286010187612bf3565b509095945050505050565b80151581146116e057600080fd5b6001600160e01b0319811681146116e057600080fdfea2646970667358221220bc1db76b5e54a8a4c25a703fdf3c2c5e60f1fa7c0f6922c34d802c17535f725d64736f6c63430008070033697066733a2f2f516d634a3162516242523368556f733155614c6d3776326d46784a39796b484556357a4c4c6d595770637038424e2f",
  "linkReferences": {},
  "deployedLinkReferences": {}
}