{
  "_format": "hh-sol-artifact-1",
  "contractName": "Chem",
  "sourceName": "contracts/Chem.sol",
  "abi": [
    {
      "inputs": [],
      "stateMutability": "nonpayable",
      "type": "constructor"
    },
    {
      "anonymous": false,
      "inputs": [
        {
          "indexed": true,
          "internalType": "address",
          "name": "account",
          "type": "address"
        },
        {
          "indexed": true,
          "internalType": "address",
          "name": "operator",
          "type": "address"
        },
        {
          "indexed": false,
          "internalType": "bool",
          "name": "approved",
          "type": "bool"
        }
      ],
      "name": "ApprovalForAll",
      "type": "event"
    },
    {
      "anonymous": false,
      "inputs": [
        {
          "indexed": true,
          "internalType": "address",
          "name": "operator",
          "type": "address"
        },
        {
          "indexed": true,
          "internalType": "address",
          "name": "from",
          "type": "address"
        },
        {
          "indexed": true,
          "internalType": "address",
          "name": "to",
          "type": "address"
        },
        {
          "indexed": false,
          "internalType": "uint256[]",
          "name": "ids",
          "type": "uint256[]"
        },
        {
          "indexed": false,
          "internalType": "uint256[]",
          "name": "values",
          "type": "uint256[]"
        }
      ],
      "name": "TransferBatch",
      "type": "event"
    },
    {
      "anonymous": false,
      "inputs": [
        {
          "indexed": true,
          "internalType": "address",
          "name": "operator",
          "type": "address"
        },
        {
          "indexed": true,
          "internalType": "address",
          "name": "from",
          "type": "address"
        },
        {
          "indexed": true,
          "internalType": "address",
          "name": "to",
          "type": "address"
        },
        {
          "indexed": false,
          "internalType": "uint256",
          "name": "id",
          "type": "uint256"
        },
        {
          "indexed": false,
          "internalType": "uint256",
          "name": "value",
          "type": "uint256"
        }
      ],
      "name": "TransferSingle",
      "type": "event"
    },
    {
      "anonymous": false,
      "inputs": [
        {
          "indexed": false,
          "internalType": "string",
          "name": "value",
          "type": "string"
        },
        {
          "indexed": true,
          "internalType": "uint256",
          "name": "id",
          "type": "uint256"
        }
      ],
      "name": "URI",
      "type": "event"
    },
    {
      "inputs": [],
      "name": "Beryllium",
      "outputs": [
        {
          "internalType": "uint256",
          "name": "",
          "type": "uint256"
        }
      ],
      "stateMutability": "view",
      "type": "function"
    },
    {
      "inputs": [],
      "name": "Elements",
      "outputs": [
        {
          "internalType": "string",
          "name": "",
          "type": "string"
        }
      ],
      "stateMutability": "view",
      "type": "function"
    },
    {
      "inputs": [],
      "name": "Helium",
      "outputs": [
        {
          "internalType": "uint256",
          "name": "",
          "type": "uint256"
        }
      ],
      "stateMutability": "view",
      "type": "function"
    },
    {
      "inputs": [],
      "name": "Hydrogen",
      "outputs": [
        {
          "internalType": "uint256",
          "name": "",
          "type": "uint256"
        }
      ],
      "stateMutability": "view",
      "type": "function"
    },
    {
      "inputs": [],
      "name": "Lithium",
      "outputs": [
        {
          "internalType": "uint256",
          "name": "",
          "type": "uint256"
        }
      ],
      "stateMutability": "view",
      "type": "function"
    },
    {
      "inputs": [],
      "name": "Water",
      "outputs": [
        {
          "internalType": "uint256",
          "name": "",
          "type": "uint256"
        }
      ],
      "stateMutability": "view",
      "type": "function"
    },
    {
      "inputs": [
        {
          "internalType": "address",
          "name": "account",
          "type": "address"
        },
        {
          "internalType": "uint256",
          "name": "id",
          "type": "uint256"
        }
      ],
      "name": "balanceOf",
      "outputs": [
        {
          "internalType": "uint256",
          "name": "",
          "type": "uint256"
        }
      ],
      "stateMutability": "view",
      "type": "function"
    },
    {
      "inputs": [
        {
          "internalType": "address[]",
          "name": "accounts",
          "type": "address[]"
        },
        {
          "internalType": "uint256[]",
          "name": "ids",
          "type": "uint256[]"
        }
      ],
      "name": "balanceOfBatch",
      "outputs": [
        {
          "internalType": "uint256[]",
          "name": "",
          "type": "uint256[]"
        }
      ],
      "stateMutability": "view",
      "type": "function"
    },
    {
      "inputs": [],
      "name": "createWater",
      "outputs": [],
      "stateMutability": "nonpayable",
      "type": "function"
    },
    {
      "inputs": [
        {
          "internalType": "address",
          "name": "account",
          "type": "address"
        },
        {
          "internalType": "address",
          "name": "operator",
          "type": "address"
        }
      ],
      "name": "isApprovedForAll",
      "outputs": [
        {
          "internalType": "bool",
          "name": "",
          "type": "bool"
        }
      ],
      "stateMutability": "view",
      "type": "function"
    },
    {
      "inputs": [
        {
          "internalType": "uint256",
          "name": "_amount",
          "type": "uint256"
        }
      ],
      "name": "mintBeryllium",
      "outputs": [],
      "stateMutability": "nonpayable",
      "type": "function"
    },
    {
      "inputs": [
        {
          "internalType": "uint256",
          "name": "_amount",
          "type": "uint256"
        }
      ],
      "name": "mintHelium",
      "outputs": [],
      "stateMutability": "nonpayable",
      "type": "function"
    },
    {
      "inputs": [
        {
          "internalType": "uint256",
          "name": "_amount",
          "type": "uint256"
        }
      ],
      "name": "mintHydrogen",
      "outputs": [],
      "stateMutability": "nonpayable",
      "type": "function"
    },
    {
      "inputs": [
        {
          "internalType": "uint256",
          "name": "_amount",
          "type": "uint256"
        }
      ],
      "name": "mintLithium",
      "outputs": [],
      "stateMutability": "nonpayable",
      "type": "function"
    },
    {
      "inputs": [
        {
          "internalType": "address",
          "name": "from",
          "type": "address"
        },
        {
          "internalType": "address",
          "name": "to",
          "type": "address"
        },
        {
          "internalType": "uint256[]",
          "name": "ids",
          "type": "uint256[]"
        },
        {
          "internalType": "uint256[]",
          "name": "amounts",
          "type": "uint256[]"
        },
        {
          "internalType": "bytes",
          "name": "data",
          "type": "bytes"
        }
      ],
      "name": "safeBatchTransferFrom",
      "outputs": [],
      "stateMutability": "nonpayable",
      "type": "function"
    },
    {
      "inputs": [
        {
          "internalType": "address",
          "name": "from",
          "type": "address"
        },
        {
          "internalType": "address",
          "name": "to",
          "type": "address"
        },
        {
          "internalType": "uint256",
          "name": "id",
          "type": "uint256"
        },
        {
          "internalType": "uint256",
          "name": "amount",
          "type": "uint256"
        },
        {
          "internalType": "bytes",
          "name": "data",
          "type": "bytes"
        }
      ],
      "name": "safeTransferFrom",
      "outputs": [],
      "stateMutability": "nonpayable",
      "type": "function"
    },
    {
      "inputs": [
        {
          "internalType": "address",
          "name": "operator",
          "type": "address"
        },
        {
          "internalType": "bool",
          "name": "approved",
          "type": "bool"
        }
      ],
      "name": "setApprovalForAll",
      "outputs": [],
      "stateMutability": "nonpayable",
      "type": "function"
    },
    {
      "inputs": [
        {
          "internalType": "bytes4",
          "name": "interfaceId",
          "type": "bytes4"
        }
      ],
      "name": "supportsInterface",
      "outputs": [
        {
          "internalType": "bool",
          "name": "",
          "type": "bool"
        }
      ],
      "stateMutability": "view",
      "type": "function"
    },
    {
      "inputs": [
        {
          "internalType": "uint256",
          "name": "_tokenId",
          "type": "uint256"
        }
      ],
      "name": "uri",
      "outputs": [
        {
          "internalType": "string",
          "name": "",
          "type": "string"
        }
      ],
      "stateMutability": "view",
      "type": "function"
    }
  ],
  "bytecode": "0x60e0604052603d6080818152906200222160a039805162000029916003916020909101906200048b565b503480156200003757600080fd5b5060038054620000479062000637565b80601f0160208091040260200160405190810160405280929190818152602001828054620000759062000637565b8015620000c65780601f106200009a57610100808354040283529160200191620000c6565b820191906000526020600020905b815481529060010190602001808311620000a857829003601f168201915b5050505050620000dc816200010760201b60201c565b506200010133600180604051806020016040528060008152506200012060201b60201c565b62000771565b80516200011c9060029060208401906200048b565b5050565b6001600160a01b038416620001865760405162461bcd60e51b815260206004820152602160248201527f455243313135353a206d696e7420746f20746865207a65726f206164647265736044820152607360f81b60648201526084015b60405180910390fd5b33620001ac816000876200019a8862000240565b620001a58862000240565b5050505050565b6000848152602081815260408083206001600160a01b038916845290915281208054859290620001de90849062000610565b909155505060408051858152602081018590526001600160a01b0380881692600092918516917fc3d58168c5ae7397731d063d5bbf3d657854427343f4c083240f7aacaa2d0f62910160405180910390a4620001a58160008787878762000296565b604080516001808252818301909252606091600091906020808301908036833701905050905082816000815181106200027d576200027d620006af565b602090810291909101015292915050565b505050505050565b620002b5846001600160a01b03166200047c60201b620007571760201c565b156200028e5760405163f23a6e6160e01b81526001600160a01b0385169063f23a6e6190620002f19089908990889088908890600401620005b4565b602060405180830381600087803b1580156200030c57600080fd5b505af19250505080156200033f575060408051601f3d908101601f191682019092526200033c9181019062000531565b60015b62000400576200034e620006c5565b806308c379a014156200038f575062000366620006e2565b8062000373575062000391565b8060405162461bcd60e51b81526004016200017d9190620005fb565b505b60405162461bcd60e51b815260206004820152603460248201527f455243313135353a207472616e7366657220746f206e6f6e204552433131353560448201527f526563656976657220696d706c656d656e74657200000000000000000000000060648201526084016200017d565b6001600160e01b0319811663f23a6e6160e01b14620004735760405162461bcd60e51b815260206004820152602860248201527f455243313135353a204552433131353552656365697665722072656a656374656044820152676420746f6b656e7360c01b60648201526084016200017d565b50505050505050565b6001600160a01b03163b151590565b828054620004999062000637565b90600052602060002090601f016020900481019282620004bd576000855562000508565b82601f10620004d857805160ff191683800117855562000508565b8280016001018555821562000508579182015b8281111562000508578251825591602001919060010190620004eb565b50620005169291506200051a565b5090565b5b808211156200051657600081556001016200051b565b6000602082840312156200054457600080fd5b81516001600160e01b0319811681146200055d57600080fd5b9392505050565b6000815180845260005b818110156200058c576020818501810151868301820152016200056e565b818111156200059f576000602083870101525b50601f01601f19169290920160200192915050565b6001600160a01b03868116825285166020820152604081018490526060810183905260a060808201819052600090620005f09083018462000564565b979650505050505050565b6020815260006200055d602083018462000564565b600082198211156200063257634e487b7160e01b600052601160045260246000fd5b500190565b600181811c908216806200064c57607f821691505b602082108114156200066e57634e487b7160e01b600052602260045260246000fd5b50919050565b601f8201601f191681016001600160401b0381118282101715620006a857634e487b7160e01b600052604160045260246000fd5b6040525050565b634e487b7160e01b600052603260045260246000fd5b600060033d1115620006df5760046000803e5060005160e01c5b90565b600060443d1015620006f15790565b6040516003193d81016004833e81513d6001600160401b0380831160248401831017156200072157505050505090565b82850191508151818111156200073a5750505050505090565b843d8701016020828501011115620007555750505050505090565b620007666020828601018762000674565b509095945050505050565b611aa080620007816000396000f3fe608060405234801561001057600080fd5b50600436106101205760003560e01c80636e69adcf116100ad578063a22cb46511610071578063a22cb46514610237578063abc40ce41461024a578063e985e9c514610252578063eee0d9e21461028e578063f242432a1461029657600080fd5b80636e69adcf1461020457806377b07f6b1461020c5780637d35a257146102145780638fcb43251461021c5780639280d8ee1461022457600080fd5b8063225abdbd116100f4578063225abdbd146101a35780632eb2c2d6146101b6578063403c617e146101c95780634e1273f4146101d15780635b5d897f146101f157600080fd5b8062fdd58e1461012557806301ffc9a71461014b5780630e89341c1461016e5780632014218a1461018e575b600080fd5b6101386101333660046113d0565b6102a9565b6040519081526020015b60405180910390f35b61015e6101593660046114cb565b610340565b6040519015158152602001610142565b61018161017c36600461150c565b610392565b604051610142919061173e565b6101a161019c36600461150c565b6103c6565b005b6101a16101b136600461150c565b6103e5565b6101a16101c4366004611285565b610401565b610138600181565b6101e46101df3660046113fa565b610498565b6040516101429190611706565b6101a16101ff36600461150c565b6105c2565b61013860c881565b610138600381565b6101a16105de565b610138600481565b6101a161023236600461150c565b610617565b6101a1610245366004611394565b610633565b610138600281565b61015e610260366004611252565b6001600160a01b03918216600090815260016020908152604080832093909416825291909152205460ff1690565b610181610642565b6101a16102a436600461132f565b6106d0565b60006001600160a01b03831661031a5760405162461bcd60e51b815260206004820152602b60248201527f455243313135353a2062616c616e636520717565727920666f7220746865207a60448201526a65726f206164647265737360a81b60648201526084015b60405180910390fd5b506000908152602081815260408083206001600160a01b03949094168352929052205490565b60006001600160e01b03198216636cdb3d1360e11b148061037157506001600160e01b031982166303a24d0760e21b145b8061038c57506301ffc9a760e01b6001600160e01b03198316145b92915050565b6060600361039f83610766565b6040516020016103b09291906115a8565b6040516020818303038152906040529050919050565b6103e2336001836040518060200160405280600081525061086c565b50565b6103e2336003836040518060200160405280600081525061086c565b6001600160a01b03851633148061041d575061041d8533610260565b6104845760405162461bcd60e51b815260206004820152603260248201527f455243313135353a207472616e736665722063616c6c6572206973206e6f74206044820152711bdddb995c881b9bdc88185c1c1c9bdd995960721b6064820152608401610311565b6104918585858585610976565b5050505050565b606081518351146104fd5760405162461bcd60e51b815260206004820152602960248201527f455243313135353a206163636f756e747320616e6420696473206c656e677468604482015268040dad2e6dac2e8c6d60bb1b6064820152608401610311565b6000835167ffffffffffffffff81111561051957610519611998565b604051908082528060200260200182016040528015610542578160200160208202803683370190505b50905060005b84518110156105ba5761058d85828151811061056657610566611982565b602002602001015185838151811061058057610580611982565b60200260200101516102a9565b82828151811061059f5761059f611982565b60209081029190910101526105b381611927565b9050610548565b509392505050565b6103e2336002836040518060200160405280600081525061086c565b6105eb3360016002610b53565b6105f83360026001610b53565b6106153360c860016040518060200160405280600081525061086c565b565b6103e2336004836040518060200160405280600081525061086c565b61063e338383610ccd565b5050565b6003805461064f906118bf565b80601f016020809104026020016040519081016040528092919081815260200182805461067b906118bf565b80156106c85780601f1061069d576101008083540402835291602001916106c8565b820191906000526020600020905b8154815290600101906020018083116106ab57829003601f168201915b505050505081565b6001600160a01b0385163314806106ec57506106ec8533610260565b61074a5760405162461bcd60e51b815260206004820152602960248201527f455243313135353a2063616c6c6572206973206e6f74206f776e6572206e6f7260448201526808185c1c1c9bdd995960ba1b6064820152608401610311565b6104918585858585610dae565b6001600160a01b03163b151590565b60608161078a5750506040805180820190915260018152600360fc1b602082015290565b8160005b81156107b4578061079e81611927565b91506107ad9050600a83611864565b915061078e565b60008167ffffffffffffffff8111156107cf576107cf611998565b6040519080825280601f01601f1916602001820160405280156107f9576020820181803683370190505b5090505b84156108645761080e600183611878565b915061081b600a86611942565b61082690603061184c565b60f81b81838151811061083b5761083b611982565b60200101906001600160f81b031916908160001a90535061085d600a86611864565b94506107fd565b949350505050565b6001600160a01b0384166108cc5760405162461bcd60e51b815260206004820152602160248201527f455243313135353a206d696e7420746f20746865207a65726f206164647265736044820152607360f81b6064820152608401610311565b336108e6816000876108dd88610ecb565b61049188610ecb565b6000848152602081815260408083206001600160a01b03891684529091528120805485929061091690849061184c565b909155505060408051858152602081018590526001600160a01b0380881692600092918516917fc3d58168c5ae7397731d063d5bbf3d657854427343f4c083240f7aacaa2d0f62910160405180910390a461049181600087878787610f16565b81518351146109d85760405162461bcd60e51b815260206004820152602860248201527f455243313135353a2069647320616e6420616d6f756e7473206c656e677468206044820152670dad2e6dac2e8c6d60c31b6064820152608401610311565b6001600160a01b0384166109fe5760405162461bcd60e51b815260040161031190611799565b3360005b8451811015610ae5576000858281518110610a1f57610a1f611982565b602002602001015190506000858381518110610a3d57610a3d611982565b602090810291909101810151600084815280835260408082206001600160a01b038e168352909352919091205490915081811015610a8d5760405162461bcd60e51b8152600401610311906117de565b6000838152602081815260408083206001600160a01b038e8116855292528083208585039055908b16825281208054849290610aca90849061184c565b9250508190555050505080610ade90611927565b9050610a02565b50846001600160a01b0316866001600160a01b0316826001600160a01b03167f4a39dc06d4c0dbc64b70af90fd698a233a518aa5d07e595d983b8c0526c8f7fb8787604051610b35929190611719565b60405180910390a4610b4b818787878787611081565b505050505050565b6001600160a01b038316610bb55760405162461bcd60e51b815260206004820152602360248201527f455243313135353a206275726e2066726f6d20746865207a65726f206164647260448201526265737360e81b6064820152608401610311565b33610be581856000610bc687610ecb565b610bcf87610ecb565b5050604080516020810190915260009052505050565b6000838152602081815260408083206001600160a01b038816845290915290205482811015610c625760405162461bcd60e51b8152602060048201526024808201527f455243313135353a206275726e20616d6f756e7420657863656564732062616c604482015263616e636560e01b6064820152608401610311565b6000848152602081815260408083206001600160a01b03898116808652918452828520888703905582518981529384018890529092908616917fc3d58168c5ae7397731d063d5bbf3d657854427343f4c083240f7aacaa2d0f62910160405180910390a45050505050565b816001600160a01b0316836001600160a01b03161415610d415760405162461bcd60e51b815260206004820152602960248201527f455243313135353a2073657474696e6720617070726f76616c20737461747573604482015268103337b91039b2b63360b91b6064820152608401610311565b6001600160a01b03838116600081815260016020908152604080832094871680845294825291829020805460ff191686151590811790915591519182527f17307eab39ab6107e8899845ad3d59bd9653f200f220920489ca2b5937696c31910160405180910390a3505050565b6001600160a01b038416610dd45760405162461bcd60e51b815260040161031190611799565b33610de48187876108dd88610ecb565b6000848152602081815260408083206001600160a01b038a16845290915290205483811015610e255760405162461bcd60e51b8152600401610311906117de565b6000858152602081815260408083206001600160a01b038b8116855292528083208785039055908816825281208054869290610e6290849061184c565b909155505060408051868152602081018690526001600160a01b03808916928a821692918616917fc3d58168c5ae7397731d063d5bbf3d657854427343f4c083240f7aacaa2d0f62910160405180910390a4610ec2828888888888610f16565b50505050505050565b60408051600180825281830190925260609160009190602080830190803683370190505090508281600081518110610f0557610f05611982565b602090810291909101015292915050565b6001600160a01b0384163b15610b4b5760405163f23a6e6160e01b81526001600160a01b0385169063f23a6e6190610f5a90899089908890889088906004016116c1565b602060405180830381600087803b158015610f7457600080fd5b505af1925050508015610fa4575060408051601f3d908101601f19168201909252610fa1918101906114ef565b60015b61105157610fb06119ae565b806308c379a01415610fea5750610fc56119ca565b80610fd05750610fec565b8060405162461bcd60e51b8152600401610311919061173e565b505b60405162461bcd60e51b815260206004820152603460248201527f455243313135353a207472616e7366657220746f206e6f6e20455243313135356044820152732932b1b2b4bb32b91034b6b83632b6b2b73a32b960611b6064820152608401610311565b6001600160e01b0319811663f23a6e6160e01b14610ec25760405162461bcd60e51b815260040161031190611751565b6001600160a01b0384163b15610b4b5760405163bc197c8160e01b81526001600160a01b0385169063bc197c81906110c59089908990889088908890600401611663565b602060405180830381600087803b1580156110df57600080fd5b505af192505050801561110f575060408051601f3d908101601f1916820190925261110c918101906114ef565b60015b61111b57610fb06119ae565b6001600160e01b0319811663bc197c8160e01b14610ec25760405162461bcd60e51b815260040161031190611751565b80356001600160a01b038116811461116257600080fd5b919050565b600082601f83011261117857600080fd5b8135602061118582611828565b60405161119282826118fa565b8381528281019150858301600585901b870184018810156111b257600080fd5b60005b858110156111d1578135845292840192908401906001016111b5565b5090979650505050505050565b600082601f8301126111ef57600080fd5b813567ffffffffffffffff81111561120957611209611998565b604051611220601f8301601f1916602001826118fa565b81815284602083860101111561123557600080fd5b816020850160208301376000918101602001919091529392505050565b6000806040838503121561126557600080fd5b61126e8361114b565b915061127c6020840161114b565b90509250929050565b600080600080600060a0868803121561129d57600080fd5b6112a68661114b565b94506112b46020870161114b565b9350604086013567ffffffffffffffff808211156112d157600080fd5b6112dd89838a01611167565b945060608801359150808211156112f357600080fd5b6112ff89838a01611167565b9350608088013591508082111561131557600080fd5b50611322888289016111de565b9150509295509295909350565b600080600080600060a0868803121561134757600080fd5b6113508661114b565b945061135e6020870161114b565b93506040860135925060608601359150608086013567ffffffffffffffff81111561138857600080fd5b611322888289016111de565b600080604083850312156113a757600080fd5b6113b08361114b565b9150602083013580151581146113c557600080fd5b809150509250929050565b600080604083850312156113e357600080fd5b6113ec8361114b565b946020939093013593505050565b6000806040838503121561140d57600080fd5b823567ffffffffffffffff8082111561142557600080fd5b818501915085601f83011261143957600080fd5b8135602061144682611828565b60405161145382826118fa565b8381528281019150858301600585901b870184018b101561147357600080fd5b600096505b8487101561149d576114898161114b565b835260019690960195918301918301611478565b50965050860135925050808211156114b457600080fd5b506114c185828601611167565b9150509250929050565b6000602082840312156114dd57600080fd5b81356114e881611a54565b9392505050565b60006020828403121561150157600080fd5b81516114e881611a54565b60006020828403121561151e57600080fd5b5035919050565b600081518084526020808501945080840160005b8381101561155557815187529582019590820190600101611539565b509495945050505050565b6000815180845261157881602086016020860161188f565b601f01601f19169290920160200192915050565b6000815161159e81856020860161188f565b9290920192915050565b600080845481600182811c9150808316806115c457607f831692505b60208084108214156115e457634e487b7160e01b86526022600452602486fd5b8180156115f8576001811461160957611636565b60ff19861689528489019650611636565b60008b81526020902060005b8681101561162e5781548b820152908501908301611615565b505084890196505b50505050505061165a611649828661158c565b64173539b7b760d91b815260050190565b95945050505050565b6001600160a01b0386811682528516602082015260a06040820181905260009061168f90830186611525565b82810360608401526116a18186611525565b905082810360808401526116b58185611560565b98975050505050505050565b6001600160a01b03868116825285166020820152604081018490526060810183905260a0608082018190526000906116fb90830184611560565b979650505050505050565b6020815260006114e86020830184611525565b60408152600061172c6040830185611525565b828103602084015261165a8185611525565b6020815260006114e86020830184611560565b60208082526028908201527f455243313135353a204552433131353552656365697665722072656a656374656040820152676420746f6b656e7360c01b606082015260800190565b60208082526025908201527f455243313135353a207472616e7366657220746f20746865207a65726f206164604082015264647265737360d81b606082015260800190565b6020808252602a908201527f455243313135353a20696e73756666696369656e742062616c616e636520666f60408201526939103a3930b739b332b960b11b606082015260800190565b600067ffffffffffffffff82111561184257611842611998565b5060051b60200190565b6000821982111561185f5761185f611956565b500190565b6000826118735761187361196c565b500490565b60008282101561188a5761188a611956565b500390565b60005b838110156118aa578181015183820152602001611892565b838111156118b9576000848401525b50505050565b600181811c908216806118d357607f821691505b602082108114156118f457634e487b7160e01b600052602260045260246000fd5b50919050565b601f8201601f1916810167ffffffffffffffff8111828210171561192057611920611998565b6040525050565b600060001982141561193b5761193b611956565b5060010190565b6000826119515761195161196c565b500690565b634e487b7160e01b600052601160045260246000fd5b634e487b7160e01b600052601260045260246000fd5b634e487b7160e01b600052603260045260246000fd5b634e487b7160e01b600052604160045260246000fd5b600060033d11156119c75760046000803e5060005160e01c5b90565b600060443d10156119d85790565b6040516003193d81016004833e81513d67ffffffffffffffff8160248401118184111715611a0857505050505090565b8285019150815181811115611a205750505050505090565b843d8701016020828501011115611a3a5750505050505090565b611a49602082860101876118fa565b509095945050505050565b6001600160e01b0319811681146103e257600080fdfea26469706673582212206e8c35e20f4651628c51d1cf8f445f779306bd876566cea10b1f05f9c59a955364736f6c63430008070033697066733a2f2f697066733a2f2f516d5476557444393263575432454d354a7a39794155666d4539486674636777563237714850667635596d33324a2f",
  "linkReferences": {},
  "deployedLinkReferences": {}
}