{
  "_format": "hh-sol-artifact-1",
  "contractName": "Chem",
  "sourceName": "contracts/Chem.sol",
  "abi": [
    {
      "inputs": [
        {
          "internalType": "address",
          "name": "_address",
          "type": "address"
        }
      ],
      "stateMutability": "nonpayable",
      "type": "constructor"
    },
    {
      "anonymous": false,
      "inputs": [
        {
          "indexed": true,
          "internalType": "address",
          "name": "account",
          "type": "address"
        },
        {
          "indexed": true,
          "internalType": "address",
          "name": "operator",
          "type": "address"
        },
        {
          "indexed": false,
          "internalType": "bool",
          "name": "approved",
          "type": "bool"
        }
      ],
      "name": "ApprovalForAll",
      "type": "event"
    },
    {
      "anonymous": false,
      "inputs": [
        {
          "indexed": true,
          "internalType": "address",
          "name": "operator",
          "type": "address"
        },
        {
          "indexed": true,
          "internalType": "address",
          "name": "from",
          "type": "address"
        },
        {
          "indexed": true,
          "internalType": "address",
          "name": "to",
          "type": "address"
        },
        {
          "indexed": false,
          "internalType": "uint256[]",
          "name": "ids",
          "type": "uint256[]"
        },
        {
          "indexed": false,
          "internalType": "uint256[]",
          "name": "values",
          "type": "uint256[]"
        }
      ],
      "name": "TransferBatch",
      "type": "event"
    },
    {
      "anonymous": false,
      "inputs": [
        {
          "indexed": true,
          "internalType": "address",
          "name": "operator",
          "type": "address"
        },
        {
          "indexed": true,
          "internalType": "address",
          "name": "from",
          "type": "address"
        },
        {
          "indexed": true,
          "internalType": "address",
          "name": "to",
          "type": "address"
        },
        {
          "indexed": false,
          "internalType": "uint256",
          "name": "id",
          "type": "uint256"
        },
        {
          "indexed": false,
          "internalType": "uint256",
          "name": "value",
          "type": "uint256"
        }
      ],
      "name": "TransferSingle",
      "type": "event"
    },
    {
      "anonymous": false,
      "inputs": [
        {
          "indexed": false,
          "internalType": "string",
          "name": "value",
          "type": "string"
        },
        {
          "indexed": true,
          "internalType": "uint256",
          "name": "id",
          "type": "uint256"
        }
      ],
      "name": "URI",
      "type": "event"
    },
    {
      "inputs": [],
      "name": "Beryllium",
      "outputs": [
        {
          "internalType": "uint256",
          "name": "",
          "type": "uint256"
        }
      ],
      "stateMutability": "view",
      "type": "function"
    },
    {
      "inputs": [],
      "name": "Elements",
      "outputs": [
        {
          "internalType": "string",
          "name": "",
          "type": "string"
        }
      ],
      "stateMutability": "view",
      "type": "function"
    },
    {
      "inputs": [],
      "name": "Helium",
      "outputs": [
        {
          "internalType": "uint256",
          "name": "",
          "type": "uint256"
        }
      ],
      "stateMutability": "view",
      "type": "function"
    },
    {
      "inputs": [],
      "name": "Hydrogen",
      "outputs": [
        {
          "internalType": "uint256",
          "name": "",
          "type": "uint256"
        }
      ],
      "stateMutability": "view",
      "type": "function"
    },
    {
      "inputs": [],
      "name": "Lithium",
      "outputs": [
        {
          "internalType": "uint256",
          "name": "",
          "type": "uint256"
        }
      ],
      "stateMutability": "view",
      "type": "function"
    },
    {
      "inputs": [],
      "name": "Oxygen",
      "outputs": [
        {
          "internalType": "uint256",
          "name": "",
          "type": "uint256"
        }
      ],
      "stateMutability": "view",
      "type": "function"
    },
    {
      "inputs": [],
      "name": "Water",
      "outputs": [
        {
          "internalType": "uint256",
          "name": "",
          "type": "uint256"
        }
      ],
      "stateMutability": "view",
      "type": "function"
    },
    {
      "inputs": [
        {
          "internalType": "address",
          "name": "account",
          "type": "address"
        },
        {
          "internalType": "uint256",
          "name": "id",
          "type": "uint256"
        }
      ],
      "name": "balanceOf",
      "outputs": [
        {
          "internalType": "uint256",
          "name": "",
          "type": "uint256"
        }
      ],
      "stateMutability": "view",
      "type": "function"
    },
    {
      "inputs": [
        {
          "internalType": "address[]",
          "name": "accounts",
          "type": "address[]"
        },
        {
          "internalType": "uint256[]",
          "name": "ids",
          "type": "uint256[]"
        }
      ],
      "name": "balanceOfBatch",
      "outputs": [
        {
          "internalType": "uint256[]",
          "name": "",
          "type": "uint256[]"
        }
      ],
      "stateMutability": "view",
      "type": "function"
    },
    {
      "inputs": [
        {
          "internalType": "address",
          "name": "",
          "type": "address"
        }
      ],
      "name": "btcTokenBalance",
      "outputs": [
        {
          "internalType": "uint256",
          "name": "",
          "type": "uint256"
        }
      ],
      "stateMutability": "view",
      "type": "function"
    },
    {
      "inputs": [],
      "name": "cheapBeaker",
      "outputs": [
        {
          "internalType": "uint256",
          "name": "",
          "type": "uint256"
        }
      ],
      "stateMutability": "view",
      "type": "function"
    },
    {
      "inputs": [],
      "name": "createWater",
      "outputs": [],
      "stateMutability": "nonpayable",
      "type": "function"
    },
    {
      "inputs": [],
      "name": "epicBeaker",
      "outputs": [
        {
          "internalType": "uint256",
          "name": "",
          "type": "uint256"
        }
      ],
      "stateMutability": "view",
      "type": "function"
    },
    {
      "inputs": [
        {
          "internalType": "address",
          "name": "account",
          "type": "address"
        },
        {
          "internalType": "address",
          "name": "operator",
          "type": "address"
        }
      ],
      "name": "isApprovedForAll",
      "outputs": [
        {
          "internalType": "bool",
          "name": "",
          "type": "bool"
        }
      ],
      "stateMutability": "view",
      "type": "function"
    },
    {
      "inputs": [
        {
          "internalType": "uint256",
          "name": "_amount",
          "type": "uint256"
        }
      ],
      "name": "mintBTC",
      "outputs": [],
      "stateMutability": "nonpayable",
      "type": "function"
    },
    {
      "inputs": [
        {
          "internalType": "uint256",
          "name": "_amount",
          "type": "uint256"
        }
      ],
      "name": "mintBeryllium",
      "outputs": [],
      "stateMutability": "nonpayable",
      "type": "function"
    },
    {
      "inputs": [
        {
          "internalType": "uint256",
          "name": "_amount",
          "type": "uint256"
        }
      ],
      "name": "mintCheapBeaker",
      "outputs": [],
      "stateMutability": "nonpayable",
      "type": "function"
    },
    {
      "inputs": [
        {
          "internalType": "uint256",
          "name": "_amount",
          "type": "uint256"
        }
      ],
      "name": "mintEpicBeaker",
      "outputs": [],
      "stateMutability": "nonpayable",
      "type": "function"
    },
    {
      "inputs": [
        {
          "internalType": "uint256",
          "name": "_amount",
          "type": "uint256"
        }
      ],
      "name": "mintHelium",
      "outputs": [],
      "stateMutability": "nonpayable",
      "type": "function"
    },
    {
      "inputs": [
        {
          "internalType": "uint256",
          "name": "_amount",
          "type": "uint256"
        }
      ],
      "name": "mintHydrogen",
      "outputs": [],
      "stateMutability": "nonpayable",
      "type": "function"
    },
    {
      "inputs": [
        {
          "internalType": "uint256",
          "name": "_amount",
          "type": "uint256"
        }
      ],
      "name": "mintLithium",
      "outputs": [],
      "stateMutability": "nonpayable",
      "type": "function"
    },
    {
      "inputs": [
        {
          "internalType": "uint256",
          "name": "_amount",
          "type": "uint256"
        }
      ],
      "name": "mintOxygen",
      "outputs": [],
      "stateMutability": "nonpayable",
      "type": "function"
    },
    {
      "inputs": [
        {
          "internalType": "uint256",
          "name": "_amount",
          "type": "uint256"
        }
      ],
      "name": "mintRegularBeaker",
      "outputs": [],
      "stateMutability": "nonpayable",
      "type": "function"
    },
    {
      "inputs": [],
      "name": "name",
      "outputs": [
        {
          "internalType": "string",
          "name": "",
          "type": "string"
        }
      ],
      "stateMutability": "pure",
      "type": "function"
    },
    {
      "inputs": [],
      "name": "regularBeaker",
      "outputs": [
        {
          "internalType": "uint256",
          "name": "",
          "type": "uint256"
        }
      ],
      "stateMutability": "view",
      "type": "function"
    },
    {
      "inputs": [
        {
          "internalType": "address",
          "name": "from",
          "type": "address"
        },
        {
          "internalType": "address",
          "name": "to",
          "type": "address"
        },
        {
          "internalType": "uint256[]",
          "name": "ids",
          "type": "uint256[]"
        },
        {
          "internalType": "uint256[]",
          "name": "amounts",
          "type": "uint256[]"
        },
        {
          "internalType": "bytes",
          "name": "data",
          "type": "bytes"
        }
      ],
      "name": "safeBatchTransferFrom",
      "outputs": [],
      "stateMutability": "nonpayable",
      "type": "function"
    },
    {
      "inputs": [
        {
          "internalType": "address",
          "name": "from",
          "type": "address"
        },
        {
          "internalType": "address",
          "name": "to",
          "type": "address"
        },
        {
          "internalType": "uint256",
          "name": "id",
          "type": "uint256"
        },
        {
          "internalType": "uint256",
          "name": "amount",
          "type": "uint256"
        },
        {
          "internalType": "bytes",
          "name": "data",
          "type": "bytes"
        }
      ],
      "name": "safeTransferFrom",
      "outputs": [],
      "stateMutability": "nonpayable",
      "type": "function"
    },
    {
      "inputs": [
        {
          "internalType": "address",
          "name": "operator",
          "type": "address"
        },
        {
          "internalType": "bool",
          "name": "approved",
          "type": "bool"
        }
      ],
      "name": "setApprovalForAll",
      "outputs": [],
      "stateMutability": "nonpayable",
      "type": "function"
    },
    {
      "inputs": [
        {
          "internalType": "address",
          "name": "",
          "type": "address"
        },
        {
          "internalType": "uint256",
          "name": "",
          "type": "uint256"
        }
      ],
      "name": "supplyBalance",
      "outputs": [
        {
          "internalType": "uint256",
          "name": "",
          "type": "uint256"
        }
      ],
      "stateMutability": "view",
      "type": "function"
    },
    {
      "inputs": [
        {
          "internalType": "bytes4",
          "name": "interfaceId",
          "type": "bytes4"
        }
      ],
      "name": "supportsInterface",
      "outputs": [
        {
          "internalType": "bool",
          "name": "",
          "type": "bool"
        }
      ],
      "stateMutability": "view",
      "type": "function"
    },
    {
      "inputs": [],
      "name": "symbol",
      "outputs": [
        {
          "internalType": "string",
          "name": "",
          "type": "string"
        }
      ],
      "stateMutability": "pure",
      "type": "function"
    },
    {
      "inputs": [
        {
          "internalType": "uint256",
          "name": "_tokenId",
          "type": "uint256"
        }
      ],
      "name": "uri",
      "outputs": [
        {
          "internalType": "string",
          "name": "",
          "type": "string"
        }
      ],
      "stateMutability": "view",
      "type": "function"
    },
    {
      "inputs": [],
      "name": "wbtcContract",
      "outputs": [
        {
          "internalType": "contract WBTC",
          "name": "",
          "type": "address"
        }
      ],
      "stateMutability": "view",
      "type": "function"
    }
  ],
  "bytecode": "0x60e06040526036608081815290620025a860a039805162000029916005916020909101906200013e565b503480156200003757600080fd5b50604051620025de380380620025de8339810160408190526200005a91620001e4565b60058054620000699062000216565b80601f0160208091040260200160405190810160405280929190818152602001828054620000979062000216565b8015620000e85780601f10620000bc57610100808354040283529160200191620000e8565b820191906000526020600020905b815481529060010190602001808311620000ca57829003601f168201915b5050505050620000fe816200012560201b60201c565b50600380546001600160a01b0319166001600160a01b039290921691909117905562000253565b80516200013a9060029060208401906200013e565b5050565b8280546200014c9062000216565b90600052602060002090601f016020900481019282620001705760008555620001bb565b82601f106200018b57805160ff1916838001178555620001bb565b82800160010185558215620001bb579182015b82811115620001bb5782518255916020019190600101906200019e565b50620001c9929150620001cd565b5090565b5b80821115620001c95760008155600101620001ce565b600060208284031215620001f757600080fd5b81516001600160a01b03811681146200020f57600080fd5b9392505050565b600181811c908216806200022b57607f821691505b602082108114156200024d57634e487b7160e01b600052602260045260246000fd5b50919050565b61234580620002636000396000f3fe608060405234801561001057600080fd5b50600436106101fa5760003560e01c80636d5460831161011a57806395d89b41116100ad578063b63426b31161007c578063b63426b314610449578063e985e9c514610451578063eee0d9e21461048d578063f242432a14610495578063f6f104c0146104a857600080fd5b806395d89b4114610405578063a22cb46514610425578063abc40ce414610438578063ae365e201461044057600080fd5b80637d35a257116100e95780637d35a257146103b7578063807a012d146103bf5780638fcb4325146103ea5780639280d8ee146103f257600080fd5b80636d5460831461038b5780636e69adcf1461039e57806377b07f6b146103a65780637b5fdac4146103ae57600080fd5b8063225abdbd11610192578063403c617e11610161578063403c617e146103475780634e1273f41461034f5780635a0c38d41461036f5780635b5d897f1461037857600080fd5b8063225abdbd146102fb5780632e4712f01461030e5780632eb2c2d61461032157806335926b9c1461033457600080fd5b80630e89341c116101ce5780630e89341c1461028a578063142cee931461029d578063159907de146102bd5780632014218a146102e857600080fd5b8062fdd58e146101ff57806301ffc9a71461022557806306fdde0314610248578063080f54f714610275575b600080fd5b61021261020d366004611c5a565b6104bb565b6040519081526020015b60405180910390f35b610238610233366004611d55565b610552565b604051901515815260200161021c565b604080518082019091526008815267456c656d656e747360c01b60208201525b60405161021c9190611fc1565b610288610283366004611d8f565b6105a4565b005b610268610298366004611d8f565b610630565b6102126102ab366004611aba565b60076020526000908152604090205481565b6102126102cb366004611c5a565b600660209081526000928352604080842090915290825290205481565b6102886102f6366004611d8f565b610664565b610288610309366004611d8f565b6106c6565b61028861031c366004611d8f565b610728565b61028861032f366004611b0f565b61078d565b610288610342366004611d8f565b610824565b610212600181565b61036261035d366004611c84565b610886565b60405161021c9190611f89565b6102126103e881565b610288610386366004611d8f565b6109b0565b610288610399366004611d8f565b610a12565b61021260c881565b610212600381565b6102126103ea81565b610288610a77565b6003546103d2906001600160a01b031681565b6040516001600160a01b03909116815260200161021c565b610212600481565b610288610400366004611d8f565b610d0d565b6040805180820190915260048152631153135560e21b6020820152610268565b610288610433366004611c1e565b610d6f565b610212600281565b6102126103e981565b610212600881565b61023861045f366004611adc565b6001600160a01b03918216600090815260016020908152604080832093909416825291909152205460ff1690565b610268610d7e565b6102886104a3366004611bb9565b610e0c565b6102886104b6366004611d8f565b610e93565b60006001600160a01b03831661052c5760405162461bcd60e51b815260206004820152602b60248201527f455243313135353a2062616c616e636520717565727920666f7220746865207a60448201526a65726f206164647265737360a81b60648201526084015b60405180910390fd5b506000908152602081815260408083206001600160a01b03949094168352929052205490565b60006001600160e01b03198216636cdb3d1360e11b148061058357506001600160e01b031982166303a24d0760e21b145b8061059e57506301ffc9a760e01b6001600160e01b03198316145b92915050565b6003546040516340c10f1960e01b8152336004820152602481018390526001600160a01b03909116906340c10f1990604401600060405180830381600087803b1580156105f057600080fd5b505af1158015610604573d6000803e3d6000fd5b505033600090815260076020526040812080548594509092506106289084906120f1565b909155505050565b6060600561063d83610ef8565b60405160200161064e929190611e2b565b6040516020818303038152906040529050919050565b6106803360018360405180602001604052806000815250610ffe565b336000908152600660209081526040808320600184529091529020546106a79082906120f1565b3360009081526006602090815260408083206001845290915290205550565b6106e23360038360405180602001604052806000815250610ffe565b336000908152600660209081526040808320600384529091529020546107099082906120f1565b3360009081526006602090815260408083206003845290915290205550565b610745336103ea8360405180602001604052806000815250610ffe565b3360009081526006602090815260408083206103ea845290915290205461076d9082906120f1565b3360009081526006602090815260408083206103ea845290915290205550565b6001600160a01b0385163314806107a957506107a9853361045f565b6108105760405162461bcd60e51b815260206004820152603260248201527f455243313135353a207472616e736665722063616c6c6572206973206e6f74206044820152711bdddb995c881b9bdc88185c1c1c9bdd995960721b6064820152608401610523565b61081d8585858585611108565b5050505050565b6108403360088360405180602001604052806000815250610ffe565b336000908152600660209081526040808320600884529091529020546108679082906120f1565b3360009081526006602090815260408083206008845290915290205550565b606081518351146108eb5760405162461bcd60e51b815260206004820152602960248201527f455243313135353a206163636f756e747320616e6420696473206c656e677468604482015268040dad2e6dac2e8c6d60bb1b6064820152608401610523565b6000835167ffffffffffffffff8111156109075761090761223d565b604051908082528060200260200182016040528015610930578160200160208202803683370190505b50905060005b84518110156109a85761097b85828151811061095457610954612227565b602002602001015185838151811061096e5761096e612227565b60200260200101516104bb565b82828151811061098d5761098d612227565b60209081029190910101526109a1816121cc565b9050610936565b509392505050565b6109cc3360028360405180602001604052806000815250610ffe565b336000908152600660209081526040808320600284529091529020546109f39082906120f1565b3360009081526006602090815260408083206002845290915290205550565b610a2f336103e88360405180602001604052806000815250610ffe565b3360009081526006602090815260408083206103e88452909152902054610a579082906120f1565b3360009081526006602090815260408083206103e8845290915290205550565b33600090815260066020908152604080832060018085529252808320546008845292205490600290808280861015610ae75760405162461bcd60e51b81526020600482015260136024820152722737ba1022b737bab3b410243cb23937b3b2b760691b6044820152606401610523565b82851015610b2b5760405162461bcd60e51b81526020600482015260116024820152702737ba1022b737bab3b41027bc3cb3b2b760791b6044820152606401610523565b610b37336001866112e5565b33600090815260066020908152604080832060018452909152902054610b5e90859061211d565b33600081815260066020908152604080832060018452909152902091909155610b89906008856112e5565b33600090815260066020908152604080832060088452909152902054610bb090849061211d565b33600090815260066020908152604080832060088452909152812091909155610bd761145f565b9050610c0c604051806040016040528060118152602001703930b73237b690373ab6b132b91034b99d60791b81525082611492565b6032811115610c7957610c313360c88560405180602001604052806000815250610ffe565b33600090815260066020908152604080832060c88452909152902054610c589084906120f1565b33600090815260066020908152604080832060c88452909152902055610d04565b610ca360405180604001604052806009815260200168189bdb9d5cc81a1a5d60ba1b8152506114d7565b610cc03360c8600260405180602001604052806000815250610ffe565b33600090815260066020908152604080832060c88452909152902054610ce79083906120f1565b33600090815260066020908152604080832060c884529091529020555b50505050505050565b610d293360048360405180602001604052806000815250610ffe565b33600090815260066020908152604080832060048452909152902054610d509082906120f1565b3360009081526006602090815260408083206004845290915290205550565b610d7a33838361151d565b5050565b60058054610d8b90612164565b80601f0160208091040260200160405190810160405280929190818152602001828054610db790612164565b8015610e045780601f10610dd957610100808354040283529160200191610e04565b820191906000526020600020905b815481529060010190602001808311610de757829003601f168201915b505050505081565b6001600160a01b038516331480610e285750610e28853361045f565b610e865760405162461bcd60e51b815260206004820152602960248201527f455243313135353a2063616c6c6572206973206e6f74206f776e6572206e6f7260448201526808185c1c1c9bdd995960ba1b6064820152608401610523565b61081d85858585856115fe565b610eb0336103e98360405180602001604052806000815250610ffe565b3360009081526006602090815260408083206103e98452909152902054610ed89082906120f1565b3360009081526006602090815260408083206103e9845290915290205550565b606081610f1c5750506040805180820190915260018152600360fc1b602082015290565b8160005b8115610f465780610f30816121cc565b9150610f3f9050600a83612109565b9150610f20565b60008167ffffffffffffffff811115610f6157610f6161223d565b6040519080825280601f01601f191660200182016040528015610f8b576020820181803683370190505b5090505b8415610ff657610fa060018361211d565b9150610fad600a866121e7565b610fb89060306120f1565b60f81b818381518110610fcd57610fcd612227565b60200101906001600160f81b031916908160001a905350610fef600a86612109565b9450610f8f565b949350505050565b6001600160a01b03841661105e5760405162461bcd60e51b815260206004820152602160248201527f455243313135353a206d696e7420746f20746865207a65726f206164647265736044820152607360f81b6064820152608401610523565b336110788160008761106f88611712565b61081d88611712565b6000848152602081815260408083206001600160a01b0389168452909152812080548592906110a89084906120f1565b909155505060408051858152602081018590526001600160a01b0380881692600092918516917fc3d58168c5ae7397731d063d5bbf3d657854427343f4c083240f7aacaa2d0f62910160405180910390a461081d8160008787878761175d565b815183511461116a5760405162461bcd60e51b815260206004820152602860248201527f455243313135353a2069647320616e6420616d6f756e7473206c656e677468206044820152670dad2e6dac2e8c6d60c31b6064820152608401610523565b6001600160a01b0384166111905760405162461bcd60e51b81526004016105239061203e565b3360005b84518110156112775760008582815181106111b1576111b1612227565b6020026020010151905060008583815181106111cf576111cf612227565b602090810291909101810151600084815280835260408082206001600160a01b038e16835290935291909120549091508181101561121f5760405162461bcd60e51b815260040161052390612083565b6000838152602081815260408083206001600160a01b038e8116855292528083208585039055908b1682528120805484929061125c9084906120f1565b9250508190555050505080611270906121cc565b9050611194565b50846001600160a01b0316866001600160a01b0316826001600160a01b03167f4a39dc06d4c0dbc64b70af90fd698a233a518aa5d07e595d983b8c0526c8f7fb87876040516112c7929190611f9c565b60405180910390a46112dd8187878787876118c8565b505050505050565b6001600160a01b0383166113475760405162461bcd60e51b815260206004820152602360248201527f455243313135353a206275726e2066726f6d20746865207a65726f206164647260448201526265737360e81b6064820152608401610523565b336113778185600061135887611712565b61136187611712565b5050604080516020810190915260009052505050565b6000838152602081815260408083206001600160a01b0388168452909152902054828110156113f45760405162461bcd60e51b8152602060048201526024808201527f455243313135353a206275726e20616d6f756e7420657863656564732062616c604482015263616e636560e01b6064820152608401610523565b6000848152602081815260408083206001600160a01b03898116808652918452828520888703905582518981529384018890529092908616917fc3d58168c5ae7397731d063d5bbf3d657854427343f4c083240f7aacaa2d0f62910160405180910390a45050505050565b6000806064600454424461147391906120f1565b61147d91906120f1565b61148791906121e7565b600481905592915050565b610d7a82826040516024016114a8929190611fd4565b60408051601f198184030181529190526020810180516001600160e01b03166309710a9d60e41b179052611992565b61151a816040516024016114eb9190611fc1565b60408051601f198184030181529190526020810180516001600160e01b031663104c13eb60e21b179052611992565b50565b816001600160a01b0316836001600160a01b031614156115915760405162461bcd60e51b815260206004820152602960248201527f455243313135353a2073657474696e6720617070726f76616c20737461747573604482015268103337b91039b2b63360b91b6064820152608401610523565b6001600160a01b03838116600081815260016020908152604080832094871680845294825291829020805460ff191686151590811790915591519182527f17307eab39ab6107e8899845ad3d59bd9653f200f220920489ca2b5937696c31910160405180910390a3505050565b6001600160a01b0384166116245760405162461bcd60e51b81526004016105239061203e565b3361163481878761106f88611712565b6000848152602081815260408083206001600160a01b038a168452909152902054838110156116755760405162461bcd60e51b815260040161052390612083565b6000858152602081815260408083206001600160a01b038b81168552925280832087850390559088168252812080548692906116b29084906120f1565b909155505060408051868152602081018690526001600160a01b03808916928a821692918616917fc3d58168c5ae7397731d063d5bbf3d657854427343f4c083240f7aacaa2d0f62910160405180910390a4610d0482888888888861175d565b6040805160018082528183019092526060916000919060208083019080368337019050509050828160008151811061174c5761174c612227565b602090810291909101015292915050565b6001600160a01b0384163b156112dd5760405163f23a6e6160e01b81526001600160a01b0385169063f23a6e61906117a19089908990889088908890600401611f44565b602060405180830381600087803b1580156117bb57600080fd5b505af19250505080156117eb575060408051601f3d908101601f191682019092526117e891810190611d72565b60015b611898576117f7612253565b806308c379a01415611831575061180c61226f565b806118175750611833565b8060405162461bcd60e51b81526004016105239190611fc1565b505b60405162461bcd60e51b815260206004820152603460248201527f455243313135353a207472616e7366657220746f206e6f6e20455243313135356044820152732932b1b2b4bb32b91034b6b83632b6b2b73a32b960611b6064820152608401610523565b6001600160e01b0319811663f23a6e6160e01b14610d045760405162461bcd60e51b815260040161052390611ff6565b6001600160a01b0384163b156112dd5760405163bc197c8160e01b81526001600160a01b0385169063bc197c819061190c9089908990889088908890600401611ee6565b602060405180830381600087803b15801561192657600080fd5b505af1925050508015611956575060408051601f3d908101601f1916820190925261195391810190611d72565b60015b611962576117f7612253565b6001600160e01b0319811663bc197c8160e01b14610d045760405162461bcd60e51b815260040161052390611ff6565b80516a636f6e736f6c652e6c6f67602083016000808483855afa5050505050565b80356001600160a01b03811681146119ca57600080fd5b919050565b600082601f8301126119e057600080fd5b813560206119ed826120cd565b6040516119fa828261219f565b8381528281019150858301600585901b87018401881015611a1a57600080fd5b60005b85811015611a3957813584529284019290840190600101611a1d565b5090979650505050505050565b600082601f830112611a5757600080fd5b813567ffffffffffffffff811115611a7157611a7161223d565b604051611a88601f8301601f19166020018261219f565b818152846020838601011115611a9d57600080fd5b816020850160208301376000918101602001919091529392505050565b600060208284031215611acc57600080fd5b611ad5826119b3565b9392505050565b60008060408385031215611aef57600080fd5b611af8836119b3565b9150611b06602084016119b3565b90509250929050565b600080600080600060a08688031215611b2757600080fd5b611b30866119b3565b9450611b3e602087016119b3565b9350604086013567ffffffffffffffff80821115611b5b57600080fd5b611b6789838a016119cf565b94506060880135915080821115611b7d57600080fd5b611b8989838a016119cf565b93506080880135915080821115611b9f57600080fd5b50611bac88828901611a46565b9150509295509295909350565b600080600080600060a08688031215611bd157600080fd5b611bda866119b3565b9450611be8602087016119b3565b93506040860135925060608601359150608086013567ffffffffffffffff811115611c1257600080fd5b611bac88828901611a46565b60008060408385031215611c3157600080fd5b611c3a836119b3565b915060208301358015158114611c4f57600080fd5b809150509250929050565b60008060408385031215611c6d57600080fd5b611c76836119b3565b946020939093013593505050565b60008060408385031215611c9757600080fd5b823567ffffffffffffffff80821115611caf57600080fd5b818501915085601f830112611cc357600080fd5b81356020611cd0826120cd565b604051611cdd828261219f565b8381528281019150858301600585901b870184018b1015611cfd57600080fd5b600096505b84871015611d2757611d13816119b3565b835260019690960195918301918301611d02565b5096505086013592505080821115611d3e57600080fd5b50611d4b858286016119cf565b9150509250929050565b600060208284031215611d6757600080fd5b8135611ad5816122f9565b600060208284031215611d8457600080fd5b8151611ad5816122f9565b600060208284031215611da157600080fd5b5035919050565b600081518084526020808501945080840160005b83811015611dd857815187529582019590820190600101611dbc565b509495945050505050565b60008151808452611dfb816020860160208601612134565b601f01601f19169290920160200192915050565b60008151611e21818560208601612134565b9290920192915050565b600080845481600182811c915080831680611e4757607f831692505b6020808410821415611e6757634e487b7160e01b86526022600452602486fd5b818015611e7b5760018114611e8c57611eb9565b60ff19861689528489019650611eb9565b60008b81526020902060005b86811015611eb15781548b820152908501908301611e98565b505084890196505b505050505050611edd611ecc8286611e0f565b64173539b7b760d91b815260050190565b95945050505050565b6001600160a01b0386811682528516602082015260a060408201819052600090611f1290830186611da8565b8281036060840152611f248186611da8565b90508281036080840152611f388185611de3565b98975050505050505050565b6001600160a01b03868116825285166020820152604081018490526060810183905260a060808201819052600090611f7e90830184611de3565b979650505050505050565b602081526000611ad56020830184611da8565b604081526000611faf6040830185611da8565b8281036020840152611edd8185611da8565b602081526000611ad56020830184611de3565b604081526000611fe76040830185611de3565b90508260208301529392505050565b60208082526028908201527f455243313135353a204552433131353552656365697665722072656a656374656040820152676420746f6b656e7360c01b606082015260800190565b60208082526025908201527f455243313135353a207472616e7366657220746f20746865207a65726f206164604082015264647265737360d81b606082015260800190565b6020808252602a908201527f455243313135353a20696e73756666696369656e742062616c616e636520666f60408201526939103a3930b739b332b960b11b606082015260800190565b600067ffffffffffffffff8211156120e7576120e761223d565b5060051b60200190565b60008219821115612104576121046121fb565b500190565b60008261211857612118612211565b500490565b60008282101561212f5761212f6121fb565b500390565b60005b8381101561214f578181015183820152602001612137565b8381111561215e576000848401525b50505050565b600181811c9082168061217857607f821691505b6020821081141561219957634e487b7160e01b600052602260045260246000fd5b50919050565b601f8201601f1916810167ffffffffffffffff811182821017156121c5576121c561223d565b6040525050565b60006000198214156121e0576121e06121fb565b5060010190565b6000826121f6576121f6612211565b500690565b634e487b7160e01b600052601160045260246000fd5b634e487b7160e01b600052601260045260246000fd5b634e487b7160e01b600052603260045260246000fd5b634e487b7160e01b600052604160045260246000fd5b600060033d111561226c5760046000803e5060005160e01c5b90565b600060443d101561227d5790565b6040516003193d81016004833e81513d67ffffffffffffffff81602484011181841117156122ad57505050505090565b82850191508151818111156122c55750505050505090565b843d87010160208285010111156122df5750505050505090565b6122ee6020828601018761219f565b509095945050505050565b6001600160e01b03198116811461151a57600080fdfea2646970667358221220c40ccb062d27846e96a2a03f013ac55414a92219f48c01c0babab747f10bbe8c64736f6c63430008070033697066733a2f2f516d634a3162516242523368556f733155614c6d3776326d46784a39796b484556357a4c4c6d595770637038424e2f",
  "linkReferences": {},
  "deployedLinkReferences": {}
}