{
  "_format": "hh-sol-artifact-1",
  "contractName": "Chem",
  "sourceName": "contracts/Chem.sol",
  "abi": [
    {
      "inputs": [],
      "stateMutability": "nonpayable",
      "type": "constructor"
    },
    {
      "anonymous": false,
      "inputs": [
        {
          "indexed": true,
          "internalType": "address",
          "name": "account",
          "type": "address"
        },
        {
          "indexed": true,
          "internalType": "address",
          "name": "operator",
          "type": "address"
        },
        {
          "indexed": false,
          "internalType": "bool",
          "name": "approved",
          "type": "bool"
        }
      ],
      "name": "ApprovalForAll",
      "type": "event"
    },
    {
      "anonymous": false,
      "inputs": [
        {
          "indexed": true,
          "internalType": "address",
          "name": "operator",
          "type": "address"
        },
        {
          "indexed": true,
          "internalType": "address",
          "name": "from",
          "type": "address"
        },
        {
          "indexed": true,
          "internalType": "address",
          "name": "to",
          "type": "address"
        },
        {
          "indexed": false,
          "internalType": "uint256[]",
          "name": "ids",
          "type": "uint256[]"
        },
        {
          "indexed": false,
          "internalType": "uint256[]",
          "name": "values",
          "type": "uint256[]"
        }
      ],
      "name": "TransferBatch",
      "type": "event"
    },
    {
      "anonymous": false,
      "inputs": [
        {
          "indexed": true,
          "internalType": "address",
          "name": "operator",
          "type": "address"
        },
        {
          "indexed": true,
          "internalType": "address",
          "name": "from",
          "type": "address"
        },
        {
          "indexed": true,
          "internalType": "address",
          "name": "to",
          "type": "address"
        },
        {
          "indexed": false,
          "internalType": "uint256",
          "name": "id",
          "type": "uint256"
        },
        {
          "indexed": false,
          "internalType": "uint256",
          "name": "value",
          "type": "uint256"
        }
      ],
      "name": "TransferSingle",
      "type": "event"
    },
    {
      "anonymous": false,
      "inputs": [
        {
          "indexed": false,
          "internalType": "string",
          "name": "value",
          "type": "string"
        },
        {
          "indexed": true,
          "internalType": "uint256",
          "name": "id",
          "type": "uint256"
        }
      ],
      "name": "URI",
      "type": "event"
    },
    {
      "inputs": [],
      "name": "Beryllium",
      "outputs": [
        {
          "internalType": "uint256",
          "name": "",
          "type": "uint256"
        }
      ],
      "stateMutability": "view",
      "type": "function"
    },
    {
      "inputs": [],
      "name": "Elements",
      "outputs": [
        {
          "internalType": "string",
          "name": "",
          "type": "string"
        }
      ],
      "stateMutability": "view",
      "type": "function"
    },
    {
      "inputs": [],
      "name": "Helium",
      "outputs": [
        {
          "internalType": "uint256",
          "name": "",
          "type": "uint256"
        }
      ],
      "stateMutability": "view",
      "type": "function"
    },
    {
      "inputs": [],
      "name": "Hydrogen",
      "outputs": [
        {
          "internalType": "uint256",
          "name": "",
          "type": "uint256"
        }
      ],
      "stateMutability": "view",
      "type": "function"
    },
    {
      "inputs": [],
      "name": "Lithium",
      "outputs": [
        {
          "internalType": "uint256",
          "name": "",
          "type": "uint256"
        }
      ],
      "stateMutability": "view",
      "type": "function"
    },
    {
      "inputs": [],
      "name": "Oxygen",
      "outputs": [
        {
          "internalType": "uint256",
          "name": "",
          "type": "uint256"
        }
      ],
      "stateMutability": "view",
      "type": "function"
    },
    {
      "inputs": [],
      "name": "Water",
      "outputs": [
        {
          "internalType": "uint256",
          "name": "",
          "type": "uint256"
        }
      ],
      "stateMutability": "view",
      "type": "function"
    },
    {
      "inputs": [
        {
          "internalType": "address",
          "name": "account",
          "type": "address"
        },
        {
          "internalType": "uint256",
          "name": "id",
          "type": "uint256"
        }
      ],
      "name": "balanceOf",
      "outputs": [
        {
          "internalType": "uint256",
          "name": "",
          "type": "uint256"
        }
      ],
      "stateMutability": "view",
      "type": "function"
    },
    {
      "inputs": [
        {
          "internalType": "address[]",
          "name": "accounts",
          "type": "address[]"
        },
        {
          "internalType": "uint256[]",
          "name": "ids",
          "type": "uint256[]"
        }
      ],
      "name": "balanceOfBatch",
      "outputs": [
        {
          "internalType": "uint256[]",
          "name": "",
          "type": "uint256[]"
        }
      ],
      "stateMutability": "view",
      "type": "function"
    },
    {
      "inputs": [],
      "name": "cheapBeaker",
      "outputs": [
        {
          "internalType": "uint256",
          "name": "",
          "type": "uint256"
        }
      ],
      "stateMutability": "view",
      "type": "function"
    },
    {
      "inputs": [],
      "name": "createWater",
      "outputs": [],
      "stateMutability": "nonpayable",
      "type": "function"
    },
    {
      "inputs": [],
      "name": "epicBeaker",
      "outputs": [
        {
          "internalType": "uint256",
          "name": "",
          "type": "uint256"
        }
      ],
      "stateMutability": "view",
      "type": "function"
    },
    {
      "inputs": [
        {
          "internalType": "address",
          "name": "account",
          "type": "address"
        },
        {
          "internalType": "address",
          "name": "operator",
          "type": "address"
        }
      ],
      "name": "isApprovedForAll",
      "outputs": [
        {
          "internalType": "bool",
          "name": "",
          "type": "bool"
        }
      ],
      "stateMutability": "view",
      "type": "function"
    },
    {
      "inputs": [
        {
          "internalType": "uint256",
          "name": "_amount",
          "type": "uint256"
        }
      ],
      "name": "mintBeryllium",
      "outputs": [],
      "stateMutability": "nonpayable",
      "type": "function"
    },
    {
      "inputs": [
        {
          "internalType": "uint256",
          "name": "_amount",
          "type": "uint256"
        }
      ],
      "name": "mintCheapBeaker",
      "outputs": [],
      "stateMutability": "nonpayable",
      "type": "function"
    },
    {
      "inputs": [
        {
          "internalType": "uint256",
          "name": "_amount",
          "type": "uint256"
        }
      ],
      "name": "mintEpicBeaker",
      "outputs": [],
      "stateMutability": "nonpayable",
      "type": "function"
    },
    {
      "inputs": [
        {
          "internalType": "uint256",
          "name": "_amount",
          "type": "uint256"
        }
      ],
      "name": "mintHelium",
      "outputs": [],
      "stateMutability": "nonpayable",
      "type": "function"
    },
    {
      "inputs": [
        {
          "internalType": "uint256",
          "name": "_amount",
          "type": "uint256"
        }
      ],
      "name": "mintHydrogen",
      "outputs": [],
      "stateMutability": "nonpayable",
      "type": "function"
    },
    {
      "inputs": [
        {
          "internalType": "uint256",
          "name": "_amount",
          "type": "uint256"
        }
      ],
      "name": "mintLithium",
      "outputs": [],
      "stateMutability": "nonpayable",
      "type": "function"
    },
    {
      "inputs": [
        {
          "internalType": "uint256",
          "name": "_amount",
          "type": "uint256"
        }
      ],
      "name": "mintOxygen",
      "outputs": [],
      "stateMutability": "nonpayable",
      "type": "function"
    },
    {
      "inputs": [
        {
          "internalType": "uint256",
          "name": "_amount",
          "type": "uint256"
        }
      ],
      "name": "mintRegularBeaker",
      "outputs": [],
      "stateMutability": "nonpayable",
      "type": "function"
    },
    {
      "inputs": [],
      "name": "name",
      "outputs": [
        {
          "internalType": "string",
          "name": "",
          "type": "string"
        }
      ],
      "stateMutability": "pure",
      "type": "function"
    },
    {
      "inputs": [],
      "name": "regularBeaker",
      "outputs": [
        {
          "internalType": "uint256",
          "name": "",
          "type": "uint256"
        }
      ],
      "stateMutability": "view",
      "type": "function"
    },
    {
      "inputs": [
        {
          "internalType": "address",
          "name": "from",
          "type": "address"
        },
        {
          "internalType": "address",
          "name": "to",
          "type": "address"
        },
        {
          "internalType": "uint256[]",
          "name": "ids",
          "type": "uint256[]"
        },
        {
          "internalType": "uint256[]",
          "name": "amounts",
          "type": "uint256[]"
        },
        {
          "internalType": "bytes",
          "name": "data",
          "type": "bytes"
        }
      ],
      "name": "safeBatchTransferFrom",
      "outputs": [],
      "stateMutability": "nonpayable",
      "type": "function"
    },
    {
      "inputs": [
        {
          "internalType": "address",
          "name": "from",
          "type": "address"
        },
        {
          "internalType": "address",
          "name": "to",
          "type": "address"
        },
        {
          "internalType": "uint256",
          "name": "id",
          "type": "uint256"
        },
        {
          "internalType": "uint256",
          "name": "amount",
          "type": "uint256"
        },
        {
          "internalType": "bytes",
          "name": "data",
          "type": "bytes"
        }
      ],
      "name": "safeTransferFrom",
      "outputs": [],
      "stateMutability": "nonpayable",
      "type": "function"
    },
    {
      "inputs": [
        {
          "internalType": "address",
          "name": "operator",
          "type": "address"
        },
        {
          "internalType": "bool",
          "name": "approved",
          "type": "bool"
        }
      ],
      "name": "setApprovalForAll",
      "outputs": [],
      "stateMutability": "nonpayable",
      "type": "function"
    },
    {
      "inputs": [
        {
          "internalType": "address",
          "name": "",
          "type": "address"
        },
        {
          "internalType": "uint256",
          "name": "",
          "type": "uint256"
        }
      ],
      "name": "supplyBalance",
      "outputs": [
        {
          "internalType": "uint256",
          "name": "",
          "type": "uint256"
        }
      ],
      "stateMutability": "view",
      "type": "function"
    },
    {
      "inputs": [
        {
          "internalType": "bytes4",
          "name": "interfaceId",
          "type": "bytes4"
        }
      ],
      "name": "supportsInterface",
      "outputs": [
        {
          "internalType": "bool",
          "name": "",
          "type": "bool"
        }
      ],
      "stateMutability": "view",
      "type": "function"
    },
    {
      "inputs": [],
      "name": "symbol",
      "outputs": [
        {
          "internalType": "string",
          "name": "",
          "type": "string"
        }
      ],
      "stateMutability": "pure",
      "type": "function"
    },
    {
      "inputs": [
        {
          "internalType": "uint256",
          "name": "_tokenId",
          "type": "uint256"
        }
      ],
      "name": "uri",
      "outputs": [
        {
          "internalType": "string",
          "name": "",
          "type": "string"
        }
      ],
      "stateMutability": "view",
      "type": "function"
    }
  ],
  "bytecode": "0x60e060405260366080818152906200240e60a03980516200002991600491602090910190620000fc565b503480156200003757600080fd5b50600480546200004790620001a2565b80601f01602080910402602001604051908101604052809291908181526020018280546200007590620001a2565b8015620000c65780601f106200009a57610100808354040283529160200191620000c6565b820191906000526020600020905b815481529060010190602001808311620000a857829003601f168201915b5050505050620000dc81620000e360201b60201c565b50620001df565b8051620000f8906002906020840190620000fc565b5050565b8280546200010a90620001a2565b90600052602060002090601f0160209004810192826200012e576000855562000179565b82601f106200014957805160ff191683800117855562000179565b8280016001018555821562000179579182015b82811115620001795782518255916020019190600101906200015c565b50620001879291506200018b565b5090565b5b808211156200018757600081556001016200018c565b600181811c90821680620001b757607f821691505b60208210811415620001d957634e487b7160e01b600052602260045260246000fd5b50919050565b61221f80620001ef6000396000f3fe608060405234801561001057600080fd5b50600436106101d95760003560e01c80636e69adcf11610104578063a22cb465116100a2578063e985e9c511610071578063e985e9c5146103d2578063eee0d9e21461040e578063f242432a14610416578063f6f104c01461042957600080fd5b8063a22cb465146103a6578063abc40ce4146103b9578063ae365e20146103c1578063b63426b3146103ca57600080fd5b80637d35a257116100de5780637d35a257146103635780638fcb43251461036b5780639280d8ee1461037357806395d89b411461038657600080fd5b80636e69adcf1461034a57806377b07f6b146103525780637b5fdac41461035a57600080fd5b80632e4712f01161017c5780634e1273f41161014b5780634e1273f4146102fb5780635a0c38d41461031b5780635b5d897f146103245780636d5460831461033757600080fd5b80632e4712f0146102ba5780632eb2c2d6146102cd57806335926b9c146102e0578063403c617e146102f357600080fd5b80630e89341c116101b85780630e89341c14610254578063159907de146102675780632014218a14610292578063225abdbd146102a757600080fd5b8062fdd58e146101de57806301ffc9a71461020457806306fdde0314610227575b600080fd5b6101f16101ec366004611b2d565b61043c565b6040519081526020015b60405180910390f35b610217610212366004611c28565b6104d3565b60405190151581526020016101fb565b604080518082019091526008815267456c656d656e747360c01b60208201525b6040516101fb9190611e9b565b610247610262366004611c69565b610525565b6101f1610275366004611b2d565b600560209081526000928352604080842090915290825290205481565b6102a56102a0366004611c69565b610559565b005b6102a56102b5366004611c69565b6105bb565b6102a56102c8366004611c69565b61061d565b6102a56102db3660046119e2565b610682565b6102a56102ee366004611c69565b610719565b6101f1600181565b61030e610309366004611b57565b61077b565b6040516101fb9190611e63565b6101f16103e881565b6102a5610332366004611c69565b6108a5565b6102a5610345366004611c69565b610907565b6101f160c881565b6101f1600381565b6101f16103ea81565b6102a561096c565b6101f1600481565b6102a5610381366004611c69565b610c02565b6040805180820190915260048152631153135560e21b6020820152610247565b6102a56103b4366004611af1565b610c64565b6101f1600281565b6101f16103e981565b6101f1600881565b6102176103e03660046119af565b6001600160a01b03918216600090815260016020908152604080832093909416825291909152205460ff1690565b610247610c73565b6102a5610424366004611a8c565b610d01565b6102a5610437366004611c69565b610d88565b60006001600160a01b0383166104ad5760405162461bcd60e51b815260206004820152602b60248201527f455243313135353a2062616c616e636520717565727920666f7220746865207a60448201526a65726f206164647265737360a81b60648201526084015b60405180910390fd5b506000908152602081815260408083206001600160a01b03949094168352929052205490565b60006001600160e01b03198216636cdb3d1360e11b148061050457506001600160e01b031982166303a24d0760e21b145b8061051f57506301ffc9a760e01b6001600160e01b03198316145b92915050565b6060600461053283610ded565b604051602001610543929190611d05565b6040516020818303038152906040529050919050565b6105753360018360405180602001604052806000815250610ef3565b3360009081526005602090815260408083206001845290915290205461059c908290611fcb565b3360009081526005602090815260408083206001845290915290205550565b6105d73360038360405180602001604052806000815250610ef3565b336000908152600560209081526040808320600384529091529020546105fe908290611fcb565b3360009081526005602090815260408083206003845290915290205550565b61063a336103ea8360405180602001604052806000815250610ef3565b3360009081526005602090815260408083206103ea8452909152902054610662908290611fcb565b3360009081526005602090815260408083206103ea845290915290205550565b6001600160a01b03851633148061069e575061069e85336103e0565b6107055760405162461bcd60e51b815260206004820152603260248201527f455243313135353a207472616e736665722063616c6c6572206973206e6f74206044820152711bdddb995c881b9bdc88185c1c1c9bdd995960721b60648201526084016104a4565b6107128585858585610ffd565b5050505050565b6107353360088360405180602001604052806000815250610ef3565b3360009081526005602090815260408083206008845290915290205461075c908290611fcb565b3360009081526005602090815260408083206008845290915290205550565b606081518351146107e05760405162461bcd60e51b815260206004820152602960248201527f455243313135353a206163636f756e747320616e6420696473206c656e677468604482015268040dad2e6dac2e8c6d60bb1b60648201526084016104a4565b6000835167ffffffffffffffff8111156107fc576107fc612117565b604051908082528060200260200182016040528015610825578160200160208202803683370190505b50905060005b845181101561089d5761087085828151811061084957610849612101565b602002602001015185838151811061086357610863612101565b602002602001015161043c565b82828151811061088257610882612101565b6020908102919091010152610896816120a6565b905061082b565b509392505050565b6108c13360028360405180602001604052806000815250610ef3565b336000908152600560209081526040808320600284529091529020546108e8908290611fcb565b3360009081526005602090815260408083206002845290915290205550565b610924336103e88360405180602001604052806000815250610ef3565b3360009081526005602090815260408083206103e8845290915290205461094c908290611fcb565b3360009081526005602090815260408083206103e8845290915290205550565b336000908152600560209081526040808320600180855292528083205460088452922054906002908082808610156109dc5760405162461bcd60e51b81526020600482015260136024820152722737ba1022b737bab3b410243cb23937b3b2b760691b60448201526064016104a4565b82851015610a205760405162461bcd60e51b81526020600482015260116024820152702737ba1022b737bab3b41027bc3cb3b2b760791b60448201526064016104a4565b610a2c336001866111da565b33600090815260056020908152604080832060018452909152902054610a53908590611ff7565b33600081815260056020908152604080832060018452909152902091909155610a7e906008856111da565b33600090815260056020908152604080832060088452909152902054610aa5908490611ff7565b33600090815260056020908152604080832060088452909152812091909155610acc611354565b9050610b01604051806040016040528060118152602001703930b73237b690373ab6b132b91034b99d60791b81525082611387565b6032811115610b6e57610b263360c88560405180602001604052806000815250610ef3565b33600090815260056020908152604080832060c88452909152902054610b4d908490611fcb565b33600090815260056020908152604080832060c88452909152902055610bf9565b610b9860405180604001604052806009815260200168189bdb9d5cc81a1a5d60ba1b8152506113cc565b610bb53360c8600260405180602001604052806000815250610ef3565b33600090815260056020908152604080832060c88452909152902054610bdc908390611fcb565b33600090815260056020908152604080832060c884529091529020555b50505050505050565b610c1e3360048360405180602001604052806000815250610ef3565b33600090815260056020908152604080832060048452909152902054610c45908290611fcb565b3360009081526005602090815260408083206004845290915290205550565b610c6f338383611412565b5050565b60048054610c809061203e565b80601f0160208091040260200160405190810160405280929190818152602001828054610cac9061203e565b8015610cf95780601f10610cce57610100808354040283529160200191610cf9565b820191906000526020600020905b815481529060010190602001808311610cdc57829003601f168201915b505050505081565b6001600160a01b038516331480610d1d5750610d1d85336103e0565b610d7b5760405162461bcd60e51b815260206004820152602960248201527f455243313135353a2063616c6c6572206973206e6f74206f776e6572206e6f7260448201526808185c1c1c9bdd995960ba1b60648201526084016104a4565b61071285858585856114f3565b610da5336103e98360405180602001604052806000815250610ef3565b3360009081526005602090815260408083206103e98452909152902054610dcd908290611fcb565b3360009081526005602090815260408083206103e9845290915290205550565b606081610e115750506040805180820190915260018152600360fc1b602082015290565b8160005b8115610e3b5780610e25816120a6565b9150610e349050600a83611fe3565b9150610e15565b60008167ffffffffffffffff811115610e5657610e56612117565b6040519080825280601f01601f191660200182016040528015610e80576020820181803683370190505b5090505b8415610eeb57610e95600183611ff7565b9150610ea2600a866120c1565b610ead906030611fcb565b60f81b818381518110610ec257610ec2612101565b60200101906001600160f81b031916908160001a905350610ee4600a86611fe3565b9450610e84565b949350505050565b6001600160a01b038416610f535760405162461bcd60e51b815260206004820152602160248201527f455243313135353a206d696e7420746f20746865207a65726f206164647265736044820152607360f81b60648201526084016104a4565b33610f6d81600087610f6488611607565b61071288611607565b6000848152602081815260408083206001600160a01b038916845290915281208054859290610f9d908490611fcb565b909155505060408051858152602081018590526001600160a01b0380881692600092918516917fc3d58168c5ae7397731d063d5bbf3d657854427343f4c083240f7aacaa2d0f62910160405180910390a461071281600087878787611652565b815183511461105f5760405162461bcd60e51b815260206004820152602860248201527f455243313135353a2069647320616e6420616d6f756e7473206c656e677468206044820152670dad2e6dac2e8c6d60c31b60648201526084016104a4565b6001600160a01b0384166110855760405162461bcd60e51b81526004016104a490611f18565b3360005b845181101561116c5760008582815181106110a6576110a6612101565b6020026020010151905060008583815181106110c4576110c4612101565b602090810291909101810151600084815280835260408082206001600160a01b038e1683529093529190912054909150818110156111145760405162461bcd60e51b81526004016104a490611f5d565b6000838152602081815260408083206001600160a01b038e8116855292528083208585039055908b16825281208054849290611151908490611fcb565b9250508190555050505080611165906120a6565b9050611089565b50846001600160a01b0316866001600160a01b0316826001600160a01b03167f4a39dc06d4c0dbc64b70af90fd698a233a518aa5d07e595d983b8c0526c8f7fb87876040516111bc929190611e76565b60405180910390a46111d28187878787876117bd565b505050505050565b6001600160a01b03831661123c5760405162461bcd60e51b815260206004820152602360248201527f455243313135353a206275726e2066726f6d20746865207a65726f206164647260448201526265737360e81b60648201526084016104a4565b3361126c8185600061124d87611607565b61125687611607565b5050604080516020810190915260009052505050565b6000838152602081815260408083206001600160a01b0388168452909152902054828110156112e95760405162461bcd60e51b8152602060048201526024808201527f455243313135353a206275726e20616d6f756e7420657863656564732062616c604482015263616e636560e01b60648201526084016104a4565b6000848152602081815260408083206001600160a01b03898116808652918452828520888703905582518981529384018890529092908616917fc3d58168c5ae7397731d063d5bbf3d657854427343f4c083240f7aacaa2d0f62910160405180910390a45050505050565b600080606460035442446113689190611fcb565b6113729190611fcb565b61137c91906120c1565b600381905592915050565b610c6f828260405160240161139d929190611eae565b60408051601f198184030181529190526020810180516001600160e01b03166309710a9d60e41b179052611887565b61140f816040516024016113e09190611e9b565b60408051601f198184030181529190526020810180516001600160e01b031663104c13eb60e21b179052611887565b50565b816001600160a01b0316836001600160a01b031614156114865760405162461bcd60e51b815260206004820152602960248201527f455243313135353a2073657474696e6720617070726f76616c20737461747573604482015268103337b91039b2b63360b91b60648201526084016104a4565b6001600160a01b03838116600081815260016020908152604080832094871680845294825291829020805460ff191686151590811790915591519182527f17307eab39ab6107e8899845ad3d59bd9653f200f220920489ca2b5937696c31910160405180910390a3505050565b6001600160a01b0384166115195760405162461bcd60e51b81526004016104a490611f18565b33611529818787610f6488611607565b6000848152602081815260408083206001600160a01b038a1684529091529020548381101561156a5760405162461bcd60e51b81526004016104a490611f5d565b6000858152602081815260408083206001600160a01b038b81168552925280832087850390559088168252812080548692906115a7908490611fcb565b909155505060408051868152602081018690526001600160a01b03808916928a821692918616917fc3d58168c5ae7397731d063d5bbf3d657854427343f4c083240f7aacaa2d0f62910160405180910390a4610bf9828888888888611652565b6040805160018082528183019092526060916000919060208083019080368337019050509050828160008151811061164157611641612101565b602090810291909101015292915050565b6001600160a01b0384163b156111d25760405163f23a6e6160e01b81526001600160a01b0385169063f23a6e61906116969089908990889088908890600401611e1e565b602060405180830381600087803b1580156116b057600080fd5b505af19250505080156116e0575060408051601f3d908101601f191682019092526116dd91810190611c4c565b60015b61178d576116ec61212d565b806308c379a014156117265750611701612149565b8061170c5750611728565b8060405162461bcd60e51b81526004016104a49190611e9b565b505b60405162461bcd60e51b815260206004820152603460248201527f455243313135353a207472616e7366657220746f206e6f6e20455243313135356044820152732932b1b2b4bb32b91034b6b83632b6b2b73a32b960611b60648201526084016104a4565b6001600160e01b0319811663f23a6e6160e01b14610bf95760405162461bcd60e51b81526004016104a490611ed0565b6001600160a01b0384163b156111d25760405163bc197c8160e01b81526001600160a01b0385169063bc197c81906118019089908990889088908890600401611dc0565b602060405180830381600087803b15801561181b57600080fd5b505af192505050801561184b575060408051601f3d908101601f1916820190925261184891810190611c4c565b60015b611857576116ec61212d565b6001600160e01b0319811663bc197c8160e01b14610bf95760405162461bcd60e51b81526004016104a490611ed0565b80516a636f6e736f6c652e6c6f67602083016000808483855afa5050505050565b80356001600160a01b03811681146118bf57600080fd5b919050565b600082601f8301126118d557600080fd5b813560206118e282611fa7565b6040516118ef8282612079565b8381528281019150858301600585901b8701840188101561190f57600080fd5b60005b8581101561192e57813584529284019290840190600101611912565b5090979650505050505050565b600082601f83011261194c57600080fd5b813567ffffffffffffffff81111561196657611966612117565b60405161197d601f8301601f191660200182612079565b81815284602083860101111561199257600080fd5b816020850160208301376000918101602001919091529392505050565b600080604083850312156119c257600080fd5b6119cb836118a8565b91506119d9602084016118a8565b90509250929050565b600080600080600060a086880312156119fa57600080fd5b611a03866118a8565b9450611a11602087016118a8565b9350604086013567ffffffffffffffff80821115611a2e57600080fd5b611a3a89838a016118c4565b94506060880135915080821115611a5057600080fd5b611a5c89838a016118c4565b93506080880135915080821115611a7257600080fd5b50611a7f8882890161193b565b9150509295509295909350565b600080600080600060a08688031215611aa457600080fd5b611aad866118a8565b9450611abb602087016118a8565b93506040860135925060608601359150608086013567ffffffffffffffff811115611ae557600080fd5b611a7f8882890161193b565b60008060408385031215611b0457600080fd5b611b0d836118a8565b915060208301358015158114611b2257600080fd5b809150509250929050565b60008060408385031215611b4057600080fd5b611b49836118a8565b946020939093013593505050565b60008060408385031215611b6a57600080fd5b823567ffffffffffffffff80821115611b8257600080fd5b818501915085601f830112611b9657600080fd5b81356020611ba382611fa7565b604051611bb08282612079565b8381528281019150858301600585901b870184018b1015611bd057600080fd5b600096505b84871015611bfa57611be6816118a8565b835260019690960195918301918301611bd5565b5096505086013592505080821115611c1157600080fd5b50611c1e858286016118c4565b9150509250929050565b600060208284031215611c3a57600080fd5b8135611c45816121d3565b9392505050565b600060208284031215611c5e57600080fd5b8151611c45816121d3565b600060208284031215611c7b57600080fd5b5035919050565b600081518084526020808501945080840160005b83811015611cb257815187529582019590820190600101611c96565b509495945050505050565b60008151808452611cd581602086016020860161200e565b601f01601f19169290920160200192915050565b60008151611cfb81856020860161200e565b9290920192915050565b600080845481600182811c915080831680611d2157607f831692505b6020808410821415611d4157634e487b7160e01b86526022600452602486fd5b818015611d555760018114611d6657611d93565b60ff19861689528489019650611d93565b60008b81526020902060005b86811015611d8b5781548b820152908501908301611d72565b505084890196505b505050505050611db7611da68286611ce9565b64173539b7b760d91b815260050190565b95945050505050565b6001600160a01b0386811682528516602082015260a060408201819052600090611dec90830186611c82565b8281036060840152611dfe8186611c82565b90508281036080840152611e128185611cbd565b98975050505050505050565b6001600160a01b03868116825285166020820152604081018490526060810183905260a060808201819052600090611e5890830184611cbd565b979650505050505050565b602081526000611c456020830184611c82565b604081526000611e896040830185611c82565b8281036020840152611db78185611c82565b602081526000611c456020830184611cbd565b604081526000611ec16040830185611cbd565b90508260208301529392505050565b60208082526028908201527f455243313135353a204552433131353552656365697665722072656a656374656040820152676420746f6b656e7360c01b606082015260800190565b60208082526025908201527f455243313135353a207472616e7366657220746f20746865207a65726f206164604082015264647265737360d81b606082015260800190565b6020808252602a908201527f455243313135353a20696e73756666696369656e742062616c616e636520666f60408201526939103a3930b739b332b960b11b606082015260800190565b600067ffffffffffffffff821115611fc157611fc1612117565b5060051b60200190565b60008219821115611fde57611fde6120d5565b500190565b600082611ff257611ff26120eb565b500490565b600082821015612009576120096120d5565b500390565b60005b83811015612029578181015183820152602001612011565b83811115612038576000848401525b50505050565b600181811c9082168061205257607f821691505b6020821081141561207357634e487b7160e01b600052602260045260246000fd5b50919050565b601f8201601f1916810167ffffffffffffffff8111828210171561209f5761209f612117565b6040525050565b60006000198214156120ba576120ba6120d5565b5060010190565b6000826120d0576120d06120eb565b500690565b634e487b7160e01b600052601160045260246000fd5b634e487b7160e01b600052601260045260246000fd5b634e487b7160e01b600052603260045260246000fd5b634e487b7160e01b600052604160045260246000fd5b600060033d11156121465760046000803e5060005160e01c5b90565b600060443d10156121575790565b6040516003193d81016004833e81513d67ffffffffffffffff816024840111818411171561218757505050505090565b828501915081518181111561219f5750505050505090565b843d87010160208285010111156121b95750505050505090565b6121c860208286010187612079565b509095945050505050565b6001600160e01b03198116811461140f57600080fdfea264697066735822122093a84a3c17257881f441d7a63735fabef491331586099535f1f52b2c70cd18bd64736f6c63430008070033697066733a2f2f516d634a3162516242523368556f733155614c6d3776326d46784a39796b484556357a4c4c6d595770637038424e2f",
  "linkReferences": {},
  "deployedLinkReferences": {}
}