{
  "_format": "hh-sol-artifact-1",
  "contractName": "Chem",
  "sourceName": "contracts/Chem.sol",
  "abi": [
    {
      "inputs": [],
      "stateMutability": "nonpayable",
      "type": "constructor"
    },
    {
      "anonymous": false,
      "inputs": [
        {
          "indexed": true,
          "internalType": "address",
          "name": "account",
          "type": "address"
        },
        {
          "indexed": true,
          "internalType": "address",
          "name": "operator",
          "type": "address"
        },
        {
          "indexed": false,
          "internalType": "bool",
          "name": "approved",
          "type": "bool"
        }
      ],
      "name": "ApprovalForAll",
      "type": "event"
    },
    {
      "anonymous": false,
      "inputs": [
        {
          "indexed": true,
          "internalType": "address",
          "name": "operator",
          "type": "address"
        },
        {
          "indexed": true,
          "internalType": "address",
          "name": "from",
          "type": "address"
        },
        {
          "indexed": true,
          "internalType": "address",
          "name": "to",
          "type": "address"
        },
        {
          "indexed": false,
          "internalType": "uint256[]",
          "name": "ids",
          "type": "uint256[]"
        },
        {
          "indexed": false,
          "internalType": "uint256[]",
          "name": "values",
          "type": "uint256[]"
        }
      ],
      "name": "TransferBatch",
      "type": "event"
    },
    {
      "anonymous": false,
      "inputs": [
        {
          "indexed": true,
          "internalType": "address",
          "name": "operator",
          "type": "address"
        },
        {
          "indexed": true,
          "internalType": "address",
          "name": "from",
          "type": "address"
        },
        {
          "indexed": true,
          "internalType": "address",
          "name": "to",
          "type": "address"
        },
        {
          "indexed": false,
          "internalType": "uint256",
          "name": "id",
          "type": "uint256"
        },
        {
          "indexed": false,
          "internalType": "uint256",
          "name": "value",
          "type": "uint256"
        }
      ],
      "name": "TransferSingle",
      "type": "event"
    },
    {
      "anonymous": false,
      "inputs": [
        {
          "indexed": false,
          "internalType": "string",
          "name": "value",
          "type": "string"
        },
        {
          "indexed": true,
          "internalType": "uint256",
          "name": "id",
          "type": "uint256"
        }
      ],
      "name": "URI",
      "type": "event"
    },
    {
      "inputs": [],
      "name": "Beryllium",
      "outputs": [
        {
          "internalType": "uint256",
          "name": "",
          "type": "uint256"
        }
      ],
      "stateMutability": "view",
      "type": "function"
    },
    {
      "inputs": [],
      "name": "Elements",
      "outputs": [
        {
          "internalType": "string",
          "name": "",
          "type": "string"
        }
      ],
      "stateMutability": "view",
      "type": "function"
    },
    {
      "inputs": [],
      "name": "Helium",
      "outputs": [
        {
          "internalType": "uint256",
          "name": "",
          "type": "uint256"
        }
      ],
      "stateMutability": "view",
      "type": "function"
    },
    {
      "inputs": [],
      "name": "Hydrogen",
      "outputs": [
        {
          "internalType": "uint256",
          "name": "",
          "type": "uint256"
        }
      ],
      "stateMutability": "view",
      "type": "function"
    },
    {
      "inputs": [],
      "name": "Lithium",
      "outputs": [
        {
          "internalType": "uint256",
          "name": "",
          "type": "uint256"
        }
      ],
      "stateMutability": "view",
      "type": "function"
    },
    {
      "inputs": [],
      "name": "Oxygen",
      "outputs": [
        {
          "internalType": "uint256",
          "name": "",
          "type": "uint256"
        }
      ],
      "stateMutability": "view",
      "type": "function"
    },
    {
      "inputs": [],
      "name": "Water",
      "outputs": [
        {
          "internalType": "uint256",
          "name": "",
          "type": "uint256"
        }
      ],
      "stateMutability": "view",
      "type": "function"
    },
    {
      "inputs": [
        {
          "internalType": "address",
          "name": "account",
          "type": "address"
        },
        {
          "internalType": "uint256",
          "name": "id",
          "type": "uint256"
        }
      ],
      "name": "balanceOf",
      "outputs": [
        {
          "internalType": "uint256",
          "name": "",
          "type": "uint256"
        }
      ],
      "stateMutability": "view",
      "type": "function"
    },
    {
      "inputs": [
        {
          "internalType": "address[]",
          "name": "accounts",
          "type": "address[]"
        },
        {
          "internalType": "uint256[]",
          "name": "ids",
          "type": "uint256[]"
        }
      ],
      "name": "balanceOfBatch",
      "outputs": [
        {
          "internalType": "uint256[]",
          "name": "",
          "type": "uint256[]"
        }
      ],
      "stateMutability": "view",
      "type": "function"
    },
    {
      "inputs": [],
      "name": "createWater",
      "outputs": [],
      "stateMutability": "nonpayable",
      "type": "function"
    },
    {
      "inputs": [
        {
          "internalType": "address",
          "name": "account",
          "type": "address"
        },
        {
          "internalType": "address",
          "name": "operator",
          "type": "address"
        }
      ],
      "name": "isApprovedForAll",
      "outputs": [
        {
          "internalType": "bool",
          "name": "",
          "type": "bool"
        }
      ],
      "stateMutability": "view",
      "type": "function"
    },
    {
      "inputs": [
        {
          "internalType": "uint256",
          "name": "_amount",
          "type": "uint256"
        }
      ],
      "name": "mintBeryllium",
      "outputs": [],
      "stateMutability": "nonpayable",
      "type": "function"
    },
    {
      "inputs": [
        {
          "internalType": "uint256",
          "name": "_amount",
          "type": "uint256"
        }
      ],
      "name": "mintHelium",
      "outputs": [],
      "stateMutability": "nonpayable",
      "type": "function"
    },
    {
      "inputs": [
        {
          "internalType": "uint256",
          "name": "_amount",
          "type": "uint256"
        }
      ],
      "name": "mintHydrogen",
      "outputs": [],
      "stateMutability": "nonpayable",
      "type": "function"
    },
    {
      "inputs": [
        {
          "internalType": "uint256",
          "name": "_amount",
          "type": "uint256"
        }
      ],
      "name": "mintLithium",
      "outputs": [],
      "stateMutability": "nonpayable",
      "type": "function"
    },
    {
      "inputs": [
        {
          "internalType": "uint256",
          "name": "_amount",
          "type": "uint256"
        }
      ],
      "name": "mintOxygen",
      "outputs": [],
      "stateMutability": "nonpayable",
      "type": "function"
    },
    {
      "inputs": [
        {
          "internalType": "address",
          "name": "from",
          "type": "address"
        },
        {
          "internalType": "address",
          "name": "to",
          "type": "address"
        },
        {
          "internalType": "uint256[]",
          "name": "ids",
          "type": "uint256[]"
        },
        {
          "internalType": "uint256[]",
          "name": "amounts",
          "type": "uint256[]"
        },
        {
          "internalType": "bytes",
          "name": "data",
          "type": "bytes"
        }
      ],
      "name": "safeBatchTransferFrom",
      "outputs": [],
      "stateMutability": "nonpayable",
      "type": "function"
    },
    {
      "inputs": [
        {
          "internalType": "address",
          "name": "from",
          "type": "address"
        },
        {
          "internalType": "address",
          "name": "to",
          "type": "address"
        },
        {
          "internalType": "uint256",
          "name": "id",
          "type": "uint256"
        },
        {
          "internalType": "uint256",
          "name": "amount",
          "type": "uint256"
        },
        {
          "internalType": "bytes",
          "name": "data",
          "type": "bytes"
        }
      ],
      "name": "safeTransferFrom",
      "outputs": [],
      "stateMutability": "nonpayable",
      "type": "function"
    },
    {
      "inputs": [
        {
          "internalType": "address",
          "name": "operator",
          "type": "address"
        },
        {
          "internalType": "bool",
          "name": "approved",
          "type": "bool"
        }
      ],
      "name": "setApprovalForAll",
      "outputs": [],
      "stateMutability": "nonpayable",
      "type": "function"
    },
    {
      "inputs": [
        {
          "internalType": "bytes4",
          "name": "interfaceId",
          "type": "bytes4"
        }
      ],
      "name": "supportsInterface",
      "outputs": [
        {
          "internalType": "bool",
          "name": "",
          "type": "bool"
        }
      ],
      "stateMutability": "view",
      "type": "function"
    },
    {
      "inputs": [
        {
          "internalType": "uint256",
          "name": "_tokenId",
          "type": "uint256"
        }
      ],
      "name": "uri",
      "outputs": [
        {
          "internalType": "string",
          "name": "",
          "type": "string"
        }
      ],
      "stateMutability": "view",
      "type": "function"
    }
  ],
  "bytecode": "0x60e060405260366080818152906200226e60a039805162000029916003916020909101906200048b565b503480156200003757600080fd5b5060038054620000479062000637565b80601f0160208091040260200160405190810160405280929190818152602001828054620000759062000637565b8015620000c65780601f106200009a57610100808354040283529160200191620000c6565b820191906000526020600020905b815481529060010190602001808311620000a857829003601f168201915b5050505050620000dc816200010760201b60201c565b506200010133600180604051806020016040528060008152506200012060201b60201c565b62000771565b80516200011c9060029060208401906200048b565b5050565b6001600160a01b038416620001865760405162461bcd60e51b815260206004820152602160248201527f455243313135353a206d696e7420746f20746865207a65726f206164647265736044820152607360f81b60648201526084015b60405180910390fd5b33620001ac816000876200019a8862000240565b620001a58862000240565b5050505050565b6000848152602081815260408083206001600160a01b038916845290915281208054859290620001de90849062000610565b909155505060408051858152602081018590526001600160a01b0380881692600092918516917fc3d58168c5ae7397731d063d5bbf3d657854427343f4c083240f7aacaa2d0f62910160405180910390a4620001a58160008787878762000296565b604080516001808252818301909252606091600091906020808301908036833701905050905082816000815181106200027d576200027d620006af565b602090810291909101015292915050565b505050505050565b620002b5846001600160a01b03166200047c60201b620007a41760201c565b156200028e5760405163f23a6e6160e01b81526001600160a01b0385169063f23a6e6190620002f19089908990889088908890600401620005b4565b602060405180830381600087803b1580156200030c57600080fd5b505af19250505080156200033f575060408051601f3d908101601f191682019092526200033c9181019062000531565b60015b62000400576200034e620006c5565b806308c379a014156200038f575062000366620006e2565b8062000373575062000391565b8060405162461bcd60e51b81526004016200017d9190620005fb565b505b60405162461bcd60e51b815260206004820152603460248201527f455243313135353a207472616e7366657220746f206e6f6e204552433131353560448201527f526563656976657220696d706c656d656e74657200000000000000000000000060648201526084016200017d565b6001600160e01b0319811663f23a6e6160e01b14620004735760405162461bcd60e51b815260206004820152602860248201527f455243313135353a204552433131353552656365697665722072656a656374656044820152676420746f6b656e7360c01b60648201526084016200017d565b50505050505050565b6001600160a01b03163b151590565b828054620004999062000637565b90600052602060002090601f016020900481019282620004bd576000855562000508565b82601f10620004d857805160ff191683800117855562000508565b8280016001018555821562000508579182015b8281111562000508578251825591602001919060010190620004eb565b50620005169291506200051a565b5090565b5b808211156200051657600081556001016200051b565b6000602082840312156200054457600080fd5b81516001600160e01b0319811681146200055d57600080fd5b9392505050565b6000815180845260005b818110156200058c576020818501810151868301820152016200056e565b818111156200059f576000602083870101525b50601f01601f19169290920160200192915050565b6001600160a01b03868116825285166020820152604081018490526060810183905260a060808201819052600090620005f09083018462000564565b979650505050505050565b6020815260006200055d602083018462000564565b600082198211156200063257634e487b7160e01b600052601160045260246000fd5b500190565b600181811c908216806200064c57607f821691505b602082108114156200066e57634e487b7160e01b600052602260045260246000fd5b50919050565b601f8201601f191681016001600160401b0381118282101715620006a857634e487b7160e01b600052604160045260246000fd5b6040525050565b634e487b7160e01b600052603260045260246000fd5b600060033d1115620006df5760046000803e5060005160e01c5b90565b600060443d1015620006f15790565b6040516003193d81016004833e81513d6001600160401b0380831160248401831017156200072157505050505090565b82850191508151818111156200073a5750505050505090565b843d8701016020828501011115620007555750505050505090565b620007666020828601018762000674565b509095945050505050565b611aed80620007816000396000f3fe608060405234801561001057600080fd5b50600436106101365760003560e01c80636e69adcf116100b8578063a22cb4651161007c578063a22cb46514610260578063abc40ce414610273578063b63426b31461027b578063e985e9c514610283578063eee0d9e2146102bf578063f242432a146102c757600080fd5b80636e69adcf1461022d57806377b07f6b146102355780637d35a2571461023d5780638fcb4325146102455780639280d8ee1461024d57600080fd5b80632eb2c2d6116100ff5780632eb2c2d6146101cc57806335926b9c146101df578063403c617e146101f25780634e1273f4146101fa5780635b5d897f1461021a57600080fd5b8062fdd58e1461013b57806301ffc9a7146101615780630e89341c146101845780632014218a146101a4578063225abdbd146101b9575b600080fd5b61014e61014936600461141d565b6102da565b6040519081526020015b60405180910390f35b61017461016f366004611518565b610371565b6040519015158152602001610158565b610197610192366004611559565b6103c3565b604051610158919061178b565b6101b76101b2366004611559565b6103f7565b005b6101b76101c7366004611559565b610416565b6101b76101da3660046112d2565b610432565b6101b76101ed366004611559565b6104c9565b61014e600181565b61020d610208366004611447565b6104e5565b6040516101589190611753565b6101b7610228366004611559565b61060f565b61014e60c881565b61014e600381565b6101b761062b565b61014e600481565b6101b761025b366004611559565b610664565b6101b761026e3660046113e1565b610680565b61014e600281565b61014e600881565b61017461029136600461129f565b6001600160a01b03918216600090815260016020908152604080832093909416825291909152205460ff1690565b61019761068f565b6101b76102d536600461137c565b61071d565b60006001600160a01b03831661034b5760405162461bcd60e51b815260206004820152602b60248201527f455243313135353a2062616c616e636520717565727920666f7220746865207a60448201526a65726f206164647265737360a81b60648201526084015b60405180910390fd5b506000908152602081815260408083206001600160a01b03949094168352929052205490565b60006001600160e01b03198216636cdb3d1360e11b14806103a257506001600160e01b031982166303a24d0760e21b145b806103bd57506301ffc9a760e01b6001600160e01b03198316145b92915050565b606060036103d0836107b3565b6040516020016103e19291906115f5565b6040516020818303038152906040529050919050565b61041333600183604051806020016040528060008152506108b9565b50565b61041333600383604051806020016040528060008152506108b9565b6001600160a01b03851633148061044e575061044e8533610291565b6104b55760405162461bcd60e51b815260206004820152603260248201527f455243313135353a207472616e736665722063616c6c6572206973206e6f74206044820152711bdddb995c881b9bdc88185c1c1c9bdd995960721b6064820152608401610342565b6104c285858585856109c3565b5050505050565b61041333600883604051806020016040528060008152506108b9565b6060815183511461054a5760405162461bcd60e51b815260206004820152602960248201527f455243313135353a206163636f756e747320616e6420696473206c656e677468604482015268040dad2e6dac2e8c6d60bb1b6064820152608401610342565b6000835167ffffffffffffffff811115610566576105666119e5565b60405190808252806020026020018201604052801561058f578160200160208202803683370190505b50905060005b8451811015610607576105da8582815181106105b3576105b36119cf565b60200260200101518583815181106105cd576105cd6119cf565b60200260200101516102da565b8282815181106105ec576105ec6119cf565b602090810291909101015261060081611974565b9050610595565b509392505050565b61041333600283604051806020016040528060008152506108b9565b6106383360016002610ba0565b6106453360086001610ba0565b6106623360c86001604051806020016040528060008152506108b9565b565b61041333600483604051806020016040528060008152506108b9565b61068b338383610d1a565b5050565b6003805461069c9061190c565b80601f01602080910402602001604051908101604052809291908181526020018280546106c89061190c565b80156107155780601f106106ea57610100808354040283529160200191610715565b820191906000526020600020905b8154815290600101906020018083116106f857829003601f168201915b505050505081565b6001600160a01b03851633148061073957506107398533610291565b6107975760405162461bcd60e51b815260206004820152602960248201527f455243313135353a2063616c6c6572206973206e6f74206f776e6572206e6f7260448201526808185c1c1c9bdd995960ba1b6064820152608401610342565b6104c28585858585610dfb565b6001600160a01b03163b151590565b6060816107d75750506040805180820190915260018152600360fc1b602082015290565b8160005b811561080157806107eb81611974565b91506107fa9050600a836118b1565b91506107db565b60008167ffffffffffffffff81111561081c5761081c6119e5565b6040519080825280601f01601f191660200182016040528015610846576020820181803683370190505b5090505b84156108b15761085b6001836118c5565b9150610868600a8661198f565b610873906030611899565b60f81b818381518110610888576108886119cf565b60200101906001600160f81b031916908160001a9053506108aa600a866118b1565b945061084a565b949350505050565b6001600160a01b0384166109195760405162461bcd60e51b815260206004820152602160248201527f455243313135353a206d696e7420746f20746865207a65726f206164647265736044820152607360f81b6064820152608401610342565b336109338160008761092a88610f18565b6104c288610f18565b6000848152602081815260408083206001600160a01b038916845290915281208054859290610963908490611899565b909155505060408051858152602081018590526001600160a01b0380881692600092918516917fc3d58168c5ae7397731d063d5bbf3d657854427343f4c083240f7aacaa2d0f62910160405180910390a46104c281600087878787610f63565b8151835114610a255760405162461bcd60e51b815260206004820152602860248201527f455243313135353a2069647320616e6420616d6f756e7473206c656e677468206044820152670dad2e6dac2e8c6d60c31b6064820152608401610342565b6001600160a01b038416610a4b5760405162461bcd60e51b8152600401610342906117e6565b3360005b8451811015610b32576000858281518110610a6c57610a6c6119cf565b602002602001015190506000858381518110610a8a57610a8a6119cf565b602090810291909101810151600084815280835260408082206001600160a01b038e168352909352919091205490915081811015610ada5760405162461bcd60e51b81526004016103429061182b565b6000838152602081815260408083206001600160a01b038e8116855292528083208585039055908b16825281208054849290610b17908490611899565b9250508190555050505080610b2b90611974565b9050610a4f565b50846001600160a01b0316866001600160a01b0316826001600160a01b03167f4a39dc06d4c0dbc64b70af90fd698a233a518aa5d07e595d983b8c0526c8f7fb8787604051610b82929190611766565b60405180910390a4610b988187878787876110ce565b505050505050565b6001600160a01b038316610c025760405162461bcd60e51b815260206004820152602360248201527f455243313135353a206275726e2066726f6d20746865207a65726f206164647260448201526265737360e81b6064820152608401610342565b33610c3281856000610c1387610f18565b610c1c87610f18565b5050604080516020810190915260009052505050565b6000838152602081815260408083206001600160a01b038816845290915290205482811015610caf5760405162461bcd60e51b8152602060048201526024808201527f455243313135353a206275726e20616d6f756e7420657863656564732062616c604482015263616e636560e01b6064820152608401610342565b6000848152602081815260408083206001600160a01b03898116808652918452828520888703905582518981529384018890529092908616917fc3d58168c5ae7397731d063d5bbf3d657854427343f4c083240f7aacaa2d0f62910160405180910390a45050505050565b816001600160a01b0316836001600160a01b03161415610d8e5760405162461bcd60e51b815260206004820152602960248201527f455243313135353a2073657474696e6720617070726f76616c20737461747573604482015268103337b91039b2b63360b91b6064820152608401610342565b6001600160a01b03838116600081815260016020908152604080832094871680845294825291829020805460ff191686151590811790915591519182527f17307eab39ab6107e8899845ad3d59bd9653f200f220920489ca2b5937696c31910160405180910390a3505050565b6001600160a01b038416610e215760405162461bcd60e51b8152600401610342906117e6565b33610e3181878761092a88610f18565b6000848152602081815260408083206001600160a01b038a16845290915290205483811015610e725760405162461bcd60e51b81526004016103429061182b565b6000858152602081815260408083206001600160a01b038b8116855292528083208785039055908816825281208054869290610eaf908490611899565b909155505060408051868152602081018690526001600160a01b03808916928a821692918616917fc3d58168c5ae7397731d063d5bbf3d657854427343f4c083240f7aacaa2d0f62910160405180910390a4610f0f828888888888610f63565b50505050505050565b60408051600180825281830190925260609160009190602080830190803683370190505090508281600081518110610f5257610f526119cf565b602090810291909101015292915050565b6001600160a01b0384163b15610b985760405163f23a6e6160e01b81526001600160a01b0385169063f23a6e6190610fa7908990899088908890889060040161170e565b602060405180830381600087803b158015610fc157600080fd5b505af1925050508015610ff1575060408051601f3d908101601f19168201909252610fee9181019061153c565b60015b61109e57610ffd6119fb565b806308c379a014156110375750611012611a17565b8061101d5750611039565b8060405162461bcd60e51b8152600401610342919061178b565b505b60405162461bcd60e51b815260206004820152603460248201527f455243313135353a207472616e7366657220746f206e6f6e20455243313135356044820152732932b1b2b4bb32b91034b6b83632b6b2b73a32b960611b6064820152608401610342565b6001600160e01b0319811663f23a6e6160e01b14610f0f5760405162461bcd60e51b81526004016103429061179e565b6001600160a01b0384163b15610b985760405163bc197c8160e01b81526001600160a01b0385169063bc197c819061111290899089908890889088906004016116b0565b602060405180830381600087803b15801561112c57600080fd5b505af192505050801561115c575060408051601f3d908101601f191682019092526111599181019061153c565b60015b61116857610ffd6119fb565b6001600160e01b0319811663bc197c8160e01b14610f0f5760405162461bcd60e51b81526004016103429061179e565b80356001600160a01b03811681146111af57600080fd5b919050565b600082601f8301126111c557600080fd5b813560206111d282611875565b6040516111df8282611947565b8381528281019150858301600585901b870184018810156111ff57600080fd5b60005b8581101561121e57813584529284019290840190600101611202565b5090979650505050505050565b600082601f83011261123c57600080fd5b813567ffffffffffffffff811115611256576112566119e5565b60405161126d601f8301601f191660200182611947565b81815284602083860101111561128257600080fd5b816020850160208301376000918101602001919091529392505050565b600080604083850312156112b257600080fd5b6112bb83611198565b91506112c960208401611198565b90509250929050565b600080600080600060a086880312156112ea57600080fd5b6112f386611198565b945061130160208701611198565b9350604086013567ffffffffffffffff8082111561131e57600080fd5b61132a89838a016111b4565b9450606088013591508082111561134057600080fd5b61134c89838a016111b4565b9350608088013591508082111561136257600080fd5b5061136f8882890161122b565b9150509295509295909350565b600080600080600060a0868803121561139457600080fd5b61139d86611198565b94506113ab60208701611198565b93506040860135925060608601359150608086013567ffffffffffffffff8111156113d557600080fd5b61136f8882890161122b565b600080604083850312156113f457600080fd5b6113fd83611198565b91506020830135801515811461141257600080fd5b809150509250929050565b6000806040838503121561143057600080fd5b61143983611198565b946020939093013593505050565b6000806040838503121561145a57600080fd5b823567ffffffffffffffff8082111561147257600080fd5b818501915085601f83011261148657600080fd5b8135602061149382611875565b6040516114a08282611947565b8381528281019150858301600585901b870184018b10156114c057600080fd5b600096505b848710156114ea576114d681611198565b8352600196909601959183019183016114c5565b509650508601359250508082111561150157600080fd5b5061150e858286016111b4565b9150509250929050565b60006020828403121561152a57600080fd5b813561153581611aa1565b9392505050565b60006020828403121561154e57600080fd5b815161153581611aa1565b60006020828403121561156b57600080fd5b5035919050565b600081518084526020808501945080840160005b838110156115a257815187529582019590820190600101611586565b509495945050505050565b600081518084526115c58160208601602086016118dc565b601f01601f19169290920160200192915050565b600081516115eb8185602086016118dc565b9290920192915050565b600080845481600182811c91508083168061161157607f831692505b602080841082141561163157634e487b7160e01b86526022600452602486fd5b818015611645576001811461165657611683565b60ff19861689528489019650611683565b60008b81526020902060005b8681101561167b5781548b820152908501908301611662565b505084890196505b5050505050506116a761169682866115d9565b64173539b7b760d91b815260050190565b95945050505050565b6001600160a01b0386811682528516602082015260a0604082018190526000906116dc90830186611572565b82810360608401526116ee8186611572565b9050828103608084015261170281856115ad565b98975050505050505050565b6001600160a01b03868116825285166020820152604081018490526060810183905260a060808201819052600090611748908301846115ad565b979650505050505050565b6020815260006115356020830184611572565b6040815260006117796040830185611572565b82810360208401526116a78185611572565b60208152600061153560208301846115ad565b60208082526028908201527f455243313135353a204552433131353552656365697665722072656a656374656040820152676420746f6b656e7360c01b606082015260800190565b60208082526025908201527f455243313135353a207472616e7366657220746f20746865207a65726f206164604082015264647265737360d81b606082015260800190565b6020808252602a908201527f455243313135353a20696e73756666696369656e742062616c616e636520666f60408201526939103a3930b739b332b960b11b606082015260800190565b600067ffffffffffffffff82111561188f5761188f6119e5565b5060051b60200190565b600082198211156118ac576118ac6119a3565b500190565b6000826118c0576118c06119b9565b500490565b6000828210156118d7576118d76119a3565b500390565b60005b838110156118f75781810151838201526020016118df565b83811115611906576000848401525b50505050565b600181811c9082168061192057607f821691505b6020821081141561194157634e487b7160e01b600052602260045260246000fd5b50919050565b601f8201601f1916810167ffffffffffffffff8111828210171561196d5761196d6119e5565b6040525050565b6000600019821415611988576119886119a3565b5060010190565b60008261199e5761199e6119b9565b500690565b634e487b7160e01b600052601160045260246000fd5b634e487b7160e01b600052601260045260246000fd5b634e487b7160e01b600052603260045260246000fd5b634e487b7160e01b600052604160045260246000fd5b600060033d1115611a145760046000803e5060005160e01c5b90565b600060443d1015611a255790565b6040516003193d81016004833e81513d67ffffffffffffffff8160248401118184111715611a5557505050505090565b8285019150815181811115611a6d5750505050505090565b843d8701016020828501011115611a875750505050505090565b611a9660208286010187611947565b509095945050505050565b6001600160e01b03198116811461041357600080fdfea26469706673582212209d9edde64f975296e9e71bb03965d3c35c500c87cdf9e91a044a6e9cf3ef464864736f6c63430008070033697066733a2f2f516d634a3162516242523368556f733155614c6d3776326d46784a39796b484556357a4c4c6d595770637038424e2f",
  "linkReferences": {},
  "deployedLinkReferences": {}
}